{
  "_format": "hh-sol-artifact-1",
  "contractName": "TRKGameEngine",
  "sourceName": "contracts/TRKGameEngine.sol",
  "abi": [
    {
      "inputs": [
        {
          "internalType": "address",
          "name": "_registry",
          "type": "address"
        }
      ],
      "stateMutability": "nonpayable",
      "type": "constructor"
    },
    {
      "inputs": [
        {
          "internalType": "address",
          "name": "owner",
          "type": "address"
        }
      ],
      "name": "OwnableInvalidOwner",
      "type": "error"
    },
    {
      "inputs": [
        {
          "internalType": "address",
          "name": "account",
          "type": "address"
        }
      ],
      "name": "OwnableUnauthorizedAccount",
      "type": "error"
    },
    {
      "anonymous": false,
      "inputs": [
        {
          "indexed": true,
          "internalType": "address",
          "name": "user",
          "type": "address"
        },
        {
          "indexed": false,
          "internalType": "uint256",
          "name": "amount",
          "type": "uint256"
        },
        {
          "indexed": false,
          "internalType": "uint256",
          "name": "prediction",
          "type": "uint256"
        },
        {
          "indexed": false,
          "internalType": "bool",
          "name": "isCash",
          "type": "bool"
        },
        {
          "indexed": false,
          "internalType": "uint256",
          "name": "roundId",
          "type": "uint256"
        }
      ],
      "name": "BetPlaced",
      "type": "event"
    },
    {
      "anonymous": false,
      "inputs": [
        {
          "indexed": true,
          "internalType": "address",
          "name": "user",
          "type": "address"
        },
        {
          "indexed": false,
          "internalType": "uint256",
          "name": "amount",
          "type": "uint256"
        },
        {
          "indexed": false,
          "internalType": "bool",
          "name": "isCash",
          "type": "bool"
        },
        {
          "indexed": false,
          "internalType": "uint256",
          "name": "roundId",
          "type": "uint256"
        }
      ],
      "name": "GameWon",
      "type": "event"
    },
    {
      "anonymous": false,
      "inputs": [
        {
          "indexed": true,
          "internalType": "address",
          "name": "previousOwner",
          "type": "address"
        },
        {
          "indexed": true,
          "internalType": "address",
          "name": "newOwner",
          "type": "address"
        }
      ],
      "name": "OwnershipTransferred",
      "type": "event"
    },
    {
      "anonymous": false,
      "inputs": [
        {
          "indexed": true,
          "internalType": "uint256",
          "name": "roundId",
          "type": "uint256"
        },
        {
          "indexed": false,
          "internalType": "uint256",
          "name": "winningNumber",
          "type": "uint256"
        },
        {
          "indexed": false,
          "internalType": "bool",
          "name": "isCash",
          "type": "bool"
        }
      ],
      "name": "RoundClosed",
      "type": "event"
    },
    {
      "inputs": [
        {
          "internalType": "address",
          "name": "user",
          "type": "address"
        },
        {
          "internalType": "uint256",
          "name": "prediction",
          "type": "uint256"
        },
        {
          "internalType": "uint256",
          "name": "amount",
          "type": "uint256"
        }
      ],
      "name": "betCash",
      "outputs": [],
      "stateMutability": "nonpayable",
      "type": "function"
    },
    {
      "inputs": [
        {
          "internalType": "address",
          "name": "user",
          "type": "address"
        },
        {
          "internalType": "uint256",
          "name": "prediction",
          "type": "uint256"
        },
        {
          "internalType": "uint256",
          "name": "amount",
          "type": "uint256"
        }
      ],
      "name": "betPractice",
      "outputs": [],
      "stateMutability": "nonpayable",
      "type": "function"
    },
    {
      "inputs": [
        {
          "internalType": "uint256",
          "name": "",
          "type": "uint256"
        },
        {
          "internalType": "uint256",
          "name": "",
          "type": "uint256"
        }
      ],
      "name": "cashBetTotalsByNumber",
      "outputs": [
        {
          "internalType": "uint256",
          "name": "",
          "type": "uint256"
        }
      ],
      "stateMutability": "view",
      "type": "function"
    },
    {
      "inputs": [
        {
          "internalType": "address",
          "name": "",
          "type": "address"
        },
        {
          "internalType": "uint256",
          "name": "",
          "type": "uint256"
        },
        {
          "internalType": "uint256",
          "name": "",
          "type": "uint256"
        }
      ],
      "name": "cashBets",
      "outputs": [
        {
          "internalType": "uint256",
          "name": "amount",
          "type": "uint256"
        },
        {
          "internalType": "bool",
          "name": "claimed",
          "type": "bool"
        }
      ],
      "stateMutability": "view",
      "type": "function"
    },
    {
      "inputs": [
        {
          "internalType": "uint256",
          "name": "",
          "type": "uint256"
        },
        {
          "internalType": "uint256",
          "name": "",
          "type": "uint256"
        },
        {
          "internalType": "uint256",
          "name": "",
          "type": "uint256"
        }
      ],
      "name": "cashBettersByNumber",
      "outputs": [
        {
          "internalType": "address",
          "name": "",
          "type": "address"
        }
      ],
      "stateMutability": "view",
      "type": "function"
    },
    {
      "inputs": [],
      "name": "cashLimit",
      "outputs": [
        {
          "internalType": "uint256",
          "name": "",
          "type": "uint256"
        }
      ],
      "stateMutability": "view",
      "type": "function"
    },
    {
      "inputs": [
        {
          "internalType": "uint256",
          "name": "",
          "type": "uint256"
        },
        {
          "internalType": "uint256",
          "name": "",
          "type": "uint256"
        }
      ],
      "name": "cashRoundWinners",
      "outputs": [
        {
          "internalType": "address",
          "name": "",
          "type": "address"
        }
      ],
      "stateMutability": "view",
      "type": "function"
    },
    {
      "inputs": [
        {
          "internalType": "uint256",
          "name": "",
          "type": "uint256"
        }
      ],
      "name": "cashRounds",
      "outputs": [
        {
          "internalType": "uint256",
          "name": "roundId",
          "type": "uint256"
        },
        {
          "internalType": "uint256",
          "name": "winningNumber",
          "type": "uint256"
        },
        {
          "internalType": "bool",
          "name": "isClosed",
          "type": "bool"
        },
        {
          "internalType": "bool",
          "name": "isCash",
          "type": "bool"
        }
      ],
      "stateMutability": "view",
      "type": "function"
    },
    {
      "inputs": [],
      "name": "cashbackEngine",
      "outputs": [
        {
          "internalType": "address",
          "name": "",
          "type": "address"
        }
      ],
      "stateMutability": "view",
      "type": "function"
    },
    {
      "inputs": [
        {
          "internalType": "address",
          "name": "user",
          "type": "address"
        },
        {
          "internalType": "uint256",
          "name": "roundId",
          "type": "uint256"
        },
        {
          "internalType": "bool",
          "name": "isCashGame",
          "type": "bool"
        }
      ],
      "name": "claimWinnings",
      "outputs": [
        {
          "internalType": "uint256",
          "name": "",
          "type": "uint256"
        }
      ],
      "stateMutability": "nonpayable",
      "type": "function"
    },
    {
      "inputs": [
        {
          "internalType": "uint256",
          "name": "winningNumber",
          "type": "uint256"
        },
        {
          "internalType": "bool",
          "name": "isCashGame",
          "type": "bool"
        }
      ],
      "name": "closeRound",
      "outputs": [],
      "stateMutability": "nonpayable",
      "type": "function"
    },
    {
      "inputs": [],
      "name": "currentCashRoundId",
      "outputs": [
        {
          "internalType": "uint256",
          "name": "",
          "type": "uint256"
        }
      ],
      "stateMutability": "view",
      "type": "function"
    },
    {
      "inputs": [],
      "name": "currentPracticeRoundId",
      "outputs": [
        {
          "internalType": "uint256",
          "name": "",
          "type": "uint256"
        }
      ],
      "stateMutability": "view",
      "type": "function"
    },
    {
      "inputs": [
        {
          "internalType": "address",
          "name": "user",
          "type": "address"
        },
        {
          "internalType": "uint256",
          "name": "roundId",
          "type": "uint256"
        },
        {
          "internalType": "bool",
          "name": "isCashGame",
          "type": "bool"
        }
      ],
      "name": "getAndMarkLossBet",
      "outputs": [
        {
          "internalType": "uint256",
          "name": "",
          "type": "uint256"
        }
      ],
      "stateMutability": "nonpayable",
      "type": "function"
    },
    {
      "inputs": [
        {
          "internalType": "uint256",
          "name": "roundId",
          "type": "uint256"
        },
        {
          "internalType": "uint256",
          "name": "number",
          "type": "uint256"
        },
        {
          "internalType": "bool",
          "name": "isCash",
          "type": "bool"
        }
      ],
      "name": "getBetTotal",
      "outputs": [
        {
          "internalType": "uint256",
          "name": "",
          "type": "uint256"
        }
      ],
      "stateMutability": "view",
      "type": "function"
    },
    {
      "inputs": [
        {
          "internalType": "uint256",
          "name": "roundId",
          "type": "uint256"
        },
        {
          "internalType": "uint256",
          "name": "number",
          "type": "uint256"
        },
        {
          "internalType": "bool",
          "name": "isCash",
          "type": "bool"
        }
      ],
      "name": "getBetters",
      "outputs": [
        {
          "internalType": "address[]",
          "name": "",
          "type": "address[]"
        }
      ],
      "stateMutability": "view",
      "type": "function"
    },
    {
      "inputs": [
        {
          "internalType": "uint256",
          "name": "roundId",
          "type": "uint256"
        },
        {
          "internalType": "bool",
          "name": "isCash",
          "type": "bool"
        }
      ],
      "name": "getRoundWinners",
      "outputs": [
        {
          "internalType": "address[]",
          "name": "",
          "type": "address[]"
        }
      ],
      "stateMutability": "view",
      "type": "function"
    },
    {
      "inputs": [
        {
          "internalType": "address",
          "name": "user",
          "type": "address"
        },
        {
          "internalType": "uint256",
          "name": "roundId",
          "type": "uint256"
        },
        {
          "internalType": "bool",
          "name": "isCashGame",
          "type": "bool"
        }
      ],
      "name": "getUserRoundBets",
      "outputs": [
        {
          "internalType": "uint256[10]",
          "name": "amounts",
          "type": "uint256[10]"
        },
        {
          "internalType": "bool[10]",
          "name": "claimed",
          "type": "bool[10]"
        },
        {
          "internalType": "bool[10]",
          "name": "hasBet",
          "type": "bool[10]"
        }
      ],
      "stateMutability": "view",
      "type": "function"
    },
    {
      "inputs": [],
      "name": "owner",
      "outputs": [
        {
          "internalType": "address",
          "name": "",
          "type": "address"
        }
      ],
      "stateMutability": "view",
      "type": "function"
    },
    {
      "inputs": [
        {
          "internalType": "uint256",
          "name": "",
          "type": "uint256"
        },
        {
          "internalType": "uint256",
          "name": "",
          "type": "uint256"
        }
      ],
      "name": "practiceBetTotalsByNumber",
      "outputs": [
        {
          "internalType": "uint256",
          "name": "",
          "type": "uint256"
        }
      ],
      "stateMutability": "view",
      "type": "function"
    },
    {
      "inputs": [
        {
          "internalType": "address",
          "name": "",
          "type": "address"
        },
        {
          "internalType": "uint256",
          "name": "",
          "type": "uint256"
        },
        {
          "internalType": "uint256",
          "name": "",
          "type": "uint256"
        }
      ],
      "name": "practiceBets",
      "outputs": [
        {
          "internalType": "uint256",
          "name": "amount",
          "type": "uint256"
        },
        {
          "internalType": "bool",
          "name": "claimed",
          "type": "bool"
        }
      ],
      "stateMutability": "view",
      "type": "function"
    },
    {
      "inputs": [
        {
          "internalType": "uint256",
          "name": "",
          "type": "uint256"
        },
        {
          "internalType": "uint256",
          "name": "",
          "type": "uint256"
        },
        {
          "internalType": "uint256",
          "name": "",
          "type": "uint256"
        }
      ],
      "name": "practiceBettersByNumber",
      "outputs": [
        {
          "internalType": "address",
          "name": "",
          "type": "address"
        }
      ],
      "stateMutability": "view",
      "type": "function"
    },
    {
      "inputs": [],
      "name": "practiceLimit",
      "outputs": [
        {
          "internalType": "uint256",
          "name": "",
          "type": "uint256"
        }
      ],
      "stateMutability": "view",
      "type": "function"
    },
    {
      "inputs": [
        {
          "internalType": "uint256",
          "name": "",
          "type": "uint256"
        },
        {
          "internalType": "uint256",
          "name": "",
          "type": "uint256"
        }
      ],
      "name": "practiceRoundWinners",
      "outputs": [
        {
          "internalType": "address",
          "name": "",
          "type": "address"
        }
      ],
      "stateMutability": "view",
      "type": "function"
    },
    {
      "inputs": [
        {
          "internalType": "uint256",
          "name": "",
          "type": "uint256"
        }
      ],
      "name": "practiceRounds",
      "outputs": [
        {
          "internalType": "uint256",
          "name": "roundId",
          "type": "uint256"
        },
        {
          "internalType": "uint256",
          "name": "winningNumber",
          "type": "uint256"
        },
        {
          "internalType": "bool",
          "name": "isClosed",
          "type": "bool"
        },
        {
          "internalType": "bool",
          "name": "isCash",
          "type": "bool"
        }
      ],
      "stateMutability": "view",
      "type": "function"
    },
    {
      "inputs": [],
      "name": "registry",
      "outputs": [
        {
          "internalType": "contract ITRKRegistry",
          "name": "",
          "type": "address"
        }
      ],
      "stateMutability": "view",
      "type": "function"
    },
    {
      "inputs": [],
      "name": "renounceOwnership",
      "outputs": [],
      "stateMutability": "nonpayable",
      "type": "function"
    },
    {
      "inputs": [],
      "name": "router",
      "outputs": [
        {
          "internalType": "address",
          "name": "",
          "type": "address"
        }
      ],
      "stateMutability": "view",
      "type": "function"
    },
    {
      "inputs": [
        {
          "internalType": "address",
          "name": "_router",
          "type": "address"
        },
        {
          "internalType": "address",
          "name": "_cashbackEngine",
          "type": "address"
        }
      ],
      "name": "setAddresses",
      "outputs": [],
      "stateMutability": "nonpayable",
      "type": "function"
    },
    {
      "inputs": [
        {
          "internalType": "uint256",
          "name": "_winCashout",
          "type": "uint256"
        },
        {
          "internalType": "uint256",
          "name": "_winReinvest",
          "type": "uint256"
        },
        {
          "internalType": "uint256",
          "name": "_practiceLimit",
          "type": "uint256"
        },
        {
          "internalType": "uint256",
          "name": "_cashLimit",
          "type": "uint256"
        }
      ],
      "name": "setGameSettings",
      "outputs": [],
      "stateMutability": "nonpayable",
      "type": "function"
    },
    {
      "inputs": [
        {
          "internalType": "uint256[15]",
          "name": "_percents",
          "type": "uint256[15]"
        }
      ],
      "name": "setWinnerReferralPercents",
      "outputs": [],
      "stateMutability": "nonpayable",
      "type": "function"
    },
    {
      "inputs": [
        {
          "internalType": "address",
          "name": "newOwner",
          "type": "address"
        }
      ],
      "name": "transferOwnership",
      "outputs": [],
      "stateMutability": "nonpayable",
      "type": "function"
    },
    {
      "inputs": [],
      "name": "winCashoutMult",
      "outputs": [
        {
          "internalType": "uint256",
          "name": "",
          "type": "uint256"
        }
      ],
      "stateMutability": "view",
      "type": "function"
    },
    {
      "inputs": [],
      "name": "winReinvestMult",
      "outputs": [
        {
          "internalType": "uint256",
          "name": "",
          "type": "uint256"
        }
      ],
      "stateMutability": "view",
      "type": "function"
    },
    {
      "inputs": [
        {
          "internalType": "uint256",
          "name": "",
          "type": "uint256"
        }
      ],
      "name": "winnerReferralPercents",
      "outputs": [
        {
          "internalType": "uint256",
          "name": "",
          "type": "uint256"
        }
      ],
      "stateMutability": "view",
      "type": "function"
    }
  ],
  "bytecode": "0x6080346200024d57601f620027ec38819003918201601f19168301926001600160401b0392909190838511838610176200025257808392604096875283396020928391810103126200024d57516001600160a01b039190828116908190036200024d5733156200023557600093845460018060a01b031994338683161787553391167f8be0079c531659141344cd1fd0a4f28419497f9722a3daafe3b4186f6b6457e08780a360026004556006600555601860065560186007558551906101e082019082821090821117620002215786526101f4815260c883820152606486820152606460608201526064608082015260328060a08301528060c08301528060e08301528061010083015280610120830152806101408301528061016083015280610180830152806101a08301526101c0820152845b600f81106200020d57505060019283601755836018558354161782556200015b62000268565b9180835260ff60028385019286845281888701968888526060810195898752838a52601988528a8a2091518255518382015501955115159580549661ff009788965115158661ffff1998899260081b169316911617179055620001bd62000268565b908082528582018881528980840199808b52601a6060860199858b52858352522092518355519082015501945115159385549351151560081b169316911617179055516125639081620002898239f35b815160088201559083019060010162000135565b634e487b7160e01b86526041600452602486fd5b8451631e4fbdf760e01b815260006004820152602490fd5b600080fd5b634e487b7160e01b600052604160045260246000fd5b60405190608082016001600160401b03811183821017620002525760405256fe608080604052600436101561001357600080fd5b600090813560e01c908162fbdb1614611c6e575080631e03e65214611c505780633045e0ad14611c325780633dedc77d14611c0957806344cfd44514611bce5780634861d4e214611b70578063491f7a4414611b3e5780634b6e95cb146118a757806350877e01146118895780636558f8751461152157806367a1d3a2146114f45780636a661b65146114aa5780636b88e4651461147d578063715018a6146114235780637b103999146113fa578063804cd9f41461108d578063821c6d46146110295780638530b5f714610fdc5780638d0006e014610fbe5780638da5cb5b14610f9757806390107afe14610f3857806396a2c51514610f0b578063a0fb70dc14610ed9578063a9db4d0214610ebb578063b9947c2514610d75578063bc556b1e14610d2a578063e33b4f5414610cc6578063eac4cbb514610c56578063ec846e5014610c38578063ed138eff14610be7578063eef44e1114610b92578063f28d290c146102be578063f2fde38b1461022e578063f43404d4146101cc5763f887ea40146101a157600080fd5b346101c957806003193601126101c9576002546040516001600160a01b039091168152602090f35b80fd5b50346101c9576040906101de36611f45565b9160018060a01b03168352601c6020528383209083526020528282209082526020522060ff60018254920154169061022a60405192839283909291602090604083019483521515910152565b0390f35b50346101c95760203660031901126101c957610248611ea0565b610250612016565b6001600160a01b039081169081156102a557600054826bffffffffffffffffffffffff60a01b821617600055167f8be0079c531659141344cd1fd0a4f28419497f9722a3daafe3b4186f6b6457e0600080a380f35b604051631e4fbdf760e01b815260048101849052602490fd5b50346101c9576102cd36611eca565b916102e360018060a01b036002541633146120ae565b8215610b7f57818452601a6020526001604085205b61030860ff60028301541661245d565b01548315610b52576001600160a01b0382168552601b60209081526040808720858852825280872092875291905284205b805480151580610b43575b15610af45760018201600160ff198254161790558460001461079d57508054908561037e61037460045485612085565b9360055490612085565b61038881856123ce565b9360018060a01b036001541691823b156105885760848492836040519586948593635a7961f560e11b855260018060a01b038d166004860152602485015282604485015260648401525af1801561057d57610785575b50505460015460405163543a185d60e11b81526001600160a01b03808616600483015292949290916109609183916024918391165afa90811561077a578791610759575b50602001518692906001600160a01b03165b600f8410908180610747575b156106715760015460405163543a185d60e11b81526001600160a01b03838116600483015290939116919061096084602481865afa938415610666578b94610633575b50604084015162278d008101811161061f5762278d0001421180610609575b6105ef578a610100850151678ac7230489e800008110156105a8575b506103a0850151151590816105a0575b506104f7575b505050602001516001600160a01b0316926104ee9061249f565b955b9592610434565b1561058c5790899161271061051088600801548a612085565b0490823b156105885760405163b487127f60e01b81526001600160a01b039190911660048201526024810191909152604481018790529082908290606490829084905af1801561057d57610565575b806104d4565b61056e906120e8565b61057957873861055f565b8780fd5b6040513d84823e3d90fd5b8380fd5b634e487b7160e01b8a52603260045260248afd5b9050386104ce565b60038910156105bc57505060015b386104be565b68056bc75e2d63100000116105b657600a8089106105e8575b6103e0860151106105b6575060016105b6565b50876105d5565b5050506020015192956001600160a01b03909316926104f0565b50678ac7230489e80000610100850151106104a2565b634e487b7160e01b8c52601160045260248cfd5b6106589194506109603d6109601161065f575b6106508183612167565b8101906121ed565b9238610483565b503d610646565b6040513d8d823e3d90fd5b50506001549196909594935091506001600160a01b0316803b1561074357604051631897fbb960e21b81526001600160a01b03871660048201528415156024820152600060448201819052606482018790526084820152908290829060a490829084905af1801561057d5761072f575b505060606020947f11c221ab7c4898b90e1d7df2dec3468b83dca815a44ec15296341d526bff761e925b60408051878152951515888701528501526001600160a01b031692a2604051908152f35b61073982916120e8565b6101c957806106e1565b5080fd5b506001600160a01b0381161515610440565b61077491506109603d6109601161065f576106508183612167565b38610422565b6040513d89823e3d90fd5b61078e906120e8565b6107995785386103de565b8580fd5b60015460405163543a185d60e11b81526001600160a01b038581166004830152909116949291879190610960826024818a5afa918215610ae9576107f992612710918591610ac8575b505111610abf5760ff60085b1690612085565b94803b15610743578190608460405180948193635a7961f560e11b835260018060a01b038a1660048401528160248401528a60448401528160648401525af1801561077a57610aac575b505460015460405163543a185d60e11b81526001600160a01b03808616600483015292949290916109609183916024918391165afa90811561077a578791610a8b575b50602001518694906001600160a01b03165b600f86108080610a79575b156109cd57156109b957876127106108bf886008015488612085565b600154919004906001600160a01b0316803b156109b557604051630125bbe360e61b81526001600160a01b038516600482015260248101929092526044820189905282908290606490829084905af1801561057d576109a1575b505060015460405163543a185d60e11b81526001600160a01b039283166004820152916109609183916024918391165afa80156109965761096f918991610975575b50602001516001600160a01b03169561249f565b94610898565b61099091506109603d6109601161065f576106508183612167565b3861095b565b6040513d8a823e3d90fd5b6109aa906120e8565b610579578738610919565b8280fd5b634e487b7160e01b88526032600452602488fd5b50506001549196909594509192506001600160a01b0316803b156107435781809160a460405180948193631897fbb960e21b835260018060a01b038c16600484015260006024840152600060448401528a6064840152600060848401525af1801561057d57610a65575b505060606020947f11c221ab7c4898b90e1d7df2dec3468b83dca815a44ec15296341d526bff761e9261070b565b610a6f82916120e8565b6101c95780610a37565b506001600160a01b03821615156108a3565b610aa691506109603d6109601161065f576106508183612167565b38610886565b610ab8909691966120e8565b9438610843565b60ff60046107f2565b610ae391506109603d6109601161065f576106508183612167565b386107e6565b6040513d85823e3d90fd5b60405162461bcd60e51b815260206004820152602160248201527f4e6f2077696e6e696e6720626574206f7220616c726561647920636c61696d656044820152601960fa1b6064820152608490fd5b5060ff60018301541615610344565b6001600160a01b0382168552601c6020908152604080872085885282528087209287529190528420610339565b81845260196020526001604085206102f8565b50346101c957610ba136611efd565b92918252601f60205260408220908252602052604081209081548310156101c9576020610bce8484611f17565b905460405160039290921b1c6001600160a01b03168152f35b50346101c95760403660031901126101c957610c1f604061022a92600435610c0d611ebb565b15610c2b5781526022602052206124bf565b60405191829182611fd2565b81526021602052206124bf565b50346101c957806003193601126101c9576020600554604051908152f35b50346101c9576101e03660031901126101c957366101e4116101c9578054610c9390336001600160a01b0391821614908115610cb8575b50612042565b6004815b600f8110610ca3578280f35b60019060208335930192816008015501610c97565b905060025416331438610c8d565b50346101c95760203660031901126101c9576040906004358152601a6020522080549061022a6002600183015492015460405193849360ff808460081c16931691859260609295949195608085019685526020850152151560408401521515910152565b50346101c957610c1f604061022a92610d4236611f85565b90919015610d5f57825260208052828220908252602052206124bf565b8252601f602052828220908252602052206124bf565b50346101c957610d8436611eca565b604093929351610d938161214a565b610140918236833760405193610da88561214a565b8336863760405196610db98861214a565b84368937865b6009811115610e15575050505060405193849190915b600a8310610dfe576103c086610dfc89610df18884018a611fa8565b610280830190611fa8565bf35b600190825181526020809101920192019190610dd5565b939693610e82908415610e8a5760018060a01b03831686526020601b81526040872085885281526040872090828852528060ff6001604089205b8c610e5d82549586926124ae565b52015416610e6b838b6124ae565b90151590521515610e7c828c6124ae565b5261249f565b969396610dbf565b60018060a01b03831686526020601c81526040872085885281526040872090828852528060ff600160408920610e4f565b50346101c957806003193601126101c9576020600754604051908152f35b50346101c957610ee836611f6f565b919081526021602052604081209081548310156101c9576020610bce8484611f17565b50346101c9576040602091610f1f36611f6f565b908252601e845282822090825283522054604051908152f35b50346101c95760403660031901126101c957610f52611ea0565b6024356001600160a01b03818116929183900361058857610f71612016565b6bffffffffffffffffffffffff60a01b9116816002541617600255600354161760035580f35b50346101c957806003193601126101c957546040516001600160a01b039091168152602090f35b50346101c957806003193601126101c9576020600654604051908152f35b50346101c95760803660031901126101c957805461100e90336001600160a01b0391821614908115610cb85750612042565b60043560045560243560055560443560065560643560075580f35b50346101c95760203660031901126101c957604090600435815260196020522080549061022a6002600183015492015460405193849360ff808460081c16931691859260609295949195608085019685526020850152151560408401521515910152565b50346101c95761109c36611f45565b6002546001600160a01b039391906110b790851633146120ae565b600983116113c05783600154169360405193849163543a185d60e11b835282818616978860048301526109609485916024998a915afa9384156113b5578994611396575b5050601754926103808101511561135a576103a08101511580159061132c575b156112e85760808161113661030088940151600654116123db565b0151106112a457868852601c60209081526040808a20858b528252808a20848b5282528920805491968a93921561123057506111738682546123ce565b90555b838252601d8652604082208383528652604082206111958682546123ce565b90556001541695863b156107435760a4829182604051998a948593631897fbb960e21b85528d60048601528401528860448401528160648401528160848401525af193841561077a577f94b957532865eb7d3e939066462e42ad12109202dff0ce260d43eb264d68f41e95608095611221575b506040519384528301528560408301526060820152a280f35b61122a906120e8565b38611208565b61129f915061128660405161124481612112565b88815260018a82018781528d8852601c8c52604088208a89528c52604088208989528c52604088209251835551151591019060ff801983541691151516179055565b858452601f88526040842085855288526040842061241d565b611176565b60405162461bcd60e51b815260206004820152601d818801527f496e73756666696369656e742070726163746963652062616c616e63650000006044820152606490fd5b60405162461bcd60e51b8152602060048201526018818901527f5072616374696365206163636f756e74206578706972656400000000000000006044820152606490fd5b50604081015162278d0081018091116113475742111561111b565b634e487b7160e01b8a526011600452878afd5b60405162461bcd60e51b815260206004820152601581890152742737ba103090383930b1ba34b1b290383630bcb2b960591b6044820152606490fd5b6113ad929450803d1061065f576106508183612167565b9138806110fb565b6040513d8b823e3d90fd5b60405162461bcd60e51b815260206004820152601260248201527124b73b30b634b210383932b234b1ba34b7b760711b6044820152606490fd5b50346101c957806003193601126101c9576001546040516001600160a01b039091168152602090f35b50346101c957806003193601126101c95761143c612016565b80546001600160a01b03198116825581906001600160a01b03167f8be0079c531659141344cd1fd0a4f28419497f9722a3daafe3b4186f6b6457e08280a380f35b50346101c95760203660031901126101c957600435600f8110156107435760209060080154604051908152f35b50346101c95760406020916114be36611f85565b909190156114df578252601e8452828220908252835220545b604051908152f35b8252601d8452828220908252835220546114d7565b50346101c957604060209161150836611f6f565b908252601d845282822090825283522054604051908152f35b50346101c95760403660031901126101c95760043561153e611ebb565b6002546001600160a01b039061155790821633146120ae565b6009831161184b57811561170957601880548552602091601a835260018091868260408a20015583548852600260408920018260ff1982541617905583548852848052604088208789528552604088209060405191828782549182815201918b52878b20908b5b898282106116f45750505050826115d6910383612167565b88935b6116b4575b505061164491506002906115f2845461249f565b809455604051906116028261212e565b848252858201898152601a60408401978b895260608501978489528c525260408a209251835551908201550192511515839060ff801983541691151516179055565b51815461ff00191690151560081b61ff00161790555b6017546000198101929083116116a0576040805191825291151560208201527f3b6ec1d93ebaff91cc3874c53b09684166ac65a27c0b36d3600244ec854f962d9190a280f35b634e487b7160e01b84526011600452602484fd5b81518410156116ef576116e9839486548b52602288526116e460408c20846116dc8488612519565b51169061241d565b61249f565b936115d9565b6115de565b835486168552889794019392830192016115be565b6017805485526020916019835260018091868260408a20015583548852600260408920018260ff1982541617905583548852601f8552604088208789528552604088209060405191828782549182815201918b52878b20908b5b8982821061183657505050508261177b910383612167565b88935b611803575b50506117e99150600290611797845461249f565b809455604051906117a78261212e565b848252858201898152601960408401978b895260608501978c89528c525260408a209251835551908201550192511515839060ff801983541691151516179055565b51815461ff00191690151560081b61ff001617905561165a565b81518410156118315761182b839486548b52602188526116e460408c20846116dc8488612519565b9361177e565b611783565b83548616855288979401939283019201611763565b60405162461bcd60e51b815260206004820152601660248201527524b73b30b634b2103bb4b73734b73390373ab6b132b960511b6044820152606490fd5b50346101c957806003193601126101c9576020600454604051908152f35b50346101c9576118b636611f45565b909160018060a01b03916118cf836002541633146120ae565b600984116113c0578260015416936040519063543a185d60e11b825281858516968760048301528160246109609586935afa928315610996578893611b1f575b5050601854916103a081015115611aea5760a08161193661032087940151600754116123db565b015110611aa557858752601b60209081526040808920848a528252808920838a52825288208054899792969015611a3257506119738582546123ce565b90555b828652601e8552604086208287528552604086206119958582546123ce565b905560015416803b1561079957859060a460405180988193631897fbb960e21b83528b6004840152600160248401528860448401528160648401528160848401525af193841561077a577f94b957532865eb7d3e939066462e42ad12109202dff0ce260d43eb264d68f41e95608095611a23575b50604051938452830152600160408301526060820152a280f35b611a2c906120e8565b38611a09565b611aa09150611a88604051611a4681612112565b87815260018982018b81528c8c52601b8b5260408c20898d528b5260408c20888d528b5260408c209251835551151591019060ff801983541691151516179055565b8488528680526040882084895287526040882061241d565b611976565b60405162461bcd60e51b815260206004820152601e60248201527f496e73756666696369656e7420636173682067616d652062616c616e636500006044820152606490fd5b60405162461bcd60e51b815260206004820152600d60248201526c139bdd081858dd1a5d985d1959609a1b6044820152606490fd5b611b36929350803d1061065f576106508183612167565b90388061190f565b50346101c957611b4d36611f6f565b919081526022602052604081209081548310156101c9576020610bce8484611f17565b50346101c957604090611b8236611f45565b9160018060a01b03168352601b6020528383209083526020528282209082526020522060ff60018254920154169061022a60405192839283909291602090604083019483521515910152565b50346101c957611bdd36611efd565b929182526020805260408220908252602052604081209081548310156101c9576020610bce8484611f17565b50346101c957806003193601126101c9576003546040516001600160a01b039091168152602090f35b50346101c957806003193601126101c9576020601854604051908152f35b50346101c957806003193601126101c9576020601754604051908152f35b90503461074357611c7e36611eca565b60035491939092916001600160a01b03919082163303611e6757508215611e5557838552601a60205260408520935b60ff90611cbf8260028801541661245d565b86958792885b6009811115611d9b575050505015611d45578491816001541690813b15610588578360a4926040519687958694631897fbb960e21b865216600485015215156024840152816044840152816064840152600160848401525af18015610ae95760209350611d36575b50604051908152f35b611d3f906120e8565b38611d2d565b60405162461bcd60e51b815260206004820152602860248201527f4e6f20756e636c61696d6564206c6f7373657320666f756e6420666f722074686044820152671a5cc81c9bdd5b9960c21b6064820152608490fd5b6001808401548214611e4b578815611e25578688168b526020601b815260408c20868d52815260408c2090838d525260408b205b80549081151580611e18575b611df1575b505050611dec9061249f565b611cc5565b611dec9397509a82611e0e939c018c60ff198254161790556123ce565b9894903880611de0565b5084838201541615611ddb565b8688168b526020601c815260408c20868d52815260408c2090838d525260408b20611dcf565b50611dec9061249f565b83855260196020526040852093611cad565b62461bcd60e51b81526020600482015260146024820152734f6e6c7920636173686261636b20656e67696e6560601b6044820152606490fd5b600435906001600160a01b0382168203611eb657565b600080fd5b602435908115158203611eb657565b6060906003190112611eb6576004356001600160a01b0381168103611eb65790602435906044358015158103611eb65790565b6060906003190112611eb657600435906024359060443590565b8054821015611f2f5760005260206000200190600090565b634e487b7160e01b600052603260045260246000fd5b6060906003190112611eb6576004356001600160a01b0381168103611eb657906024359060443590565b6040906003190112611eb6576004359060243590565b6060906003190112611eb65760043590602435906044358015158103611eb65790565b6000915b600a8310611fb957505050565b6001908251151581526020809101920192019190611fac565b6020908160408183019282815285518094520193019160005b828110611ff9575050505090565b83516001600160a01b031685529381019392810192600101611feb565b6000546001600160a01b0316330361202a57565b60405163118cdaa760e01b8152336004820152602490fd5b1561204957565b60405162461bcd60e51b815260206004820152601460248201527327b7363c9037bbb732b91037b9103937baba32b960611b6044820152606490fd5b8181029291811591840414171561209857565b634e487b7160e01b600052601160045260246000fd5b156120b557565b60405162461bcd60e51b815260206004820152600b60248201526a27b7363c903937baba32b960a91b6044820152606490fd5b67ffffffffffffffff81116120fc57604052565b634e487b7160e01b600052604160045260246000fd5b6040810190811067ffffffffffffffff8211176120fc57604052565b6080810190811067ffffffffffffffff8211176120fc57604052565b610140810190811067ffffffffffffffff8211176120fc57604052565b90601f8019910116810190811067ffffffffffffffff8211176120fc57604052565b9080601f83011215611eb657604051916101e09081840184811067ffffffffffffffff8211176120fc5760405283918101928311611eb657905b8282106121d05750505090565b81518152602091820191016121c3565b51908115158203611eb657565b9061096082820312611eb65760405191610420830183811067ffffffffffffffff8211176120fc57604052805183526020810151906001600160a01b0382168203611eb65761094091602085015260408101516040850152606081015160608501526080810151608085015260a081015160a085015260c081015160c085015260e081015160e0850152610100808201519085015261012080820151908501526101408082015190850152610160808201519085015261018080820151908501526101a080820151908501526101c080820151908501526101e0808201519085015261020080820151908501526102206122e984828401612189565b908501526123106104009361230081868501612189565b6102408701526105e08301612189565b6102608501526107c08101516102808501526107e08101516102a08501526108008101516102c08501526108208101516102e08501526108408101516103008501526108608101516103208501526108808101516103408501526123776108a082016121e0565b61036085015261238a6108c082016121e0565b61038085015261239d6108e082016121e0565b6103a08501526109008101516103c08501526109208101516103e085015201519060ff82168203611eb65782015290565b9190820180921161209857565b156123e257565b60405162461bcd60e51b815260206004820152601360248201527211185a5b1e481b1a5b5a5d081c995858da1959606a1b6044820152606490fd5b8054680100000000000000008110156120fc5761243f91600182018155611f17565b819291549060031b9160018060a01b03809116831b921b1916179055565b1561246457565b60405162461bcd60e51b81526020600482015260136024820152722937bab7321034b99039ba34b6361037b832b760691b6044820152606490fd5b60001981146120985760010190565b90600a811015611f2f5760051b0190565b9060405191828154918282526020928383019160005283600020936000905b8282106124f6575050506124f492500383612167565b565b85546001600160a01b0316845260019586019588955093810193909101906124de565b8051821015611f2f5760209160051b01019056fea264697066735822122055e26f0a61ed62dd11748944597e00bcdc2e94d72482378e834230c83d1ccf0864736f6c63430008140033",
  "linkReferences": {},
  "deployedLinkReferences": {}
}