{
  "_format": "hh-sol-artifact-1",
  "contractName": "TRKLuckyDraw",
  "sourceName": "contracts/TRKLuckyDraw.sol",
  "abi": [
    {
      "inputs": [
        {
          "internalType": "address",
          "name": "_usdtToken",
          "type": "address"
        },
        {
          "internalType": "address",
          "name": "_registry",
          "type": "address"
        }
      ],
      "stateMutability": "nonpayable",
      "type": "constructor"
    },
    {
      "inputs": [
        {
          "internalType": "address",
          "name": "owner",
          "type": "address"
        }
      ],
      "name": "OwnableInvalidOwner",
      "type": "error"
    },
    {
      "inputs": [
        {
          "internalType": "address",
          "name": "account",
          "type": "address"
        }
      ],
      "name": "OwnableUnauthorizedAccount",
      "type": "error"
    },
    {
      "anonymous": false,
      "inputs": [
        {
          "indexed": true,
          "internalType": "uint256",
          "name": "drawId",
          "type": "uint256"
        },
        {
          "indexed": false,
          "internalType": "uint8",
          "name": "drawType",
          "type": "uint8"
        },
        {
          "indexed": false,
          "internalType": "address",
          "name": "jackpotWinner",
          "type": "address"
        }
      ],
      "name": "DrawExecuted",
      "type": "event"
    },
    {
      "anonymous": false,
      "inputs": [
        {
          "indexed": true,
          "internalType": "address",
          "name": "previousOwner",
          "type": "address"
        },
        {
          "indexed": true,
          "internalType": "address",
          "name": "newOwner",
          "type": "address"
        }
      ],
      "name": "OwnershipTransferred",
      "type": "event"
    },
    {
      "anonymous": false,
      "inputs": [
        {
          "indexed": true,
          "internalType": "address",
          "name": "user",
          "type": "address"
        },
        {
          "indexed": false,
          "internalType": "uint256",
          "name": "count",
          "type": "uint256"
        },
        {
          "indexed": false,
          "internalType": "uint256",
          "name": "drawId",
          "type": "uint256"
        },
        {
          "indexed": false,
          "internalType": "uint8",
          "name": "drawType",
          "type": "uint8"
        }
      ],
      "name": "TicketsBought",
      "type": "event"
    },
    {
      "inputs": [],
      "name": "MAX_TICKETS",
      "outputs": [
        {
          "internalType": "uint256",
          "name": "",
          "type": "uint256"
        }
      ],
      "stateMutability": "view",
      "type": "function"
    },
    {
      "inputs": [
        {
          "internalType": "address",
          "name": "user",
          "type": "address"
        },
        {
          "internalType": "uint256",
          "name": "count",
          "type": "uint256"
        },
        {
          "internalType": "uint8",
          "name": "drawType",
          "type": "uint8"
        }
      ],
      "name": "buyTicket",
      "outputs": [],
      "stateMutability": "nonpayable",
      "type": "function"
    },
    {
      "inputs": [
        {
          "internalType": "address",
          "name": "user",
          "type": "address"
        },
        {
          "internalType": "uint256",
          "name": "count",
          "type": "uint256"
        },
        {
          "internalType": "uint8",
          "name": "drawType",
          "type": "uint8"
        }
      ],
      "name": "buyTicketVirtual",
      "outputs": [],
      "stateMutability": "nonpayable",
      "type": "function"
    },
    {
      "inputs": [],
      "name": "cashbackEngine",
      "outputs": [
        {
          "internalType": "address",
          "name": "",
          "type": "address"
        }
      ],
      "stateMutability": "view",
      "type": "function"
    },
    {
      "inputs": [
        {
          "internalType": "uint8",
          "name": "drawType",
          "type": "uint8"
        }
      ],
      "name": "currentDrawId",
      "outputs": [
        {
          "internalType": "uint256",
          "name": "",
          "type": "uint256"
        }
      ],
      "stateMutability": "view",
      "type": "function"
    },
    {
      "inputs": [
        {
          "internalType": "address[]",
          "name": "winners",
          "type": "address[]"
        },
        {
          "internalType": "uint256[]",
          "name": "amounts",
          "type": "uint256[]"
        }
      ],
      "name": "executeLuckyDraw",
      "outputs": [],
      "stateMutability": "nonpayable",
      "type": "function"
    },
    {
      "inputs": [
        {
          "internalType": "uint8",
          "name": "drawType",
          "type": "uint8"
        }
      ],
      "name": "forceExecuteDraw",
      "outputs": [],
      "stateMutability": "nonpayable",
      "type": "function"
    },
    {
      "inputs": [
        {
          "internalType": "uint8",
          "name": "drawType",
          "type": "uint8"
        }
      ],
      "name": "getManualWinners",
      "outputs": [
        {
          "internalType": "address[]",
          "name": "",
          "type": "address[]"
        }
      ],
      "stateMutability": "view",
      "type": "function"
    },
    {
      "inputs": [
        {
          "internalType": "uint256",
          "name": "",
          "type": "uint256"
        }
      ],
      "name": "goldenPrizes",
      "outputs": [
        {
          "internalType": "uint256",
          "name": "",
          "type": "uint256"
        }
      ],
      "stateMutability": "view",
      "type": "function"
    },
    {
      "inputs": [],
      "name": "goldenTicketPrice",
      "outputs": [
        {
          "internalType": "uint256",
          "name": "",
          "type": "uint256"
        }
      ],
      "stateMutability": "view",
      "type": "function"
    },
    {
      "inputs": [
        {
          "internalType": "uint8",
          "name": "",
          "type": "uint8"
        },
        {
          "internalType": "uint256",
          "name": "",
          "type": "uint256"
        }
      ],
      "name": "manualWinners",
      "outputs": [
        {
          "internalType": "address",
          "name": "",
          "type": "address"
        }
      ],
      "stateMutability": "view",
      "type": "function"
    },
    {
      "inputs": [],
      "name": "maxTickets",
      "outputs": [
        {
          "internalType": "uint256",
          "name": "",
          "type": "uint256"
        }
      ],
      "stateMutability": "view",
      "type": "function"
    },
    {
      "inputs": [],
      "name": "owner",
      "outputs": [
        {
          "internalType": "address",
          "name": "",
          "type": "address"
        }
      ],
      "stateMutability": "view",
      "type": "function"
    },
    {
      "inputs": [],
      "name": "registry",
      "outputs": [
        {
          "internalType": "contract ITRKRegistry",
          "name": "",
          "type": "address"
        }
      ],
      "stateMutability": "view",
      "type": "function"
    },
    {
      "inputs": [],
      "name": "renounceOwnership",
      "outputs": [],
      "stateMutability": "nonpayable",
      "type": "function"
    },
    {
      "inputs": [],
      "name": "router",
      "outputs": [
        {
          "internalType": "address",
          "name": "",
          "type": "address"
        }
      ],
      "stateMutability": "view",
      "type": "function"
    },
    {
      "inputs": [
        {
          "internalType": "address",
          "name": "_router",
          "type": "address"
        },
        {
          "internalType": "address",
          "name": "_cashbackEngine",
          "type": "address"
        },
        {
          "internalType": "address",
          "name": "_treasury",
          "type": "address"
        }
      ],
      "name": "setAddresses",
      "outputs": [],
      "stateMutability": "nonpayable",
      "type": "function"
    },
    {
      "inputs": [
        {
          "internalType": "uint256",
          "name": "_maxTickets",
          "type": "uint256"
        },
        {
          "internalType": "uint256",
          "name": "_goldenPrice",
          "type": "uint256"
        },
        {
          "internalType": "uint256",
          "name": "_silverPrice",
          "type": "uint256"
        }
      ],
      "name": "setLuckyDrawSettings",
      "outputs": [],
      "stateMutability": "nonpayable",
      "type": "function"
    },
    {
      "inputs": [
        {
          "internalType": "uint8",
          "name": "drawType",
          "type": "uint8"
        },
        {
          "internalType": "address[]",
          "name": "_winners",
          "type": "address[]"
        }
      ],
      "name": "setManualWinners",
      "outputs": [],
      "stateMutability": "nonpayable",
      "type": "function"
    },
    {
      "inputs": [
        {
          "internalType": "uint256[8]",
          "name": "_golden",
          "type": "uint256[8]"
        },
        {
          "internalType": "uint256[8]",
          "name": "_silver",
          "type": "uint256[8]"
        },
        {
          "internalType": "uint256[8]",
          "name": "_counts",
          "type": "uint256[8]"
        }
      ],
      "name": "setPrizes",
      "outputs": [],
      "stateMutability": "nonpayable",
      "type": "function"
    },
    {
      "inputs": [
        {
          "internalType": "uint256",
          "name": "",
          "type": "uint256"
        }
      ],
      "name": "silverPrizes",
      "outputs": [
        {
          "internalType": "uint256",
          "name": "",
          "type": "uint256"
        }
      ],
      "stateMutability": "view",
      "type": "function"
    },
    {
      "inputs": [],
      "name": "silverTicketPrice",
      "outputs": [
        {
          "internalType": "uint256",
          "name": "",
          "type": "uint256"
        }
      ],
      "stateMutability": "view",
      "type": "function"
    },
    {
      "inputs": [
        {
          "internalType": "uint8",
          "name": "",
          "type": "uint8"
        },
        {
          "internalType": "uint256",
          "name": "",
          "type": "uint256"
        },
        {
          "internalType": "uint256",
          "name": "",
          "type": "uint256"
        }
      ],
      "name": "tickets",
      "outputs": [
        {
          "internalType": "address",
          "name": "",
          "type": "address"
        }
      ],
      "stateMutability": "view",
      "type": "function"
    },
    {
      "inputs": [
        {
          "internalType": "uint8",
          "name": "drawType",
          "type": "uint8"
        }
      ],
      "name": "ticketsSoldCurrentDraw",
      "outputs": [
        {
          "internalType": "uint256",
          "name": "",
          "type": "uint256"
        }
      ],
      "stateMutability": "view",
      "type": "function"
    },
    {
      "inputs": [
        {
          "internalType": "address",
          "name": "newOwner",
          "type": "address"
        }
      ],
      "name": "transferOwnership",
      "outputs": [],
      "stateMutability": "nonpayable",
      "type": "function"
    },
    {
      "inputs": [],
      "name": "treasury",
      "outputs": [
        {
          "internalType": "contract ITRKTreasury",
          "name": "",
          "type": "address"
        }
      ],
      "stateMutability": "view",
      "type": "function"
    },
    {
      "inputs": [],
      "name": "usdtToken",
      "outputs": [
        {
          "internalType": "contract IERC20",
          "name": "",
          "type": "address"
        }
      ],
      "stateMutability": "view",
      "type": "function"
    },
    {
      "inputs": [
        {
          "internalType": "uint8",
          "name": "",
          "type": "uint8"
        },
        {
          "internalType": "address",
          "name": "",
          "type": "address"
        }
      ],
      "name": "userTicketCount",
      "outputs": [
        {
          "internalType": "uint256",
          "name": "",
          "type": "uint256"
        }
      ],
      "stateMutability": "view",
      "type": "function"
    },
    {
      "inputs": [
        {
          "internalType": "uint256",
          "name": "",
          "type": "uint256"
        }
      ],
      "name": "winnerCounts",
      "outputs": [
        {
          "internalType": "uint256",
          "name": "",
          "type": "uint256"
        }
      ],
      "stateMutability": "view",
      "type": "function"
    }
  ],
  "bytecode": "0x608034620002bd5762001bd790601f38839003908101601f19168201906001600160401b03821183831017620002c25780839160409586948552833981010312620002bd576200004f81620002f9565b906200005f6020809201620002f9565b903315620002a55760008054336001600160a01b03198083168217845587969487949390926001600160a01b039182167f8be0079c531659141344cd1fd0a4f28419497f9722a3daafe3b4186f6b6457e08680a3612710600655678ac7230489e80000600755600896670de0b6b3a76400008855620000dd620002d8565b69021e19e0c9bab2400000815269010f0cf064dd592000008582015268d8d726b7177a80000087820152683635c9adc5dea0000090816060820152681043561a8829300000608082015268068155a43676e0000060a082015268022b1c8c1227a0000060c08201526801158e460913d0000060e0820152865b8a81106200028e5750506200016a620002d8565b908152681b1ae4d6e2ef500000858201526815af1d78b58c4000008782015268056bc75e2d6310000060608201526801a055690d9db80000608082015267a688906bd8b0000060a0820152673782dace9d90000060c0820152671bc16d674ec8000060e0820152855b89811062000277575050620001e7620002d8565b97600198898152898682015289888201526007606082015260286080820152603260a082015261019060c08201526101f460e082015289875b8381106200026057505050508160219596971683895416178855169060025416176002558280525282828220558281522055516118c890816200030f8239f35b825160198201558c9950918701918b910162000220565b815160118201558a975090850190600101620001d3565b815160098201558b98509086019060010162000156565b8351631e4fbdf760e01b815260006004820152602490fd5b600080fd5b634e487b7160e01b600052604160045260246000fd5b6040519061010082016001600160401b03811183821017620002c257604052565b51906001600160a01b0382168203620002bd5756fe608060408181526004918236101561001657600080fd5b600092833560e01c918263195b5a9614610c16575081631a34d9db14610bc65781632779c99714610b295781632889344614610afd578163363bf96414610a8f5781633dedc77d14610a665781635382f3b1146109f057816361d027b3146109c75781636cb4effe1461097c578163715018a61461092257816377bb921b146108f65781637b103999146108cd5781638da5cb5b146108a55781639b894703146108865781639f91375914610760578163a98ad46c14610737578163b91cc4a61461066f578163c9365eff1461061c578163cb9bdf7a146105eb578163d2bd54f0146105ba578163d7dffe91146103e4578163d887c41114610397578163e62752771461033f578163e9e34b8c14610313578163f028e447146102f4578163f2e2589814610238578163f2fde38b146101b1578163f887ea4014610185575063fca846dc1461016457600080fd5b346101815781600319360112610181576020906006549051908152f35b5080fd5b9050346101ad57826003193601126101ad575490516001600160a01b03909116815260209150f35b8280fd5b9050346101ad5760203660031901126101ad576101cc610c47565b906101d5610d06565b6001600160a01b0391821692831561022257505082546001600160a01b0319811683178455167f8be0079c531659141344cd1fd0a4f28419497f9722a3daafe3b4186f6b6457e08380a380f35b51631e4fbdf760e01b8152908101849052602490fd5b8284346102f157602090816003193601126102f157829060ff610259610c32565b16815260258352818120908251808584549182815201908194845286842090845b8181106102d45750505081610290910382610e8e565b83519485948186019282875251809352850193925b8281106102b457505050500390f35b83516001600160a01b0316855286955093810193928101926001016102a5565b82546001600160a01b03168452928801926001928301920161027a565b80fd5b5050346101815781600319360112610181576020906007549051908152f35b9050346101ad5760203660031901126101ad573560088110156101ad5760209250600901549051908152f35b505034610181578060031936011261018157610359610c32565b60ff1682526025602052808220805460243593908410156102f1575060209261038191610cd8565b905491519160018060a01b039160031b1c168152f35b839034610181576103cf6103d4916103ae36610c73565b925492939092336001600160a01b03918216149081156103d7575b50610d32565b610ee4565b80f35b90508654163314876103c9565b9050346101ad57816003193601126101ad5767ffffffffffffffff9181358381116105b6576104169036908401610ca7565b9060249485359081116105b2576104309036908601610ca7565b909261043a610d06565b81810361057c579087939291845b818110610453578580f35b600280546001600160a01b039190821661047661047185878a611882565b61186e565b61048185888b611882565b3591803b156105785760848b928f8f95938f9486928a96519889978896635a7961f560e11b885216908601528401528160448401528160648401525af1801561056e5761055f575b5054166104da610471838588611882565b6104e5838689611882565b35823b1561055b57895163f3e25f5160e01b81526001600160a01b03909216828c0190815260208101919091529091889183919082908490829060400103925af18015610551579061053d9291610542575b50610ec8565b610448565b61054b90610e48565b38610537565b88513d89823e3d90fd5b8880fd5b61056890610e48565b386104c9565b8a513d8b823e3d90fd5b8a80fd5b845162461bcd60e51b8152602081880152601181890152704d69736d6174636865642061727261797360781b6044820152606490fd5b8680fd5b8480fd5b505034610181576020366003190112610181578060209260ff6105db610c32565b1681526022845220549051908152f35b505034610181576020366003190112610181578060209260ff61060c610c32565b1681526021845220549051908152f35b83903461018157606036600319011261018157805461064f90336001600160a01b03918216149081156106625750610d32565b3560065560243560075560443560085580f35b90508354163314846103c9565b83903461018157610300366003190112610181576101043681116101ad57610204913683116107335736610304116107335780546106c190336001600160a01b03918216149081156107265750610d32565b835b60088110610711575050825b600881106106fc575050815b600881106106e7578280f35b600190602083359301928160190155016106db565b600190602083359301928160110155016106cf565b600190602083359301928160090155016106c3565b90508554163314866103c9565b8380fd5b50503461018157816003193601126101815760015490516001600160a01b039091168152602090f35b919050346101ad57806003193601126101ad5761077b610c32565b6024359167ffffffffffffffff918284116108825761079f60ff9436908701610ca7565b9490916107aa610d06565b16946001956107bb87821115610daf565b6032861161084e57875260209260258452872093851161083b5768010000000000000000851161083b57508254848455808510610821575b5091855280852090855b848110610808578680f35b8590826108148661186e565b95019481850155016107fd565b838752828720610835918101908601610d98565b386107f3565b634e487b7160e01b875260419052602486fd5b835162461bcd60e51b8152602081840152600e60248201526d4d617820353020726573756c747360901b6044820152606490fd5b8580fd5b5050346101815781600319360112610181576020906006549051908152f35b505034610181578160031936011261018157905490516001600160a01b039091168152602090f35b50503461018157816003193601126101815760025490516001600160a01b039091168152602090f35b9050346101ad5760203660031901126101ad573560088110156101ad5760209250601101549051908152f35b83346102f157806003193601126102f15761093b610d06565b80546001600160a01b03198116825581906001600160a01b03167f8be0079c531659141344cd1fd0a4f28419497f9722a3daafe3b4186f6b6457e08280a380f35b5050346101815780600319360112610181578060209261099a610c32565b60ff6109a4610c5d565b91168252602485528282206001600160a01b039091168252845220549051908152f35b50503461018157816003193601126101815760035490516001600160a01b039091168152602090f35b83903461018157610a356103d491610a0736610c73565b925492939092336001600160a01b0391821614908115610a57575b8115610a48575b8115610a3a5750610d32565b6111cb565b9050600554163314876103c9565b80915060035416331490610a29565b80915060025416331490610a22565b50503461018157816003193601126101815760055490516001600160a01b039091168152602090f35b83903461018157606036600319011261018157610aaa610c47565b610ab2610c5d565b6044356001600160a01b038181169490929185900361088257610ad3610d06565b826001600160601b0360a01b94168482541617905516816005541617600555600354161760035580f35b9050346101ad5760203660031901126101ad573560088110156101ad5760209250601901549051908152f35b9050346101ad5760203660031901126101ad57610b44610c32565b91610b6260018060a01b03808654163314908115610bb95750610d32565b60ff8316845260226020528084205415610b8057836103d4846113d5565b906020606492519162461bcd60e51b83528201526013602482015272139bc81d1a58dad95d1cc81cdbdb19081e595d606a1b6044820152fd5b90508354163314386103c9565b5050346101815760603660031901126101815760209160ff610be6610c32565b1681526023835281812060243582528352818120604435825283528190205490516001600160a01b039091168152f35b8490346101815781600319360112610181576020906008548152f35b6004359060ff82168203610c4257565b600080fd5b600435906001600160a01b0382168203610c4257565b602435906001600160a01b0382168203610c4257565b6060906003190112610c42576004356001600160a01b0381168103610c4257906024359060443560ff81168103610c425790565b9181601f84011215610c425782359167ffffffffffffffff8311610c42576020808501948460051b010111610c4257565b8054821015610cf05760005260206000200190600090565b634e487b7160e01b600052603260045260246000fd5b6000546001600160a01b03163303610d1a57565b60405163118cdaa760e01b8152336004820152602490fd5b15610d3957565b60405162461bcd60e51b815260206004820152600e60248201526d139bdd08185d5d1a1bdc9a5e995960921b6044820152606490fd5b81810292918115918404141715610d8257565b634e487b7160e01b600052601160045260246000fd5b818110610da3575050565b60008155600101610d98565b15610db657565b60405162461bcd60e51b8152602060048201526011602482015270496e76616c69642064726177207479706560781b6044820152606490fd5b15610df657565b60405162461bcd60e51b815260206004820152601a60248201527f4d75737420627579206174206c656173742031207469636b65740000000000006044820152606490fd5b91908203918211610d8257565b67ffffffffffffffff8111610e5c57604052565b634e487b7160e01b600052604160045260246000fd5b6060810190811067ffffffffffffffff821117610e5c57604052565b90601f8019910116810190811067ffffffffffffffff821117610e5c57604052565b90816020910312610c4257518015158103610c425790565b6000198114610d825760010190565b91908201809211610d8257565b9060ff831691610ef76001841115610daf565b600091610f05811515610def565b60065493808452602292602092848452610f256040978888205490610e3b565b9081156111c057818111156111b957505b600183036111ae57610f4b6007545b82610d6f565b60015488516323b872dd60e01b81526001600160a01b03948516600482018190523060248301526044820184905294918790829060649082908d9087165af190811561056e578991611191575b5015611156576001546003548a5163a9059cbb60e01b81529083166001600160a01b031660048201526024810184905290879082908416818c816044810103925af1801561056e57611129575b506003541690813b1561112557885163d56b43b160e01b8152600481019190915260ff8a1660248201529087908290604490829084905af1801561055157611112575b50855b8181106110b357507f079cf6f4b041b16faa297f4f7ef085e865ec4551be3a9e840669515b238c3c26908387526024855287872083600052855287600020611074828254610ed7565b905583875260218552878720548851918252602082015260ff89166040820152606090a28352522054600654146110a85750565b6110b1906113d5565b565b61110d90848852602386528888206021875289892054895286528888208589528787528989205489528652888820846001600160601b0360a01b8254161790558488528686528888206111068154610ec8565b9055610ec8565b61102b565b61111e90969196610e48565b9438611028565b8780fd5b61114890873d891161114f575b6111408183610e8e565b810190610eb0565b5038610fe5565b503d611136565b885162461bcd60e51b81526004810187905260146024820152731554d115081d1c985b9cd9995c8819985a5b195960621b6044820152606490fd5b6111a89150873d891161114f576111408183610e8e565b38610f98565b610f4b600854610f45565b9050610f36565b505050505050505050565b9060ff8316916111de6001841115610daf565b6000916111ec811515610def565b6006549380845260229260209284845261120c6040978888205490610e3b565b9081156111c057818111156113ae57505b600183036113a35761123160075482610d6f565b6002546001600160a01b0391908216803b1561055b5789516303fb078960e11b81526001600160a01b0386166004820152602481018390529089908290604490829084905af1801561056e57611390575b50816003541690813b1561055b57895163d56b43b160e01b8152600481019190915260ff8b1660248201529088908290604490829084905af1801561138657908891611372575b505b8281106113185750907f079cf6f4b041b16faa297f4f7ef085e865ec4551be3a9e840669515b238c3c26918488526024865288882093169283600052855287600020611074828254610ed7565b61136d9085895260238752898920602188528a8a20548a528752898920868a528888528a8a20548a5287528989208386166001600160601b0360a01b8254161790558589528787528989206111068154610ec8565b6112cb565b61137b90610e48565b6105b25786386112c9565b89513d8a823e3d90fd5b61139c90989198610e48565b9638611282565b611231600854610f45565b905061121d565b81156113bf570690565b634e487b7160e01b600052601260045260246000fd5b9060ff8216600052602260205260408060002054801561186857602160205281600020549082516020810190428252448582015283606082015260ff60f81b8760f81b1660808201526061815260a0810181811067ffffffffffffffff821117610e5c5785525190206000916103e880821015611862575080925b60009360005b60088110611689575b50505060ff87166000526025602052846000208054600082558061166d575b50506003546001600160a01b03939084169081151580611664575b611546575b505084879360ff95936115087feac218b617e28a37d2cf11f889c693335736162f363fe6d41f92dbd9b9093ee8948860009b9c168b526023602052848b20878c52602052848b20928551602081019182528c8782015286815261150081610e72565b5190206113b5565b8952602052818820541681519086861682526020820152a2818116845260216020528284206115378154610ec8565b90551682526022602052812055565b8651633bd8b07d60e11b815260ff8a16600482015290602082602481865afa91821561165957600092611625575b508181111561161d5750905b811561149e57803b15610c425786516336bc672160e11b8152600481019290925260ff891660248301526000908290604490829084905af18015611612579360ff95936115087feac218b617e28a37d2cf11f889c693335736162f363fe6d41f92dbd9b9093ee894899460009b9c98611603575b5094505093955093979661149e565b61160c90610e48565b386115f4565b86513d6000823e3d90fd5b905090611580565b9091506020813d602011611651575b8161164160209383610e8e565b81010312610c4257519038611574565b3d9150611634565b88513d6000823e3d90fd5b50801515611499565b61168291600052602060002090810190610d98565b388061147e565b8183101561185d578060190154826116a18286610ed7565b1161184d575b6000905b8082106116c25750506116bd90610ec8565b611456565b90938b8a60006032841080611834575b611801575b6001600160a01b0392898b838616156117ad575b5050909150828216611713575b50505061170761170d91610ec8565b94610ec8565b906116ab565b9299919260ff166117a2578460090154925b60025416803b15610c42578c5163f3e25f5160e01b81526001600160a01b03929092166004830152602482018490526000908290604490829084905af180156117975792611707926117809261170d95611788575b50610ed7565b98918d6116f8565b61179190610e48565b3861177a565b8c513d6000823e3d90fd5b846011015492611725565b60ff9350846117d093955190602082019283528881830152815261150081610e72565b911660005260236020528b6000208b6000526020528b60002090600052602052808b60002054168b908e898b6116eb565b505060ff1660005260256020528b8a61181d8382600020610cd8565b905460039190911b1c6001600160a01b03166116d7565b5060ff83166000526025602052816000205484106116d2565b506118588383610e3b565b6116a7565b61145f565b92611450565b50509050565b356001600160a01b0381168103610c425790565b9190811015610cf05760051b019056fea264697066735822122096b8c0d741c214335d8ac54bc872e4f077c8da85235507e7aaeae6ce72b8033d64736f6c63430008140033",
  "linkReferences": {},
  "deployedLinkReferences": {}
}