{
  "_format": "hh-sol-artifact-1",
  "contractName": "TRKRouter",
  "sourceName": "contracts/TRKRouter.sol",
  "abi": [
    {
      "inputs": [
        {
          "internalType": "address",
          "name": "_registry",
          "type": "address"
        },
        {
          "internalType": "address",
          "name": "_treasury",
          "type": "address"
        },
        {
          "internalType": "address",
          "name": "_game",
          "type": "address"
        },
        {
          "internalType": "address",
          "name": "_cashback",
          "type": "address"
        },
        {
          "internalType": "address",
          "name": "_lucky",
          "type": "address"
        }
      ],
      "stateMutability": "nonpayable",
      "type": "constructor"
    },
    {
      "inputs": [
        {
          "internalType": "address",
          "name": "owner",
          "type": "address"
        }
      ],
      "name": "OwnableInvalidOwner",
      "type": "error"
    },
    {
      "inputs": [
        {
          "internalType": "address",
          "name": "account",
          "type": "address"
        }
      ],
      "name": "OwnableUnauthorizedAccount",
      "type": "error"
    },
    {
      "anonymous": false,
      "inputs": [
        {
          "indexed": true,
          "internalType": "address",
          "name": "previousOwner",
          "type": "address"
        },
        {
          "indexed": true,
          "internalType": "address",
          "name": "newOwner",
          "type": "address"
        }
      ],
      "name": "OwnershipTransferred",
      "type": "event"
    },
    {
      "inputs": [
        {
          "internalType": "address",
          "name": "user",
          "type": "address"
        }
      ],
      "name": "addressToReferralCode",
      "outputs": [
        {
          "internalType": "string",
          "name": "",
          "type": "string"
        }
      ],
      "stateMutability": "view",
      "type": "function"
    },
    {
      "inputs": [
        {
          "internalType": "uint8",
          "name": "drawType",
          "type": "uint8"
        }
      ],
      "name": "adminTriggerLuckyDraw",
      "outputs": [],
      "stateMutability": "nonpayable",
      "type": "function"
    },
    {
      "inputs": [
        {
          "internalType": "uint256",
          "name": "count",
          "type": "uint256"
        },
        {
          "internalType": "uint8",
          "name": "drawType",
          "type": "uint8"
        }
      ],
      "name": "buyLuckyTickets",
      "outputs": [],
      "stateMutability": "nonpayable",
      "type": "function"
    },
    {
      "inputs": [
        {
          "internalType": "uint256",
          "name": "count",
          "type": "uint256"
        },
        {
          "internalType": "uint8",
          "name": "drawType",
          "type": "uint8"
        }
      ],
      "name": "buyLuckyTicketsVirtual",
      "outputs": [],
      "stateMutability": "nonpayable",
      "type": "function"
    },
    {
      "inputs": [
        {
          "internalType": "uint256",
          "name": "roundId",
          "type": "uint256"
        },
        {
          "internalType": "uint256",
          "name": "number",
          "type": "uint256"
        }
      ],
      "name": "cashBetTotalsByNumber",
      "outputs": [
        {
          "internalType": "uint256",
          "name": "",
          "type": "uint256"
        }
      ],
      "stateMutability": "view",
      "type": "function"
    },
    {
      "inputs": [
        {
          "internalType": "uint256",
          "name": "roundId",
          "type": "uint256"
        },
        {
          "internalType": "uint256",
          "name": "number",
          "type": "uint256"
        }
      ],
      "name": "cashBettersByNumber",
      "outputs": [
        {
          "internalType": "address[]",
          "name": "",
          "type": "address[]"
        }
      ],
      "stateMutability": "view",
      "type": "function"
    },
    {
      "inputs": [],
      "name": "cashGamesPerDay",
      "outputs": [
        {
          "internalType": "uint256",
          "name": "",
          "type": "uint256"
        }
      ],
      "stateMutability": "view",
      "type": "function"
    },
    {
      "inputs": [
        {
          "internalType": "uint256",
          "name": "roundId",
          "type": "uint256"
        }
      ],
      "name": "cashRoundWinners",
      "outputs": [
        {
          "internalType": "address[]",
          "name": "",
          "type": "address[]"
        }
      ],
      "stateMutability": "view",
      "type": "function"
    },
    {
      "inputs": [],
      "name": "cashback",
      "outputs": [
        {
          "internalType": "contract ITRKCashbackEngine",
          "name": "",
          "type": "address"
        }
      ],
      "stateMutability": "view",
      "type": "function"
    },
    {
      "inputs": [],
      "name": "claimDailyCashback",
      "outputs": [],
      "stateMutability": "nonpayable",
      "type": "function"
    },
    {
      "inputs": [
        {
          "internalType": "uint256",
          "name": "roundId",
          "type": "uint256"
        },
        {
          "internalType": "bool",
          "name": "isCashGame",
          "type": "bool"
        }
      ],
      "name": "claimImmediateLoss",
      "outputs": [],
      "stateMutability": "nonpayable",
      "type": "function"
    },
    {
      "inputs": [
        {
          "internalType": "uint256",
          "name": "roundId",
          "type": "uint256"
        },
        {
          "internalType": "bool",
          "name": "isCashGame",
          "type": "bool"
        }
      ],
      "name": "claimWinnings",
      "outputs": [],
      "stateMutability": "nonpayable",
      "type": "function"
    },
    {
      "inputs": [
        {
          "internalType": "uint256",
          "name": "winningNumber",
          "type": "uint256"
        },
        {
          "internalType": "bool",
          "name": "isCashGame",
          "type": "bool"
        }
      ],
      "name": "closeRound",
      "outputs": [],
      "stateMutability": "nonpayable",
      "type": "function"
    },
    {
      "inputs": [],
      "name": "currentCashRoundId",
      "outputs": [
        {
          "internalType": "uint256",
          "name": "",
          "type": "uint256"
        }
      ],
      "stateMutability": "view",
      "type": "function"
    },
    {
      "inputs": [],
      "name": "currentPracticeRoundId",
      "outputs": [
        {
          "internalType": "uint256",
          "name": "",
          "type": "uint256"
        }
      ],
      "stateMutability": "view",
      "type": "function"
    },
    {
      "inputs": [
        {
          "internalType": "uint256",
          "name": "amount",
          "type": "uint256"
        }
      ],
      "name": "depositCashGame",
      "outputs": [],
      "stateMutability": "nonpayable",
      "type": "function"
    },
    {
      "inputs": [
        {
          "internalType": "address",
          "name": "user",
          "type": "address"
        },
        {
          "internalType": "uint256",
          "name": "index",
          "type": "uint256"
        }
      ],
      "name": "directReferralsList",
      "outputs": [
        {
          "internalType": "address",
          "name": "",
          "type": "address"
        }
      ],
      "stateMutability": "view",
      "type": "function"
    },
    {
      "inputs": [
        {
          "internalType": "address[]",
          "name": "winners",
          "type": "address[]"
        },
        {
          "internalType": "uint256[]",
          "name": "amounts",
          "type": "uint256[]"
        }
      ],
      "name": "distributeClubIncome",
      "outputs": [],
      "stateMutability": "nonpayable",
      "type": "function"
    },
    {
      "inputs": [
        {
          "internalType": "uint256",
          "name": "",
          "type": "uint256"
        }
      ],
      "name": "distributionHistory",
      "outputs": [
        {
          "internalType": "uint256",
          "name": "roundId",
          "type": "uint256"
        },
        {
          "internalType": "address",
          "name": "winner",
          "type": "address"
        },
        {
          "internalType": "uint256",
          "name": "payout",
          "type": "uint256"
        },
        {
          "internalType": "bool",
          "name": "isCashGame",
          "type": "bool"
        },
        {
          "internalType": "uint256",
          "name": "timestamp",
          "type": "uint256"
        }
      ],
      "stateMutability": "view",
      "type": "function"
    },
    {
      "inputs": [],
      "name": "game",
      "outputs": [
        {
          "internalType": "contract ITRKGameEngine",
          "name": "",
          "type": "address"
        }
      ],
      "stateMutability": "view",
      "type": "function"
    },
    {
      "inputs": [],
      "name": "getAllSettings",
      "outputs": [
        {
          "internalType": "uint256[15]",
          "name": "settings",
          "type": "uint256[15]"
        }
      ],
      "stateMutability": "view",
      "type": "function"
    },
    {
      "inputs": [
        {
          "internalType": "uint256",
          "name": "offset",
          "type": "uint256"
        },
        {
          "internalType": "uint256",
          "name": "limit",
          "type": "uint256"
        }
      ],
      "name": "getDistributionHistory",
      "outputs": [
        {
          "components": [
            {
              "internalType": "uint256",
              "name": "roundId",
              "type": "uint256"
            },
            {
              "internalType": "address",
              "name": "winner",
              "type": "address"
            },
            {
              "internalType": "uint256",
              "name": "payout",
              "type": "uint256"
            },
            {
              "internalType": "bool",
              "name": "isCashGame",
              "type": "bool"
            },
            {
              "internalType": "uint256",
              "name": "timestamp",
              "type": "uint256"
            }
          ],
          "internalType": "struct TRKRouter.Distribution[]",
          "name": "",
          "type": "tuple[]"
        }
      ],
      "stateMutability": "view",
      "type": "function"
    },
    {
      "inputs": [],
      "name": "getDistributionHistoryCount",
      "outputs": [
        {
          "internalType": "uint256",
          "name": "",
          "type": "uint256"
        }
      ],
      "stateMutability": "view",
      "type": "function"
    },
    {
      "inputs": [
        {
          "internalType": "uint8",
          "name": "drawType",
          "type": "uint8"
        }
      ],
      "name": "getLuckyDrawManualWinners",
      "outputs": [
        {
          "internalType": "address[]",
          "name": "",
          "type": "address[]"
        }
      ],
      "stateMutability": "view",
      "type": "function"
    },
    {
      "inputs": [
        {
          "internalType": "uint8",
          "name": "drawType",
          "type": "uint8"
        }
      ],
      "name": "getLuckyDrawStats",
      "outputs": [
        {
          "internalType": "uint256",
          "name": "drawId",
          "type": "uint256"
        },
        {
          "internalType": "uint256",
          "name": "ticketsSold",
          "type": "uint256"
        },
        {
          "internalType": "uint256",
          "name": "maxTickets",
          "type": "uint256"
        },
        {
          "internalType": "uint256",
          "name": "prizePoolBalance",
          "type": "uint256"
        }
      ],
      "stateMutability": "view",
      "type": "function"
    },
    {
      "inputs": [],
      "name": "getPlatformStats",
      "outputs": [
        {
          "internalType": "uint256",
          "name": "users",
          "type": "uint256"
        },
        {
          "internalType": "uint256",
          "name": "volume",
          "type": "uint256"
        },
        {
          "internalType": "uint256",
          "name": "withdrawn",
          "type": "uint256"
        }
      ],
      "stateMutability": "view",
      "type": "function"
    },
    {
      "inputs": [],
      "name": "getPools",
      "outputs": [
        {
          "internalType": "uint256",
          "name": "gamePool",
          "type": "uint256"
        },
        {
          "internalType": "uint256",
          "name": "clubPool",
          "type": "uint256"
        },
        {
          "internalType": "uint256",
          "name": "golden",
          "type": "uint256"
        },
        {
          "internalType": "uint256",
          "name": "silver",
          "type": "uint256"
        },
        {
          "internalType": "uint256",
          "name": "protection",
          "type": "uint256"
        },
        {
          "internalType": "uint256",
          "name": "creator",
          "type": "uint256"
        },
        {
          "internalType": "uint256",
          "name": "bd",
          "type": "uint256"
        },
        {
          "internalType": "uint256",
          "name": "few",
          "type": "uint256"
        },
        {
          "internalType": "uint256",
          "name": "referral",
          "type": "uint256"
        }
      ],
      "stateMutability": "view",
      "type": "function"
    },
    {
      "inputs": [],
      "name": "getSystemSettings",
      "outputs": [
        {
          "internalType": "uint256[11]",
          "name": "treasuryParams",
          "type": "uint256[11]"
        },
        {
          "internalType": "uint256[15]",
          "name": "refPercents",
          "type": "uint256[15]"
        },
        {
          "internalType": "uint256[6]",
          "name": "cashbackParams",
          "type": "uint256[6]"
        },
        {
          "internalType": "uint256[15]",
          "name": "roiPercents",
          "type": "uint256[15]"
        },
        {
          "internalType": "uint256[4]",
          "name": "gameParams",
          "type": "uint256[4]"
        },
        {
          "internalType": "uint256[15]",
          "name": "winRefPercents",
          "type": "uint256[15]"
        },
        {
          "internalType": "uint256[3]",
          "name": "luckyParams",
          "type": "uint256[3]"
        },
        {
          "components": [
            {
              "internalType": "uint256",
              "name": "directs",
              "type": "uint256"
            },
            {
              "internalType": "uint256",
              "name": "multiplier",
              "type": "uint256"
            }
          ],
          "internalType": "struct ITRKCashbackEngine.Cap[4]",
          "name": "capsBefore",
          "type": "tuple[4]"
        },
        {
          "components": [
            {
              "internalType": "uint256",
              "name": "directs",
              "type": "uint256"
            },
            {
              "internalType": "uint256",
              "name": "multiplier",
              "type": "uint256"
            }
          ],
          "internalType": "struct ITRKCashbackEngine.Cap[4]",
          "name": "capsAfter",
          "type": "tuple[4]"
        },
        {
          "internalType": "uint256",
          "name": "phaseThreshold",
          "type": "uint256"
        }
      ],
      "stateMutability": "view",
      "type": "function"
    },
    {
      "inputs": [
        {
          "internalType": "address",
          "name": "user",
          "type": "address"
        }
      ],
      "name": "getUserInfo",
      "outputs": [
        {
          "components": [
            {
              "internalType": "uint256",
              "name": "userId",
              "type": "uint256"
            },
            {
              "internalType": "address",
              "name": "referrer",
              "type": "address"
            },
            {
              "internalType": "uint256",
              "name": "registrationTime",
              "type": "uint256"
            },
            {
              "internalType": "uint256",
              "name": "walletBalance",
              "type": "uint256"
            },
            {
              "internalType": "uint256",
              "name": "practiceBalance",
              "type": "uint256"
            },
            {
              "internalType": "uint256",
              "name": "cashGameBalance",
              "type": "uint256"
            },
            {
              "internalType": "uint256",
              "name": "totalDeposit",
              "type": "uint256"
            },
            {
              "internalType": "uint256",
              "name": "totalWithdrawn",
              "type": "uint256"
            },
            {
              "internalType": "uint256",
              "name": "cumulativeDeposit",
              "type": "uint256"
            },
            {
              "internalType": "uint256",
              "name": "directReferralIncome",
              "type": "uint256"
            },
            {
              "internalType": "uint256",
              "name": "winnerReferralIncome",
              "type": "uint256"
            },
            {
              "internalType": "uint256",
              "name": "practiceReferralIncome",
              "type": "uint256"
            },
            {
              "internalType": "uint256",
              "name": "cashbackIncome",
              "type": "uint256"
            },
            {
              "internalType": "uint256",
              "name": "lossReferralIncome",
              "type": "uint256"
            },
            {
              "internalType": "uint256",
              "name": "clubIncome",
              "type": "uint256"
            },
            {
              "internalType": "uint256",
              "name": "luckyDrawIncome",
              "type": "uint256"
            },
            {
              "internalType": "uint256",
              "name": "luckyDrawWallet",
              "type": "uint256"
            },
            {
              "internalType": "uint256[15]",
              "name": "directReferralIncomeByLevel",
              "type": "uint256[15]"
            },
            {
              "internalType": "uint256[15]",
              "name": "winnerReferralIncomeByLevel",
              "type": "uint256[15]"
            },
            {
              "internalType": "uint256[15]",
              "name": "practiceReferralIncomeByLevel",
              "type": "uint256[15]"
            },
            {
              "internalType": "uint256",
              "name": "teamVolume",
              "type": "uint256"
            },
            {
              "internalType": "uint256",
              "name": "totalBets",
              "type": "uint256"
            },
            {
              "internalType": "uint256",
              "name": "totalWins",
              "type": "uint256"
            },
            {
              "internalType": "uint256",
              "name": "totalLosses",
              "type": "uint256"
            },
            {
              "internalType": "uint256",
              "name": "practiceGamesPlayedToday",
              "type": "uint256"
            },
            {
              "internalType": "uint256",
              "name": "cashGamesPlayedToday",
              "type": "uint256"
            },
            {
              "internalType": "uint256",
              "name": "lastGameDate",
              "type": "uint256"
            },
            {
              "internalType": "bool",
              "name": "isRegistered",
              "type": "bool"
            },
            {
              "internalType": "bool",
              "name": "isPracticePlayer",
              "type": "bool"
            },
            {
              "internalType": "bool",
              "name": "isCashPlayer",
              "type": "bool"
            },
            {
              "internalType": "uint256",
              "name": "directReferrals",
              "type": "uint256"
            },
            {
              "internalType": "uint256",
              "name": "activeDirects",
              "type": "uint256"
            },
            {
              "internalType": "uint8",
              "name": "preferredLuckyDraw",
              "type": "uint8"
            }
          ],
          "internalType": "struct ITRKRegistry.User",
          "name": "",
          "type": "tuple"
        }
      ],
      "stateMutability": "view",
      "type": "function"
    },
    {
      "inputs": [],
      "name": "getUserStats",
      "outputs": [
        {
          "internalType": "uint256",
          "name": "users",
          "type": "uint256"
        },
        {
          "internalType": "uint256",
          "name": "volume",
          "type": "uint256"
        },
        {
          "internalType": "uint256",
          "name": "withdrawn",
          "type": "uint256"
        }
      ],
      "stateMutability": "view",
      "type": "function"
    },
    {
      "inputs": [],
      "name": "getWallets",
      "outputs": [
        {
          "internalType": "address",
          "name": "creator",
          "type": "address"
        },
        {
          "internalType": "address",
          "name": "few",
          "type": "address"
        },
        {
          "internalType": "address[20]",
          "name": "bd",
          "type": "address[20]"
        }
      ],
      "stateMutability": "view",
      "type": "function"
    },
    {
      "inputs": [
        {
          "internalType": "uint256",
          "name": "userId",
          "type": "uint256"
        }
      ],
      "name": "idToAddress",
      "outputs": [
        {
          "internalType": "address",
          "name": "",
          "type": "address"
        }
      ],
      "stateMutability": "view",
      "type": "function"
    },
    {
      "inputs": [],
      "name": "lucky",
      "outputs": [
        {
          "internalType": "contract ITRKLuckyDraw",
          "name": "",
          "type": "address"
        }
      ],
      "stateMutability": "view",
      "type": "function"
    },
    {
      "inputs": [],
      "name": "minActivation",
      "outputs": [
        {
          "internalType": "uint256",
          "name": "",
          "type": "uint256"
        }
      ],
      "stateMutability": "view",
      "type": "function"
    },
    {
      "inputs": [],
      "name": "minReferral",
      "outputs": [
        {
          "internalType": "uint256",
          "name": "",
          "type": "uint256"
        }
      ],
      "stateMutability": "view",
      "type": "function"
    },
    {
      "inputs": [],
      "name": "owner",
      "outputs": [
        {
          "internalType": "address",
          "name": "",
          "type": "address"
        }
      ],
      "stateMutability": "view",
      "type": "function"
    },
    {
      "inputs": [
        {
          "internalType": "address",
          "name": "user",
          "type": "address"
        }
      ],
      "name": "ownerActivateUser",
      "outputs": [],
      "stateMutability": "nonpayable",
      "type": "function"
    },
    {
      "inputs": [
        {
          "internalType": "uint256",
          "name": "prediction",
          "type": "uint256"
        },
        {
          "internalType": "uint256",
          "name": "amount",
          "type": "uint256"
        }
      ],
      "name": "placeBetCash",
      "outputs": [],
      "stateMutability": "nonpayable",
      "type": "function"
    },
    {
      "inputs": [
        {
          "internalType": "uint256",
          "name": "prediction",
          "type": "uint256"
        },
        {
          "internalType": "uint256",
          "name": "amount",
          "type": "uint256"
        }
      ],
      "name": "placeBetPractice",
      "outputs": [],
      "stateMutability": "nonpayable",
      "type": "function"
    },
    {
      "inputs": [
        {
          "internalType": "uint256",
          "name": "roundId",
          "type": "uint256"
        },
        {
          "internalType": "uint256",
          "name": "number",
          "type": "uint256"
        }
      ],
      "name": "practiceBetTotalsByNumber",
      "outputs": [
        {
          "internalType": "uint256",
          "name": "",
          "type": "uint256"
        }
      ],
      "stateMutability": "view",
      "type": "function"
    },
    {
      "inputs": [
        {
          "internalType": "uint256",
          "name": "roundId",
          "type": "uint256"
        },
        {
          "internalType": "uint256",
          "name": "number",
          "type": "uint256"
        }
      ],
      "name": "practiceBettersByNumber",
      "outputs": [
        {
          "internalType": "address[]",
          "name": "",
          "type": "address[]"
        }
      ],
      "stateMutability": "view",
      "type": "function"
    },
    {
      "inputs": [],
      "name": "practiceGamesPerDay",
      "outputs": [
        {
          "internalType": "uint256",
          "name": "",
          "type": "uint256"
        }
      ],
      "stateMutability": "view",
      "type": "function"
    },
    {
      "inputs": [
        {
          "internalType": "uint256",
          "name": "roundId",
          "type": "uint256"
        }
      ],
      "name": "practiceRoundWinners",
      "outputs": [
        {
          "internalType": "address[]",
          "name": "",
          "type": "address[]"
        }
      ],
      "stateMutability": "view",
      "type": "function"
    },
    {
      "inputs": [
        {
          "internalType": "string",
          "name": "code",
          "type": "string"
        }
      ],
      "name": "referralCodeToAddress",
      "outputs": [
        {
          "internalType": "address",
          "name": "",
          "type": "address"
        }
      ],
      "stateMutability": "view",
      "type": "function"
    },
    {
      "inputs": [
        {
          "internalType": "address",
          "name": "referrer",
          "type": "address"
        }
      ],
      "name": "register",
      "outputs": [],
      "stateMutability": "nonpayable",
      "type": "function"
    },
    {
      "inputs": [],
      "name": "registry",
      "outputs": [
        {
          "internalType": "contract ITRKRegistry",
          "name": "",
          "type": "address"
        }
      ],
      "stateMutability": "view",
      "type": "function"
    },
    {
      "inputs": [],
      "name": "renounceOwnership",
      "outputs": [],
      "stateMutability": "nonpayable",
      "type": "function"
    },
    {
      "inputs": [
        {
          "components": [
            {
              "internalType": "uint256",
              "name": "directs",
              "type": "uint256"
            },
            {
              "internalType": "uint256",
              "name": "multiplier",
              "type": "uint256"
            }
          ],
          "internalType": "struct ITRKCashbackEngine.Cap[4]",
          "name": "_caps",
          "type": "tuple[4]"
        }
      ],
      "name": "setCapMultipliersAfter10k",
      "outputs": [],
      "stateMutability": "nonpayable",
      "type": "function"
    },
    {
      "inputs": [
        {
          "components": [
            {
              "internalType": "uint256",
              "name": "directs",
              "type": "uint256"
            },
            {
              "internalType": "uint256",
              "name": "multiplier",
              "type": "uint256"
            }
          ],
          "internalType": "struct ITRKCashbackEngine.Cap[4]",
          "name": "_caps",
          "type": "tuple[4]"
        }
      ],
      "name": "setCapMultipliersBefore10k",
      "outputs": [],
      "stateMutability": "nonpayable",
      "type": "function"
    },
    {
      "inputs": [
        {
          "components": [
            {
              "internalType": "uint256",
              "name": "userLimit",
              "type": "uint256"
            },
            {
              "internalType": "uint256",
              "name": "rate",
              "type": "uint256"
            }
          ],
          "internalType": "struct ITRKCashbackEngine.Phase[3]",
          "name": "_phases",
          "type": "tuple[3]"
        }
      ],
      "name": "setCashbackPhases",
      "outputs": [],
      "stateMutability": "nonpayable",
      "type": "function"
    },
    {
      "inputs": [
        {
          "internalType": "uint256",
          "name": "_lc",
          "type": "uint256"
        },
        {
          "internalType": "uint256",
          "name": "_lr",
          "type": "uint256"
        },
        {
          "internalType": "uint256",
          "name": "_t",
          "type": "uint256"
        },
        {
          "internalType": "uint256",
          "name": "_ls",
          "type": "uint256"
        },
        {
          "internalType": "uint256",
          "name": "_rr",
          "type": "uint256"
        },
        {
          "internalType": "uint256",
          "name": "_md",
          "type": "uint256"
        }
      ],
      "name": "setCashbackSettings",
      "outputs": [],
      "stateMutability": "nonpayable",
      "type": "function"
    },
    {
      "inputs": [
        {
          "internalType": "uint256",
          "name": "_c",
          "type": "uint256"
        },
        {
          "internalType": "uint256",
          "name": "_b",
          "type": "uint256"
        },
        {
          "internalType": "uint256",
          "name": "_f",
          "type": "uint256"
        },
        {
          "internalType": "uint256",
          "name": "_r",
          "type": "uint256"
        },
        {
          "internalType": "uint256",
          "name": "_cl",
          "type": "uint256"
        },
        {
          "internalType": "uint256",
          "name": "_l",
          "type": "uint256"
        },
        {
          "internalType": "uint256",
          "name": "_p",
          "type": "uint256"
        }
      ],
      "name": "setDistributions",
      "outputs": [],
      "stateMutability": "nonpayable",
      "type": "function"
    },
    {
      "inputs": [
        {
          "internalType": "uint256",
          "name": "_wc",
          "type": "uint256"
        },
        {
          "internalType": "uint256",
          "name": "_wr",
          "type": "uint256"
        },
        {
          "internalType": "uint256",
          "name": "_pl",
          "type": "uint256"
        },
        {
          "internalType": "uint256",
          "name": "_cl",
          "type": "uint256"
        }
      ],
      "name": "setGameSettings",
      "outputs": [],
      "stateMutability": "nonpayable",
      "type": "function"
    },
    {
      "inputs": [
        {
          "internalType": "uint8",
          "name": "drawType",
          "type": "uint8"
        },
        {
          "internalType": "address[]",
          "name": "winners",
          "type": "address[]"
        }
      ],
      "name": "setLuckyDrawManualWinners",
      "outputs": [],
      "stateMutability": "nonpayable",
      "type": "function"
    },
    {
      "inputs": [
        {
          "internalType": "uint8",
          "name": "drawType",
          "type": "uint8"
        }
      ],
      "name": "setLuckyDrawPreference",
      "outputs": [],
      "stateMutability": "nonpayable",
      "type": "function"
    },
    {
      "inputs": [
        {
          "internalType": "uint256",
          "name": "_mt",
          "type": "uint256"
        },
        {
          "internalType": "uint256",
          "name": "_gp",
          "type": "uint256"
        },
        {
          "internalType": "uint256",
          "name": "_sp",
          "type": "uint256"
        }
      ],
      "name": "setLuckyDrawSettings",
      "outputs": [],
      "stateMutability": "nonpayable",
      "type": "function"
    },
    {
      "inputs": [
        {
          "internalType": "uint256[8]",
          "name": "_g",
          "type": "uint256[8]"
        },
        {
          "internalType": "uint256[8]",
          "name": "_s",
          "type": "uint256[8]"
        },
        {
          "internalType": "uint256[8]",
          "name": "_c",
          "type": "uint256[8]"
        }
      ],
      "name": "setLuckyPrizes",
      "outputs": [],
      "stateMutability": "nonpayable",
      "type": "function"
    },
    {
      "inputs": [
        {
          "internalType": "uint256",
          "name": "_threshold",
          "type": "uint256"
        }
      ],
      "name": "setPhaseThreshold",
      "outputs": [],
      "stateMutability": "nonpayable",
      "type": "function"
    },
    {
      "inputs": [
        {
          "internalType": "uint256[15]",
          "name": "_p",
          "type": "uint256[15]"
        }
      ],
      "name": "setReferralPercents",
      "outputs": [],
      "stateMutability": "nonpayable",
      "type": "function"
    },
    {
      "inputs": [
        {
          "internalType": "uint256[15]",
          "name": "_p",
          "type": "uint256[15]"
        }
      ],
      "name": "setRoiPercents",
      "outputs": [],
      "stateMutability": "nonpayable",
      "type": "function"
    },
    {
      "inputs": [
        {
          "internalType": "uint256",
          "name": "_minA",
          "type": "uint256"
        },
        {
          "internalType": "uint256",
          "name": "_minW",
          "type": "uint256"
        },
        {
          "internalType": "uint256",
          "name": "_maxW",
          "type": "uint256"
        },
        {
          "internalType": "uint256",
          "name": "_fee",
          "type": "uint256"
        }
      ],
      "name": "setTreasurySettings",
      "outputs": [],
      "stateMutability": "nonpayable",
      "type": "function"
    },
    {
      "inputs": [
        {
          "internalType": "uint256[15]",
          "name": "_p",
          "type": "uint256[15]"
        }
      ],
      "name": "setWinnerReferralPercents",
      "outputs": [],
      "stateMutability": "nonpayable",
      "type": "function"
    },
    {
      "inputs": [],
      "name": "signupBonusTier1",
      "outputs": [
        {
          "internalType": "uint256",
          "name": "",
          "type": "uint256"
        }
      ],
      "stateMutability": "view",
      "type": "function"
    },
    {
      "inputs": [],
      "name": "signupBonusTier2",
      "outputs": [
        {
          "internalType": "uint256",
          "name": "",
          "type": "uint256"
        }
      ],
      "stateMutability": "view",
      "type": "function"
    },
    {
      "inputs": [],
      "name": "tier1Limit",
      "outputs": [
        {
          "internalType": "uint256",
          "name": "",
          "type": "uint256"
        }
      ],
      "stateMutability": "view",
      "type": "function"
    },
    {
      "inputs": [],
      "name": "tier2Limit",
      "outputs": [
        {
          "internalType": "uint256",
          "name": "",
          "type": "uint256"
        }
      ],
      "stateMutability": "view",
      "type": "function"
    },
    {
      "inputs": [
        {
          "internalType": "address",
          "name": "newOwner",
          "type": "address"
        }
      ],
      "name": "transferOwnership",
      "outputs": [],
      "stateMutability": "nonpayable",
      "type": "function"
    },
    {
      "inputs": [],
      "name": "treasury",
      "outputs": [
        {
          "internalType": "contract ITRKTreasury",
          "name": "",
          "type": "address"
        }
      ],
      "stateMutability": "view",
      "type": "function"
    },
    {
      "inputs": [
        {
          "internalType": "address",
          "name": "user",
          "type": "address"
        }
      ],
      "name": "unpruneUser",
      "outputs": [],
      "stateMutability": "nonpayable",
      "type": "function"
    },
    {
      "inputs": [
        {
          "internalType": "uint256",
          "name": "_minA",
          "type": "uint256"
        },
        {
          "internalType": "uint256",
          "name": "_b1",
          "type": "uint256"
        },
        {
          "internalType": "uint256",
          "name": "_l1",
          "type": "uint256"
        },
        {
          "internalType": "uint256",
          "name": "_b2",
          "type": "uint256"
        },
        {
          "internalType": "uint256",
          "name": "_l2",
          "type": "uint256"
        },
        {
          "internalType": "uint256",
          "name": "_minRef",
          "type": "uint256"
        },
        {
          "internalType": "uint256",
          "name": "_pGames",
          "type": "uint256"
        },
        {
          "internalType": "uint256",
          "name": "_cGames",
          "type": "uint256"
        },
        {
          "internalType": "uint256",
          "name": "_fullBridge",
          "type": "uint256"
        }
      ],
      "name": "updateSettings",
      "outputs": [],
      "stateMutability": "nonpayable",
      "type": "function"
    },
    {
      "inputs": [
        {
          "internalType": "address",
          "name": "_creator",
          "type": "address"
        },
        {
          "internalType": "address",
          "name": "_few",
          "type": "address"
        },
        {
          "internalType": "address[]",
          "name": "_bd",
          "type": "address[]"
        }
      ],
      "name": "updateWallets",
      "outputs": [],
      "stateMutability": "nonpayable",
      "type": "function"
    },
    {
      "inputs": [
        {
          "internalType": "uint256",
          "name": "amount",
          "type": "uint256"
        }
      ],
      "name": "withdraw",
      "outputs": [],
      "stateMutability": "nonpayable",
      "type": "function"
    }
  ],
  "bytecode": "0x6080346200017857601f6200458238819003918201601f19168301916001600160401b038311848410176200017d5780849260a09460405283398101031262000178576200004d8162000193565b906200005c6020820162000193565b6200006a6040830162000193565b926200008760806200007f6060860162000193565b940162000193565b9033156200015f576000549360018060a01b03199433868216176000556040519660018060a01b0380968180968195823391167f8be0079c531659141344cd1fd0a4f28419497f9722a3daafe3b4186f6b6457e0600080a3670de0b6b3a764000060075568056bc75e2d63100000600855612710600955678ac7230489e80000600a55620186a0600b556000600c556018600d556018600e5516896001541617600155168760025416176002551685600354161760035516836004541617600455169060055416176005556143d99081620001a98239f35b604051631e4fbdf760e01b815260006004820152602490fd5b600080fd5b634e487b7160e01b600052604160045260246000fd5b51906001600160a01b0382168203620001785756fe6080604052600436101561001257600080fd5b6000803560e01c8063129a737314613b01578063136d88831461324d57806314c8496714613a7d578063160b4afd14613a5f5780631e03e65214613a1057806321b594d61461393057806321e8367614613912578063242fc36e146138e9578063262951e8146138cb5780632a2d0c47146138715780632c4fd2a1146137e65780632e1a7d4d146137915780632f54696e146137735780633045e0ad1461372457806335abb5f3146136bf5780633c91646f1461366957806342ccae16146134945780634420e4861461337d5780634f47daa7146132f157806352aa6d841461328657806353f6ad371461324d5780635d11d9771461322f57806361d027b3146132065780636386c1c714612cf05780636558f87514612c91578063673a2a1f1461293657806367a1d3a2146128d857806368022f2f146128805780636ba3a538146128245780636cc709c9146127ce578063715018a61461277457806371d522031461271c57806374a82a701461249a57806376f0601b14612411578063771c8e96146123ab578063796a507c146123465780637b1039991461231d5780637b50b8b8146120a75780637fc25fac1461204f5780638224e64c14611fe8578063850c6a0a14611fca5780638530b5f714611f615780638da5cb5b14611f3a5780638efdc88114611f1c57806396a2c51514611e84578063a186b50814611e2f578063abb91b2414611066578063b59703a314610fae578063b868e7a114610e79578063bb51898d14610dee578063c090a2b614610c8c578063c1f9e28314610c27578063c3fe3e2814610bfe578063c8b6150714610b9a578063c9365eff14610b35578063ca2f68db14610acd578063d4f622a614610aaf578063d6f92372146109c1578063d9c291cf14610998578063db7a460514610854578063dbaf0cc314610836578063ddf45c23146107cf578063df4ebb0b14610743578063e0c0ad96146106e0578063e956e0ae14610653578063eac4cbb5146105ec578063eeff352214610572578063f0190c1714610509578063f0360bad1461049c578063f2fde38b14610411578063fce570e1146103a65763fed27ff31461033557600080fd5b3461039557806003193601126103955760045481906001600160a01b0316803b156103a35781809160246040518094819363e6c7b08360e01b83523360048401525af18015610398576103855750f35b61038e90613db6565b6103955780f35b80fd5b6040513d84823e3d90fd5b50fd5b503461039557602036600319011261039557806103c1613bbe565b6103c9613d8a565b6001546001600160a01b039081169190823b1561040c576024849283604051958694859363fce570e160e01b85521660048401525af18015610398576103855750f35b505050fd5b50346103955760203660031901126103955761042b613bbe565b610433613d8a565b6001600160a01b0390811690811561048357600054826001600160601b0360a01b821617600055167f8be0079c531659141344cd1fd0a4f28419497f9722a3daafe3b4186f6b6457e0600080a380f35b604051631e4fbdf760e01b815260048101849052602490fd5b503461039557602036600319011261039557600435906006548210156103955760a06104c783613d39565b50805490600180841b03600182015416906002810154600460ff6003840154169201549260405194855260208501526040840152151560608301526080820152f35b50346103955760203660031901126103955780610524613c2c565b61052c613d8a565b6005546001600160a01b031690813b1561056e5760ff60248492836040519586948593632779c99760e01b85521660048401525af18015610398576103855750f35b5050fd5b5034610395578061058236613cc5565b929161058c613d8a565b6002546001600160a01b031690813b156105e85760405163777f9a9160e11b815260048101949094526024840152604483019190915260648201929092529082908290818381608481015b03925af18015610398576103855750f35b8580fd5b503461039557806101e0806003193601126103a3576101e49036821161056e57610614613d8a565b6003546001600160a01b0316803b1561040c5760405163eac4cbb560e01b8152928492849283918591906004808501375af18015610398576103855750f35b50346103955760203660031901126103955760035460405163ed138eff60e01b8152600480359082015260016024820152908290829060449082906001600160a01b03165afa90811561039857826106b993926106bd575b505060405191829182613c4c565b0390f35b6106d992503d8091833e6106d18183613e6e565b810190614322565b38806106ab565b503461039557602036600319011261039557806106fb613c2c565b6001546001600160a01b031690813b1561056e5760ff6044849283604051958694859363187759f160e11b85523360048601521660248401525af18015610398576103855750f35b50346103955760e03660031901126103955761075d613d8a565b60025481906001600160a01b0316803b156103a35781809160e46040518094819363df4ebb0b60e01b83526004356004840152602435602484015260443560448401526064356064840152608435608484015260a43560a484015260c43560c48401525af18015610398576103855750f35b503461039557806101e0806003193601126103a3576101e49036821161056e576107f7613d8a565b6002546001600160a01b0316803b1561040c5760405163ddf45c2360e01b8152928492849283918591906004808501375af18015610398576103855750f35b50346103955780600319360112610395576020600b54604051908152f35b503461039557806003193601126103955761028060405161087481613e52565b36903760025460405163db7a460560e01b81526102c092916001600160a01b03919084908290600490829086165afa92831561098c578093819282916108f3575b50908360405195168552836020931683860152604085019190915b601483106108dc578686f35b8380600192878551168152019201920191906108d0565b9250509250833d8511610985575b61090b8183613e6e565b81019284828503126103955761092082614106565b602061092d818501614106565b9580605f86011215610981576040519461094686613e52565b85908981019283116105e857604001905b82821061096a57505050509391386108b5565b83809161097684614106565b815201910190610957565b8380fd5b503d610901565b604051903d90823e3d90fd5b50346103955780600319360112610395576005546040516001600160a01b039091168152602090f35b50346103955760209081600319360112610395576004356001600160401b03808211610aab5736602383011215610aab578160040135908111610aab573660248284010111610aab57838160018060a01b0393602460448660015416926040519687958694859363152c172560e01b85528960048601528282860152018484013781810183018a9052601f01601f191681010301915afa92831561098c578093610a71575b505060405191168152f35b909192508382813d8311610aa4575b610a8a8183613e6e565b810103126103955750610a9c90614106565b903880610a66565b503d610a80565b8280fd5b50346103955780600319360112610395576020600d54604051908152f35b503461039557602036600319011261039557610ae7613c2c565b600554604051631e5c4b1360e31b815260ff9290921660048301528290829060249082906001600160a01b03165afa90811561039857826106b993926106bd57505060405191829182613c4c565b503461039557606036600319011261039557610b4f613d8a565b60055481906001600160a01b0316803b156103a35760405163c9365eff60e01b81526004803590820152602480359082015260448035908201529082908290818381606481016105d7565b50346103955780610baa36613c90565b606460018060a09594951b0360035416936040519485938492635e2ab58f60e11b8452600484015260248301528460448301525afa90811561039857826106b993926106bd57505060405191829182613c4c565b50346103955780600319360112610395576003546040516001600160a01b039091168152602090f35b50346103955760403660031901126103955780610c42613c3c565b6005546001600160a01b0316803b1561056e5760405163d887c41160e01b81523360048083019190915235602482015260ff909216604483015282908290818381606481016105d7565b503461039557610c9b36613ca6565b600354604051633ca34a4360e21b81523360048201526024810184905282151560448201526001600160a01b039392909160209083906064908290899089165af1918215610de3578592610dab575b5060405192610cf884613e00565b83526020830191338352604084019081526060840191151582526080840192428452600654600160401b811015610d9557806001610d399201600655613d39565b969096610d7f57600495518755600187019151166001600160601b0360a01b825416179055516002850155600384019051151560ff801983541691161790555191015580f35b634e487b7160e01b600052600060045260246000fd5b634e487b7160e01b600052604160045260246000fd5b9091506020813d8211610ddb575b81610dc660209383613e6e565b81010312610dd657519038610cea565b600080fd5b3d9150610db9565b6040513d87823e3d90fd5b50346103955761030036600319011261039557806101043681116103a35761020436811161056e576103049136831161040c57610e29613d8a565b6005546001600160a01b031692833b15610e75578492836040519586948593635c8e625360e11b855261010080928160048089013780870137808501375af18015610398576103855750f35b8480fd5b5034610395576020908160031936011261039557610e95613bbe565b60015460405163fbcb134560e01b81526001600160a01b0392831660048201529291829184916024918391165afa918215610fa1578192610f02575b610ef4604085858251938285938452825192818480938701528686019101613d16565b601f01601f19168101030190f35b9091503d8083833e610f148183613e6e565b81019183828403126103955781516001600160401b0392838211610aab57019083601f83011215610395578151928311610f8d5760405193610f5f601f8501601f1916870186613e6e565b838552858484010111610395575091610f84849260409484610ef49785019101613d16565b91819350610ed1565b634e487b7160e01b81526041600452602490fd5b50604051903d90823e3d90fd5b50346103955760403660031901126103955761100990610fcc613bbe565b60015460405163b59703a360e01b81526001600160a01b039283166004820152602480359082015293602091859190841690829081906044820190565b03915afa91821561098c578092611028575b6020838360405191168152f35b9091506020833d821161105e575b8161104360209383613e6e565b810103126103955750611057602092614106565b903861101b565b3d9150611036565b50346103955780600319360112610395576040516001600160401b0390610160810182811182821017610d9557604052610160368237604051926110a984613e1b565b6101e0803686376040519160c0830183811086821117610d955760405260c0368437604051916110d883613e1b565b803684376040516110e881613e37565b6080368237604051916110fa83613e1b565b368337604051966060880190811188821017610d955760405260603688376111206142a8565b936111296142a8565b9560018060a01b036002541660405163160b4afd60e01b8152602081600481855afa908115611830578791611dfd575b50895260405163f9abb1f160e01b8152602081600481855afa908115611830578791611dcb575b5060208a015260405163b87d1bc560e01b8152602081600481855afa908115611830578791611d99575b5060408a0152604051631d283f4f60e31b8152602081600481855afa908115611830578791611d67575b5060608a0152604051636545736360e01b8152602081600481855afa908115611830578791611d35575b5060808a015260405163103339d360e31b8152602081600481855afa908115611830578791611d03575b5060a08a0152604051630326799760e01b8152602081600481855afa908115611830578791611cd1575b5060c08a01526040516341cf934d60e01b8152602081600481855afa908115611830578791611c9f575b5060e08a01526040516385ee7c5960e01b8152602081600481855afa908115611830578791611c6d575b506101008a01526040516315bb68db60e01b8152602081600481855afa908115611830578791611c3b575b506101208a01526040516325d530d560e11b8152602081600481855afa908115611830578791611c09575b506101408a0152855b600f8110611b8e57505060048054604051636418dbeb60e11b81526001600160a01b039091169b916020908290818f5afa908115611830578791611b5c575b5082526040516331a7d90f60e21b81526020816004818f5afa908115611830578791611b2a575b506020830152600460208c60405192838092639afb849760e01b82525afa908115611830578791611af8575b5060408381019190915251630641ac3360e41b81526020816004818f5afa908115611830578791611ac6575b5060608301526040516368a9fc6b60e01b81526020816004818f5afa908115611830578791611a94575b5060808301526040516394a227c360e01b81526020816004818f5afa908115611830578791611a62575b5060a0830152855b600f81106119ee57506003546040516350877e0160e01b81526001600160a01b0390911690602081600481855afa9081156117d25788916119bc575b508552604051630ec846e560e41b8152602081600481855afa9081156117d257889161198a575b506020860152604051630468003760e51b8152602081600481855afa9081156117d2578891611958575b5060408601526040516354eda68160e11b8152602081600481855afa9081156117d2578891611926575b506060860152865b600f81106118a2575050600554604051639b89470360e01b81526001600160a01b0390911690602081600481855afa9081156117d2578891611870575b508b5260405163f028e44760e01b8152602081600481855afa9081156117d2578c90899261183b575b509160209182600494015260405192838092630cadad4b60e11b82525afa9081156118305787916117fe575b5060408b0152855b600481106116e3575060206004999a9b6040519a8b809263d8a1767560e01b82525afa9889156116d85786996116a4575b50604051959a95998b8b5b600b821061168d575050506115ce906101608b0190613c04565b896103408a015b60068210611676575050506115ef90610400890190613c04565b876105e088015b6004821061165f5750505061161090610660870190613c04565b9461084085015b6003821061164957610ac08686611641876116366108a0850189613ce3565b6109a0840190613ce3565b610aa0820152f35b6020806001928951815201970191019095611617565b8251815260209283019260019290920191016115f6565b8251815260209283019260019290920191016115d5565b8251815260209283019260019290920191016115b4565b9098506020813d6020116116d0575b816116c060209383613e6e565b81010312610dd6575197386115a9565b3d91506116b3565b6040513d88823e3d90fd5b602460408d8151928380926369ba303360e11b82528660048301525afa80156117d257889189916117dd575b506040519161171d83613de5565b8252602082015261172e828a6142fb565b5261173981896142fb565b50602460408d815192838092633e717b7760e01b82528660048301525afa80156117d2579061179c929189918a916117a1575b506040519161177a83613de5565b8252602082015261178b828c6142fb565b52611796818b6142fb565b50613ed6565b611578565b90506117c5915060403d6040116117cb575b6117bd8183613e6e565b81019061430c565b3861176c565b503d6117b3565b6040513d8a823e3d90fd5b90506117f8915060403d6040116117cb576117bd8183613e6e565b3861170f565b90506020813d602011611828575b8161181960209383613e6e565b81010312610dd6575138611570565b3d915061180c565b6040513d89823e3d90fd5b9150506020813d602011611868575b8161185760209383613e6e565b81010312610dd657518b6004611544565b3d915061184a565b90506020813d60201161189a575b8161188b60209383613e6e565b81010312610dd657513861151b565b3d915061187e565b604051636b88e46560e01b81526004810182905290602082602481865afa801561191b5789906118e7575b6118e292506118dc828a6142ea565b52613ed6565b6114de565b506020823d602011611913575b8161190160209383613e6e565b81010312610dd6576118e291516118cd565b3d91506118f4565b6040513d8b823e3d90fd5b90506020813d602011611950575b8161194160209383613e6e565b81010312610dd65751386114d6565b3d9150611934565b90506020813d602011611982575b8161197360209383613e6e565b81010312610dd65751386114ac565b3d9150611966565b90506020813d6020116119b4575b816119a560209383613e6e565b81010312610dd6575138611482565b3d9150611998565b90506020813d6020116119e6575b816119d760209383613e6e565b81010312610dd657513861145b565b3d91506119ca565b60249060208d6040519384809263064e11a160e21b82528560048301525afa80156117d2578890611a2e575b611a2992506118dc82876142ea565b61141f565b506020823d602011611a5a575b81611a4860209383613e6e565b81010312610dd657611a299151611a1a565b3d9150611a3b565b90506020813d602011611a8c575b81611a7d60209383613e6e565b81010312610dd6575138611417565b3d9150611a70565b90506020813d602011611abe575b81611aaf60209383613e6e565b81010312610dd65751386113ed565b3d9150611aa2565b90506020813d602011611af0575b81611ae160209383613e6e565b81010312610dd65751386113c3565b3d9150611ad4565b90506020813d602011611b22575b81611b1360209383613e6e565b81010312610dd6575138611397565b3d9150611b06565b90506020813d602011611b54575b81611b4560209383613e6e565b81010312610dd657513861136b565b3d9150611b38565b90506020813d602011611b86575b81611b7760209383613e6e565b81010312610dd6575138611344565b3d9150611b6a565b60405163963920a360e01b815260048101829052602081602481865afa9081156117d257908d92918991611bd0575b506118dc82611bcb946142ea565b611305565b9250506020823d602011611c01575b81611bec60209383613e6e565b81010312610dd65790518c91906118dc611bbd565b3d9150611bdf565b90506020813d602011611c33575b81611c2460209383613e6e565b81010312610dd65751386112fc565b3d9150611c17565b90506020813d602011611c65575b81611c5660209383613e6e565b81010312610dd65751386112d1565b3d9150611c49565b90506020813d602011611c97575b81611c8860209383613e6e565b81010312610dd65751386112a6565b3d9150611c7b565b90506020813d602011611cc9575b81611cba60209383613e6e565b81010312610dd657513861127c565b3d9150611cad565b90506020813d602011611cfb575b81611cec60209383613e6e565b81010312610dd6575138611252565b3d9150611cdf565b90506020813d602011611d2d575b81611d1e60209383613e6e565b81010312610dd6575138611228565b3d9150611d11565b90506020813d602011611d5f575b81611d5060209383613e6e565b81010312610dd65751386111fe565b3d9150611d43565b90506020813d602011611d91575b81611d8260209383613e6e565b81010312610dd65751386111d4565b3d9150611d75565b90506020813d602011611dc3575b81611db460209383613e6e565b81010312610dd65751386111aa565b3d9150611da7565b90506020813d602011611df5575b81611de660209383613e6e565b81010312610dd6575138611180565b3d9150611dd9565b90506020813d602011611e27575b81611e1860209383613e6e565b81010312610dd6575138611159565b3d9150611e0b565b50346103955760203660031901126103955760025481906001600160a01b0316803b156103a3576040516311f9fbc960e21b8152336004808301919091523560248201529082908290818381604481016105d7565b503461039557602090611e9636613c90565b600354604051636a661b6560e01b81526004810193909352602483019190915260016044830152909290839060649082906001600160a01b03165afa90811561098c5790611eea575b602090604051908152f35b506020813d8211611f14575b81611f0360209383613e6e565b81010312610dd65760209051611edf565b3d9150611ef6565b50346103955780600319360112610395576020600954604051908152f35b5034610395578060031936011261039557546040516001600160a01b039091168152602090f35b50346103955780611f7136613cc5565b9291611f7b613d8a565b6003546001600160a01b031690813b156105e857604051638530b5f760e01b815260048101949094526024840152604483019190915260648201929092529082908290818381608481016105d7565b50346103955780600319360112610395576020600e54604051908152f35b503461039557806101e0806003193601126103a3576101e49036821161056e57612010613d8a565b6004546001600160a01b0316803b1561040c57604051632089399360e21b8152928492849283918591906004808501375af18015610398576103855750f35b50346103955761010036600319011261039557366101041161039557612073613d8a565b60045481906001600160a01b0316803b156103a357816040518092631ff097eb60e21b82528183816105d76004820161405b565b503461039557610120366003190112610395578060e43560c4356004356120cc613d8a565b600781905560025460405163f9abb1f160e01b81526001600160a01b039260209290919084168382600481845afa9182156117d25788926122eb575b5060405163b87d1bc560e01b8152918483600481855afa92831561191b5789936122b9575b50604051631d283f4f60e31b81528581600481865afa9586156122ae578a9661227b575b5050813b156122775760405163777f9a9160e11b815260048101949094526024840152604483019190915260648201929092529085908290608490829084905af1908115610de3578591612263575b5050602435600855604435600955606435600a55608435600b5560a435600c5581600d5582600e558060015416803b15610e755784809160246040518094819363b3f5a23d60e01b83526101043560048401525af1908115610de357859161224f575b50506003541691823b1561040c5760848492836040519586948593638530b5f760e01b85526002600486015260066024860152604485015260648401525af18015610398576103855750f35b61225890613db6565b61040c578338612203565b61226c90613db6565b61040c5783386121a0565b8880fd5b819a50809296503d83116122a7575b6122948183613e6e565b81010312610dd657889751933880612151565b503d61228a565b6040513d8c823e3d90fd5b985091508388813d81116122e4575b6122d28183613e6e565b81010312610dd657889751913861212d565b503d6122c8565b975090508287813d8111612316575b6123048183613e6e565b81010312610dd6578796519038612108565b503d6122fa565b50346103955780600319360112610395576001546040516001600160a01b039091168152602090f35b50346103955760403660031901126103955780612361613c3c565b6005546001600160a01b0316803b1561056e57604051635382f3b160e01b81523360048083019190915235602482015260ff909216604483015282908290818381606481016105d7565b503461039557602036600319011261039557806123c6613bbe565b6123ce613d8a565b6001546001600160a01b039081169190823b1561040c5760248492836040519586948593633b8e474b60e11b85521660048401525af18015610398576103855750f35b50346103955761242961242336613c90565b90613ef9565b60405190602080830190808452825180925280604085019301945b8281106124515784840385f35b855180518552808301516001600160a01b03168584015260408082015190860152606080820151151590860152608090810151908501529481019460a090930192600101612444565b5034610395576040366003190112610395576001600160401b0390600435828111612718576124cd903690600401613bd4565b92906024918235908111610981576124e9903690600401613bd4565b6124f4929192613d8a565b8086036126e0579190849285925b878410612549578680878760018060a01b0360025416803b1561040c57839283926040519485938492633e9a7b0160e11b845260048401525af18015610398576103855750f35b9091929360018060a01b0360018181541661256d612568898d8a6140e2565b6140f2565b906125798988886140e2565b3591813b156126dc576040516290dc3560e81b81526001600160a01b0391909116600482015260248101929092528a908290604490829084905af180156122ae57908a916126c8575b50506125d2612568888c896140e2565b916125de8887876140e2565b35604051936125ec85613e00565b6000855282602086019116815260408501918252606085019284845260808601944286526006805490600160401b8210156126b357828201905561262f90613d39565b97909761269e5792612690979592600495926126969a989551885587019151166001600160601b0360a01b825416179055516002850155600384019051151560ff80198354169116179055519101556126898786866140e2565b3590613ea6565b94613ed6565b929190612502565b8d634e487b7160e01b60005260006004526000fd5b8e634e487b7160e01b60005260416004526000fd5b6126d190613db6565b6122775788386125c2565b8b80fd5b60405162461bcd60e51b815260206004820152601181860152704d69736d6174636865642061727261797360781b6044820152606490fd5b5080fd5b5034610395578061272c36613ca6565b6004546001600160a01b03169190823b1561040c57604051631df3be6160e31b81523360048201526024810192909252151560448201529082908290818381606481016105d7565b503461039557806003193601126103955761278d613d8a565b600080546001600160a01b0319811682556001600160a01b03167f8be0079c531659141344cd1fd0a4f28419497f9722a3daafe3b4186f6b6457e08280a380f35b503461039557806127de36613c90565b6003546001600160a01b03169190823b1561040c57604051634b6e95cb60e01b8152336004820152602481019290925260448201529082908290818381606481016105d7565b50346103955760203660031901126103955761283e613d8a565b60045481906001600160a01b0316803b156103a357818091602460405180948193630d7474a760e31b835260043560048401525af18015610398576103855750f35b503461039557610100366003190112610395573661010411610395576128a4613d8a565b60045481906001600160a01b0316803b156103a3578160405180926368022f2f60e01b82528183816105d76004820161405b565b5034610395576020906128ea36613c90565b606460018060a09694961b0360035416946040519586938492636a661b6560e01b8452600484015260248301528560448301525afa90811561098c5790611eea57602090604051908152f35b5034610395578060031936011261039557600254604051639ac27dd360e01b81526001600160a01b039091169160208083600481875afa928315610398578293612c62575b50604051637f4f52f960e01b8152908082600481885afa918215612c57578392612c28575b50604051633bd8b07d60e11b8082526001600483015282826024818a5afa918215610de3578592612bf9575b5060405190815284600482015282816024818a5afa908115610de3578591612bcc575b50604051635b849b5f60e01b81529083826004818b5afa9182156116d8578692612b9d575b50604051633021d80960e01b81529284846004818c5afa938415611830578794612b6e575b50604051630739230560e11b81529585876004818d5afa9586156117d2578896612b3e575b6040516397ca2f9560e01b8152975080886004818e5afa97881561191b578998612b0d575b508060049b6040519c8d809263aebdfef760e01b82525afa98891561098c5798612adc575b6101209a50604051998a5289015260408801526060870152608086015260a085015260c084015260e0830152610100820152f35b8098508a813d8311612b06575b612af38183613e6e565b81010312610dd657610120995197612aa8565b503d612ae9565b9a9750808b813d8311612b37575b612b258183613e6e565b81010312610dd6579951969980612a83565b503d612b1b565b80965087813d8311612b67575b612b558183613e6e565b81010312610dd6576004965195612a5e565b503d612b4b565b9093508481813d8311612b96575b612b868183613e6e565b81010312610dd657519238612a39565b503d612b7c565b9091508381813d8311612bc5575b612bb58183613e6e565b81010312610dd657519038612a14565b503d612bab565b90508281813d8311612bf2575b612be38183613e6e565b81010312610dd65751386129ef565b503d612bd9565b9091508281813d8311612c21575b612c118183613e6e565b81010312610dd6575190386129cc565b503d612c07565b9080925081813d8311612c50575b612c408183613e6e565b81010312610dd6575190386129a0565b503d612c36565b6040513d85823e3d90fd5b9080935081813d8311612c8a575b612c7a8183613e6e565b81010312610dd65751913861297b565b503d612c70565b50346103955780612ca136613ca6565b90612caa613d8a565b6003546001600160a01b031691823b1561040c5760448492836040519586948593636558f87560e01b85526004850152151560248401525af18015610398576103855750f35b503461039557602036600319011261039557612d0a613bbe565b81610400604051612d1a81613dc9565b8281528260208201528260408201528260608201528260808201528260a08201528260c08201528260e08201528261010082015282610120820152826101408201528261016082015282610180820152826101a0820152826101c0820152826101e082015282610200820152604051612d9281613e1b565b6101e0368237610220820152604051612daa81613e1b565b6101e0368237610240820152604051612dc281613e1b565b6101e036823761026082015282610280820152826102a0820152826102c0820152826102e08201528261030082015282610320820152826103408201528261036082015282610380820152826103a0820152826103c0820152826103e0820152015261096060018060a01b03600154169160246040518094819363543a185d60e11b835260018060a01b031660048301525afa908115610398578291613009575b6109608260ff610400604051928051845260018060a01b03602082015116602085015260408101516040850152606081015160608501526080810151608085015260a081015160a085015260c081015160c085015260e081015160e08501526101008101516101008501526101208101516101208501526101408101516101408501526101608101516101608501526101808101516101808501526101a08101516101a08501526101c08101516101c08501526101e08101516101e0850152610200810151610200850152612f42610220820151610220860190613c04565b612f5461024082015183860190613c04565b612f686102608201516105e0860190613c04565b6102808101516107c08501526102a08101516107e08501526102c08101516108008501526102e081015161082085015261030081015161084085015261032081015161086085015261034081015161088085015261036081015115156108a085015261038081015115156108c08501526103a081015115156108e08501526103c08101516109008501526103e0810151610920850152015116610940820152f35b61096091503d82116131fe575b6130208282613e6e565b610960818381010312610aab57610940906131366040519361304185613dc9565b8251855261305160208401614106565b602086015260408301516040860152606083015160608601526080830151608086015260a083015160a086015260c083015160c086015260e083015160e08601526101008301516101008601526101208301516101208601526101408301516101408601526101608301516101608601526101808301516101808601526101a08301516101a08601526101c08301516101c08601526101e08301516101e086015261020083015161020086015261310e818401610220850161411a565b610220860152613124818401610400850161411a565b61024086015282016105e0830161411a565b6102608401526107c08101516102808401526107e08101516102a08401526108008101516102c08401526108208101516102e084015261084081015161030084015261086081015161032084015261088081015161034084015261319d6108a08201614160565b6103608401526131b06108c08201614160565b6103808401526131c36108e08201614160565b6103a08401526109008101516103c08401526109208101516103e0840152015160ff81168103610aab57610960925061040082015238612e63565b3d9150613016565b50346103955780600319360112610395576002546040516001600160a01b039091168152602090f35b50346103955780600319360112610395576020600a54604051908152f35b50346103955780600319360112610395576106b961326961416d565b604080519384526020840192909252908201529081906060820190565b5034610395578061329636613c90565b600354604051635e2ab58f60e11b81526004810193909352602483019190915260016044830152909190829060649082906001600160a01b03165afa90811561039857826106b993926106bd57505060405191829182613c4c565b50346103955760c0366003190112610395573660c41161039557613313613d8a565b6004546001600160a01b031690813b1561039557604051634f47daa760e01b81526004828183015b6003821061335d57505050818160c4818380975af18015610398576103855750f35b60408060019285358152602080870135908201520193019101909161333b565b50346103955760208060031936011261271857613398613bbe565b60015460405163bff1f9e160e01b81526001600160a01b03918216929091908483600481875afa80156116d85785938791613465575b50868091600954811060001461344457506064929150600854955b60405196879586946319d09f4960e21b865233600487015216602485015260448401525af18015612c575761341c578280f35b813d831161343d575b61342f8183613e6e565b81010312610dd65738808280f35b503d613425565b600b96919296541161345b575b90606492916133e9565b600a549550613451565b84819592503d831161348d575b61347c8183613e6e565b81010312610dd657849251386133ce565b503d613472565b50346103955760209081600319360112610395576134b0613c2c565b9060018060a01b039081600554169360ff604051946365cdefbd60e11b865216928360048601528185602481895afa948515612c5757839561363a575b50604051630d2bd54f60e41b815260048101859052958287602481845afa9687156135fa578497613605575b5090826004939260405194858092633f2a11b760e21b82525afa9283156135fa5784936135cb575b5081906002541694602460405180978193633bd8b07d60e11b835260048301525afa92831561098c5792613599575b506106b99250604051948594859094939260609260808301968352602083015260408201520152565b90915082813d83116135c4575b6135b08183613e6e565b81010312610dd6576106b991519038613570565b503d6135a6565b9092508181813d83116135f3575b6135e38183613e6e565b81010312610dd657519181613541565b503d6135d9565b6040513d86823e3d90fd5b92809291975083813d8311613633575b61361f8183613e6e565b81010312610dd65791519590919082613519565b503d613615565b9094508181813d8311613662575b6136528183613e6e565b81010312610dd6575193386134ed565b503d613648565b5034610395578061367936613c90565b6003546001600160a01b03169190823b1561040c57604051632013367d60e21b8152336004820152602481019290925260448201529082908290818381606481016105d7565b50346103955760203660031901126103955760035460405163ed138eff60e01b8152600480359082015260248101839052908290829060449082906001600160a01b03165afa90811561039857826106b993926106bd57505060405191829182613c4c565b5034610395578060031936011261039557600354604051633045e0ad60e01b81529190602090839060049082906001600160a01b03165afa90811561098c5790611eea57602090604051908152f35b50346103955780600319360112610395576020600654604051908152f35b50346103955760203660031901126103955760025481906001600160a01b0316803b156103a35760405163f3fef3a360e01b8152336004808301919091523560248201529082908290818381604481016105d7565b50346103955760403660031901126103955780613801613c2c565b6024356001600160401b03811161056e57613820903690600401613bd4565b61382b929192613d8a565b6005546001600160a01b0316803b15610e755760ff8580946105d760405197889687958694639f91375960e01b8652166004850152604060248501526044840191614099565b5034610395576020908160031936011261039557600154604051632a2d0c4760e01b815260048035908201526001600160a01b039184908290602490829086165afa92831561098c578093610a7157505060405191168152f35b50346103955780600319360112610395576020600854604051908152f35b50346103955780600319360112610395576004546040516001600160a01b039091168152602090f35b50346103955780600319360112610395576020600c54604051908152f35b503461039557806003193601126103955760405161394d81613e1b565b6101e09182368337600754825260085460208301526009546040830152600a546060830152600b546080830152600c5460a0830152600d5460c0830152600e5460e08301526004602060018060a01b036001541660405192838092633fe762e760e01b82525afa91821561098c57916139df575b5061010082015260086101808201526139dd6040518092613c04565bf35b90506020813d8211613a08575b816139f960209383613e6e565b81010312610dd65751386139c1565b3d91506139ec565b5034610395578060031936011261039557600354604051630f01f32960e11b81529190602090839060049082906001600160a01b03165afa90811561098c5790611eea57602090604051908152f35b50346103955780600319360112610395576020600754604051908152f35b50346103955760c036600319011261039557613a97613d8a565b60045481906001600160a01b0316803b156103a35781809160c4604051809481936314c8496760e01b83526004356004840152602435602484015260443560448401526064356064840152608435608484015260a43560a48401525af18015610398576103855750f35b503461039557606036600319011261039557613b1b613bbe565b6001600160a01b039082906024358381169190829003610aab576044356001600160401b03811161098157613b54903690600401613bd4565b9490613b5e613d8a565b816002541692833b156105e857613ba086926040519889978896879563129a737360e01b87521660048601526024850152606060448501526064840191614099565b03925af1801561039857613bb2575080f35b613bbb90613db6565b80f35b600435906001600160a01b0382168203610dd657565b9181601f84011215610dd6578235916001600160401b038311610dd6576020808501948460051b010111610dd657565b6000915b600f8310613c1557505050565b600190825181526020809101920192019190613c08565b6004359060ff82168203610dd657565b6024359060ff82168203610dd657565b6020908160408183019282815285518094520193019160005b828110613c73575050505090565b83516001600160a01b031685529381019392810192600101613c65565b6040906003190112610dd6576004359060243590565b6040906003190112610dd657600435906024358015158103610dd65790565b6080906003190112610dd65760043590602435906044359060643590565b6000915b60048310613cf457505050565b6001906040835191825181526020809301518382015201920192019190613ce7565b60005b838110613d295750506000910152565b8181015183820152602001613d19565b600654811015613d74576005906006600052027ff652222313e28459528d920b65115c16c04f3efc82aaedc97be59f3f377c0d3f0190600090565b634e487b7160e01b600052603260045260246000fd5b6000546001600160a01b03163303613d9e57565b60405163118cdaa760e01b8152336004820152602490fd5b6001600160401b038111610d9557604052565b61042081019081106001600160401b03821117610d9557604052565b604081019081106001600160401b03821117610d9557604052565b60a081019081106001600160401b03821117610d9557604052565b6101e081019081106001600160401b03821117610d9557604052565b608081019081106001600160401b03821117610d9557604052565b61028081019081106001600160401b03821117610d9557604052565b90601f801991011681019081106001600160401b03821117610d9557604052565b6001600160401b038111610d955760051b60200190565b91908201809211613eb357565b634e487b7160e01b600052601160045260246000fd5b91908203918211613eb357565b6000198114613eb35760010190565b8051821015613d745760209160051b010190565b90600654908183101561403557613f109083613ea6565b8282821161402d575b613f2291613ec9565b613f2b81613e8f565b92604092613f3b84519586613e6e565b828552601f19613f4a84613e8f565b0160005b818110613ff5575050600019810190811160005b848110613f725750505050505090565b81613eb35780613f96613f91613f8b613ff09488613ea6565b86613ec9565b613d39565b506004885191613fa583613e00565b8054835260018101546001600160a01b0316602084015260028101548a840152600381015460ff161515606084015201546080820152613fe5828a613ee5565b526117968189613ee5565b613f62565b602090865161400381613e00565b60008152826000818301526000898301526000606083015260006080830152828a01015201613f4e565b829150613f19565b505050604051602081018181106001600160401b03821117610d95576040526000815290565b9061010082019160049081906000905b8382106140785750505050565b6001908335815260208085013590820152604080910193019101909161406b565b9190808252602080920192916000805b8382106140b857505050505090565b9091929394853560018060a01b038116809103610aab5781528301948301939291600101906140a9565b9190811015613d745760051b0190565b356001600160a01b0381168103610dd65790565b51906001600160a01b0382168203610dd657565b9080601f83011215610dd6576040519161413383613e1b565b82906101e08101928311610dd657905b8282106141505750505090565b8151815260209182019101614143565b51908115158203610dd657565b6001546040805163bff1f9e160e01b81526001600160a01b0390921692909160208082600481885afa91821561429d5760009261426e575b5083516317e0695f60e21b8152948186600481845afa95861561426357600096614234575b50908060049286519384809263966eab1160e01b82525afa94851561422a57506000946141f9575b5050929190565b8181959293953d8311614223575b6142118183613e6e565b810103126103955750519138806141f2565b503d614207565b513d6000823e3d90fd5b90958282813d831161425c575b61424b8183613e6e565b8101031261039557505194816141ca565b503d614241565b85513d6000823e3d90fd5b90918282813d8311614296575b6142858183613e6e565b8101031261039557505190386141a5565b503d61427b565b84513d6000823e3d90fd5b6040908151916142b783613e37565b600083815b608081106142ca5750505050565b60209084516142d881613de5565b848152848382015281840152016142bc565b90600f811015613d745760051b0190565b906004811015613d745760051b0190565b9190826040910312610dd6576020825192015190565b6020908181840312610dd6578051906001600160401b038211610dd657019180601f84011215610dd657825161435781613e8f565b936143656040519586613e6e565b818552838086019260051b820101928311610dd6578301905b82821061438c575050505090565b83809161439884614106565b81520191019061437e56fea2646970667358221220b6b203e7b2379907640395e920e53e92cd05d821d93baa2435a6f83291489d2e64736f6c63430008140033",
  "linkReferences": {},
  "deployedLinkReferences": {}
}