{
  "_format": "hh-sol-artifact-1",
  "contractName": "MockUSDT",
  "sourceName": "contracts/MockUSDT.sol",
  "abi": [
    {
      "inputs": [],
      "stateMutability": "nonpayable",
      "type": "constructor"
    },
    {
      "inputs": [
        {
          "internalType": "address",
          "name": "spender",
          "type": "address"
        },
        {
          "internalType": "uint256",
          "name": "allowance",
          "type": "uint256"
        },
        {
          "internalType": "uint256",
          "name": "needed",
          "type": "uint256"
        }
      ],
      "name": "ERC20InsufficientAllowance",
      "type": "error"
    },
    {
      "inputs": [
        {
          "internalType": "address",
          "name": "sender",
          "type": "address"
        },
        {
          "internalType": "uint256",
          "name": "balance",
          "type": "uint256"
        },
        {
          "internalType": "uint256",
          "name": "needed",
          "type": "uint256"
        }
      ],
      "name": "ERC20InsufficientBalance",
      "type": "error"
    },
    {
      "inputs": [
        {
          "internalType": "address",
          "name": "approver",
          "type": "address"
        }
      ],
      "name": "ERC20InvalidApprover",
      "type": "error"
    },
    {
      "inputs": [
        {
          "internalType": "address",
          "name": "receiver",
          "type": "address"
        }
      ],
      "name": "ERC20InvalidReceiver",
      "type": "error"
    },
    {
      "inputs": [
        {
          "internalType": "address",
          "name": "sender",
          "type": "address"
        }
      ],
      "name": "ERC20InvalidSender",
      "type": "error"
    },
    {
      "inputs": [
        {
          "internalType": "address",
          "name": "spender",
          "type": "address"
        }
      ],
      "name": "ERC20InvalidSpender",
      "type": "error"
    },
    {
      "anonymous": false,
      "inputs": [
        {
          "indexed": true,
          "internalType": "address",
          "name": "owner",
          "type": "address"
        },
        {
          "indexed": true,
          "internalType": "address",
          "name": "spender",
          "type": "address"
        },
        {
          "indexed": false,
          "internalType": "uint256",
          "name": "value",
          "type": "uint256"
        }
      ],
      "name": "Approval",
      "type": "event"
    },
    {
      "anonymous": false,
      "inputs": [
        {
          "indexed": true,
          "internalType": "address",
          "name": "from",
          "type": "address"
        },
        {
          "indexed": true,
          "internalType": "address",
          "name": "to",
          "type": "address"
        },
        {
          "indexed": false,
          "internalType": "uint256",
          "name": "value",
          "type": "uint256"
        }
      ],
      "name": "Transfer",
      "type": "event"
    },
    {
      "inputs": [
        {
          "internalType": "address",
          "name": "owner",
          "type": "address"
        },
        {
          "internalType": "address",
          "name": "spender",
          "type": "address"
        }
      ],
      "name": "allowance",
      "outputs": [
        {
          "internalType": "uint256",
          "name": "",
          "type": "uint256"
        }
      ],
      "stateMutability": "view",
      "type": "function"
    },
    {
      "inputs": [
        {
          "internalType": "address",
          "name": "spender",
          "type": "address"
        },
        {
          "internalType": "uint256",
          "name": "value",
          "type": "uint256"
        }
      ],
      "name": "approve",
      "outputs": [
        {
          "internalType": "bool",
          "name": "",
          "type": "bool"
        }
      ],
      "stateMutability": "nonpayable",
      "type": "function"
    },
    {
      "inputs": [
        {
          "internalType": "address",
          "name": "account",
          "type": "address"
        }
      ],
      "name": "balanceOf",
      "outputs": [
        {
          "internalType": "uint256",
          "name": "",
          "type": "uint256"
        }
      ],
      "stateMutability": "view",
      "type": "function"
    },
    {
      "inputs": [],
      "name": "decimals",
      "outputs": [
        {
          "internalType": "uint8",
          "name": "",
          "type": "uint8"
        }
      ],
      "stateMutability": "view",
      "type": "function"
    },
    {
      "inputs": [],
      "name": "faucet",
      "outputs": [],
      "stateMutability": "nonpayable",
      "type": "function"
    },
    {
      "inputs": [],
      "name": "name",
      "outputs": [
        {
          "internalType": "string",
          "name": "",
          "type": "string"
        }
      ],
      "stateMutability": "view",
      "type": "function"
    },
    {
      "inputs": [],
      "name": "symbol",
      "outputs": [
        {
          "internalType": "string",
          "name": "",
          "type": "string"
        }
      ],
      "stateMutability": "view",
      "type": "function"
    },
    {
      "inputs": [],
      "name": "totalSupply",
      "outputs": [
        {
          "internalType": "uint256",
          "name": "",
          "type": "uint256"
        }
      ],
      "stateMutability": "view",
      "type": "function"
    },
    {
      "inputs": [
        {
          "internalType": "address",
          "name": "to",
          "type": "address"
        },
        {
          "internalType": "uint256",
          "name": "value",
          "type": "uint256"
        }
      ],
      "name": "transfer",
      "outputs": [
        {
          "internalType": "bool",
          "name": "",
          "type": "bool"
        }
      ],
      "stateMutability": "nonpayable",
      "type": "function"
    },
    {
      "inputs": [
        {
          "internalType": "address",
          "name": "from",
          "type": "address"
        },
        {
          "internalType": "address",
          "name": "to",
          "type": "address"
        },
        {
          "internalType": "uint256",
          "name": "value",
          "type": "uint256"
        }
      ],
      "name": "transferFrom",
      "outputs": [
        {
          "internalType": "bool",
          "name": "",
          "type": "bool"
        }
      ],
      "stateMutability": "nonpayable",
      "type": "function"
    }
  ],
  "bytecode": "0x608034620003c1576040906001600160401b039080830182811182821017620003ab5783526009815260209068135bd8dac81554d11560ba1b8282015283519284840184811082821117620003ab578552600493848152631554d11560e21b84820152825182811162000396576003918254916001958684811c941680156200038b575b8885101462000376578190601f9485811162000320575b508890858311600114620002b957600092620002ad575b505060001982861b1c191690861b1783555b8051938411620002985786548581811c911680156200028d575b8782101462000278578281116200022d575b5085918411600114620001c257938394918492600095620001b6575b50501b92600019911b1c19161782555b33156200019f5760025469d3c21bcecceda1000000928382018092116200018a57506000917fddf252ad1be2c89b69c2b068fc378daa952ba7f163c4a11628f55a4df523b3ef9160025533835282815284832084815401905584519384523393a3516107459081620003c78239f35b601190634e487b7160e01b6000525260246000fd5b506000602492519163ec442f0560e01b8352820152fd5b0151935038806200010b565b9190601f198416928760005284876000209460005b8989838310620002155750505010620001fa575b50505050811b0182556200011b565b01519060f884600019921b161c1916905538808080620001eb565b868601518955909701969485019488935001620001d7565b87600052866000208380870160051c8201928988106200026e575b0160051c019086905b82811062000261575050620000ef565b6000815501869062000251565b9250819262000248565b602288634e487b7160e01b6000525260246000fd5b90607f1690620000dd565b604187634e487b7160e01b6000525260246000fd5b015190503880620000b1565b90889350601f19831691876000528a6000209260005b8c828210620003095750508411620002f0575b505050811b018355620000c3565b015160001983881b60f8161c19169055388080620002e2565b8385015186558c97909501949384019301620002cf565b90915085600052886000208580850160051c8201928b86106200036c575b918a91869594930160051c01915b8281106200035c5750506200009a565b600081558594508a91016200034c565b925081926200033e565b602289634e487b7160e01b6000525260246000fd5b93607f169362000083565b604186634e487b7160e01b6000525260246000fd5b634e487b7160e01b600052604160045260246000fd5b600080fdfe608060408181526004908136101561001657600080fd5b600092833560e01c90816306fdde03146104de57508063095ea7b31461043457806318160ddd1461041557806323b872dd1461031f578063313ce5671461030357806370a08231146102cc57806395d89b41146101ac578063a9059cbb1461017b578063dd62ed3e1461012e5763de5f72fd1461009257600080fd5b3461012a578260031936011261012a57331561011557600254683635c9adc5dea000009283820180921161010257506002553383528260205280832082815401905551908152817fddf252ad1be2c89b69c2b068fc378daa952ba7f163c4a11628f55a4df523b3ef60203393a380f35b634e487b7160e01b855260119052602484fd5b91602492519163ec442f0560e01b8352820152fd5b8280fd5b8382346101775780600319360112610177578060209261014c610600565b61015461061b565b6001600160a01b0391821683526001865283832091168252845220549051908152f35b5080fd5b8382346101775780600319360112610177576020906101a561019b610600565b6024359033610631565b5160018152f35b50829034610177578160031936011261017757805190828454600181811c908083169283156102c2575b60209384841081146102af57838852908115610293575060011461023e575b505050829003601f01601f191682019267ffffffffffffffff84118385101761022b57508291826102279252826105b7565b0390f35b634e487b7160e01b815260418552602490fd5b8787529192508591837f8a35acfbc15ff81a39ae7d344fd709f28e8600b4aa8c65c6b64bfe7fe36bd19b5b83851061027f57505050508301018580806101f5565b805488860183015293019284908201610269565b60ff1916878501525050151560051b84010190508580806101f5565b634e487b7160e01b895260228a52602489fd5b91607f16916101d6565b8382346101775760203660031901126101775760209181906001600160a01b036102f4610600565b16815280845220549051908152f35b8382346101775781600319360112610177576020905160128152f35b5091346104125760603660031901126104125761033a610600565b61034261061b565b916044359360018060a01b03831680835260016020528683203384526020528683205491600019831061037e575b6020886101a5898989610631565b8683106103e65781156103cf5733156103b8575082526001602090815286832033845281529186902090859003905582906101a538610370565b8751634a1406b160e11b8152908101849052602490fd5b875163e602df0560e01b8152908101849052602490fd5b8751637dc7a0d960e11b8152339181019182526020820193909352604081018790528291506060010390fd5b80fd5b8382346101775781600319360112610177576020906002549051908152f35b50903461012a578160031936011261012a5761044e610600565b6024359033156104c7576001600160a01b03169182156104b057508083602095338152600187528181208582528752205582519081527f8c5be1e5ebec7d5bd14f71427d1e84f3dd0314c0f7b2291e5b200ac8c7c3b925843392a35160018152f35b8351634a1406b160e11b8152908101859052602490fd5b835163e602df0560e01b8152808401869052602490fd5b905083913461012a578260031936011261012a5782600354600181811c908083169283156105ad575b60209384841081146102af57838852908115610293575060011461055757505050829003601f01601f191682019267ffffffffffffffff84118385101761022b57508291826102279252826105b7565b600387529192508591837fc2575a0e9e593c00f959f8c92f12db2869c3395a3b0502d05e2516446f71f85b5b83851061059957505050508301018580806101f5565b805488860183015293019284908201610583565b91607f1691610507565b6020808252825181830181905290939260005b8281106105ec57505060409293506000838284010152601f8019910116010190565b8181018601518482016040015285016105ca565b600435906001600160a01b038216820361061657565b600080fd5b602435906001600160a01b038216820361061657565b916001600160a01b038084169283156106f657169283156106dd57600090838252816020526040822054908382106106ab575091604082827fddf252ad1be2c89b69c2b068fc378daa952ba7f163c4a11628f55a4df523b3ef958760209652828652038282205586815220818154019055604051908152a3565b60405163391434e360e21b81526001600160a01b03919091166004820152602481019190915260448101839052606490fd5b60405163ec442f0560e01b815260006004820152602490fd5b604051634b637e8f60e11b815260006004820152602490fdfea2646970667358221220353e7bf97a8b7f27a21dabc59198728502ceeb81649d76ae208dd1962da56d5364736f6c63430008140033",
  "linkReferences": {},
  "deployedLinkReferences": {}
}