{
  "_format": "hh-sol-artifact-1",
  "contractName": "TRKCashbackEngine",
  "sourceName": "contracts/TRKCashbackEngine.sol",
  "abi": [
    {
      "inputs": [
        {
          "internalType": "address",
          "name": "_registry",
          "type": "address"
        },
        {
          "internalType": "address",
          "name": "_treasury",
          "type": "address"
        }
      ],
      "stateMutability": "nonpayable",
      "type": "constructor"
    },
    {
      "inputs": [
        {
          "internalType": "address",
          "name": "owner",
          "type": "address"
        }
      ],
      "name": "OwnableInvalidOwner",
      "type": "error"
    },
    {
      "inputs": [
        {
          "internalType": "address",
          "name": "account",
          "type": "address"
        }
      ],
      "name": "OwnableUnauthorizedAccount",
      "type": "error"
    },
    {
      "anonymous": false,
      "inputs": [
        {
          "indexed": true,
          "internalType": "address",
          "name": "previousOwner",
          "type": "address"
        },
        {
          "indexed": true,
          "internalType": "address",
          "name": "newOwner",
          "type": "address"
        }
      ],
      "name": "OwnershipTransferred",
      "type": "event"
    },
    {
      "inputs": [
        {
          "internalType": "uint256",
          "name": "",
          "type": "uint256"
        }
      ],
      "name": "capMultipliersAfter10k",
      "outputs": [
        {
          "internalType": "uint256",
          "name": "directs",
          "type": "uint256"
        },
        {
          "internalType": "uint256",
          "name": "multiplier",
          "type": "uint256"
        }
      ],
      "stateMutability": "view",
      "type": "function"
    },
    {
      "inputs": [
        {
          "internalType": "uint256",
          "name": "",
          "type": "uint256"
        }
      ],
      "name": "capMultipliersBefore10k",
      "outputs": [
        {
          "internalType": "uint256",
          "name": "directs",
          "type": "uint256"
        },
        {
          "internalType": "uint256",
          "name": "multiplier",
          "type": "uint256"
        }
      ],
      "stateMutability": "view",
      "type": "function"
    },
    {
      "inputs": [
        {
          "internalType": "uint256",
          "name": "",
          "type": "uint256"
        }
      ],
      "name": "cashbackPhases",
      "outputs": [
        {
          "internalType": "uint256",
          "name": "userLimit",
          "type": "uint256"
        },
        {
          "internalType": "uint256",
          "name": "rate",
          "type": "uint256"
        }
      ],
      "stateMutability": "view",
      "type": "function"
    },
    {
      "inputs": [
        {
          "internalType": "address",
          "name": "user",
          "type": "address"
        }
      ],
      "name": "claimDailyCashback",
      "outputs": [],
      "stateMutability": "nonpayable",
      "type": "function"
    },
    {
      "inputs": [
        {
          "internalType": "address",
          "name": "user",
          "type": "address"
        },
        {
          "internalType": "uint256",
          "name": "roundId",
          "type": "uint256"
        },
        {
          "internalType": "bool",
          "name": "isCashGame",
          "type": "bool"
        }
      ],
      "name": "claimLoss",
      "outputs": [],
      "stateMutability": "nonpayable",
      "type": "function"
    },
    {
      "inputs": [],
      "name": "dailyLossThreshold",
      "outputs": [
        {
          "internalType": "uint256",
          "name": "",
          "type": "uint256"
        }
      ],
      "stateMutability": "view",
      "type": "function"
    },
    {
      "inputs": [],
      "name": "gameEngine",
      "outputs": [
        {
          "internalType": "address",
          "name": "",
          "type": "address"
        }
      ],
      "stateMutability": "view",
      "type": "function"
    },
    {
      "inputs": [
        {
          "internalType": "address",
          "name": "",
          "type": "address"
        }
      ],
      "name": "lastDailyClaim",
      "outputs": [
        {
          "internalType": "uint256",
          "name": "",
          "type": "uint256"
        }
      ],
      "stateMutability": "view",
      "type": "function"
    },
    {
      "inputs": [],
      "name": "lossCashbackBps",
      "outputs": [
        {
          "internalType": "uint256",
          "name": "",
          "type": "uint256"
        }
      ],
      "stateMutability": "view",
      "type": "function"
    },
    {
      "inputs": [],
      "name": "lossReferralBps",
      "outputs": [
        {
          "internalType": "uint256",
          "name": "",
          "type": "uint256"
        }
      ],
      "stateMutability": "view",
      "type": "function"
    },
    {
      "inputs": [],
      "name": "luckyDraw",
      "outputs": [
        {
          "internalType": "contract ITRKLuckyDraw",
          "name": "",
          "type": "address"
        }
      ],
      "stateMutability": "view",
      "type": "function"
    },
    {
      "inputs": [],
      "name": "luckySharePercent",
      "outputs": [
        {
          "internalType": "uint256",
          "name": "",
          "type": "uint256"
        }
      ],
      "stateMutability": "view",
      "type": "function"
    },
    {
      "inputs": [],
      "name": "maxDailyCashback",
      "outputs": [
        {
          "internalType": "uint256",
          "name": "",
          "type": "uint256"
        }
      ],
      "stateMutability": "view",
      "type": "function"
    },
    {
      "inputs": [],
      "name": "owner",
      "outputs": [
        {
          "internalType": "address",
          "name": "",
          "type": "address"
        }
      ],
      "stateMutability": "view",
      "type": "function"
    },
    {
      "inputs": [],
      "name": "phaseThresholdUserCount",
      "outputs": [
        {
          "internalType": "uint256",
          "name": "",
          "type": "uint256"
        }
      ],
      "stateMutability": "view",
      "type": "function"
    },
    {
      "inputs": [],
      "name": "registry",
      "outputs": [
        {
          "internalType": "contract ITRKRegistry",
          "name": "",
          "type": "address"
        }
      ],
      "stateMutability": "view",
      "type": "function"
    },
    {
      "inputs": [],
      "name": "renounceOwnership",
      "outputs": [],
      "stateMutability": "nonpayable",
      "type": "function"
    },
    {
      "inputs": [
        {
          "internalType": "uint256",
          "name": "",
          "type": "uint256"
        }
      ],
      "name": "roiPercents",
      "outputs": [
        {
          "internalType": "uint256",
          "name": "",
          "type": "uint256"
        }
      ],
      "stateMutability": "view",
      "type": "function"
    },
    {
      "inputs": [],
      "name": "roiPoolRatio",
      "outputs": [
        {
          "internalType": "uint256",
          "name": "",
          "type": "uint256"
        }
      ],
      "stateMutability": "view",
      "type": "function"
    },
    {
      "inputs": [],
      "name": "router",
      "outputs": [
        {
          "internalType": "address",
          "name": "",
          "type": "address"
        }
      ],
      "stateMutability": "view",
      "type": "function"
    },
    {
      "inputs": [
        {
          "internalType": "address",
          "name": "_router",
          "type": "address"
        },
        {
          "internalType": "address",
          "name": "_gameEngine",
          "type": "address"
        },
        {
          "internalType": "address",
          "name": "_luckyDraw",
          "type": "address"
        }
      ],
      "name": "setAddresses",
      "outputs": [],
      "stateMutability": "nonpayable",
      "type": "function"
    },
    {
      "inputs": [
        {
          "components": [
            {
              "internalType": "uint256",
              "name": "directs",
              "type": "uint256"
            },
            {
              "internalType": "uint256",
              "name": "multiplier",
              "type": "uint256"
            }
          ],
          "internalType": "struct ITRKCashbackEngine.Cap[4]",
          "name": "_caps",
          "type": "tuple[4]"
        }
      ],
      "name": "setCapMultipliersAfter10k",
      "outputs": [],
      "stateMutability": "nonpayable",
      "type": "function"
    },
    {
      "inputs": [
        {
          "components": [
            {
              "internalType": "uint256",
              "name": "directs",
              "type": "uint256"
            },
            {
              "internalType": "uint256",
              "name": "multiplier",
              "type": "uint256"
            }
          ],
          "internalType": "struct ITRKCashbackEngine.Cap[4]",
          "name": "_caps",
          "type": "tuple[4]"
        }
      ],
      "name": "setCapMultipliersBefore10k",
      "outputs": [],
      "stateMutability": "nonpayable",
      "type": "function"
    },
    {
      "inputs": [
        {
          "components": [
            {
              "internalType": "uint256",
              "name": "userLimit",
              "type": "uint256"
            },
            {
              "internalType": "uint256",
              "name": "rate",
              "type": "uint256"
            }
          ],
          "internalType": "struct ITRKCashbackEngine.Phase[3]",
          "name": "_phases",
          "type": "tuple[3]"
        }
      ],
      "name": "setCashbackPhases",
      "outputs": [],
      "stateMutability": "nonpayable",
      "type": "function"
    },
    {
      "inputs": [
        {
          "internalType": "uint256",
          "name": "_lossCashBps",
          "type": "uint256"
        },
        {
          "internalType": "uint256",
          "name": "_lossRefBps",
          "type": "uint256"
        },
        {
          "internalType": "uint256",
          "name": "_threshold",
          "type": "uint256"
        },
        {
          "internalType": "uint256",
          "name": "_luckyShare",
          "type": "uint256"
        },
        {
          "internalType": "uint256",
          "name": "_roiRatio",
          "type": "uint256"
        },
        {
          "internalType": "uint256",
          "name": "_maxDaily",
          "type": "uint256"
        }
      ],
      "name": "setCashbackSettings",
      "outputs": [],
      "stateMutability": "nonpayable",
      "type": "function"
    },
    {
      "inputs": [
        {
          "internalType": "uint256",
          "name": "_threshold",
          "type": "uint256"
        }
      ],
      "name": "setPhaseThreshold",
      "outputs": [],
      "stateMutability": "nonpayable",
      "type": "function"
    },
    {
      "inputs": [
        {
          "internalType": "uint256[15]",
          "name": "_percents",
          "type": "uint256[15]"
        }
      ],
      "name": "setRoiPercents",
      "outputs": [],
      "stateMutability": "nonpayable",
      "type": "function"
    },
    {
      "inputs": [
        {
          "internalType": "address",
          "name": "newOwner",
          "type": "address"
        }
      ],
      "name": "transferOwnership",
      "outputs": [],
      "stateMutability": "nonpayable",
      "type": "function"
    },
    {
      "inputs": [],
      "name": "treasury",
      "outputs": [
        {
          "internalType": "contract ITRKTreasury",
          "name": "",
          "type": "address"
        }
      ],
      "stateMutability": "view",
      "type": "function"
    }
  ],
  "bytecode": "0x608034620003b25762001fae906001600160401b0390601f38849003908101601f191682019083821183831017620003b75780839160409687948552833981010312620003b25762000051816200040d565b906200006160208092016200040d565b9033156200039a5760008054336001600160a01b031980831682178455966001600160a01b03969394939290919087167f8be0079c531659141344cd1fd0a4f28419497f9722a3daafe3b4186f6b6457e08680a3600590816006556001978860075568056bc75e2d631000006008556014600955600a9760328955678ac7230489e80000600b558a51946101e086018681108582111762000386579082918d52601487528a888801528a8d8801528a60608801528a60808801528560a08801528560c08801528560e08801528561010088015285610120880152600396876101408201528761016082015287610180820152876101a0820152876101c08201528c8a5b600f81106200036f5750505061271060315516828b5416178a5560029716908754161786558851906060820190828210908211176200035b578952620001a9620003cd565b620186a081526032858201528152620001c1620003cd565b620f4240815260288582015284820152620001db620003cd565b85815260218582015289820152601b9088878688935b8785106200033b5750505050505062000209620003ed565b9562000214620003cd565b6014815260088582015287526200022a620003cd565b9681885260049788868201528582015262000244620003cd565b83815287868201528a8201526200025a620003cd565b8681528986820152606082015260219089888789935b8c85106200031b5750505050505062000288620003ed565b9262000293620003cd565b6014815288868201528452620002a8620003cd565b9182528482015283830152620002bd620003cd565b908152848382015287820152620002d3620003cd565b83815282810187905260608201526029905b858410620002fc578751611b8b9081620004238239f35b80518051835560200151600183015592860192908401908201620002e5565b8051805187556020015160018701550193019101909188878c9262000270565b8051805187556020015160018701550193019101909187868b92620001f1565b634e487b7160e01b86526041600452602486fd5b8251600c820155859450918a01918e910162000164565b634e487b7160e01b89526041600452602489fd5b8451631e4fbdf760e01b815260006004820152602490fd5b600080fd5b634e487b7160e01b600052604160045260246000fd5b60408051919082016001600160401b03811183821017620003b757604052565b60405190608082016001600160401b03811183821017620003b757604052565b51906001600160a01b0382168203620003b25756fe6080604052600436101561001257600080fd5b6000803560e01c806314c849671461158c578063193846841461155f578063363bf964146114e95780633849b047146114af5780633e717b77146114755780634f47daa71461140057806361d027b3146113d7578063641ac330146113b957806368022f2f1461134257806368a9fc6b146113245780636ba3a538146112e9578063715018a61461128f5780637b103999146112665780637fc25fac146111ef5780638224e64c1461117f5780638da5cb5b14611158578063923bccbe1461111f57806394a227c3146111015780639afb8497146110e3578063c69f643c146110c5578063c831b7d6146110a7578063cf9c2e411461107e578063d374606614611040578063d8a1767514611022578063e533627614610ff9578063e6c7b083146106be578063ef9df30814610217578063f2fde38b146101875763f887ea401461015c57600080fd5b346101845780600319360112610184576003546040516001600160a01b039091168152602090f35b80fd5b5034610184576020366003190112610184576101a16115e5565b6101a9611625565b6001600160a01b039081169081156101fe57600054826bffffffffffffffffffffffff60a01b821617600055167f8be0079c531659141344cd1fd0a4f28419497f9722a3daafe3b4186f6b6457e0600080a380f35b604051631e4fbdf760e01b815260048101849052602490fd5b5034610184576060366003190112610184576102316115e5565b90604480359283159081158095036106ba576003546001600160a01b03929061025d90841633146116bd565b61068457816004541690811561064a579084929160405194627ded8b60e11b86528382169283600488015260249889358a890152828801528660648160209889945af195861561063f57879661060b575b5085156105c957908697916103e892836102ca6006548a611694565b049389978760015416604051809163543a185d60e11b82528960048301528186610aa09485935afa9182156105be578d92610591575b50500198878a5116610578575b5050856002541661031e88866119fd565b813b15610574578a9183839260405194859384926309e042c560e41b845260048401525af1908115610569578a91610551575b5050856001541690813b1561054d5760c48a9291838093816040519788968795632f10a17960e21b9d8e885260048801528601528401528860648401528160848401528160a48401525af190811561054257889161052e575b5050836001541691823b1561052a576040516334361a7560e11b81526001600160a01b0392909216600483015260248201529086908290604490829084905af190811561051f578691610507575b50508184511680610407578580f35b826001541691823b15610503576040519081526001600160a01b0391909116600482015260248101849052600060448201819052606482018190526084820181905260a4820152908590829060c490829084905af19081156104f85785916104e4575b5050806001541692511690823b156104df576040516380aa9a9360e01b81526001600160a01b0392909216600483015260248201529082908290604490829084905af180156104d4576104c0575b808080808580f35b6104c9906116f7565b6101845780386104b8565b6040513d84823e3d90fd5b505050fd5b6104ed906116f7565b6104df57833861046a565b6040513d87823e3d90fd5b8680fd5b610510906116f7565b61051b5784386103f8565b8480fd5b6040513d88823e3d90fd5b8780fd5b610537906116f7565b6105035786386103aa565b6040513d8a823e3d90fd5b8980fd5b61055a906116f7565b610565578838610351565b8880fd5b6040513d8c823e3d90fd5b8a80fd5b6105889192985060075490611694565b0495388061030d565b6105b09250803d106105b7575b6105a88183611721565b8101906117c7565b3880610300565b503d61059e565b6040513d8f823e3d90fd5b847f4e6f2076616c6964206c6f73742062657420666f756e6400000000000000000060649260178b6040519462461bcd60e51b86526004860152840152820152fd5b9095508481813d8311610638575b6106238183611721565b81010312610633575194386102ae565b600080fd5b503d610619565b6040513d89823e3d90fd5b60405162461bcd60e51b815260206004820152601360248201527211d85b5948195b99da5b99481b9bdd081cd95d606a1b81860152606490fd5b60405162461bcd60e51b815260206004820152600f60248201526e436173682067616d6573206f6e6c7960881b81850152606490fd5b8380fd5b5034610184576020366003190112610184576106d86115e5565b6106ed60018060a01b036003541633146116bd565b6001600160a01b0381168252603260205260408220546201518042041115610fbc5760015460405163543a185d60e11b81526001600160a01b03838116600483015290929116610aa083602481845afa928315610cdb578493610f99575b506103c083015115610f64576102c08301516102e084015180821115610f5c5761077491611a0a565b60085411610f1e5760206004916040519283809263bff1f9e160e01b82525afa8015610cdb578490610eea575b6107ab9150611a26565b916127106107be60c08301948551611694565b0492600b54808511610ee0575b506107e5906107de610400840151611a83565b9051611694565b61018082018181511015610e9b57816107ff8683516119fd565b11610e86575b5050606461081560095485611694565b046108208185611a0a565b93606461082f600a5483611694565b04948660018060a01b036002541661084788856119fd565b90803b15610cd7576024839260405194859384926309e042c560e41b845260048401525af1801561054257610e6d575b506001548794939291906001600160a01b0316803b15610d0e57604051632f10a17960e21b81526001600160a01b03881660048201526024810192909252600060448301819052606483018190526084830181905260a48301528590829060c490829084905af19081156104f8578591610e59575b50506001546001600160a01b0316803b1561051b576040516334361a7560e11b81526001600160a01b0387166004820152602481019290925284908290604490829084905af1908115610cdb578491610e45575b50506001546001600160a01b0316803b156106ba57604051638d6db1c560e01b81526001600160a01b0386166004820152602481018390529084908290604490829084905af1908115610cdb578491610e31575b50506104206109aa60ff926102008501516119fd565b920151169060018203610e1a5767ffffffffffffffff678ac7230489e800005b1680821015610d9d575b505060015460405163543a185d60e11b81526001600160a01b038581166004830152909350610aa0925083916024918391165afa908115610cdb578491610d7c575b506020015183906001600160a01b03165b600f8210908180610d6a575b15610d495760015460405163543a185d60e11b81526001600160a01b0383811660048301529093911690610aa084602481855afa938415610542578894610d26575b506103c0840151610aa1575b505050602001516001600160a01b031690610a9b90611a17565b90610a27565b15610d12579086916064610ab986600c015489611694565b046064610ac860095483611694565b0491610ad48383611a0a565b90803b15610d0e57604051632f10a17960e21b81526001600160a01b03861660048201526024810192909252600060448301819052606483018190526084830181905260a48301528590829060c490829084905af19081156104f8578591610cfa575b50506001546001600160a01b0316803b1561051b576040516380aa9a9360e01b81526001600160a01b0385166004820152602481019290925284908290604490829084905af1908115610cdb578491610ce6575b50506001546001600160a01b0316803b156106ba57604051638d6db1c560e01b81526001600160a01b0384166004820152602481018390529084908290604490829084905af1908115610cdb578491610cc3575b5050610bf0906102008501516119fd565b61042084015160ff16919060018303610cb557678ac7230489e800005b67ffffffffffffffff8116821015610c27575b5050610a81565b9067ffffffffffffffff610c3c921690611743565b6005549092906001600160a01b0316803b1561051b57604051635382f3b160e01b81526001600160a01b03939093166004840152602483019390935260ff1660448201529082908290606490829084905af180156104d457610ca1575b808080610c20565b610caa906116f7565b61051b578438610c99565b670de0b6b3a7640000610c0d565b610ccc906116f7565b610cd7578238610bdf565b8280fd5b6040513d86823e3d90fd5b610cef906116f7565b610cd7578238610b8b565b610d03906116f7565b6106ba578338610b37565b8580fd5b634e487b7160e01b87526032600452602487fd5b610d42919450610aa03d610aa0116105b7576105a88183611721565b9238610a75565b6001600160a01b038416865260326020526040862062015180420490558580f35b506001600160a01b0381161515610a33565b610d979150610aa03d610aa0116105b7576105a88183611721565b38610a16565b610da691611743565b6005546001600160a01b031691823b156106ba57604051635382f3b160e01b81526001600160a01b0386166004820152602481019290925260ff1660448201529082908290606490829084905af180156104d457610e06575b80806109d4565b610e0f906116f7565b610cd7578238610dff565b67ffffffffffffffff670de0b6b3a76400006109ca565b610e3a906116f7565b610cd7578238610994565b610e4e906116f7565b610cd7578238610940565b610e62906116f7565b6106ba5783386108ec565b610e7c909791949392976116f7565b9590919238610877565b610e939294505190611a0a565b913880610805565b60405162461bcd60e51b815260206004820152601860248201527f436173686261636b206d617820636170207265616368656400000000000000006044820152606490fd5b93506107e56107cb565b506020813d602011610f16575b81610f0460209383611721565b810103126106ba576107ab90516107a1565b3d9150610ef7565b60405162461bcd60e51b8152602060048201526016602482015275131bdcdcc81d1a1c995cda1bdb19081b9bdd081b595d60521b6044820152606490fd5b505083610774565b60405162461bcd60e51b815260206004820152600d60248201526c139bdd081858dd1a5d985d1959609a1b6044820152606490fd5b610fb5919350610aa03d610aa0116105b7576105a88183611721565b913861074b565b60405162461bcd60e51b8152602060048201526015602482015274416c726561647920636c61696d656420746f64617960581b6044820152606490fd5b50346101845780600319360112610184576004546040516001600160a01b039091168152602090f35b50346101845780600319360112610184576020603154604051908152f35b503461018457602036600319011261018457600435600481101561107a5760409060011b6022816021015491015482519182526020820152f35b5080fd5b50346101845780600319360112610184576005546040516001600160a01b039091168152602090f35b50346101845780600319360112610184576020600654604051908152f35b50346101845780600319360112610184576020600754604051908152f35b50346101845780600319360112610184576020600854604051908152f35b50346101845780600319360112610184576020600b54604051908152f35b5034610184576020366003190112610184576020906040906001600160a01b036111476115e5565b168152603283522054604051908152f35b5034610184578060031936011261018457546040516001600160a01b039091168152602090f35b5034610184576101e036600319011261018457366101e4116101845780546111bc90336001600160a01b03918216149081156111e1575b50611651565b6004815b600f81106111cc578280f35b6001906020833593019281600c0155016111c0565b9050600354163314386111b6565b50346101845761010036600319011261018457366101041161018457805461122b90336001600160a01b03918216149081156111e15750611651565b60218160045b6004821061123d578380f35b600260408261125a60019487906020600191803584550135910155565b01930191019091611231565b50346101845780600319360112610184576001546040516001600160a01b039091168152602090f35b50346101845780600319360112610184576112a8611625565b80546001600160a01b03198116825581906001600160a01b03167f8be0079c531659141344cd1fd0a4f28419497f9722a3daafe3b4186f6b6457e08280a380f35b503461018457602036600319011261018457805461131b90336001600160a01b03918216149081156111e15750611651565b60043560315580f35b50346101845780600319360112610184576020600a54604051908152f35b50346101845761010036600319011261018457366101041161018457805461137e90336001600160a01b03918216149081156111e15750611651565b60298160045b60048210611390578380f35b60026040826113ad60019487906020600191803584550135910155565b01930191019091611384565b50346101845780600319360112610184576020600954604051908152f35b50346101845780600319360112610184576002546040516001600160a01b039091168152602090f35b50346101845760c0366003190112610184573660c41161018457805461143a90336001600160a01b03918216149081156111e15750611651565b601b8160045b6003821061144c578380f35b600260408261146960019487906020600191803584550135910155565b01930191019091611440565b503461018457602036600319011261018457600435600481101561107a5760409060011b602a816029015491015482519182526020820152f35b503461018457602036600319011261018457600435600381101561107a5760409060011b601c81601b015491015482519182526020820152f35b5034610184576060366003190112610184576115036115e5565b6001600160a01b0390602435828116908190036106ba576044359280841680940361051b57611530611625565b6bffffffffffffffffffffffff60a01b9216826003541617600355816004541617600455600554161760055580f35b503461018457602036600319011261018457600435600f81101561107a57602090600c0154604051908152f35b50346101845760c03660031901126101845780546115be90336001600160a01b03918216149081156111e15750611651565b600435600655602435600755604435600855606435600955608435600a5560a435600b5580f35b600435906001600160a01b038216820361063357565b90600481101561160f5760011b0190600090565b634e487b7160e01b600052603260045260246000fd5b6000546001600160a01b0316330361163957565b60405163118cdaa760e01b8152336004820152602490fd5b1561165857565b60405162461bcd60e51b815260206004820152601460248201527327b7363c9037bbb732b91037b9103937baba32b960611b6044820152606490fd5b818102929181159184041417156116a757565b634e487b7160e01b600052601160045260246000fd5b156116c457565b60405162461bcd60e51b815260206004820152600b60248201526a27b7363c903937baba32b960a91b6044820152606490fd5b67ffffffffffffffff811161170b57604052565b634e487b7160e01b600052604160045260246000fd5b90601f8019910116810190811067ffffffffffffffff82111761170b57604052565b811561174d570490565b634e487b7160e01b600052601260045260246000fd5b9080601f8301121561063357604051916101e09081840184811067ffffffffffffffff82111761170b576040528391810192831161063357905b8282106117aa5750505090565b815181526020918201910161179d565b5190811515820361063357565b919091610aa0818403126106335760409081519161044083019467ffffffffffffffff958481108782111761170b578252825184526020808401519096906001600160a01b038116810361063357878601528284015183860152606084015160608601526080840151608086015260a084015160a086015260c084015160c086015260e084015160e086015261010080850151908601526101208085015190860152610140908185015182870152610160808601519087015261018080860151908701526101a080860151908701526101c080860151908701526101e0808601519087015261020080860151908701526102206118c684828801611763565b90870152610400936118da84868801611763565b6102408801526118ee846105e08801611763565b610260880152836107df870112156106335780519283019182118383101761170b5752806109008501928311610633576107c08501905b8382106119ee57505084959650610280610a80950152516102a08501526109208201516102c08501526109408201516102e08501526109608201516103008501526109808201516103208501526109a08201516103408501526109c08201516103608501526119976109e083016117ba565b6103808501526119aa610a0083016117ba565b6103a08501526119bd610a2083016117ba565b6103c0850152610a408201516103e0850152610a6082015190840152015160ff811681036106335761042082015290565b81518152908801908801611925565b919082018092116116a757565b919082039182116116a757565b60001981146116a75760010190565b600090815b60028110611a3c5750505060205490565b6003811015611a6f578060011b80601b0154831115611a645750611a5f90611a17565b611a2b565b601c01549392505050565b634e487b7160e01b83526032600452602483fd5b6001805460405163bff1f9e160e01b815290602090829060049082906001600160a01b03165afa908115611b4957600091611b18575b506031541115611b10576021905b60005b60038110611add57505060079150015490565b611ae781846115fb565b5054841015611afe57611af990611a17565b611aca565b909250611b0a916115fb565b50015490565b602990611ac7565b906020823d8211611b41575b81611b3160209383611721565b8101031261018457505138611ab9565b3d9150611b24565b6040513d6000823e3d90fdfea26469706673582212204e11e2289a439986af913e0045e0a80017bff65ad3cbe6ded481fe63c7449f9164736f6c63430008140033",
  "linkReferences": {},
  "deployedLinkReferences": {}
}