{
  "_format": "hh-sol-artifact-1",
  "contractName": "TRKGameEngine",
  "sourceName": "contracts/TRKGameEngine.sol",
  "abi": [
    {
      "inputs": [
        {
          "internalType": "address",
          "name": "_registry",
          "type": "address"
        }
      ],
      "stateMutability": "nonpayable",
      "type": "constructor"
    },
    {
      "inputs": [
        {
          "internalType": "address",
          "name": "owner",
          "type": "address"
        }
      ],
      "name": "OwnableInvalidOwner",
      "type": "error"
    },
    {
      "inputs": [
        {
          "internalType": "address",
          "name": "account",
          "type": "address"
        }
      ],
      "name": "OwnableUnauthorizedAccount",
      "type": "error"
    },
    {
      "anonymous": false,
      "inputs": [
        {
          "indexed": true,
          "internalType": "address",
          "name": "user",
          "type": "address"
        },
        {
          "indexed": false,
          "internalType": "uint256",
          "name": "amount",
          "type": "uint256"
        },
        {
          "indexed": false,
          "internalType": "uint256",
          "name": "prediction",
          "type": "uint256"
        },
        {
          "indexed": false,
          "internalType": "bool",
          "name": "isCash",
          "type": "bool"
        },
        {
          "indexed": false,
          "internalType": "uint256",
          "name": "roundId",
          "type": "uint256"
        }
      ],
      "name": "BetPlaced",
      "type": "event"
    },
    {
      "anonymous": false,
      "inputs": [
        {
          "indexed": true,
          "internalType": "address",
          "name": "user",
          "type": "address"
        },
        {
          "indexed": false,
          "internalType": "uint256",
          "name": "amount",
          "type": "uint256"
        },
        {
          "indexed": false,
          "internalType": "bool",
          "name": "isCash",
          "type": "bool"
        },
        {
          "indexed": false,
          "internalType": "uint256",
          "name": "roundId",
          "type": "uint256"
        }
      ],
      "name": "GameWon",
      "type": "event"
    },
    {
      "anonymous": false,
      "inputs": [
        {
          "indexed": true,
          "internalType": "address",
          "name": "previousOwner",
          "type": "address"
        },
        {
          "indexed": true,
          "internalType": "address",
          "name": "newOwner",
          "type": "address"
        }
      ],
      "name": "OwnershipTransferred",
      "type": "event"
    },
    {
      "anonymous": false,
      "inputs": [
        {
          "indexed": true,
          "internalType": "uint256",
          "name": "roundId",
          "type": "uint256"
        },
        {
          "indexed": false,
          "internalType": "uint256",
          "name": "winningNumber",
          "type": "uint256"
        },
        {
          "indexed": false,
          "internalType": "bool",
          "name": "isCash",
          "type": "bool"
        }
      ],
      "name": "RoundClosed",
      "type": "event"
    },
    {
      "inputs": [
        {
          "internalType": "address",
          "name": "user",
          "type": "address"
        },
        {
          "internalType": "uint256",
          "name": "prediction",
          "type": "uint256"
        },
        {
          "internalType": "uint256",
          "name": "amount",
          "type": "uint256"
        }
      ],
      "name": "betCash",
      "outputs": [],
      "stateMutability": "nonpayable",
      "type": "function"
    },
    {
      "inputs": [
        {
          "internalType": "address",
          "name": "user",
          "type": "address"
        },
        {
          "internalType": "uint256",
          "name": "prediction",
          "type": "uint256"
        },
        {
          "internalType": "uint256",
          "name": "amount",
          "type": "uint256"
        }
      ],
      "name": "betPractice",
      "outputs": [],
      "stateMutability": "nonpayable",
      "type": "function"
    },
    {
      "inputs": [
        {
          "internalType": "uint256",
          "name": "",
          "type": "uint256"
        },
        {
          "internalType": "uint256",
          "name": "",
          "type": "uint256"
        }
      ],
      "name": "cashBetTotalsByNumber",
      "outputs": [
        {
          "internalType": "uint256",
          "name": "",
          "type": "uint256"
        }
      ],
      "stateMutability": "view",
      "type": "function"
    },
    {
      "inputs": [
        {
          "internalType": "address",
          "name": "",
          "type": "address"
        },
        {
          "internalType": "uint256",
          "name": "",
          "type": "uint256"
        },
        {
          "internalType": "uint256",
          "name": "",
          "type": "uint256"
        }
      ],
      "name": "cashBets",
      "outputs": [
        {
          "internalType": "uint256",
          "name": "amount",
          "type": "uint256"
        },
        {
          "internalType": "bool",
          "name": "claimed",
          "type": "bool"
        }
      ],
      "stateMutability": "view",
      "type": "function"
    },
    {
      "inputs": [
        {
          "internalType": "uint256",
          "name": "",
          "type": "uint256"
        },
        {
          "internalType": "uint256",
          "name": "",
          "type": "uint256"
        },
        {
          "internalType": "uint256",
          "name": "",
          "type": "uint256"
        }
      ],
      "name": "cashBettersByNumber",
      "outputs": [
        {
          "internalType": "address",
          "name": "",
          "type": "address"
        }
      ],
      "stateMutability": "view",
      "type": "function"
    },
    {
      "inputs": [],
      "name": "cashLimit",
      "outputs": [
        {
          "internalType": "uint256",
          "name": "",
          "type": "uint256"
        }
      ],
      "stateMutability": "view",
      "type": "function"
    },
    {
      "inputs": [
        {
          "internalType": "uint256",
          "name": "",
          "type": "uint256"
        },
        {
          "internalType": "uint256",
          "name": "",
          "type": "uint256"
        }
      ],
      "name": "cashRoundWinners",
      "outputs": [
        {
          "internalType": "address",
          "name": "",
          "type": "address"
        }
      ],
      "stateMutability": "view",
      "type": "function"
    },
    {
      "inputs": [
        {
          "internalType": "uint256",
          "name": "",
          "type": "uint256"
        }
      ],
      "name": "cashRounds",
      "outputs": [
        {
          "internalType": "uint256",
          "name": "roundId",
          "type": "uint256"
        },
        {
          "internalType": "uint256",
          "name": "winningNumber",
          "type": "uint256"
        },
        {
          "internalType": "bool",
          "name": "isClosed",
          "type": "bool"
        },
        {
          "internalType": "bool",
          "name": "isCash",
          "type": "bool"
        }
      ],
      "stateMutability": "view",
      "type": "function"
    },
    {
      "inputs": [],
      "name": "cashbackEngine",
      "outputs": [
        {
          "internalType": "address",
          "name": "",
          "type": "address"
        }
      ],
      "stateMutability": "view",
      "type": "function"
    },
    {
      "inputs": [
        {
          "internalType": "address",
          "name": "user",
          "type": "address"
        },
        {
          "internalType": "uint256",
          "name": "roundId",
          "type": "uint256"
        },
        {
          "internalType": "bool",
          "name": "isCashGame",
          "type": "bool"
        }
      ],
      "name": "claimWinnings",
      "outputs": [
        {
          "internalType": "uint256",
          "name": "",
          "type": "uint256"
        }
      ],
      "stateMutability": "nonpayable",
      "type": "function"
    },
    {
      "inputs": [
        {
          "internalType": "uint256",
          "name": "winningNumber",
          "type": "uint256"
        },
        {
          "internalType": "bool",
          "name": "isCashGame",
          "type": "bool"
        }
      ],
      "name": "closeRound",
      "outputs": [],
      "stateMutability": "nonpayable",
      "type": "function"
    },
    {
      "inputs": [],
      "name": "currentCashRoundId",
      "outputs": [
        {
          "internalType": "uint256",
          "name": "",
          "type": "uint256"
        }
      ],
      "stateMutability": "view",
      "type": "function"
    },
    {
      "inputs": [],
      "name": "currentPracticeRoundId",
      "outputs": [
        {
          "internalType": "uint256",
          "name": "",
          "type": "uint256"
        }
      ],
      "stateMutability": "view",
      "type": "function"
    },
    {
      "inputs": [
        {
          "internalType": "address",
          "name": "user",
          "type": "address"
        },
        {
          "internalType": "uint256",
          "name": "roundId",
          "type": "uint256"
        },
        {
          "internalType": "bool",
          "name": "isCashGame",
          "type": "bool"
        }
      ],
      "name": "getAndMarkLossBet",
      "outputs": [
        {
          "internalType": "uint256",
          "name": "",
          "type": "uint256"
        }
      ],
      "stateMutability": "nonpayable",
      "type": "function"
    },
    {
      "inputs": [
        {
          "internalType": "uint256",
          "name": "roundId",
          "type": "uint256"
        },
        {
          "internalType": "uint256",
          "name": "number",
          "type": "uint256"
        },
        {
          "internalType": "bool",
          "name": "isCash",
          "type": "bool"
        }
      ],
      "name": "getBetTotal",
      "outputs": [
        {
          "internalType": "uint256",
          "name": "",
          "type": "uint256"
        }
      ],
      "stateMutability": "view",
      "type": "function"
    },
    {
      "inputs": [
        {
          "internalType": "uint256",
          "name": "roundId",
          "type": "uint256"
        },
        {
          "internalType": "uint256",
          "name": "number",
          "type": "uint256"
        },
        {
          "internalType": "bool",
          "name": "isCash",
          "type": "bool"
        }
      ],
      "name": "getBetters",
      "outputs": [
        {
          "internalType": "address[]",
          "name": "",
          "type": "address[]"
        }
      ],
      "stateMutability": "view",
      "type": "function"
    },
    {
      "inputs": [
        {
          "internalType": "uint256",
          "name": "roundId",
          "type": "uint256"
        },
        {
          "internalType": "bool",
          "name": "isCash",
          "type": "bool"
        }
      ],
      "name": "getRoundWinners",
      "outputs": [
        {
          "internalType": "address[]",
          "name": "",
          "type": "address[]"
        }
      ],
      "stateMutability": "view",
      "type": "function"
    },
    {
      "inputs": [
        {
          "internalType": "address",
          "name": "user",
          "type": "address"
        },
        {
          "internalType": "uint256",
          "name": "roundId",
          "type": "uint256"
        },
        {
          "internalType": "bool",
          "name": "isCashGame",
          "type": "bool"
        }
      ],
      "name": "getUserRoundBets",
      "outputs": [
        {
          "internalType": "uint256[10]",
          "name": "amounts",
          "type": "uint256[10]"
        },
        {
          "internalType": "bool[10]",
          "name": "claimed",
          "type": "bool[10]"
        },
        {
          "internalType": "bool[10]",
          "name": "hasBet",
          "type": "bool[10]"
        }
      ],
      "stateMutability": "view",
      "type": "function"
    },
    {
      "inputs": [],
      "name": "owner",
      "outputs": [
        {
          "internalType": "address",
          "name": "",
          "type": "address"
        }
      ],
      "stateMutability": "view",
      "type": "function"
    },
    {
      "inputs": [
        {
          "internalType": "uint256",
          "name": "",
          "type": "uint256"
        },
        {
          "internalType": "uint256",
          "name": "",
          "type": "uint256"
        }
      ],
      "name": "practiceBetTotalsByNumber",
      "outputs": [
        {
          "internalType": "uint256",
          "name": "",
          "type": "uint256"
        }
      ],
      "stateMutability": "view",
      "type": "function"
    },
    {
      "inputs": [
        {
          "internalType": "address",
          "name": "",
          "type": "address"
        },
        {
          "internalType": "uint256",
          "name": "",
          "type": "uint256"
        },
        {
          "internalType": "uint256",
          "name": "",
          "type": "uint256"
        }
      ],
      "name": "practiceBets",
      "outputs": [
        {
          "internalType": "uint256",
          "name": "amount",
          "type": "uint256"
        },
        {
          "internalType": "bool",
          "name": "claimed",
          "type": "bool"
        }
      ],
      "stateMutability": "view",
      "type": "function"
    },
    {
      "inputs": [
        {
          "internalType": "uint256",
          "name": "",
          "type": "uint256"
        },
        {
          "internalType": "uint256",
          "name": "",
          "type": "uint256"
        },
        {
          "internalType": "uint256",
          "name": "",
          "type": "uint256"
        }
      ],
      "name": "practiceBettersByNumber",
      "outputs": [
        {
          "internalType": "address",
          "name": "",
          "type": "address"
        }
      ],
      "stateMutability": "view",
      "type": "function"
    },
    {
      "inputs": [],
      "name": "practiceLimit",
      "outputs": [
        {
          "internalType": "uint256",
          "name": "",
          "type": "uint256"
        }
      ],
      "stateMutability": "view",
      "type": "function"
    },
    {
      "inputs": [
        {
          "internalType": "uint256",
          "name": "",
          "type": "uint256"
        },
        {
          "internalType": "uint256",
          "name": "",
          "type": "uint256"
        }
      ],
      "name": "practiceRoundWinners",
      "outputs": [
        {
          "internalType": "address",
          "name": "",
          "type": "address"
        }
      ],
      "stateMutability": "view",
      "type": "function"
    },
    {
      "inputs": [
        {
          "internalType": "uint256",
          "name": "",
          "type": "uint256"
        }
      ],
      "name": "practiceRounds",
      "outputs": [
        {
          "internalType": "uint256",
          "name": "roundId",
          "type": "uint256"
        },
        {
          "internalType": "uint256",
          "name": "winningNumber",
          "type": "uint256"
        },
        {
          "internalType": "bool",
          "name": "isClosed",
          "type": "bool"
        },
        {
          "internalType": "bool",
          "name": "isCash",
          "type": "bool"
        }
      ],
      "stateMutability": "view",
      "type": "function"
    },
    {
      "inputs": [],
      "name": "registry",
      "outputs": [
        {
          "internalType": "contract ITRKRegistry",
          "name": "",
          "type": "address"
        }
      ],
      "stateMutability": "view",
      "type": "function"
    },
    {
      "inputs": [],
      "name": "renounceOwnership",
      "outputs": [],
      "stateMutability": "nonpayable",
      "type": "function"
    },
    {
      "inputs": [],
      "name": "router",
      "outputs": [
        {
          "internalType": "address",
          "name": "",
          "type": "address"
        }
      ],
      "stateMutability": "view",
      "type": "function"
    },
    {
      "inputs": [
        {
          "internalType": "address",
          "name": "_router",
          "type": "address"
        },
        {
          "internalType": "address",
          "name": "_cashbackEngine",
          "type": "address"
        }
      ],
      "name": "setAddresses",
      "outputs": [],
      "stateMutability": "nonpayable",
      "type": "function"
    },
    {
      "inputs": [
        {
          "internalType": "uint256",
          "name": "_winCashout",
          "type": "uint256"
        },
        {
          "internalType": "uint256",
          "name": "_winReinvest",
          "type": "uint256"
        },
        {
          "internalType": "uint256",
          "name": "_practiceLimit",
          "type": "uint256"
        },
        {
          "internalType": "uint256",
          "name": "_cashLimit",
          "type": "uint256"
        }
      ],
      "name": "setGameSettings",
      "outputs": [],
      "stateMutability": "nonpayable",
      "type": "function"
    },
    {
      "inputs": [
        {
          "internalType": "uint256[15]",
          "name": "_percents",
          "type": "uint256[15]"
        }
      ],
      "name": "setWinnerReferralPercents",
      "outputs": [],
      "stateMutability": "nonpayable",
      "type": "function"
    },
    {
      "inputs": [
        {
          "internalType": "address",
          "name": "newOwner",
          "type": "address"
        }
      ],
      "name": "transferOwnership",
      "outputs": [],
      "stateMutability": "nonpayable",
      "type": "function"
    },
    {
      "inputs": [],
      "name": "winCashoutMult",
      "outputs": [
        {
          "internalType": "uint256",
          "name": "",
          "type": "uint256"
        }
      ],
      "stateMutability": "view",
      "type": "function"
    },
    {
      "inputs": [],
      "name": "winReinvestMult",
      "outputs": [
        {
          "internalType": "uint256",
          "name": "",
          "type": "uint256"
        }
      ],
      "stateMutability": "view",
      "type": "function"
    },
    {
      "inputs": [
        {
          "internalType": "uint256",
          "name": "",
          "type": "uint256"
        }
      ],
      "name": "winnerReferralPercents",
      "outputs": [
        {
          "internalType": "uint256",
          "name": "",
          "type": "uint256"
        }
      ],
      "stateMutability": "view",
      "type": "function"
    }
  ],
  "bytecode": "0x6080346200024d57601f620028f838819003918201601f19168301926001600160401b0392909190838511838610176200025257808392604096875283396020928391810103126200024d57516001600160a01b039190828116908190036200024d5733156200023557600093845460018060a01b031994338683161787553391167f8be0079c531659141344cd1fd0a4f28419497f9722a3daafe3b4186f6b6457e08780a360026004556006600555601860065560186007558551906101e082019082821090821117620002215786526101f4815260c883820152606486820152606460608201526064608082015260328060a08301528060c08301528060e08301528061010083015280610120830152806101408301528061016083015280610180830152806101a08301526101c0820152845b600f81106200020d57505060019283601755836018558354161782556200015b62000268565b9180835260ff60028385019286845281888701968888526060810195898752838a52601988528a8a2091518255518382015501955115159580549661ff009788965115158661ffff1998899260081b169316911617179055620001bd62000268565b908082528582018881528980840199808b52601a6060860199858b52858352522092518355519082015501945115159385549351151560081b1693169116171790555161266f9081620002898239f35b815160088201559083019060010162000135565b634e487b7160e01b86526041600452602486fd5b8451631e4fbdf760e01b815260006004820152602490fd5b600080fd5b634e487b7160e01b600052604160045260246000fd5b60405190608082016001600160401b03811183821017620002525760405256fe608080604052600436101561001357600080fd5b600090813560e01c908162fbdb1614611d41575080631e03e65214611d235780633045e0ad14611d055780633dedc77d14611cdc57806344cfd44514611ca15780634861d4e214611c43578063491f7a4414611c115780634b6e95cb1461189357806350877e01146118755780636558f8751461156857806367a1d3a21461153b5780636a661b65146114f15780636b88e465146114c4578063715018a61461146a5780637b10399914611441578063804cd9f4146110d4578063821c6d46146110705780638530b5f7146110235780638d0006e0146110055780638da5cb5b14610fde57806390107afe14610f7f57806396a2c51514610f52578063a0fb70dc14610f20578063a9db4d0214610f02578063b9947c2514610dbc578063bc556b1e14610d67578063e33b4f5414610d03578063eac4cbb514610c93578063ec846e5014610c75578063ed138eff14610c12578063eef44e1114610bbd578063f28d290c146102be578063f2fde38b1461022e578063f43404d4146101cc5763f887ea40146101a157600080fd5b346101c957806003193601126101c9576002546040516001600160a01b039091168152602090f35b80fd5b50346101c9576040906101de36612018565b9160018060a01b03168352601c6020528383209083526020528282209082526020522060ff60018254920154169061022a60405192839283909291602090604083019483521515910152565b0390f35b50346101c95760203660031901126101c957610248611f73565b6102506120e9565b6001600160a01b039081169081156102a557600054826bffffffffffffffffffffffff60a01b821617600055167f8be0079c531659141344cd1fd0a4f28419497f9722a3daafe3b4186f6b6457e0600080a380f35b604051631e4fbdf760e01b815260048101849052602490fd5b50346101c9576102cd36611f9d565b916102e360018060a01b03600254163314612181565b8215610baa57818452601a6020526001604085205b61030860ff60028301541661258e565b01548315610b7d576001600160a01b0382168552601b60209081526040808720858852825280872083885290915285205b805480151580610b6e575b15610b1f5760018201600160ff19825416179055856000146107bd57508581549261037e61037460045486612158565b9460055490612158565b9361038985826124ee565b6001549095906001600160a01b0316803b156107b95784928360c4926040519687958694632f10a17960e21b86528d60018060a01b03166004870152602486015283604486015260648501526084840152600160a48401525af18015610599576107a1575b5050546004546103fd91612158565b60015460405163543a185d60e11b81526001600160a01b0380861660048301529294929091610aa09183916024918391165afa908115610796578791610775575b50602001518692906001600160a01b03165b600f8410908180610763575b1561068d5760015460405163543a185d60e11b81526001600160a01b038381166004830152909391169190610aa084602481865afa938415610682578b9461064f575b50604084015162278d008101811161063b5762278d0001421180610625575b61060b578a610100850151678ac7230489e800008110156105c4575b506103c0850151151590816105bc575b50610513575b505050602001516001600160a01b03169261050a906125d0565b955b9592610450565b156105a85790899161271061052c88600801548a612158565b0490823b156105a45760405163b487127f60e01b81526001600160a01b039190911660048201526024810191909152604481018790529082908290606490829084905af1801561059957610581575b806104f0565b61058a906121bb565b61059557873861057b565b8780fd5b6040513d84823e3d90fd5b8380fd5b634e487b7160e01b8a52603260045260248afd5b9050386104ea565b60038910156105d857505060015b386104da565b68056bc75e2d63100000116105d257600a808910610604575b610400860151106105d2575060016105d2565b50876105f1565b5050506020015192956001600160a01b039093169261050c565b50678ac7230489e80000610100850151106104be565b634e487b7160e01b8c52601160045260248cfd5b610674919450610aa03d610aa01161067b575b61066c818361223a565b8101906122c0565b923861049f565b503d610662565b6040513d8d823e3d90fd5b50506001549196909594935091506001600160a01b0316803b1561075f57604051631897fbb960e21b81526001600160a01b03871660048201528415156024820152600060448201819052606482018790526084820152908290829060a490829084905af180156105995761074b575b505060606020947f11c221ab7c4898b90e1d7df2dec3468b83dca815a44ec15296341d526bff761e925b60408051878152951515888701528501526001600160a01b031692a2604051908152f35b61075582916121bb565b6101c957806106fd565b5080fd5b506001600160a01b038116151561045c565b6107909150610aa03d610aa01161067b5761066c818361223a565b3861043e565b6040513d89823e3d90fd5b6107aa906121bb565b6107b55785386103ee565b8580fd5b8480fd5b60015460405163543a185d60e11b81526001600160a01b0386811660048301529091169593508791610aa0826024818a5afa918215610b145761081892612710918591610af3575b505111610aea5760ff60085b1690612158565b94803b1561075f57819060c460405180948193632f10a17960e21b835260018060a01b038a1660048401528160248401528a60448401528160648401528160848401528160a48401525af1801561079657610ad7575b505460015460405163543a185d60e11b81526001600160a01b0380861660048301529294929091610aa09183916024918391165afa908115610796578791610ab6575b50602001518694906001600160a01b03165b600f86108080610aa4575b156109f857156109e457876127106108ea886008015488612158565b600154919004906001600160a01b0316803b156109e057604051630125bbe360e61b81526001600160a01b038516600482015260248101929092526044820189905282908290606490829084905af18015610599576109cc575b505060015460405163543a185d60e11b81526001600160a01b03928316600482015291610aa09183916024918391165afa80156109c15761099a9189916109a0575b50602001516001600160a01b0316956125d0565b946108c3565b6109bb9150610aa03d610aa01161067b5761066c818361223a565b38610986565b6040513d8a823e3d90fd5b6109d5906121bb565b610595578738610944565b8280fd5b634e487b7160e01b88526032600452602488fd5b50506001549196909594509192506001600160a01b0316803b1561075f5781809160a460405180948193631897fbb960e21b835260018060a01b038c16600484015260006024840152600060448401528a6064840152600060848401525af1801561059957610a90575b505060606020947f11c221ab7c4898b90e1d7df2dec3468b83dca815a44ec15296341d526bff761e92610727565b610a9a82916121bb565b6101c95780610a62565b506001600160a01b03821615156108ce565b610ad19150610aa03d610aa01161067b5761066c818361223a565b386108b1565b610ae3909691966121bb565b943861086e565b60ff6004610811565b610b0e9150610aa03d610aa01161067b5761066c818361223a565b38610805565b6040513d85823e3d90fd5b60405162461bcd60e51b815260206004820152602160248201527f4e6f2077696e6e696e6720626574206f7220616c726561647920636c61696d656044820152601960fa1b6064820152608490fd5b5060ff60018301541615610344565b6001600160a01b0382168552601c6020908152604080872085885282528087208388529091528520610339565b81845260196020526001604085206102f8565b50346101c957610bcc36611fd0565b92918252601f60205260408220908252602052604081209081548310156101c9576020610bf98484611fea565b905460405160039290921b1c6001600160a01b03168152f35b50346101c95760403660031901126101c957610c55610c5c604061022a93600435610c3b611f8e565b15610c685781526022602052205b604051928380926125df565b038261223a565b604051918291826120a5565b8152602160205220610c49565b50346101c957806003193601126101c9576020600554604051908152f35b50346101c9576101e03660031901126101c957366101e4116101c9578054610cd090336001600160a01b0391821614908115610cf5575b50612115565b6004815b600f8110610ce0578280f35b60019060208335930192816008015501610cd4565b905060025416331438610cca565b50346101c95760203660031901126101c9576040906004358152601a6020522080549061022a6002600183015492015460405193849360ff808460081c16931691859260609295949195608085019685526020850152151560408401521515910152565b50346101c957610c55610c5c604061022a93610d8236612058565b90919015610da65782526020805282822090825260205220604051928380926125df565b8252601f60205282822090825260205220610c49565b50346101c957610dcb36611f9d565b604093929351610dda8161221d565b610140918236833760405193610def8561221d565b8336863760405196610e008861221d565b84368937865b6009811115610e5c575050505060405193849190915b600a8310610e45576103c086610e4389610e388884018a61207b565b61028083019061207b565bf35b600190825181526020809101920192019190610e1c565b939693610ec9908415610ed15760018060a01b03831686526020601b81526040872085885281526040872090828852528060ff6001604089205b8c610ea4825495869261257d565b52015416610eb2838b61257d565b90151590521515610ec3828c61257d565b526125d0565b969396610e06565b60018060a01b03831686526020601c81526040872085885281526040872090828852528060ff600160408920610e96565b50346101c957806003193601126101c9576020600754604051908152f35b50346101c957610f2f36612042565b919081526021602052604081209081548310156101c9576020610bf98484611fea565b50346101c9576040602091610f6636612042565b908252601e845282822090825283522054604051908152f35b50346101c95760403660031901126101c957610f99611f73565b6024356001600160a01b0381811692918390036105a457610fb86120e9565b6bffffffffffffffffffffffff60a01b9116816002541617600255600354161760035580f35b50346101c957806003193601126101c957546040516001600160a01b039091168152602090f35b50346101c957806003193601126101c9576020600654604051908152f35b50346101c95760803660031901126101c957805461105590336001600160a01b0391821614908115610cf55750612115565b60043560045560243560055560443560065560643560075580f35b50346101c95760203660031901126101c957604090600435815260196020522080549061022a6002600183015492015460405193849360ff808460081c16931691859260609295949195608085019685526020850152151560408401521515910152565b50346101c9576110e336612018565b6002546001600160a01b039391906110fe9085163314612181565b600983116114075783600154169360405193849163543a185d60e11b83528281861697886004830152610aa09485916024998a915afa9384156113fc5789946113dd575b5050601754926103a0810151156113a1576103c081015115801590611373575b1561132f5760808161117d61032088940151600654116124fb565b0151106112eb57868852601c60209081526040808a20858b528252808a20848b5282528920805491968a93921561127757506111ba8682546124ee565b90555b838252601d8652604082208383528652604082206111dc8682546124ee565b90556001541695863b1561075f5760a4829182604051998a948593631897fbb960e21b85528d60048601528401528860448401528160648401528160848401525af1938415610796577f94b957532865eb7d3e939066462e42ad12109202dff0ce260d43eb264d68f41e95608095611268575b506040519384528301528560408301526060820152a280f35b611271906121bb565b3861124f565b6112e691506112cd60405161128b816121e5565b88815260018a82018781528d8852601c8c52604088208a89528c52604088208989528c52604088209251835551151591019060ff801983541691151516179055565b858452601f88526040842085855288526040842061253d565b6111bd565b60405162461bcd60e51b815260206004820152601d818801527f496e73756666696369656e742070726163746963652062616c616e63650000006044820152606490fd5b60405162461bcd60e51b8152602060048201526018818901527f5072616374696365206163636f756e74206578706972656400000000000000006044820152606490fd5b50604081015162278d00810180911161138e57421115611162565b634e487b7160e01b8a526011600452878afd5b60405162461bcd60e51b815260206004820152601581890152742737ba103090383930b1ba34b1b290383630bcb2b960591b6044820152606490fd5b6113f4929450803d1061067b5761066c818361223a565b913880611142565b6040513d8b823e3d90fd5b60405162461bcd60e51b815260206004820152601260248201527124b73b30b634b210383932b234b1ba34b7b760711b6044820152606490fd5b50346101c957806003193601126101c9576001546040516001600160a01b039091168152602090f35b50346101c957806003193601126101c9576114836120e9565b80546001600160a01b03198116825581906001600160a01b03167f8be0079c531659141344cd1fd0a4f28419497f9722a3daafe3b4186f6b6457e08280a380f35b50346101c95760203660031901126101c957600435600f81101561075f5760209060080154604051908152f35b50346101c957604060209161150536612058565b90919015611526578252601e8452828220908252835220545b604051908152f35b8252601d84528282209082528352205461151e565b50346101c957604060209161154f36612042565b908252601d845282822090825283522054604051908152f35b50346101c95760403660031901126101c957600435611585611f8e565b6002546001600160a01b039061159e9082163314612181565b6009831161183757811561172657601880548552611601602092601a84526001918291878360408b20015584548952600260408a20018360ff198254161790558454895285805260408920888a52865261160860408a20604051938480926125df565b038361223a565b88935b6116e6575b5050611676915060029061162484546125d0565b8094556040519061163482612201565b848252858201898152601a60408401978b895260608501978489528c525260408a209251835551908201550192511515839060ff801983541691151516179055565b51815461ff00191690151560081b61ff00161790555b6017546000198101929083116116d2576040805191825291151560208201527f3b6ec1d93ebaff91cc3874c53b09684166ac65a27c0b36d3600244ec854f962d9190a280f35b634e487b7160e01b84526011600452602484fd5b81518410156117215761171b839486548b526022885261171660408c208461170e8488612625565b51169061253d565b6125d0565b9361160b565b611610565b601780548552611601602092601984526001918291878360408b20015584548952600260408a20018360ff1982541617905584548952601f865260408920888a52865261177c60408a20604051938480926125df565b88935b611804575b50506117ea915060029061179884546125d0565b809455604051906117a882612201565b848252858201898152601960408401978b895260608501978c89528c525260408a209251835551908201550192511515839060ff801983541691151516179055565b51815461ff00191690151560081b61ff001617905561168c565b81518410156118325761182c839486548b526021885261171660408c208461170e8488612625565b9361177f565b611784565b60405162461bcd60e51b815260206004820152601660248201527524b73b30b634b2103bb4b73734b73390373ab6b132b960511b6044820152606490fd5b50346101c957806003193601126101c9576020600454604051908152f35b50346101c9576118a236612018565b6002546001600160a01b03939192906118be9085163314612181565b60098111611407576001908154948690806040519563543a185d60e11b875286828216998a6004830152610aa0988991816024978892165afa978815610682578b98611bf2575b5050601854966103c081015115611bbe57908a8261192f6103408a989796950151600754116124fb565b81908861028082018d61194383835161257d565b5110611b2d575050508b8a8c945b8285528d60209a8b94601b86526040882085895286528d604089209089528652604088209485541515600014611aba57505050905081611993929350546124ee565b90555b898252601e8752604082208883528752604082206119b58c82546124ee565b905583895416803b156109e0578c8360c4926040519687958694637d36599f60e11b86526004860152838b86015283604486015260648501528c608485015260a48401525af1801561068257611aa7575b50855416803b156109e057859160a48a8580946040519687958694631897fbb960e21b865260048601528401528c60448401528160648401528160848401525af1801561059957611a93575b505091608093917f94b957532865eb7d3e939066462e42ad12109202dff0ce260d43eb264d68f41e959360405194855284015260408301526060820152a280f35b611a9d82916121bb565b6101c95780611a52565b611ab29193506121bb565b889138611a06565b611b10949550601b611b289760405195611ad3876121e5565b8652808601938b85528b5252604089209089528d528d604089209089528d52604088209251835551151591019060ff801983541691151516179055565b8b8452888052604084208a855289526040842061253d565b611996565b919495969798509150611b4192505161257d565b5191828a038a8111611bab5760a08193015110611b67578795949392918b8a8e93611951565b60405162461bcd60e51b815260206004820152601e818701527f496e73756666696369656e7420636173682067616d652062616c616e636500006044820152606490fd5b634e487b7160e01b8d526011600452858dfd5b60405162461bcd60e51b815260206004820152600d818601526c139bdd081858dd1a5d985d1959609a1b6044820152606490fd5b611c09929850803d1061067b5761066c818361223a565b953880611905565b50346101c957611c2036612042565b919081526022602052604081209081548310156101c9576020610bf98484611fea565b50346101c957604090611c5536612018565b9160018060a01b03168352601b6020528383209083526020528282209082526020522060ff60018254920154169061022a60405192839283909291602090604083019483521515910152565b50346101c957611cb036611fd0565b929182526020805260408220908252602052604081209081548310156101c9576020610bf98484611fea565b50346101c957806003193601126101c9576003546040516001600160a01b039091168152602090f35b50346101c957806003193601126101c9576020601854604051908152f35b50346101c957806003193601126101c9576020601754604051908152f35b90503461075f57611d5136611f9d565b60035491939092916001600160a01b03919082163303611f3a57508215611f2857838552601a60205260408520935b60ff90611d928260028801541661258e565b86958792885b6009811115611e6e575050505015611e18578491816001541690813b156105a4578360a4926040519687958694631897fbb960e21b865216600485015215156024840152816044840152816064840152600160848401525af18015610b145760209350611e09575b50604051908152f35b611e12906121bb565b38611e00565b60405162461bcd60e51b815260206004820152602860248201527f4e6f20756e636c61696d6564206c6f7373657320666f756e6420666f722074686044820152671a5cc81c9bdd5b9960c21b6064820152608490fd5b6001808401548214611f1e578815611ef8578688168b526020601b815260408c20868d52815260408c2090838d525260408b205b80549081151580611eeb575b611ec4575b505050611ebf906125d0565b611d98565b611ebf9397509a82611ee1939c018c60ff198254161790556124ee565b9894903880611eb3565b5084838201541615611eae565b8688168b526020601c815260408c20868d52815260408c2090838d525260408b20611ea2565b50611ebf906125d0565b83855260196020526040852093611d80565b62461bcd60e51b81526020600482015260146024820152734f6e6c7920636173686261636b20656e67696e6560601b6044820152606490fd5b600435906001600160a01b0382168203611f8957565b600080fd5b602435908115158203611f8957565b6060906003190112611f89576004356001600160a01b0381168103611f895790602435906044358015158103611f895790565b6060906003190112611f8957600435906024359060443590565b80548210156120025760005260206000200190600090565b634e487b7160e01b600052603260045260246000fd5b6060906003190112611f89576004356001600160a01b0381168103611f8957906024359060443590565b6040906003190112611f89576004359060243590565b6060906003190112611f895760043590602435906044358015158103611f895790565b6000915b600a831061208c57505050565b600190825115158152602080910192019201919061207f565b6020908160408183019282815285518094520193019160005b8281106120cc575050505090565b83516001600160a01b0316855293810193928101926001016120be565b6000546001600160a01b031633036120fd57565b60405163118cdaa760e01b8152336004820152602490fd5b1561211c57565b60405162461bcd60e51b815260206004820152601460248201527327b7363c9037bbb732b91037b9103937baba32b960611b6044820152606490fd5b8181029291811591840414171561216b57565b634e487b7160e01b600052601160045260246000fd5b1561218857565b60405162461bcd60e51b815260206004820152600b60248201526a27b7363c903937baba32b960a91b6044820152606490fd5b67ffffffffffffffff81116121cf57604052565b634e487b7160e01b600052604160045260246000fd5b6040810190811067ffffffffffffffff8211176121cf57604052565b6080810190811067ffffffffffffffff8211176121cf57604052565b610140810190811067ffffffffffffffff8211176121cf57604052565b90601f8019910116810190811067ffffffffffffffff8211176121cf57604052565b9080601f83011215611f8957604051916101e09081840184811067ffffffffffffffff8211176121cf5760405283918101928311611f8957905b8282106122a35750505090565b8151815260209182019101612296565b51908115158203611f8957565b919091610aa081840312611f895760405190610440820182811067ffffffffffffffff8211176121cf57604052805182526020808201519094906001600160a01b0381168103611f89578584015260408201516040840152606082015160608401526080820151608084015260a082015160a084015260c082015160c084015260e082015160e0840152610100808301519084015261012080830151908401526101408083015190840152610160808301519084015261018080830151908401526101a080830151908401526101c080830151908401526101e0808301519084015261020080830151908401526102206123bc8282850161225c565b90840152610400906123d08183850161225c565b6102408501526123e4816105e0850161225c565b610260850152806107df84011215611f89576040516124028161221d565b806109008501928311611f89576107c08501905b8382106124df57505084959650610280610a80950152516102a08501526109208201516102c08501526109408201516102e08501526109608201516103008501526109808201516103208501526109a08201516103408501526109c08201516103608501526124886109e083016122b3565b61038085015261249b610a0083016122b3565b6103a08501526124ae610a2083016122b3565b6103c0850152610a408201516103e0850152610a6082015190840152015160ff81168103611f895761042082015290565b81518152908801908801612416565b9190820180921161216b57565b1561250257565b60405162461bcd60e51b815260206004820152601360248201527211185a5b1e481b1a5b5a5d081c995858da1959606a1b6044820152606490fd5b8054680100000000000000008110156121cf5761255f91600182018155611fea565b819291549060031b9160018060a01b03809116831b921b1916179055565b90600a8110156120025760051b0190565b1561259557565b60405162461bcd60e51b81526020600482015260136024820152722937bab7321034b99039ba34b6361037b832b760691b6044820152606490fd5b600019811461216b5760010190565b90815480825260208092019260005281600020916000905b828210612605575050505090565b83546001600160a01b0316855293840193600193840193909101906125f7565b80518210156120025760209160051b01019056fea264697066735822122071e303c14ebd6889751928356aca5f5db51fd44ed669c55b181e561fc0f526a664736f6c63430008140033",
  "linkReferences": {},
  "deployedLinkReferences": {}
}