{
  "_format": "hh-sol-artifact-1",
  "contractName": "TRKGameFinal",
  "sourceName": "contracts/TRKGameFinal.sol",
  "abi": [
    {
      "inputs": [
        {
          "internalType": "address",
          "name": "_usdtToken",
          "type": "address"
        },
        {
          "internalType": "address",
          "name": "_creatorWallet",
          "type": "address"
        },
        {
          "internalType": "address",
          "name": "_fewWallet",
          "type": "address"
        },
        {
          "internalType": "address[20]",
          "name": "_bdWallets",
          "type": "address[20]"
        }
      ],
      "stateMutability": "nonpayable",
      "type": "constructor"
    },
    {
      "inputs": [
        {
          "internalType": "address",
          "name": "owner",
          "type": "address"
        }
      ],
      "name": "OwnableInvalidOwner",
      "type": "error"
    },
    {
      "inputs": [
        {
          "internalType": "address",
          "name": "account",
          "type": "address"
        }
      ],
      "name": "OwnableUnauthorizedAccount",
      "type": "error"
    },
    {
      "inputs": [],
      "name": "ReentrancyGuardReentrantCall",
      "type": "error"
    },
    {
      "anonymous": false,
      "inputs": [
        {
          "indexed": true,
          "internalType": "address",
          "name": "player",
          "type": "address"
        },
        {
          "indexed": true,
          "internalType": "uint256",
          "name": "roundId",
          "type": "uint256"
        },
        {
          "indexed": false,
          "internalType": "uint256",
          "name": "amount",
          "type": "uint256"
        },
        {
          "indexed": false,
          "internalType": "uint256",
          "name": "prediction",
          "type": "uint256"
        },
        {
          "indexed": false,
          "internalType": "bool",
          "name": "isCash",
          "type": "bool"
        }
      ],
      "name": "BetPlaced",
      "type": "event"
    },
    {
      "anonymous": false,
      "inputs": [
        {
          "indexed": true,
          "internalType": "address",
          "name": "user",
          "type": "address"
        },
        {
          "indexed": false,
          "internalType": "uint256",
          "name": "amount",
          "type": "uint256"
        }
      ],
      "name": "ClubBonusPaid",
      "type": "event"
    },
    {
      "anonymous": false,
      "inputs": [
        {
          "indexed": true,
          "internalType": "address",
          "name": "user",
          "type": "address"
        },
        {
          "indexed": false,
          "internalType": "uint256",
          "name": "amount",
          "type": "uint256"
        }
      ],
      "name": "Deposited",
      "type": "event"
    },
    {
      "anonymous": false,
      "inputs": [
        {
          "indexed": true,
          "internalType": "address",
          "name": "wallet",
          "type": "address"
        },
        {
          "indexed": false,
          "internalType": "uint256",
          "name": "amount",
          "type": "uint256"
        },
        {
          "indexed": false,
          "internalType": "string",
          "name": "walletType",
          "type": "string"
        }
      ],
      "name": "DistributionMade",
      "type": "event"
    },
    {
      "anonymous": false,
      "inputs": [
        {
          "indexed": true,
          "internalType": "address",
          "name": "loser",
          "type": "address"
        },
        {
          "indexed": false,
          "internalType": "uint256",
          "name": "cashback",
          "type": "uint256"
        },
        {
          "indexed": false,
          "internalType": "uint256",
          "name": "roiToReferrer",
          "type": "uint256"
        }
      ],
      "name": "LossClaimed",
      "type": "event"
    },
    {
      "anonymous": false,
      "inputs": [
        {
          "indexed": true,
          "internalType": "address",
          "name": "winner",
          "type": "address"
        },
        {
          "indexed": false,
          "internalType": "uint256",
          "name": "amount",
          "type": "uint256"
        }
      ],
      "name": "LuckyDrawPaid",
      "type": "event"
    },
    {
      "anonymous": false,
      "inputs": [
        {
          "indexed": true,
          "internalType": "address",
          "name": "previousOwner",
          "type": "address"
        },
        {
          "indexed": true,
          "internalType": "address",
          "name": "newOwner",
          "type": "address"
        }
      ],
      "name": "OwnershipTransferred",
      "type": "event"
    },
    {
      "anonymous": false,
      "inputs": [
        {
          "indexed": true,
          "internalType": "address",
          "name": "referrer",
          "type": "address"
        },
        {
          "indexed": true,
          "internalType": "address",
          "name": "user",
          "type": "address"
        },
        {
          "indexed": false,
          "internalType": "uint256",
          "name": "amount",
          "type": "uint256"
        },
        {
          "indexed": false,
          "internalType": "uint256",
          "name": "level",
          "type": "uint256"
        }
      ],
      "name": "ReferralPaid",
      "type": "event"
    },
    {
      "anonymous": false,
      "inputs": [
        {
          "indexed": true,
          "internalType": "uint256",
          "name": "roundId",
          "type": "uint256"
        },
        {
          "indexed": false,
          "internalType": "uint256",
          "name": "winningNumber",
          "type": "uint256"
        },
        {
          "indexed": false,
          "internalType": "bool",
          "name": "isCash",
          "type": "bool"
        }
      ],
      "name": "RoundClosed",
      "type": "event"
    },
    {
      "anonymous": false,
      "inputs": [
        {
          "indexed": true,
          "internalType": "address",
          "name": "user",
          "type": "address"
        },
        {
          "indexed": false,
          "internalType": "bool",
          "name": "isPractice",
          "type": "bool"
        },
        {
          "indexed": false,
          "internalType": "bool",
          "name": "isCash",
          "type": "bool"
        },
        {
          "indexed": false,
          "internalType": "uint256",
          "name": "bonus",
          "type": "uint256"
        }
      ],
      "name": "UserActivated",
      "type": "event"
    },
    {
      "anonymous": false,
      "inputs": [
        {
          "indexed": true,
          "internalType": "address",
          "name": "user",
          "type": "address"
        },
        {
          "indexed": true,
          "internalType": "address",
          "name": "referrer",
          "type": "address"
        },
        {
          "indexed": false,
          "internalType": "uint256",
          "name": "userId",
          "type": "uint256"
        }
      ],
      "name": "UserRegistered",
      "type": "event"
    },
    {
      "anonymous": false,
      "inputs": [
        {
          "indexed": true,
          "internalType": "address",
          "name": "winner",
          "type": "address"
        },
        {
          "indexed": false,
          "internalType": "uint256",
          "name": "cashout",
          "type": "uint256"
        },
        {
          "indexed": false,
          "internalType": "uint256",
          "name": "reinvest",
          "type": "uint256"
        }
      ],
      "name": "WinClaimed",
      "type": "event"
    },
    {
      "anonymous": false,
      "inputs": [
        {
          "indexed": true,
          "internalType": "address",
          "name": "user",
          "type": "address"
        },
        {
          "indexed": false,
          "internalType": "uint256",
          "name": "amount",
          "type": "uint256"
        }
      ],
      "name": "Withdrawn",
      "type": "event"
    },
    {
      "inputs": [],
      "name": "BD_PERCENT",
      "outputs": [
        {
          "internalType": "uint256",
          "name": "",
          "type": "uint256"
        }
      ],
      "stateMutability": "view",
      "type": "function"
    },
    {
      "inputs": [],
      "name": "BONUS_USER_LIMIT",
      "outputs": [
        {
          "internalType": "uint256",
          "name": "",
          "type": "uint256"
        }
      ],
      "stateMutability": "view",
      "type": "function"
    },
    {
      "inputs": [],
      "name": "CASH_GAMES_PER_DAY",
      "outputs": [
        {
          "internalType": "uint256",
          "name": "",
          "type": "uint256"
        }
      ],
      "stateMutability": "view",
      "type": "function"
    },
    {
      "inputs": [],
      "name": "CLUB_PERCENT",
      "outputs": [
        {
          "internalType": "uint256",
          "name": "",
          "type": "uint256"
        }
      ],
      "stateMutability": "view",
      "type": "function"
    },
    {
      "inputs": [],
      "name": "CREATOR_PERCENT",
      "outputs": [
        {
          "internalType": "uint256",
          "name": "",
          "type": "uint256"
        }
      ],
      "stateMutability": "view",
      "type": "function"
    },
    {
      "inputs": [],
      "name": "FEW_PERCENT",
      "outputs": [
        {
          "internalType": "uint256",
          "name": "",
          "type": "uint256"
        }
      ],
      "stateMutability": "view",
      "type": "function"
    },
    {
      "inputs": [],
      "name": "LOSS_CASHBACK_PERCENT",
      "outputs": [
        {
          "internalType": "uint256",
          "name": "",
          "type": "uint256"
        }
      ],
      "stateMutability": "view",
      "type": "function"
    },
    {
      "inputs": [],
      "name": "LOSS_REFERRAL_PERCENT",
      "outputs": [
        {
          "internalType": "uint256",
          "name": "",
          "type": "uint256"
        }
      ],
      "stateMutability": "view",
      "type": "function"
    },
    {
      "inputs": [],
      "name": "LUCKY_PERCENT",
      "outputs": [
        {
          "internalType": "uint256",
          "name": "",
          "type": "uint256"
        }
      ],
      "stateMutability": "view",
      "type": "function"
    },
    {
      "inputs": [],
      "name": "MIN_ACTIVATION",
      "outputs": [
        {
          "internalType": "uint256",
          "name": "",
          "type": "uint256"
        }
      ],
      "stateMutability": "view",
      "type": "function"
    },
    {
      "inputs": [],
      "name": "MIN_REFERRAL_PAYOUT",
      "outputs": [
        {
          "internalType": "uint256",
          "name": "",
          "type": "uint256"
        }
      ],
      "stateMutability": "view",
      "type": "function"
    },
    {
      "inputs": [],
      "name": "MIN_WITHDRAWAL",
      "outputs": [
        {
          "internalType": "uint256",
          "name": "",
          "type": "uint256"
        }
      ],
      "stateMutability": "view",
      "type": "function"
    },
    {
      "inputs": [],
      "name": "PRACTICE_GAMES_PER_DAY",
      "outputs": [
        {
          "internalType": "uint256",
          "name": "",
          "type": "uint256"
        }
      ],
      "stateMutability": "view",
      "type": "function"
    },
    {
      "inputs": [],
      "name": "PROTECTION_PERCENT",
      "outputs": [
        {
          "internalType": "uint256",
          "name": "",
          "type": "uint256"
        }
      ],
      "stateMutability": "view",
      "type": "function"
    },
    {
      "inputs": [],
      "name": "REFERRAL_PERCENT",
      "outputs": [
        {
          "internalType": "uint256",
          "name": "",
          "type": "uint256"
        }
      ],
      "stateMutability": "view",
      "type": "function"
    },
    {
      "inputs": [],
      "name": "SIGNUP_BONUS",
      "outputs": [
        {
          "internalType": "uint256",
          "name": "",
          "type": "uint256"
        }
      ],
      "stateMutability": "view",
      "type": "function"
    },
    {
      "inputs": [],
      "name": "WINNER_REFERRAL_PERCENT",
      "outputs": [
        {
          "internalType": "uint256",
          "name": "",
          "type": "uint256"
        }
      ],
      "stateMutability": "view",
      "type": "function"
    },
    {
      "inputs": [],
      "name": "WIN_CASHOUT_MULTIPLIER",
      "outputs": [
        {
          "internalType": "uint256",
          "name": "",
          "type": "uint256"
        }
      ],
      "stateMutability": "view",
      "type": "function"
    },
    {
      "inputs": [],
      "name": "WIN_REINVEST_MULTIPLIER",
      "outputs": [
        {
          "internalType": "uint256",
          "name": "",
          "type": "uint256"
        }
      ],
      "stateMutability": "view",
      "type": "function"
    },
    {
      "inputs": [
        {
          "internalType": "address",
          "name": "",
          "type": "address"
        }
      ],
      "name": "addressToReferralCode",
      "outputs": [
        {
          "internalType": "string",
          "name": "",
          "type": "string"
        }
      ],
      "stateMutability": "view",
      "type": "function"
    },
    {
      "inputs": [
        {
          "internalType": "uint256",
          "name": "",
          "type": "uint256"
        }
      ],
      "name": "bdWallets",
      "outputs": [
        {
          "internalType": "address",
          "name": "",
          "type": "address"
        }
      ],
      "stateMutability": "view",
      "type": "function"
    },
    {
      "inputs": [
        {
          "internalType": "address",
          "name": "",
          "type": "address"
        },
        {
          "internalType": "uint256",
          "name": "",
          "type": "uint256"
        }
      ],
      "name": "cashBets",
      "outputs": [
        {
          "internalType": "address",
          "name": "player",
          "type": "address"
        },
        {
          "internalType": "uint256",
          "name": "amount",
          "type": "uint256"
        },
        {
          "internalType": "uint256",
          "name": "prediction",
          "type": "uint256"
        },
        {
          "internalType": "bool",
          "name": "claimed",
          "type": "bool"
        }
      ],
      "stateMutability": "view",
      "type": "function"
    },
    {
      "inputs": [
        {
          "internalType": "uint256",
          "name": "",
          "type": "uint256"
        }
      ],
      "name": "cashRounds",
      "outputs": [
        {
          "internalType": "uint256",
          "name": "roundId",
          "type": "uint256"
        },
        {
          "internalType": "uint256",
          "name": "startTime",
          "type": "uint256"
        },
        {
          "internalType": "uint256",
          "name": "endTime",
          "type": "uint256"
        },
        {
          "internalType": "uint256",
          "name": "totalPool",
          "type": "uint256"
        },
        {
          "internalType": "uint256",
          "name": "winningNumber",
          "type": "uint256"
        },
        {
          "internalType": "bool",
          "name": "isClosed",
          "type": "bool"
        },
        {
          "internalType": "bool",
          "name": "isCashGame",
          "type": "bool"
        }
      ],
      "stateMutability": "view",
      "type": "function"
    },
    {
      "inputs": [
        {
          "internalType": "uint256",
          "name": "_roundId",
          "type": "uint256"
        },
        {
          "internalType": "bool",
          "name": "_isCashGame",
          "type": "bool"
        }
      ],
      "name": "claimLoss",
      "outputs": [],
      "stateMutability": "nonpayable",
      "type": "function"
    },
    {
      "inputs": [
        {
          "internalType": "uint256",
          "name": "_roundId",
          "type": "uint256"
        },
        {
          "internalType": "bool",
          "name": "_isCashGame",
          "type": "bool"
        }
      ],
      "name": "claimWinnings",
      "outputs": [],
      "stateMutability": "nonpayable",
      "type": "function"
    },
    {
      "inputs": [
        {
          "internalType": "uint256",
          "name": "_winningNumber",
          "type": "uint256"
        },
        {
          "internalType": "bool",
          "name": "_isCashGame",
          "type": "bool"
        }
      ],
      "name": "closeRound",
      "outputs": [],
      "stateMutability": "nonpayable",
      "type": "function"
    },
    {
      "inputs": [],
      "name": "clubPoolBalance",
      "outputs": [
        {
          "internalType": "uint256",
          "name": "",
          "type": "uint256"
        }
      ],
      "stateMutability": "view",
      "type": "function"
    },
    {
      "inputs": [],
      "name": "creatorWallet",
      "outputs": [
        {
          "internalType": "address",
          "name": "",
          "type": "address"
        }
      ],
      "stateMutability": "view",
      "type": "function"
    },
    {
      "inputs": [],
      "name": "currentCashRoundId",
      "outputs": [
        {
          "internalType": "uint256",
          "name": "",
          "type": "uint256"
        }
      ],
      "stateMutability": "view",
      "type": "function"
    },
    {
      "inputs": [],
      "name": "currentPracticeRoundId",
      "outputs": [
        {
          "internalType": "uint256",
          "name": "",
          "type": "uint256"
        }
      ],
      "stateMutability": "view",
      "type": "function"
    },
    {
      "inputs": [
        {
          "internalType": "uint256",
          "name": "_amount",
          "type": "uint256"
        }
      ],
      "name": "depositCashGame",
      "outputs": [],
      "stateMutability": "nonpayable",
      "type": "function"
    },
    {
      "inputs": [
        {
          "internalType": "address",
          "name": "",
          "type": "address"
        },
        {
          "internalType": "uint256",
          "name": "",
          "type": "uint256"
        }
      ],
      "name": "directReferralsList",
      "outputs": [
        {
          "internalType": "address",
          "name": "",
          "type": "address"
        }
      ],
      "stateMutability": "view",
      "type": "function"
    },
    {
      "inputs": [
        {
          "internalType": "address[]",
          "name": "_recipients",
          "type": "address[]"
        },
        {
          "internalType": "uint256[]",
          "name": "_amounts",
          "type": "uint256[]"
        }
      ],
      "name": "distributeClubBonus",
      "outputs": [],
      "stateMutability": "nonpayable",
      "type": "function"
    },
    {
      "inputs": [
        {
          "internalType": "address[]",
          "name": "_winners",
          "type": "address[]"
        },
        {
          "internalType": "uint256[]",
          "name": "_amounts",
          "type": "uint256[]"
        }
      ],
      "name": "executeLuckyDraw",
      "outputs": [],
      "stateMutability": "nonpayable",
      "type": "function"
    },
    {
      "inputs": [],
      "name": "fewWallet",
      "outputs": [
        {
          "internalType": "address",
          "name": "",
          "type": "address"
        }
      ],
      "stateMutability": "view",
      "type": "function"
    },
    {
      "inputs": [],
      "name": "gamePoolBalance",
      "outputs": [
        {
          "internalType": "uint256",
          "name": "",
          "type": "uint256"
        }
      ],
      "stateMutability": "view",
      "type": "function"
    },
    {
      "inputs": [],
      "name": "getPools",
      "outputs": [
        {
          "internalType": "uint256",
          "name": "",
          "type": "uint256"
        },
        {
          "internalType": "uint256",
          "name": "",
          "type": "uint256"
        },
        {
          "internalType": "uint256",
          "name": "",
          "type": "uint256"
        },
        {
          "internalType": "uint256",
          "name": "",
          "type": "uint256"
        }
      ],
      "stateMutability": "view",
      "type": "function"
    },
    {
      "inputs": [
        {
          "internalType": "address",
          "name": "_user",
          "type": "address"
        }
      ],
      "name": "getUserInfo",
      "outputs": [
        {
          "internalType": "uint256",
          "name": "userId",
          "type": "uint256"
        },
        {
          "internalType": "bool",
          "name": "isRegistered",
          "type": "bool"
        },
        {
          "internalType": "bool",
          "name": "isPractice",
          "type": "bool"
        },
        {
          "internalType": "bool",
          "name": "isCash",
          "type": "bool"
        },
        {
          "internalType": "uint256",
          "name": "walletBalance",
          "type": "uint256"
        },
        {
          "internalType": "uint256",
          "name": "practiceBalance",
          "type": "uint256"
        },
        {
          "internalType": "uint256",
          "name": "cashGameBalance",
          "type": "uint256"
        },
        {
          "internalType": "uint256",
          "name": "totalDeposit",
          "type": "uint256"
        },
        {
          "internalType": "uint256",
          "name": "cumulativeDeposit",
          "type": "uint256"
        },
        {
          "internalType": "uint256",
          "name": "directReferrals",
          "type": "uint256"
        }
      ],
      "stateMutability": "view",
      "type": "function"
    },
    {
      "inputs": [],
      "name": "getUserStats",
      "outputs": [
        {
          "internalType": "uint256",
          "name": "",
          "type": "uint256"
        },
        {
          "internalType": "uint256",
          "name": "",
          "type": "uint256"
        },
        {
          "internalType": "uint256",
          "name": "",
          "type": "uint256"
        },
        {
          "internalType": "uint256",
          "name": "",
          "type": "uint256"
        }
      ],
      "stateMutability": "view",
      "type": "function"
    },
    {
      "inputs": [
        {
          "internalType": "uint256",
          "name": "",
          "type": "uint256"
        }
      ],
      "name": "idToAddress",
      "outputs": [
        {
          "internalType": "address",
          "name": "",
          "type": "address"
        }
      ],
      "stateMutability": "view",
      "type": "function"
    },
    {
      "inputs": [],
      "name": "isPaused",
      "outputs": [
        {
          "internalType": "bool",
          "name": "",
          "type": "bool"
        }
      ],
      "stateMutability": "view",
      "type": "function"
    },
    {
      "inputs": [
        {
          "internalType": "address",
          "name": "",
          "type": "address"
        }
      ],
      "name": "isSuperAdmin",
      "outputs": [
        {
          "internalType": "bool",
          "name": "",
          "type": "bool"
        }
      ],
      "stateMutability": "view",
      "type": "function"
    },
    {
      "inputs": [
        {
          "internalType": "address",
          "name": "",
          "type": "address"
        }
      ],
      "name": "isViewAdmin",
      "outputs": [
        {
          "internalType": "bool",
          "name": "",
          "type": "bool"
        }
      ],
      "stateMutability": "view",
      "type": "function"
    },
    {
      "inputs": [],
      "name": "luckyDrawBalance",
      "outputs": [
        {
          "internalType": "uint256",
          "name": "",
          "type": "uint256"
        }
      ],
      "stateMutability": "view",
      "type": "function"
    },
    {
      "inputs": [],
      "name": "owner",
      "outputs": [
        {
          "internalType": "address",
          "name": "",
          "type": "address"
        }
      ],
      "stateMutability": "view",
      "type": "function"
    },
    {
      "inputs": [
        {
          "internalType": "uint256",
          "name": "_prediction",
          "type": "uint256"
        },
        {
          "internalType": "uint256",
          "name": "_amount",
          "type": "uint256"
        }
      ],
      "name": "placeBetCash",
      "outputs": [],
      "stateMutability": "nonpayable",
      "type": "function"
    },
    {
      "inputs": [
        {
          "internalType": "uint256",
          "name": "_prediction",
          "type": "uint256"
        },
        {
          "internalType": "uint256",
          "name": "_amount",
          "type": "uint256"
        }
      ],
      "name": "placeBetPractice",
      "outputs": [],
      "stateMutability": "nonpayable",
      "type": "function"
    },
    {
      "inputs": [
        {
          "internalType": "address",
          "name": "",
          "type": "address"
        },
        {
          "internalType": "uint256",
          "name": "",
          "type": "uint256"
        }
      ],
      "name": "practiceBets",
      "outputs": [
        {
          "internalType": "address",
          "name": "player",
          "type": "address"
        },
        {
          "internalType": "uint256",
          "name": "amount",
          "type": "uint256"
        },
        {
          "internalType": "uint256",
          "name": "prediction",
          "type": "uint256"
        },
        {
          "internalType": "bool",
          "name": "claimed",
          "type": "bool"
        }
      ],
      "stateMutability": "view",
      "type": "function"
    },
    {
      "inputs": [
        {
          "internalType": "uint256",
          "name": "",
          "type": "uint256"
        }
      ],
      "name": "practiceRounds",
      "outputs": [
        {
          "internalType": "uint256",
          "name": "roundId",
          "type": "uint256"
        },
        {
          "internalType": "uint256",
          "name": "startTime",
          "type": "uint256"
        },
        {
          "internalType": "uint256",
          "name": "endTime",
          "type": "uint256"
        },
        {
          "internalType": "uint256",
          "name": "totalPool",
          "type": "uint256"
        },
        {
          "internalType": "uint256",
          "name": "winningNumber",
          "type": "uint256"
        },
        {
          "internalType": "bool",
          "name": "isClosed",
          "type": "bool"
        },
        {
          "internalType": "bool",
          "name": "isCashGame",
          "type": "bool"
        }
      ],
      "stateMutability": "view",
      "type": "function"
    },
    {
      "inputs": [],
      "name": "protectionPoolBalance",
      "outputs": [
        {
          "internalType": "uint256",
          "name": "",
          "type": "uint256"
        }
      ],
      "stateMutability": "view",
      "type": "function"
    },
    {
      "inputs": [
        {
          "internalType": "string",
          "name": "",
          "type": "string"
        }
      ],
      "name": "referralCodeToAddress",
      "outputs": [
        {
          "internalType": "address",
          "name": "",
          "type": "address"
        }
      ],
      "stateMutability": "view",
      "type": "function"
    },
    {
      "inputs": [
        {
          "internalType": "address",
          "name": "_referrer",
          "type": "address"
        }
      ],
      "name": "register",
      "outputs": [],
      "stateMutability": "nonpayable",
      "type": "function"
    },
    {
      "inputs": [],
      "name": "renounceOwnership",
      "outputs": [],
      "stateMutability": "nonpayable",
      "type": "function"
    },
    {
      "inputs": [],
      "name": "totalBonusesGiven",
      "outputs": [
        {
          "internalType": "uint256",
          "name": "",
          "type": "uint256"
        }
      ],
      "stateMutability": "view",
      "type": "function"
    },
    {
      "inputs": [],
      "name": "totalUsers",
      "outputs": [
        {
          "internalType": "uint256",
          "name": "",
          "type": "uint256"
        }
      ],
      "stateMutability": "view",
      "type": "function"
    },
    {
      "inputs": [],
      "name": "totalVolume",
      "outputs": [
        {
          "internalType": "uint256",
          "name": "",
          "type": "uint256"
        }
      ],
      "stateMutability": "view",
      "type": "function"
    },
    {
      "inputs": [],
      "name": "totalWithdrawnGlobal",
      "outputs": [
        {
          "internalType": "uint256",
          "name": "",
          "type": "uint256"
        }
      ],
      "stateMutability": "view",
      "type": "function"
    },
    {
      "inputs": [
        {
          "internalType": "address",
          "name": "newOwner",
          "type": "address"
        }
      ],
      "name": "transferOwnership",
      "outputs": [],
      "stateMutability": "nonpayable",
      "type": "function"
    },
    {
      "inputs": [],
      "name": "usdtToken",
      "outputs": [
        {
          "internalType": "contract IERC20",
          "name": "",
          "type": "address"
        }
      ],
      "stateMutability": "view",
      "type": "function"
    },
    {
      "inputs": [],
      "name": "userCounter",
      "outputs": [
        {
          "internalType": "uint256",
          "name": "",
          "type": "uint256"
        }
      ],
      "stateMutability": "view",
      "type": "function"
    },
    {
      "inputs": [
        {
          "internalType": "address",
          "name": "",
          "type": "address"
        },
        {
          "internalType": "uint256",
          "name": "",
          "type": "uint256"
        }
      ],
      "name": "userPlayedCashRounds",
      "outputs": [
        {
          "internalType": "uint256",
          "name": "",
          "type": "uint256"
        }
      ],
      "stateMutability": "view",
      "type": "function"
    },
    {
      "inputs": [
        {
          "internalType": "address",
          "name": "",
          "type": "address"
        },
        {
          "internalType": "uint256",
          "name": "",
          "type": "uint256"
        }
      ],
      "name": "userPlayedPracticeRounds",
      "outputs": [
        {
          "internalType": "uint256",
          "name": "",
          "type": "uint256"
        }
      ],
      "stateMutability": "view",
      "type": "function"
    },
    {
      "inputs": [
        {
          "internalType": "address",
          "name": "",
          "type": "address"
        }
      ],
      "name": "users",
      "outputs": [
        {
          "internalType": "uint256",
          "name": "userId",
          "type": "uint256"
        },
        {
          "internalType": "address",
          "name": "referrer",
          "type": "address"
        },
        {
          "internalType": "uint256",
          "name": "registrationTime",
          "type": "uint256"
        },
        {
          "internalType": "uint256",
          "name": "walletBalance",
          "type": "uint256"
        },
        {
          "internalType": "uint256",
          "name": "practiceBalance",
          "type": "uint256"
        },
        {
          "internalType": "uint256",
          "name": "cashGameBalance",
          "type": "uint256"
        },
        {
          "internalType": "uint256",
          "name": "totalDeposit",
          "type": "uint256"
        },
        {
          "internalType": "uint256",
          "name": "totalWithdrawn",
          "type": "uint256"
        },
        {
          "internalType": "uint256",
          "name": "directReferralIncome",
          "type": "uint256"
        },
        {
          "internalType": "uint256",
          "name": "winnerReferralIncome",
          "type": "uint256"
        },
        {
          "internalType": "uint256",
          "name": "cashbackIncome",
          "type": "uint256"
        },
        {
          "internalType": "uint256",
          "name": "lossReferralIncome",
          "type": "uint256"
        },
        {
          "internalType": "uint256",
          "name": "clubIncome",
          "type": "uint256"
        },
        {
          "internalType": "uint256",
          "name": "luckyDrawIncome",
          "type": "uint256"
        },
        {
          "internalType": "uint256",
          "name": "cumulativeDeposit",
          "type": "uint256"
        },
        {
          "internalType": "uint256",
          "name": "practiceGamesPlayedToday",
          "type": "uint256"
        },
        {
          "internalType": "uint256",
          "name": "cashGamesPlayedToday",
          "type": "uint256"
        },
        {
          "internalType": "uint256",
          "name": "lastGameDate",
          "type": "uint256"
        },
        {
          "internalType": "uint256",
          "name": "totalBets",
          "type": "uint256"
        },
        {
          "internalType": "uint256",
          "name": "totalWins",
          "type": "uint256"
        },
        {
          "internalType": "bool",
          "name": "isRegistered",
          "type": "bool"
        },
        {
          "internalType": "bool",
          "name": "isPracticePlayer",
          "type": "bool"
        },
        {
          "internalType": "bool",
          "name": "isCashPlayer",
          "type": "bool"
        },
        {
          "internalType": "uint256",
          "name": "directReferrals",
          "type": "uint256"
        },
        {
          "internalType": "uint256",
          "name": "teamVolume",
          "type": "uint256"
        }
      ],
      "stateMutability": "view",
      "type": "function"
    },
    {
      "inputs": [
        {
          "internalType": "uint256",
          "name": "_amount",
          "type": "uint256"
        }
      ],
      "name": "withdraw",
      "outputs": [],
      "stateMutability": "nonpayable",
      "type": "function"
    },
    {
      "inputs": [
        {
          "internalType": "address",
          "name": "_user",
          "type": "address"
        },
        {
          "internalType": "uint256",
          "name": "_offset",
          "type": "uint256"
        },
        {
          "internalType": "uint256",
          "name": "_limit",
          "type": "uint256"
        }
      ],
      "name": "getUserBetHistory",
      "outputs": [
        {
          "components": [
            {
              "internalType": "uint256",
              "name": "roundId",
              "type": "uint256"
            },
            {
              "internalType": "uint256",
              "name": "betAmount",
              "type": "uint256"
            },
            {
              "internalType": "uint256",
              "name": "prediction",
              "type": "uint256"
            },
            {
              "internalType": "uint256",
              "name": "winningNumber",
              "type": "uint256"
            },
            {
              "internalType": "bool",
              "name": "won",
              "type": "bool"
            },
            {
              "internalType": "uint256",
              "name": "payout",
              "type": "uint256"
            },
            {
              "internalType": "uint256",
              "name": "timestamp",
              "type": "uint256"
            },
            {
              "internalType": "bool",
              "name": "isCashGame",
              "type": "bool"
            }
          ],
          "internalType": "struct TRKGameFinal.BetRecord[]",
          "name": "records",
          "type": "tuple[]"
        }
      ],
      "stateMutability": "view",
      "type": "function"
    }
  ],
  "bytecode": "0x6080346200038657601f62003c4938819003918201601f19168301926001600160401b03929091838511838610176200038b578190604095865283398101906102e091828282031262000386576200005782620003c1565b60209162000067838501620003c1565b9462000075888601620003c1565b9482607f8201121562000386578851976102808901908111898210176200038b5789528791810192831162000386576060859101915b8383106200036b575050505033156200035357600080546001600160a01b03198082163390811784558951939893966001600160a01b03949390919085167f8be0079c531659141344cd1fd0a4f28419497f9722a3daafe3b4186f6b6457e08b80a3600197888055678ac7230489e8000060195568056bc75e2d6310000080601a55620186a0601b55601c556018601d556018601e55674563918244f40000601f55600297888855856005978860215588602255600f602355886024558a602555600a6026558a6027556006602855600f60295588602a558b602b55169081156200032257508592918391858b5416178a55168360035416176003551690600454161760045585875b601481106200030d5750505050338552604382528585208460ff198254161790558360315583603255620001e7620003a1565b9380855282850142815282888701968888526060810189815260808201908a825260a08301998b8b5260c08401958c8752878d5260398a528d8d20945185555187850155518984015551600383015551600482015501955115156200025890879060ff801983541691151516179055565b5115159385549561ff0096879661ff001997889160081b1691161790556200027f620003a1565b918083528483019142835289840189815260608501928a845260808601948b86528c8c60a089019d8e5260c089019a848c52848252603a90522096518755519086015551908401555160038301555160048201550193511515620002ef90859060ff801983541691151516179055565b5115159183549260081b169116179055516138729081620003d78239f35b858484511693019281860155018690620001b4565b62461bcd60e51b815260048101899052600c60248201526b125b9d985b1a59081554d11560a21b6044820152606490fd5b8551631e4fbdf760e01b815260006004820152602490fd5b81906200037884620003c1565b8152019101908490620000ab565b600080fd5b634e487b7160e01b600052604160045260246000fd5b6040519060e082016001600160401b038111838210176200038b57604052565b51906001600160a01b0382168203620003865756fe6101e080604052600436101561001457600080fd5b60003560e01c908163048bb7231461307957508063099647421461305b57806317d7ac5d1461301157806319c0995314612ff35780631e03e65214612fd557806322773b9514612e245780632a2d0c4714612df05780632e1a7d4d14612cc25780632eb37ff914612ca45780632ec25c8114612c865780632fb21a6814612c685780633045e0ad14612c4a57806333a8915a14612c2c5780633c91646f14612a105780633e13b8a8146129d15780634420e486146125715780634f7a53071461255357806353f6ad371461251a5780635b849b5f146124fc5780635f81a57c146124de578063633be2d9146124c05780636386c1c7146122fc57806363b73f3f146122de5780636558f87514612036578063673a2a1f14611ffc5780636cc709c914611d9457806370376e5e14611d76578063715018a614611d1d5780637b31397614611cff5780637cdc65f214611cd65780637f4f52f914611cb8578063821c6d4614611c2e57806382e0412014611c1057806384ba26e414611bb857806389411b30146119265780638da5cb5b146118fd578063966eab11146118df5780639ac27dd3146118c1578063a186b5081461127b578063a33e1b941461125d578063a87430ba14611061578063a98ad46c14611038578063b04681851461101b578063b187bd2614610ff8578063b59703a314610f9f578063b7c601b314610f81578063b868e7a114610e87578063be85e78e14610e69578063bff1f9e114610e4b578063c090a2b6146108a7578063cb06cb3014610871578063cb4d75bf146107e9578063cd244dc1146107cb578063d0ae5192146107a2578063d15ca16614610784578063d6f92372146106e2578063d7dffe911461051d578063df7f453b146104de578063e33b4f5414610454578063e75e3d4514610436578063ec28fd6d146103aa578063f0c37a591461038c578063f1daa00c1461036e5763f2fde38b146102e057600080fd5b34610369576020366003190112610369576102f9613094565b610301613279565b6001600160a01b0390811690811561035057600054826001600160601b0360a01b821617600055167f8be0079c531659141344cd1fd0a4f28419497f9722a3daafe3b4186f6b6457e0600080a3005b604051631e4fbdf760e01b815260006004820152602490fd5b600080fd5b34610369576000366003190112610369576020602254604051908152f35b34610369576000366003190112610369576020603054604051908152f35b34610369576040366003190112610369576001600160a01b03806103cc613094565b16600052603c602052604060002060243560005260205260406000209081541661043260018301549260ff600360028301549201541690604051948594859260609295949195608085019660018060a01b03168552602085015260408401521515910152565b0390f35b34610369576000366003190112610369576020601954604051908152f35b3461036957602036600319011261036957600435600052603a6020526040600020805490610432600182015491600281015493600382015491600560048201549101549260405196879660ff808760081c1696169488959260c09592989794919860e088019988526020880152604087015260608601526080850152151560a08401521515910152565b34610369576020366003190112610369576001600160a01b036104ff613094565b166000526043602052602060ff604060002054166040519015158152f35b346103695761052b36613109565b913360005260206043815260ff6040600020541680156106ce575b61054f906137e0565b6000805b8381106106a95750603654818110610664579061056f91613302565b60365560005b82811061057e57005b8161058a828787613818565b6001600160a01b039035816105a085888c613818565b6105a990613828565b166000526038908184526040600020600301908154906105c8916132f5565b90556105d5848989613818565b3590826105e386898d613818565b6105ec90613828565b1660005283526040600020600d0190815490610607916132f5565b905561061483868a613818565b61061d90613828565b90610629848989613818565b359160405192835216917f0d2e7a3d3aaedebc7cef486f8e08d873d7a18eb509abf91c82b684dc627c2e6891a261065f906132e6565b610575565b60405162461bcd60e51b815260048101849052601760248201527f496e73756666696369656e74204c75636b7920506f6f6c0000000000000000006044820152606490fd5b906106c36106c9916106bc848989613818565b35906132f5565b916132e6565b610553565b506000546001600160a01b03163314610546565b346103695760203660031901126103695760043567ffffffffffffffff8111610369573660238201121561036957806004013561071e8161325d565b61072b6040519182613218565b818152602081019136602482860101116103695760208160009260248397018637830101526107626040519283925192839161323a565b604190820190815281900382019020546040516001600160a01b039091168152f35b34610369576000366003190112610369576020601f54604051908152f35b34610369576000366003190112610369576004546040516001600160a01b039091168152602090f35b34610369576000366003190112610369576020602b54604051908152f35b34610369576040366003190112610369576001600160a01b038061080b613094565b16600052603b602052604060002060243560005260205260406000209081541661043260018301549260ff600360028301549201541690604051948594859260609295949195608085019660018060a01b03168552602085015260408401521515910152565b3461036957602036600319011261036957600435601481101561036957600501546040516001600160a01b039091168152602090f35b34610369576108b53661316a565b906108be613469565b6108cd60ff602c5416156132a5565b8115610e2b5733600052603c6020526040600020816000526020526040600020905b8215610e1857600052603a6020526040600020905b61091460ff600584015416613769565b60018101549182151580610e09575b61092c906137a2565b6004600283015491015403610dd757600301600160ff198254161790556109626109586028548361330f565b916027549061330f565b9115610c665733600052603860205260056040600020016109848282546132f5565b905560025460405163a9059cbb60e01b81523360048201526024810184905290602090829060449082906000906001600160a01b03165af18015610c5a576109d491600091610c2b575b5061342b565b33600052603860205260076040600020016109f08382546132f5565b90556109fc82826132f5565b336000526038602052610a1860136040600020019182546132f5565b90556064610a286029548461330f565b0433600052603860205260018060a01b03600160406000200154169260405190610a51826131df565b6101f4825260c8602083015260646040830152606460608301526064608083015260328060a08401528060c08401528060e08401528061010084015280610120840152806101408401528061016084015280610180840152806101a08401526101c08301526000945b600f861080610c19575b15610bdc57612710610ae0610ad9888661348c565b518661330f565b049060018060a01b0316908160005260386020526040600020600e810154601c541115600014610bc657508160005260386020526009604060002001610b278282546132f5565b90558160005260386020526003604060002001610b458282546132f5565b905560018701808811610bb0576040519182526020820152817f65db98422e8b7340e0d6dfa99bbadd4ba95a51fefafd8f0e1cbbb2e819429a4260403393a35b6000908152603860205260409020600101546001600160a01b031694610baa906132e6565b94610aba565b634e487b7160e01b600052601160045260246000fd5b6004610bd591019182546132f5565b9055610b85565b50935050505b60405191825260208201527f32c1ffa2d64a48a72c24ae3e096197a2f77804340592434296903bbf7698163260403392a260018055005b506001600160a01b0381161515610ac4565b610c4d915060203d602011610c53575b610c458183613218565b810190613413565b846109ce565b503d610c3b565b6040513d6000823e3d90fd5b610c7082826132f5565b91336000526038602093818552610c9060046040600020019182546132f5565b9055610c9c82846132f5565b33600052818552610cb660136040600020019182546132f5565b90556064610cc66029548461330f565b04933360005281815260018060a01b039283600160406000200154169060405190610cf0826131df565b6101f4825260c88483015260646040830152606460608301526064608083015260328060a08401528060c08401528060e08401528061010084015280610120840152806101408401528061016084015280610180840152806101a08401526101c08301526000925b600f841080610dcc575b15610dbf5786612710610d7f610d78878761348c565b518c61330f565b0491169081600052868652610d9d60046040600020019182546132f5565b9055600052848452610db98660016040600020015416936132e6565b92610d58565b5096505050505050610be2565b508681161515610d62565b60405162461bcd60e51b815260206004820152600a6024820152692737ba103bb4b73732b960b11b6044820152606490fd5b50600382015460ff1615610923565b6000526039602052604060002090610904565b33600052603b6020526040600020816000526020526040600020906108ef565b34610369576000366003190112610369576020602d54604051908152f35b34610369576000366003190112610369576020602a54604051908152f35b3461036957602080600319360112610369576001600160a01b03610ea9613094565b16600052604081526040600020604051600091805484610ec882613189565b91828552818501936001918281169081600014610f615750600114610f24575b50505050610efa826040940383613218565b610f16835194859381855251928380928601528585019061323a565b601f01601f19168101030190f35b600090815282812092965092915b828410610f4e57505050820190920191610efa84604084610ee8565b8054868501880152928601928101610f32565b60ff1916865250505090151560051b8301019250610efa84604084610ee8565b34610369576000366003190112610369576020602754604051908152f35b3461036957604036600319011261036957610fb8613094565b6024359060018060a01b03809116600052603f6020526040600020805483101561036957602092610fe8916130aa565b9190546040519260031b1c168152f35b3461036957600036600319011261036957602060ff602c54166040519015158152f35b346103695760003660031901126103695760208054604051908152f35b34610369576000366003190112610369576002546040516001600160a01b039091168152602090f35b3461036957602036600319011261036957600f600e600d600c600b600a60096008600760066005600460036001600160a01b038061109d613094565b166000526038602052601660406000209e8f9e8f9e8f9e8f9e8f9e8f9e8f9e8f9e8f9e8f9e8f9e8f9e8f806101805280549f60018201541660c05260028101546101005201549e01549e01549e01549e01549e01549e01549e01549e01549e01549e01549e01549e01549e601081015461014052601181015461012052601281015461016052601381015460a052601481015460e052601581015460805201546101a052604051806101c0525260c05160206101c05101526101005160406101c051015260606101c051015260806101c051015260a06101c051015260c06101c051015260e06101c05101526101006101c05101526101206101c05101526101406101c05101526101606101c05101526101806101c05101526101a06101c05101526101c0805101526101e06101c0510152610140516102006101c0510152610120516102206101c0510152610160516102406101c051015260a0516102606101c051015260ff60e0511615156102806101c051015260ff60e05160081c1615156102a06101c051015260ff60e05160101c1615156102c06101c05101526080516102e06101c05101526101a0516103006101c05101526103206101c051f35b34610369576000366003190112610369576020601b54604051908152f35b3461036957602036600319011261036957611294613469565b6112a360ff602c5416156132a5565b336000526038602052601460ff8160406000200154161561188b5760043515611854576000602060018060a01b03600254166064604051809481936323b872dd60e01b835233600484015230602484015260043560448401525af18015610c5a5761131591600091611835575061342b565b336000526038602052600660406000200161133360043582546132f5565b9055336000526038602052600e60406000200161135360043582546132f5565b9055611363600435602e546132f5565b602e55336000908152603860205260408120828101805462ff00001916620100001790556004810191909155600101546001600160a01b03165b6001600160a01b031680156113ec5780600052603860205260166040600020016113ca60043582546132f5565b90556000908152603860205260409020600101546001600160a01b031661139d565b5060646113fd60205460043561330f565b60025460035460405163a9059cbb60e01b8082526001600160a01b03928316600483015294909304602484018190529394939160209184916044918391600091165af1918215610c5a5761145992611816575b50600435613302565b606461146960215460043561330f565b049180830460005b8281106117a557856114dc6114868787613302565b606461149660225460043561330f565b600254600480546040518881526001600160a01b039182169281019290925293909204602483018190529194919392602092869290911690829060009082906044820190565b03925af1928315610c5a576114f693611786575b50613302565b606461150660235460043561330f565b049061151c611515833361349d565b8092613302565b918181116116ef575b505090506024611554606461153d835460043561330f565b0461154a816035546132f5565b9384603555613302565b9161157f606461156860255460043561330f565b04611575816036546132f5565b9485603655613302565b906115b56115ad606461159660265460043561330f565b046115a3816037546132f5565b9485603755613302565b6034546132f5565b60348190556002546040516370a0823160e01b81523060048201529460209186919082906001600160a01b03165afa938415610c5a576000946116b7575b50936116066116069261160b95966132f5565b6132f5565b1161167f5760405160043581527f2da466a7b24304f47e87fa2e1e5a81b9831ce54fec19055ce277ca2f39ba42c460203392a26040516000815260016020820152600060408201527f384ef1aa85ba62ac356d1616c94e217375f33d9b9675df051b884f67fb742a2860603392a260018055005b60405162461bcd60e51b815260206004820152601060248201526f20b1b1b7bab73a34b7339032b93937b960811b6044820152606490fd5b9350936020843d6020116116e7575b816116d360209383613218565b8101031261036957925192936116066115f3565b3d91506116c6565b906116f991613302565b600254600480546040519586526001600160a01b0390811691860191909152600183901c60248601819052949293929160209183916044918391600091165af18015610c5a5761175f94611757926115ad92611767575b5084613302565b603455613302565b808280611525565b61177f9060203d602011610c5357610c458183613218565b5086611750565b61179e9060203d602011610c5357610c458183613218565b50846114f0565b60025460058201546040518881526001600160a01b03918216600482015260248101859052929160209184916044918391600091165af1918215610c5a576117f2926117f7575b506132e6565b611471565b61180f9060203d602011610c5357610c458183613218565b50876117ec565b61182e9060203d602011610c5357610c458183613218565b5084611450565b61184e915060203d602011610c5357610c458183613218565b836109ce565b60405162461bcd60e51b815260206004820152600f60248201526e105b5bdd5b9d081c995c5d5a5c9959608a1b6044820152606490fd5b60405162461bcd60e51b815260206004820152600e60248201526d139bdd081c9959da5cdd195c995960921b6044820152606490fd5b34610369576000366003190112610369576020603454604051908152f35b34610369576000366003190112610369576020602f54604051908152f35b34610369576000366003190112610369576000546040516001600160a01b039091168152602090f35b34610369576119343661316a565b61193c613469565b61194b60ff602c5416156132a5565b8015611b985733600052603c6020526040600020826000526020526040600020915b8115611b8557600052603a6020526040600020915b61199260ff600585015416613769565b60018101549283151580611b76575b6119aa906137a2565b6004600283015491015414611b3157600301805460ff191660011790556119d2575b60018055005b60646119ef816119e4602a548561330f565b0492602b549061330f565b046037546119fd82846132f5565b8110611aec57611a1790611a1183856132f5565b90613302565b6037553360005260386020526005604060002001611a368382546132f5565b9055336000526038602052600a604060002001611a548382546132f5565b9055336000908152603860205260409020600101546001600160a01b031680611ab0575b5060405191825260208201527fee62dd63778f275db6fd91cfd6e2d2e7f52326f502c66ecf0f449559463db1b260403392a2806119cc565b806000526003604060002001611ac78382546132f5565b90556000526038602052600b604060002001611ae48282546132f5565b905582611a78565b60405162461bcd60e51b815260206004820152601860248201527f496d6d61747572652050726f74656374696f6e20506f6f6c00000000000000006044820152606490fd5b60405162461bcd60e51b815260206004820152601a60248201527f596f7520776f6e212055736520636c61696d57696e6e696e67730000000000006044820152606490fd5b50600382015460ff16156119a1565b6000526039602052604060002091611982565b33600052603b60205260406000208260005260205260406000209161196d565b3461036957604036600319011261036957611bd1613094565b6001600160a01b03166000908152603d602052604090208054602435919082101561036957602091611c02916130aa565b90546040519160031b1c8152f35b34610369576000366003190112610369576020601e54604051908152f35b346103695760203660031901126103695760043560005260396020526040600020805490610432600182015491600281015493600382015491600560048201549101549260405196879660ff808760081c1696169488959260c09592989794919860e088019988526020880152604087015260608601526080850152151560a08401521515910152565b34610369576000366003190112610369576020603554604051908152f35b34610369576000366003190112610369576003546040516001600160a01b039091168152602090f35b34610369576000366003190112610369576020602454604051908152f35b3461036957600036600319011261036957611d36613279565b600080546001600160a01b0319811682556001600160a01b03167f8be0079c531659141344cd1fd0a4f28419497f9722a3daafe3b4186f6b6457e08280a3005b34610369576000366003190112610369576020602654604051908152f35b3461036957611da236613154565b611daa613469565b611db960ff602c5416156132a5565b3360005260389160209280845260ff60146040600020015460101c1615611fc657611de7600983111561367c565b8215611f9457611e1f6010620151804204336000528387526040600020906011820181815410611f86575b50500154601e54116136b7565b33600052808452611e3a8360056040600020015410156136f1565b336000528084526005604060002001611e54848254613302565b9055336000528084526012604060002001611e708482546132f5565b90553360005283526010604060002001611e8a81546132e6565b9055611f0e604051611e9b816131c3565b33815260038582018581526040830185815260608401916000835233600052603c89526040600020603254600052895260406000209460018060a01b039051166001600160601b0360a01b86541617855551600185015551600284015551151591019060ff801983541691151516179055565b33600052603e8352611f27604060002060325490613734565b603254600052603a83526003604060002001611f448382546132f5565b905560325492604051928352820152600160408201527f2a321dbd54cece7c335a7658d548693dbedd0e71b4b9a93e813a19af9a1ff91060603392a360018055005b600084840155558780611e12565b60405162461bcd60e51b815260048101859052600a6024820152690416d6f756e74203e20360b41b6044820152606490fd5b60405162461bcd60e51b815260048101859052600e60248201526d1058dd1a5d985d1948199a5c9cdd60921b6044820152606490fd5b3461036957600036600319011261036957603454603554603654603754604080519485526020850193909352918301526060820152608090f35b34610369576120443661316a565b336000526020906043825260ff6040600020541680156122ca575b612068906137e0565b600983116122945715612191576120f0604061218f93603254600052603a845280600483600020015560325460005260058260002001600160ff198254161790556032546000524260028360002001557f3b6ec1d93ebaff91cc3874c53b09684166ac65a27c0b36d3600244ec854f962d6032549283928151908152600187820152a26132e6565b806032556121786005604051612105816131fc565b8381528481014281526040820160008152606083019060008252608084019260008452603a60a086019960008b5260c087019960018b52600052526040600020945185555160018501555160028401555160038301555160048201550192511515839060ff801983541691151516179055565b51815461ff00191690151560081b61ff0016179055565b005b61220c604061218f936031546000526039845280600483600020015560315460005260058260002001600160ff198254161790556031546000524260028360002001557f3b6ec1d93ebaff91cc3874c53b09684166ac65a27c0b36d3600244ec854f962d6031549283928151908152600087820152a26132e6565b806031556121786005604051612221816131fc565b8381528481014281526040820160008152606083019060008252608084019260008452603960a086019960008b5260c087019960008b52600052526040600020945185555160018501555160028401555160038301555160048201550192511515839060ff801983541691151516179055565b60405162461bcd60e51b815260048101839052600e60248201526d24b73b30b634b210373ab6b132b960911b6044820152606490fd5b506000546001600160a01b0316331461205f565b34610369576000366003190112610369576020601c54604051908152f35b34610369576020366003190112610369576001600160a01b038061231e613094565b16600052603860205260406000209060405191610320830183811067ffffffffffffffff8211176124aa5760405280549182845260018201541660208401526002810154604084015260038101549283606082015260048201549081608082015260058301548060a083015260068401548060c0840152600785015460e084015260088501549161010092838501526009860154946101209586860152600a87015498610140998a870152600b880154610160870152600c880154610180870152600d8801546101a087015287600e81015496876101c0820152600f8201546101e0820152601082015461020082015260118201546102208201526012820154610240820152601382015461026082015260148201549060ff8216151590816102808201526103006016601560ff808760081c16151596876102a087015260101c16151596876102c086015201549d8e6102e085015201549101526040519b8c5260208c015260408b015260608a0152608089015260a088015260c087015260e0860152840152820152f35b634e487b7160e01b600052604160045260246000fd5b34610369576000366003190112610369576020602854604051908152f35b34610369576000366003190112610369576020602e54604051908152f35b34610369576000366003190112610369576020603754604051908152f35b3461036957600036600319011261036957602d54602e54602f546040805184815260208101949094528301919091526060820152608090f35b34610369576000366003190112610369576020602954604051908152f35b34610369576020806003193601126103695761258b613094565b61259a60ff602c5416156132a5565b90336000526038815260ff6014604060002001541661299857603054801561298b576001600160a01b0383168015159081612980575b81612965575b501561292d576125e5906132e6565b9081603055600090601b54831115612913575b3360005260388152604060002092835560019283810194601460018060a01b03809216926001600160601b0360a01b9784898254161790554260028201558560048201550161010161ffff19825416179055612655602d546132e6565b602d558161289f575b50603054600052604282526040600020338682541617905562015f90603054604051848101914283523360601b60408301526054820152605481526126a2816131c3565b519020066127108101809111610bb0576126bb90613322565b946040516126f4602382868101996254524b60e81b8b526126e4815180928a868601910161323a565b8101036003810184520182613218565b33600052604084526040600020815167ffffffffffffffff81116124aa5761271c8254613189565b601f8111612856575b5085601f82116001146127ec57928692826000999a9b9361276a968b916127e1575b50818d1b918b199060031b1c19161790555b60405193849283925192839161323a565b810160418152030190209033908254161790556030546040519081527f05345a91f639184e946e5aac384b1e9f74ae9ab08d775a7deddb3180cebecb23833392a360405193845283015260408201527f384ef1aa85ba62ac356d1616c94e217375f33d9b9675df051b884f67fb742a2860603392a2005b90508301518d612747565b601f1982169083600052876000209160005b8181106128415750998361276a96938a9693839e9660009d9e10612829575b5050811b019055612759565b8501518c1960f88460031b161c191690558d8061281d565b868301518455928b01929189019189016127fe565b8260005286600020601f830160051c810191888410612895575b601f0160051c019089905b828110612889575050612725565b6000815501899061287b565b9091508190612870565b81600052603f835260406000208054600160401b8110156124aa576128c89187820181556130aa565b819291549060031b9133831b921b1916179055806000526038825260156040600020016128f581546132e6565b905582612903575b8561265e565b61290d833361349d565b506128fd565b9050601a5490612925826033546132f5565b6033556125f8565b60405162461bcd60e51b815260048101839052601060248201526f24b73b30b634b2103932b332b93932b960811b6044820152606490fd5b90506000526038825260ff60146040600020015416846125d6565b3381141591506125d0565b91506125e56000926132e6565b6064906040519062461bcd60e51b825260048201526012602482015271105b1c9958591e481c9959da5cdd195c995960721b6044820152fd5b34610369576020366003190112610369576001600160a01b036129f2613094565b166000526044602052602060ff604060002054166040519015158152f35b3461036957612a1e36613154565b612a26613469565b612a3560ff602c5416156132a5565b336000526020916038835260ff60146040600020015460081c1615612bf157612a61600982111561367c565b612a94600f62015180420433600052603886526040600020906011820181815410612be3575b50500154601d54116136b7565b3360005260388352612ab08260046040600020015410156136f1565b33600052603883526004604060002001612acb838254613302565b90553360005260388352600f604060002001612ae781546132e6565b9055612b6b604051612af8816131c3565b33815260038582018581526040830185815260608401916000835233600052603b89526040600020603154600052895260406000209460018060a01b039051166001600160601b0360a01b86541617855551600185015551600284015551151591019060ff801983541691151516179055565b33600052603d8352612b84604060002060315490613734565b603154600052603983526003604060002001612ba18382546132f5565b905560315492604051928352820152600060408201527f2a321dbd54cece7c335a7658d548693dbedd0e71b4b9a93e813a19af9a1ff91060603392a360018055005b600084840155558680612a87565b60405162461bcd60e51b81526004810184905260136024820152722737ba10383930b1ba34b1b290383630bcb2b960691b6044820152606490fd5b34610369576000366003190112610369576020602354604051908152f35b34610369576000366003190112610369576020603254604051908152f35b34610369576000366003190112610369576020601a54604051908152f35b34610369576000366003190112610369576020601d54604051908152f35b34610369576000366003190112610369576020603354604051908152f35b34610369576020806003193601126103695760043590612ce0613469565b612cef60ff602c5416156132a5565b3360005260388152612d0b8260036040600020015410156136f1565b33600052603881526003604060002001612d26838254613302565b905533600052603881526007604060002001612d438382546132f5565b9055612d5182602f546132f5565b602f5560025460405163a9059cbb60e01b81523360048201526024810184905291908190839060449082906000906001600160a01b03165af1918215610c5a577f7084f5476618d8e60b11ef0d7d3f06914655adb8793e28ff7f018d4c76d505d592612dc491600091612dd3575061342b565b6040519283523392a260018055005b612dea9150833d8511610c5357610c458183613218565b856109ce565b34610369576020366003190112610369576004356000526042602052602060018060a01b0360406000205416604051908152f35b3461036957612e3236613109565b913360005260206043815260ff604060002054168015612fc1575b612e56906137e0565b6000805b838110612fa95750603554818110612f6b5790612e7691613302565b60355560005b828110612e8557005b81612e91828787613818565b6001600160a01b03903581612ea785888c613818565b612eb090613828565b16600052603890818452604060002060030190815490612ecf916132f5565b9055612edc848989613818565b359082612eea86898d613818565b612ef390613828565b1660005283526040600020600c0190815490612f0e916132f5565b9055612f1b83868a613818565b612f2490613828565b90612f30848989613818565b359160405192835216917f4efae200cdfee8e588fa58172e7ba0b6d998265faa3b807b65f050e3aad402d791a2612f66906132e6565b612e7c565b60405162461bcd60e51b8152600481018490526016602482015275125b9cdd59999a58da595b9d0810db1d5888141bdbdb60521b6044820152606490fd5b906106c3612fbc916106bc848989613818565b612e5a565b506000546001600160a01b03163314612e4d565b34610369576000366003190112610369576020603154604051908152f35b34610369576000366003190112610369576020602554604051908152f35b346103695760403660031901126103695761302a613094565b6001600160a01b03166000908152603e602052604090208054602435919082101561036957602091611c02916130aa565b34610369576000366003190112610369576020602154604051908152f35b34610369576000366003190112610369576020906036548152f35b600435906001600160a01b038216820361036957565b80548210156130c25760005260206000200190600090565b634e487b7160e01b600052603260045260246000fd5b9181601f840112156103695782359167ffffffffffffffff8311610369576020808501948460051b01011161036957565b60406003198201126103695767ffffffffffffffff916004358381116103695782613136916004016130d8565b9390939260243591821161036957613150916004016130d8565b9091565b6040906003190112610369576004359060243590565b6040906003190112610369576004359060243580151581036103695790565b90600182811c921680156131b9575b60208310146131a357565b634e487b7160e01b600052602260045260246000fd5b91607f1691613198565b6080810190811067ffffffffffffffff8211176124aa57604052565b6101e0810190811067ffffffffffffffff8211176124aa57604052565b60e0810190811067ffffffffffffffff8211176124aa57604052565b90601f8019910116810190811067ffffffffffffffff8211176124aa57604052565b60005b83811061324d5750506000910152565b818101518382015260200161323d565b67ffffffffffffffff81116124aa57601f01601f191660200190565b6000546001600160a01b0316330361328d57565b60405163118cdaa760e01b8152336004820152602490fd5b156132ac57565b60405162461bcd60e51b815260206004820152601260248201527110dbdb9d1c9858dd081a5cc81c185d5cd95960721b6044820152606490fd5b6000198114610bb05760010190565b91908201809211610bb057565b91908203918211610bb057565b81810292918115918404141715610bb057565b80156133e45780816000925b6133d0575061333c8261325d565b9161334a6040519384613218565b80835281601f1961335a8361325d565b01916020923684870137925b6133705750505090565b6000198301928311610bb05782600a80830492818402918483041484151715610bb0576133a060ff928392613302565b16603001908111610bb05785518210156130c25760f81b6001600160f81b03191660001a90850183015380613366565b916133dc600a916132e6565b92048061332e565b506040516040810181811067ffffffffffffffff8211176124aa5760405260018152600360fc1b602082015290565b90816020910312610369575180151581036103695790565b1561343257565b60405162461bcd60e51b815260206004820152600f60248201526e151c985b9cd9995c8819985a5b1959608a1b6044820152606490fd5b60026001541461347a576002600155565b604051633ee5aeb560e01b8152600490fd5b90600f8110156130c25760051b0190565b919060018060a01b038093169260009084825260389060208281526001938493604092848685852001541699839885516134d6816131df565b6101f4815260c884820152606487820152606460608201526064608082015260328060a08301528060c08301528060e08301528061010083015280610120830152806101408301528061016083015280610180830152806101a08301526101c082015285995b613550575b50989a50505050505050505050565b600f8a1080613671575b1561366c57876127106135776135708d8561348c565b518561330f565b049d169a8b8752858552878720600e810154601c54111560001461364c57508d6135d2918d895287875260088a8a20016135b28382546132f5565b90558d895287875260038a8a20016135cb8382546132f5565b90556132f5565b9a898b01808c1161363857818b9c9d9e9f8a7f65db98422e8b7340e0d6dfa99bbadd4ba95a51fefafd8f0e1cbbb2e819429a429188949d9e9d82519182528a820152a35b865284845261362c89898989200154169b6132e6565b9998979c9b9a9c61353c565b634e487b7160e01b88526011600452602488fd5b9d6136658b9c9d929e9f6004909c9b9c019182546132f5565b9055613616565b613541565b50878d16151561355a565b1561368357565b60405162461bcd60e51b815260206004820152600c60248201526b125b9d985b1a59081c1c995960a21b6044820152606490fd5b156136be57565b60405162461bcd60e51b815260206004820152600b60248201526a11185a5b1e481b1a5b5a5d60aa1b6044820152606490fd5b156136f857565b60405162461bcd60e51b8152602060048201526014602482015273496e73756666696369656e742062616c616e636560601b6044820152606490fd5b8054600160401b8110156124aa57613751916001820181556130aa565b819291549060031b91821b91600019901b1916179055565b1561377057565b60405162461bcd60e51b815260206004820152600a6024820152692937bab7321037b832b760b11b6044820152606490fd5b156137a957565b60405162461bcd60e51b815260206004820152600f60248201526e125b9d985b1a590bd0db185a5b5959608a1b6044820152606490fd5b156137e757565b60405162461bcd60e51b81526020600482015260096024820152682737ba1030b236b4b760b91b6044820152606490fd5b91908110156130c25760051b0190565b356001600160a01b0381168103610369579056fea2646970667358221220cf59b8f8bca0023d16fa7bda6eae0fed45003b20469ed3b25814fc16ce5c841564736f6c63430008140033",
  "linkReferences": {},
  "deployedLinkReferences": {}
}