{
  "_format": "hh-sol-artifact-1",
  "contractName": "TRKRouter",
  "sourceName": "contracts/TRKRouter.sol",
  "abi": [
    {
      "inputs": [
        {
          "internalType": "address",
          "name": "_registry",
          "type": "address"
        },
        {
          "internalType": "address",
          "name": "_treasury",
          "type": "address"
        },
        {
          "internalType": "address",
          "name": "_game",
          "type": "address"
        },
        {
          "internalType": "address",
          "name": "_cashback",
          "type": "address"
        },
        {
          "internalType": "address",
          "name": "_lucky",
          "type": "address"
        }
      ],
      "stateMutability": "nonpayable",
      "type": "constructor"
    },
    {
      "inputs": [
        {
          "internalType": "address",
          "name": "owner",
          "type": "address"
        }
      ],
      "name": "OwnableInvalidOwner",
      "type": "error"
    },
    {
      "inputs": [
        {
          "internalType": "address",
          "name": "account",
          "type": "address"
        }
      ],
      "name": "OwnableUnauthorizedAccount",
      "type": "error"
    },
    {
      "anonymous": false,
      "inputs": [
        {
          "indexed": true,
          "internalType": "address",
          "name": "previousOwner",
          "type": "address"
        },
        {
          "indexed": true,
          "internalType": "address",
          "name": "newOwner",
          "type": "address"
        }
      ],
      "name": "OwnershipTransferred",
      "type": "event"
    },
    {
      "inputs": [
        {
          "internalType": "address",
          "name": "user",
          "type": "address"
        }
      ],
      "name": "addressToReferralCode",
      "outputs": [
        {
          "internalType": "string",
          "name": "",
          "type": "string"
        }
      ],
      "stateMutability": "view",
      "type": "function"
    },
    {
      "inputs": [
        {
          "internalType": "uint8",
          "name": "drawType",
          "type": "uint8"
        }
      ],
      "name": "adminTriggerLuckyDraw",
      "outputs": [],
      "stateMutability": "nonpayable",
      "type": "function"
    },
    {
      "inputs": [
        {
          "internalType": "uint256",
          "name": "count",
          "type": "uint256"
        },
        {
          "internalType": "uint8",
          "name": "drawType",
          "type": "uint8"
        }
      ],
      "name": "buyLuckyTickets",
      "outputs": [],
      "stateMutability": "nonpayable",
      "type": "function"
    },
    {
      "inputs": [
        {
          "internalType": "uint256",
          "name": "count",
          "type": "uint256"
        },
        {
          "internalType": "uint8",
          "name": "drawType",
          "type": "uint8"
        }
      ],
      "name": "buyLuckyTicketsVirtual",
      "outputs": [],
      "stateMutability": "nonpayable",
      "type": "function"
    },
    {
      "inputs": [
        {
          "internalType": "uint256",
          "name": "roundId",
          "type": "uint256"
        },
        {
          "internalType": "uint256",
          "name": "number",
          "type": "uint256"
        }
      ],
      "name": "cashBetTotalsByNumber",
      "outputs": [
        {
          "internalType": "uint256",
          "name": "",
          "type": "uint256"
        }
      ],
      "stateMutability": "view",
      "type": "function"
    },
    {
      "inputs": [
        {
          "internalType": "uint256",
          "name": "roundId",
          "type": "uint256"
        },
        {
          "internalType": "uint256",
          "name": "number",
          "type": "uint256"
        }
      ],
      "name": "cashBettersByNumber",
      "outputs": [
        {
          "internalType": "address[]",
          "name": "",
          "type": "address[]"
        }
      ],
      "stateMutability": "view",
      "type": "function"
    },
    {
      "inputs": [],
      "name": "cashGamesPerDay",
      "outputs": [
        {
          "internalType": "uint256",
          "name": "",
          "type": "uint256"
        }
      ],
      "stateMutability": "view",
      "type": "function"
    },
    {
      "inputs": [
        {
          "internalType": "uint256",
          "name": "roundId",
          "type": "uint256"
        }
      ],
      "name": "cashRoundWinners",
      "outputs": [
        {
          "internalType": "address[]",
          "name": "",
          "type": "address[]"
        }
      ],
      "stateMutability": "view",
      "type": "function"
    },
    {
      "inputs": [],
      "name": "cashback",
      "outputs": [
        {
          "internalType": "contract ITRKCashbackEngine",
          "name": "",
          "type": "address"
        }
      ],
      "stateMutability": "view",
      "type": "function"
    },
    {
      "inputs": [],
      "name": "claimClubPool",
      "outputs": [],
      "stateMutability": "nonpayable",
      "type": "function"
    },
    {
      "inputs": [],
      "name": "claimDailyCashback",
      "outputs": [],
      "stateMutability": "nonpayable",
      "type": "function"
    },
    {
      "inputs": [
        {
          "internalType": "uint256",
          "name": "roundId",
          "type": "uint256"
        },
        {
          "internalType": "bool",
          "name": "isCashGame",
          "type": "bool"
        }
      ],
      "name": "claimImmediateLoss",
      "outputs": [],
      "stateMutability": "nonpayable",
      "type": "function"
    },
    {
      "inputs": [
        {
          "internalType": "uint256",
          "name": "roundId",
          "type": "uint256"
        },
        {
          "internalType": "bool",
          "name": "isCashGame",
          "type": "bool"
        }
      ],
      "name": "claimWinnings",
      "outputs": [],
      "stateMutability": "nonpayable",
      "type": "function"
    },
    {
      "inputs": [
        {
          "internalType": "uint256",
          "name": "winningNumber",
          "type": "uint256"
        },
        {
          "internalType": "bool",
          "name": "isCashGame",
          "type": "bool"
        }
      ],
      "name": "closeRound",
      "outputs": [],
      "stateMutability": "nonpayable",
      "type": "function"
    },
    {
      "inputs": [],
      "name": "currentCashRoundId",
      "outputs": [
        {
          "internalType": "uint256",
          "name": "",
          "type": "uint256"
        }
      ],
      "stateMutability": "view",
      "type": "function"
    },
    {
      "inputs": [],
      "name": "currentPracticeRoundId",
      "outputs": [
        {
          "internalType": "uint256",
          "name": "",
          "type": "uint256"
        }
      ],
      "stateMutability": "view",
      "type": "function"
    },
    {
      "inputs": [
        {
          "internalType": "uint256",
          "name": "amount",
          "type": "uint256"
        }
      ],
      "name": "depositCashGame",
      "outputs": [],
      "stateMutability": "nonpayable",
      "type": "function"
    },
    {
      "inputs": [
        {
          "internalType": "address",
          "name": "user",
          "type": "address"
        },
        {
          "internalType": "uint256",
          "name": "index",
          "type": "uint256"
        }
      ],
      "name": "directReferralsList",
      "outputs": [
        {
          "internalType": "address",
          "name": "",
          "type": "address"
        }
      ],
      "stateMutability": "view",
      "type": "function"
    },
    {
      "inputs": [
        {
          "internalType": "address[]",
          "name": "winners",
          "type": "address[]"
        },
        {
          "internalType": "uint256[]",
          "name": "amounts",
          "type": "uint256[]"
        }
      ],
      "name": "distributeClubIncome",
      "outputs": [],
      "stateMutability": "nonpayable",
      "type": "function"
    },
    {
      "inputs": [
        {
          "internalType": "uint256",
          "name": "",
          "type": "uint256"
        }
      ],
      "name": "distributionHistory",
      "outputs": [
        {
          "internalType": "uint256",
          "name": "roundId",
          "type": "uint256"
        },
        {
          "internalType": "address",
          "name": "winner",
          "type": "address"
        },
        {
          "internalType": "uint256",
          "name": "payout",
          "type": "uint256"
        },
        {
          "internalType": "bool",
          "name": "isCashGame",
          "type": "bool"
        },
        {
          "internalType": "uint256",
          "name": "timestamp",
          "type": "uint256"
        }
      ],
      "stateMutability": "view",
      "type": "function"
    },
    {
      "inputs": [],
      "name": "game",
      "outputs": [
        {
          "internalType": "contract ITRKGameEngine",
          "name": "",
          "type": "address"
        }
      ],
      "stateMutability": "view",
      "type": "function"
    },
    {
      "inputs": [],
      "name": "getAllSettings",
      "outputs": [
        {
          "internalType": "uint256[15]",
          "name": "settings",
          "type": "uint256[15]"
        }
      ],
      "stateMutability": "view",
      "type": "function"
    },
    {
      "inputs": [
        {
          "internalType": "uint256",
          "name": "offset",
          "type": "uint256"
        },
        {
          "internalType": "uint256",
          "name": "limit",
          "type": "uint256"
        }
      ],
      "name": "getDistributionHistory",
      "outputs": [
        {
          "components": [
            {
              "internalType": "uint256",
              "name": "roundId",
              "type": "uint256"
            },
            {
              "internalType": "address",
              "name": "winner",
              "type": "address"
            },
            {
              "internalType": "uint256",
              "name": "payout",
              "type": "uint256"
            },
            {
              "internalType": "bool",
              "name": "isCashGame",
              "type": "bool"
            },
            {
              "internalType": "uint256",
              "name": "timestamp",
              "type": "uint256"
            }
          ],
          "internalType": "struct TRKRouter.Distribution[]",
          "name": "",
          "type": "tuple[]"
        }
      ],
      "stateMutability": "view",
      "type": "function"
    },
    {
      "inputs": [],
      "name": "getDistributionHistoryCount",
      "outputs": [
        {
          "internalType": "uint256",
          "name": "",
          "type": "uint256"
        }
      ],
      "stateMutability": "view",
      "type": "function"
    },
    {
      "inputs": [
        {
          "internalType": "uint8",
          "name": "drawType",
          "type": "uint8"
        }
      ],
      "name": "getLuckyDrawManualWinners",
      "outputs": [
        {
          "internalType": "address[]",
          "name": "",
          "type": "address[]"
        }
      ],
      "stateMutability": "view",
      "type": "function"
    },
    {
      "inputs": [
        {
          "internalType": "uint8",
          "name": "drawType",
          "type": "uint8"
        }
      ],
      "name": "getLuckyDrawStats",
      "outputs": [
        {
          "internalType": "uint256",
          "name": "drawId",
          "type": "uint256"
        },
        {
          "internalType": "uint256",
          "name": "ticketsSold",
          "type": "uint256"
        },
        {
          "internalType": "uint256",
          "name": "maxTickets",
          "type": "uint256"
        },
        {
          "internalType": "uint256",
          "name": "prizePoolBalance",
          "type": "uint256"
        }
      ],
      "stateMutability": "view",
      "type": "function"
    },
    {
      "inputs": [],
      "name": "getPlatformStats",
      "outputs": [
        {
          "internalType": "uint256",
          "name": "users",
          "type": "uint256"
        },
        {
          "internalType": "uint256",
          "name": "volume",
          "type": "uint256"
        },
        {
          "internalType": "uint256",
          "name": "withdrawn",
          "type": "uint256"
        }
      ],
      "stateMutability": "view",
      "type": "function"
    },
    {
      "inputs": [],
      "name": "getPools",
      "outputs": [
        {
          "internalType": "uint256",
          "name": "gamePool",
          "type": "uint256"
        },
        {
          "internalType": "uint256",
          "name": "clubPool",
          "type": "uint256"
        },
        {
          "internalType": "uint256",
          "name": "golden",
          "type": "uint256"
        },
        {
          "internalType": "uint256",
          "name": "silver",
          "type": "uint256"
        },
        {
          "internalType": "uint256",
          "name": "protection",
          "type": "uint256"
        },
        {
          "internalType": "uint256",
          "name": "creator",
          "type": "uint256"
        },
        {
          "internalType": "uint256",
          "name": "bd",
          "type": "uint256"
        },
        {
          "internalType": "uint256",
          "name": "few",
          "type": "uint256"
        },
        {
          "internalType": "uint256",
          "name": "referral",
          "type": "uint256"
        }
      ],
      "stateMutability": "view",
      "type": "function"
    },
    {
      "inputs": [],
      "name": "getSystemSettings",
      "outputs": [
        {
          "internalType": "uint256[11]",
          "name": "treasuryParams",
          "type": "uint256[11]"
        },
        {
          "internalType": "uint256[15]",
          "name": "refPercents",
          "type": "uint256[15]"
        },
        {
          "internalType": "uint256[6]",
          "name": "cashbackParams",
          "type": "uint256[6]"
        },
        {
          "internalType": "uint256[15]",
          "name": "roiPercents",
          "type": "uint256[15]"
        },
        {
          "internalType": "uint256[4]",
          "name": "gameParams",
          "type": "uint256[4]"
        },
        {
          "internalType": "uint256[15]",
          "name": "winRefPercents",
          "type": "uint256[15]"
        },
        {
          "internalType": "uint256[3]",
          "name": "luckyParams",
          "type": "uint256[3]"
        },
        {
          "components": [
            {
              "internalType": "uint256",
              "name": "directs",
              "type": "uint256"
            },
            {
              "internalType": "uint256",
              "name": "multiplier",
              "type": "uint256"
            }
          ],
          "internalType": "struct ITRKCashbackEngine.Cap[4]",
          "name": "capsBefore",
          "type": "tuple[4]"
        },
        {
          "components": [
            {
              "internalType": "uint256",
              "name": "directs",
              "type": "uint256"
            },
            {
              "internalType": "uint256",
              "name": "multiplier",
              "type": "uint256"
            }
          ],
          "internalType": "struct ITRKCashbackEngine.Cap[4]",
          "name": "capsAfter",
          "type": "tuple[4]"
        },
        {
          "internalType": "uint256",
          "name": "phaseThreshold",
          "type": "uint256"
        }
      ],
      "stateMutability": "view",
      "type": "function"
    },
    {
      "inputs": [
        {
          "internalType": "address",
          "name": "user",
          "type": "address"
        }
      ],
      "name": "getUserInfo",
      "outputs": [
        {
          "components": [
            {
              "internalType": "uint256",
              "name": "userId",
              "type": "uint256"
            },
            {
              "internalType": "address",
              "name": "referrer",
              "type": "address"
            },
            {
              "internalType": "uint256",
              "name": "registrationTime",
              "type": "uint256"
            },
            {
              "internalType": "uint256",
              "name": "walletBalance",
              "type": "uint256"
            },
            {
              "internalType": "uint256",
              "name": "practiceBalance",
              "type": "uint256"
            },
            {
              "internalType": "uint256",
              "name": "cashGameBalance",
              "type": "uint256"
            },
            {
              "internalType": "uint256",
              "name": "totalDeposit",
              "type": "uint256"
            },
            {
              "internalType": "uint256",
              "name": "totalWithdrawn",
              "type": "uint256"
            },
            {
              "internalType": "uint256",
              "name": "cumulativeDeposit",
              "type": "uint256"
            },
            {
              "internalType": "uint256",
              "name": "directReferralIncome",
              "type": "uint256"
            },
            {
              "internalType": "uint256",
              "name": "winnerReferralIncome",
              "type": "uint256"
            },
            {
              "internalType": "uint256",
              "name": "practiceReferralIncome",
              "type": "uint256"
            },
            {
              "internalType": "uint256",
              "name": "cashbackIncome",
              "type": "uint256"
            },
            {
              "internalType": "uint256",
              "name": "lossReferralIncome",
              "type": "uint256"
            },
            {
              "internalType": "uint256",
              "name": "clubIncome",
              "type": "uint256"
            },
            {
              "internalType": "uint256",
              "name": "luckyDrawIncome",
              "type": "uint256"
            },
            {
              "internalType": "uint256",
              "name": "luckyDrawWallet",
              "type": "uint256"
            },
            {
              "internalType": "uint256[15]",
              "name": "directReferralIncomeByLevel",
              "type": "uint256[15]"
            },
            {
              "internalType": "uint256[15]",
              "name": "winnerReferralIncomeByLevel",
              "type": "uint256[15]"
            },
            {
              "internalType": "uint256[15]",
              "name": "practiceReferralIncomeByLevel",
              "type": "uint256[15]"
            },
            {
              "internalType": "uint256[10]",
              "name": "digitBalances",
              "type": "uint256[10]"
            },
            {
              "internalType": "uint256",
              "name": "teamVolume",
              "type": "uint256"
            },
            {
              "internalType": "uint256",
              "name": "totalBets",
              "type": "uint256"
            },
            {
              "internalType": "uint256",
              "name": "totalWins",
              "type": "uint256"
            },
            {
              "internalType": "uint256",
              "name": "totalLosses",
              "type": "uint256"
            },
            {
              "internalType": "uint256",
              "name": "practiceGamesPlayedToday",
              "type": "uint256"
            },
            {
              "internalType": "uint256",
              "name": "cashGamesPlayedToday",
              "type": "uint256"
            },
            {
              "internalType": "uint256",
              "name": "lastGameDate",
              "type": "uint256"
            },
            {
              "internalType": "bool",
              "name": "isRegistered",
              "type": "bool"
            },
            {
              "internalType": "bool",
              "name": "isPracticePlayer",
              "type": "bool"
            },
            {
              "internalType": "bool",
              "name": "isCashPlayer",
              "type": "bool"
            },
            {
              "internalType": "uint256",
              "name": "directReferrals",
              "type": "uint256"
            },
            {
              "internalType": "uint256",
              "name": "activeDirects",
              "type": "uint256"
            },
            {
              "internalType": "uint8",
              "name": "preferredLuckyDraw",
              "type": "uint8"
            }
          ],
          "internalType": "struct ITRKRegistry.User",
          "name": "",
          "type": "tuple"
        }
      ],
      "stateMutability": "view",
      "type": "function"
    },
    {
      "inputs": [],
      "name": "getUserStats",
      "outputs": [
        {
          "internalType": "uint256",
          "name": "users",
          "type": "uint256"
        },
        {
          "internalType": "uint256",
          "name": "volume",
          "type": "uint256"
        },
        {
          "internalType": "uint256",
          "name": "withdrawn",
          "type": "uint256"
        }
      ],
      "stateMutability": "view",
      "type": "function"
    },
    {
      "inputs": [],
      "name": "getWallets",
      "outputs": [
        {
          "internalType": "address",
          "name": "creator",
          "type": "address"
        },
        {
          "internalType": "address",
          "name": "few",
          "type": "address"
        },
        {
          "internalType": "address[24]",
          "name": "bd",
          "type": "address[24]"
        }
      ],
      "stateMutability": "view",
      "type": "function"
    },
    {
      "inputs": [
        {
          "internalType": "uint256",
          "name": "userId",
          "type": "uint256"
        }
      ],
      "name": "idToAddress",
      "outputs": [
        {
          "internalType": "address",
          "name": "",
          "type": "address"
        }
      ],
      "stateMutability": "view",
      "type": "function"
    },
    {
      "inputs": [],
      "name": "lucky",
      "outputs": [
        {
          "internalType": "contract ITRKLuckyDraw",
          "name": "",
          "type": "address"
        }
      ],
      "stateMutability": "view",
      "type": "function"
    },
    {
      "inputs": [],
      "name": "minActivation",
      "outputs": [
        {
          "internalType": "uint256",
          "name": "",
          "type": "uint256"
        }
      ],
      "stateMutability": "view",
      "type": "function"
    },
    {
      "inputs": [],
      "name": "minReferral",
      "outputs": [
        {
          "internalType": "uint256",
          "name": "",
          "type": "uint256"
        }
      ],
      "stateMutability": "view",
      "type": "function"
    },
    {
      "inputs": [],
      "name": "owner",
      "outputs": [
        {
          "internalType": "address",
          "name": "",
          "type": "address"
        }
      ],
      "stateMutability": "view",
      "type": "function"
    },
    {
      "inputs": [
        {
          "internalType": "address",
          "name": "user",
          "type": "address"
        }
      ],
      "name": "ownerActivateUser",
      "outputs": [],
      "stateMutability": "nonpayable",
      "type": "function"
    },
    {
      "inputs": [
        {
          "internalType": "uint256",
          "name": "prediction",
          "type": "uint256"
        },
        {
          "internalType": "uint256",
          "name": "amount",
          "type": "uint256"
        }
      ],
      "name": "placeBetCash",
      "outputs": [],
      "stateMutability": "nonpayable",
      "type": "function"
    },
    {
      "inputs": [
        {
          "internalType": "uint256",
          "name": "prediction",
          "type": "uint256"
        },
        {
          "internalType": "uint256",
          "name": "amount",
          "type": "uint256"
        }
      ],
      "name": "placeBetPractice",
      "outputs": [],
      "stateMutability": "nonpayable",
      "type": "function"
    },
    {
      "inputs": [
        {
          "internalType": "uint256",
          "name": "roundId",
          "type": "uint256"
        },
        {
          "internalType": "uint256",
          "name": "number",
          "type": "uint256"
        }
      ],
      "name": "practiceBetTotalsByNumber",
      "outputs": [
        {
          "internalType": "uint256",
          "name": "",
          "type": "uint256"
        }
      ],
      "stateMutability": "view",
      "type": "function"
    },
    {
      "inputs": [
        {
          "internalType": "uint256",
          "name": "roundId",
          "type": "uint256"
        },
        {
          "internalType": "uint256",
          "name": "number",
          "type": "uint256"
        }
      ],
      "name": "practiceBettersByNumber",
      "outputs": [
        {
          "internalType": "address[]",
          "name": "",
          "type": "address[]"
        }
      ],
      "stateMutability": "view",
      "type": "function"
    },
    {
      "inputs": [],
      "name": "practiceGamesPerDay",
      "outputs": [
        {
          "internalType": "uint256",
          "name": "",
          "type": "uint256"
        }
      ],
      "stateMutability": "view",
      "type": "function"
    },
    {
      "inputs": [
        {
          "internalType": "uint256",
          "name": "roundId",
          "type": "uint256"
        }
      ],
      "name": "practiceRoundWinners",
      "outputs": [
        {
          "internalType": "address[]",
          "name": "",
          "type": "address[]"
        }
      ],
      "stateMutability": "view",
      "type": "function"
    },
    {
      "inputs": [
        {
          "internalType": "string",
          "name": "code",
          "type": "string"
        }
      ],
      "name": "referralCodeToAddress",
      "outputs": [
        {
          "internalType": "address",
          "name": "",
          "type": "address"
        }
      ],
      "stateMutability": "view",
      "type": "function"
    },
    {
      "inputs": [
        {
          "internalType": "address",
          "name": "referrer",
          "type": "address"
        }
      ],
      "name": "register",
      "outputs": [],
      "stateMutability": "nonpayable",
      "type": "function"
    },
    {
      "inputs": [],
      "name": "registry",
      "outputs": [
        {
          "internalType": "contract ITRKRegistry",
          "name": "",
          "type": "address"
        }
      ],
      "stateMutability": "view",
      "type": "function"
    },
    {
      "inputs": [],
      "name": "renounceOwnership",
      "outputs": [],
      "stateMutability": "nonpayable",
      "type": "function"
    },
    {
      "inputs": [
        {
          "components": [
            {
              "internalType": "uint256",
              "name": "directs",
              "type": "uint256"
            },
            {
              "internalType": "uint256",
              "name": "multiplier",
              "type": "uint256"
            }
          ],
          "internalType": "struct ITRKCashbackEngine.Cap[4]",
          "name": "_caps",
          "type": "tuple[4]"
        }
      ],
      "name": "setCapMultipliersAfter10k",
      "outputs": [],
      "stateMutability": "nonpayable",
      "type": "function"
    },
    {
      "inputs": [
        {
          "components": [
            {
              "internalType": "uint256",
              "name": "directs",
              "type": "uint256"
            },
            {
              "internalType": "uint256",
              "name": "multiplier",
              "type": "uint256"
            }
          ],
          "internalType": "struct ITRKCashbackEngine.Cap[4]",
          "name": "_caps",
          "type": "tuple[4]"
        }
      ],
      "name": "setCapMultipliersBefore10k",
      "outputs": [],
      "stateMutability": "nonpayable",
      "type": "function"
    },
    {
      "inputs": [
        {
          "components": [
            {
              "internalType": "uint256",
              "name": "userLimit",
              "type": "uint256"
            },
            {
              "internalType": "uint256",
              "name": "rate",
              "type": "uint256"
            }
          ],
          "internalType": "struct ITRKCashbackEngine.Phase[3]",
          "name": "_phases",
          "type": "tuple[3]"
        }
      ],
      "name": "setCashbackPhases",
      "outputs": [],
      "stateMutability": "nonpayable",
      "type": "function"
    },
    {
      "inputs": [
        {
          "internalType": "uint256",
          "name": "_lc",
          "type": "uint256"
        },
        {
          "internalType": "uint256",
          "name": "_lr",
          "type": "uint256"
        },
        {
          "internalType": "uint256",
          "name": "_t",
          "type": "uint256"
        },
        {
          "internalType": "uint256",
          "name": "_ls",
          "type": "uint256"
        },
        {
          "internalType": "uint256",
          "name": "_rr",
          "type": "uint256"
        },
        {
          "internalType": "uint256",
          "name": "_md",
          "type": "uint256"
        }
      ],
      "name": "setCashbackSettings",
      "outputs": [],
      "stateMutability": "nonpayable",
      "type": "function"
    },
    {
      "inputs": [
        {
          "internalType": "uint256",
          "name": "_c",
          "type": "uint256"
        },
        {
          "internalType": "uint256",
          "name": "_b",
          "type": "uint256"
        },
        {
          "internalType": "uint256",
          "name": "_f",
          "type": "uint256"
        },
        {
          "internalType": "uint256",
          "name": "_r",
          "type": "uint256"
        },
        {
          "internalType": "uint256",
          "name": "_cl",
          "type": "uint256"
        },
        {
          "internalType": "uint256",
          "name": "_l",
          "type": "uint256"
        },
        {
          "internalType": "uint256",
          "name": "_p",
          "type": "uint256"
        }
      ],
      "name": "setDistributions",
      "outputs": [],
      "stateMutability": "nonpayable",
      "type": "function"
    },
    {
      "inputs": [
        {
          "internalType": "uint256",
          "name": "_wc",
          "type": "uint256"
        },
        {
          "internalType": "uint256",
          "name": "_wr",
          "type": "uint256"
        },
        {
          "internalType": "uint256",
          "name": "_pl",
          "type": "uint256"
        },
        {
          "internalType": "uint256",
          "name": "_cl",
          "type": "uint256"
        }
      ],
      "name": "setGameSettings",
      "outputs": [],
      "stateMutability": "nonpayable",
      "type": "function"
    },
    {
      "inputs": [
        {
          "internalType": "uint8",
          "name": "drawType",
          "type": "uint8"
        },
        {
          "internalType": "address[]",
          "name": "winners",
          "type": "address[]"
        }
      ],
      "name": "setLuckyDrawManualWinners",
      "outputs": [],
      "stateMutability": "nonpayable",
      "type": "function"
    },
    {
      "inputs": [
        {
          "internalType": "uint8",
          "name": "drawType",
          "type": "uint8"
        }
      ],
      "name": "setLuckyDrawPreference",
      "outputs": [],
      "stateMutability": "nonpayable",
      "type": "function"
    },
    {
      "inputs": [
        {
          "internalType": "uint256",
          "name": "_mt",
          "type": "uint256"
        },
        {
          "internalType": "uint256",
          "name": "_gp",
          "type": "uint256"
        },
        {
          "internalType": "uint256",
          "name": "_sp",
          "type": "uint256"
        }
      ],
      "name": "setLuckyDrawSettings",
      "outputs": [],
      "stateMutability": "nonpayable",
      "type": "function"
    },
    {
      "inputs": [
        {
          "internalType": "uint256[8]",
          "name": "_g",
          "type": "uint256[8]"
        },
        {
          "internalType": "uint256[8]",
          "name": "_s",
          "type": "uint256[8]"
        },
        {
          "internalType": "uint256[8]",
          "name": "_c",
          "type": "uint256[8]"
        }
      ],
      "name": "setLuckyPrizes",
      "outputs": [],
      "stateMutability": "nonpayable",
      "type": "function"
    },
    {
      "inputs": [
        {
          "internalType": "uint256",
          "name": "_threshold",
          "type": "uint256"
        }
      ],
      "name": "setPhaseThreshold",
      "outputs": [],
      "stateMutability": "nonpayable",
      "type": "function"
    },
    {
      "inputs": [
        {
          "internalType": "uint256[15]",
          "name": "_p",
          "type": "uint256[15]"
        }
      ],
      "name": "setReferralPercents",
      "outputs": [],
      "stateMutability": "nonpayable",
      "type": "function"
    },
    {
      "inputs": [
        {
          "internalType": "uint256[15]",
          "name": "_p",
          "type": "uint256[15]"
        }
      ],
      "name": "setRoiPercents",
      "outputs": [],
      "stateMutability": "nonpayable",
      "type": "function"
    },
    {
      "inputs": [
        {
          "internalType": "uint256",
          "name": "_minA",
          "type": "uint256"
        },
        {
          "internalType": "uint256",
          "name": "_minW",
          "type": "uint256"
        },
        {
          "internalType": "uint256",
          "name": "_maxW",
          "type": "uint256"
        },
        {
          "internalType": "uint256",
          "name": "_fee",
          "type": "uint256"
        }
      ],
      "name": "setTreasurySettings",
      "outputs": [],
      "stateMutability": "nonpayable",
      "type": "function"
    },
    {
      "inputs": [
        {
          "internalType": "uint256[15]",
          "name": "_p",
          "type": "uint256[15]"
        }
      ],
      "name": "setWinnerReferralPercents",
      "outputs": [],
      "stateMutability": "nonpayable",
      "type": "function"
    },
    {
      "inputs": [],
      "name": "signupBonusTier1",
      "outputs": [
        {
          "internalType": "uint256",
          "name": "",
          "type": "uint256"
        }
      ],
      "stateMutability": "view",
      "type": "function"
    },
    {
      "inputs": [],
      "name": "signupBonusTier2",
      "outputs": [
        {
          "internalType": "uint256",
          "name": "",
          "type": "uint256"
        }
      ],
      "stateMutability": "view",
      "type": "function"
    },
    {
      "inputs": [],
      "name": "tier1Limit",
      "outputs": [
        {
          "internalType": "uint256",
          "name": "",
          "type": "uint256"
        }
      ],
      "stateMutability": "view",
      "type": "function"
    },
    {
      "inputs": [],
      "name": "tier2Limit",
      "outputs": [
        {
          "internalType": "uint256",
          "name": "",
          "type": "uint256"
        }
      ],
      "stateMutability": "view",
      "type": "function"
    },
    {
      "inputs": [
        {
          "internalType": "address",
          "name": "newOwner",
          "type": "address"
        }
      ],
      "name": "transferOwnership",
      "outputs": [],
      "stateMutability": "nonpayable",
      "type": "function"
    },
    {
      "inputs": [],
      "name": "treasury",
      "outputs": [
        {
          "internalType": "contract ITRKTreasury",
          "name": "",
          "type": "address"
        }
      ],
      "stateMutability": "view",
      "type": "function"
    },
    {
      "inputs": [
        {
          "internalType": "address",
          "name": "user",
          "type": "address"
        }
      ],
      "name": "unpruneUser",
      "outputs": [],
      "stateMutability": "nonpayable",
      "type": "function"
    },
    {
      "inputs": [
        {
          "internalType": "uint256",
          "name": "_minA",
          "type": "uint256"
        },
        {
          "internalType": "uint256",
          "name": "_b1",
          "type": "uint256"
        },
        {
          "internalType": "uint256",
          "name": "_l1",
          "type": "uint256"
        },
        {
          "internalType": "uint256",
          "name": "_b2",
          "type": "uint256"
        },
        {
          "internalType": "uint256",
          "name": "_l2",
          "type": "uint256"
        },
        {
          "internalType": "uint256",
          "name": "_minRef",
          "type": "uint256"
        },
        {
          "internalType": "uint256",
          "name": "_pGames",
          "type": "uint256"
        },
        {
          "internalType": "uint256",
          "name": "_cGames",
          "type": "uint256"
        },
        {
          "internalType": "uint256",
          "name": "_fullBridge",
          "type": "uint256"
        }
      ],
      "name": "updateSettings",
      "outputs": [],
      "stateMutability": "nonpayable",
      "type": "function"
    },
    {
      "inputs": [
        {
          "internalType": "address",
          "name": "_creator",
          "type": "address"
        },
        {
          "internalType": "address",
          "name": "_few",
          "type": "address"
        },
        {
          "internalType": "address[]",
          "name": "_bd",
          "type": "address[]"
        }
      ],
      "name": "updateWallets",
      "outputs": [],
      "stateMutability": "nonpayable",
      "type": "function"
    },
    {
      "inputs": [
        {
          "internalType": "uint256",
          "name": "amount",
          "type": "uint256"
        }
      ],
      "name": "withdraw",
      "outputs": [],
      "stateMutability": "nonpayable",
      "type": "function"
    }
  ],
  "bytecode": "0x6080346200017857601f6200474f38819003918201601f19168301916001600160401b038311848410176200017d5780849260a09460405283398101031262000178576200004d8162000193565b906200005c6020820162000193565b6200006a6040830162000193565b926200008760806200007f6060860162000193565b940162000193565b9033156200015f576000549360018060a01b03199433868216176000556040519660018060a01b0380968180968195823391167f8be0079c531659141344cd1fd0a4f28419497f9722a3daafe3b4186f6b6457e0600080a3670de0b6b3a764000060075568056bc75e2d63100000600855612710600955678ac7230489e80000600a55620186a0600b556000600c556018600d556018600e5516896001541617600155168760025416176002551685600354161760035516836004541617600455169060055416176005556145a69081620001a98239f35b604051631e4fbdf760e01b815260006004820152602490fd5b600080fd5b634e487b7160e01b600052604160045260246000fd5b51906001600160a01b0382168203620001785756fe6080604052600436101561001257600080fd5b6000803560e01c8063129a737314613cb2578063136d88831461334457806314c8496714613c2e578063160b4afd14613c105780631e03e65214613bc157806321b594d614613a2757806321e8367614613a09578063242fc36e146139e0578063262951e8146139c25780632a2d0c47146139685780632c4fd2a1146138dd5780632e1a7d4d146138885780632f54696e1461386a5780633045e0ad1461381b57806335abb5f3146137b65780633c91646f1461376057806342ccae161461358b5780634420e486146134745780634f47daa7146133e857806352aa6d841461337d57806353f6ad37146133445780635d11d9771461332657806361d027b3146132fd5780636386c1c714612d4e5780636558f87514612cef578063673a2a1f1461299457806367a1d3a21461293657806368022f2f146128de5780636ba3a538146128825780636cc709c91461282c578063715018a6146127d257806371d522031461277a57806374a82a70146124f857806376f0601b1461246f578063771c8e9614612409578063796a507c146123a45780637b1039991461237b5780637b50b8b8146121055780637fc25fac146120ad5780638224e64c14612046578063850c6a0a146120285780638530b5f714611fbf5780638da5cb5b14611f985780638efdc88114611f7a57806396a2c51514611ee2578063a186b50814611e8d578063abb91b24146110c4578063b59703a31461100c578063b868e7a114610ed7578063bb51898d14610e4c578063c090a2b614610cea578063c1f9e28314610c85578063c3fe3e2814610c5c578063c8b6150714610bf8578063c9365eff14610b93578063ca2f68db14610b2b578063d4e1b3bb14610ad8578063d4f622a614610aba578063d6f92372146109cc578063d9c291cf146109a3578063db7a46051461085f578063dbaf0cc314610841578063ddf45c23146107da578063df4ebb0b1461074e578063e0c0ad96146106eb578063e956e0ae1461065e578063eac4cbb5146105f7578063eeff35221461057d578063f0190c1714610514578063f0360bad146104a7578063f2fde38b1461041c578063fce570e1146103b15763fed27ff31461034057600080fd5b346103a057806003193601126103a05760045481906001600160a01b0316803b156103ae5781809160246040518094819363e6c7b08360e01b83523360048401525af180156103a3576103905750f35b61039990613f67565b6103a05780f35b80fd5b6040513d84823e3d90fd5b50fd5b50346103a05760203660031901126103a057806103cc613d6f565b6103d4613f3b565b6001546001600160a01b039081169190823b15610417576024849283604051958694859363fce570e160e01b85521660048401525af180156103a3576103905750f35b505050fd5b50346103a05760203660031901126103a057610436613d6f565b61043e613f3b565b6001600160a01b0390811690811561048e57600054826001600160601b0360a01b821617600055167f8be0079c531659141344cd1fd0a4f28419497f9722a3daafe3b4186f6b6457e0600080a380f35b604051631e4fbdf760e01b815260048101849052602490fd5b50346103a05760203660031901126103a057600435906006548210156103a05760a06104d283613eea565b50805490600180841b03600182015416906002810154600460ff6003840154169201549260405194855260208501526040840152151560608301526080820152f35b50346103a05760203660031901126103a0578061052f613ddd565b610537613f3b565b6005546001600160a01b031690813b156105795760ff60248492836040519586948593632779c99760e01b85521660048401525af180156103a3576103905750f35b5050fd5b50346103a0578061058d36613e76565b9291610597613f3b565b6002546001600160a01b031690813b156105f35760405163777f9a9160e11b815260048101949094526024840152604483019190915260648201929092529082908290818381608481015b03925af180156103a3576103905750f35b8580fd5b50346103a057806101e0806003193601126103ae576101e4903682116105795761061f613f3b565b6003546001600160a01b0316803b156104175760405163eac4cbb560e01b8152928492849283918591906004808501375af180156103a3576103905750f35b50346103a05760203660031901126103a05760035460405163ed138eff60e01b8152600480359082015260016024820152908290829060449082906001600160a01b03165afa9081156103a357826106c493926106c8575b505060405191829182613dfd565b0390f35b6106e492503d8091833e6106dc818361403b565b8101906144ef565b38806106b6565b50346103a05760203660031901126103a05780610706613ddd565b6001546001600160a01b031690813b156105795760ff6044849283604051958694859363187759f160e11b85523360048601521660248401525af180156103a3576103905750f35b50346103a05760e03660031901126103a057610768613f3b565b60025481906001600160a01b0316803b156103ae5781809160e46040518094819363df4ebb0b60e01b83526004356004840152602435602484015260443560448401526064356064840152608435608484015260a43560a484015260c43560c48401525af180156103a3576103905750f35b50346103a057806101e0806003193601126103ae576101e49036821161057957610802613f3b565b6002546001600160a01b0316803b156104175760405163ddf45c2360e01b8152928492849283918591906004808501375af180156103a3576103905750f35b50346103a057806003193601126103a0576020600b54604051908152f35b50346103a057806003193601126103a05761030060405161087f8161401f565b36903760025460405163db7a460560e01b815261034092916001600160a01b03919084908290600490829086165afa928315610997578093819282916108fe575b50908360405195168552836020931683860152604085019190915b601883106108e7578686f35b8380600192878551168152019201920191906108db565b9250509250833d8511610990575b610916818361403b565b81019284828503126103a05761092b826142d3565b60206109388185016142d3565b9580605f8601121561098c57604051946109518661401f565b85908981019283116105f357604001905b82821061097557505050509391386108c0565b838091610981846142d3565b815201910190610962565b8380fd5b503d61090c565b604051903d90823e3d90fd5b50346103a057806003193601126103a0576005546040516001600160a01b039091168152602090f35b50346103a057602090816003193601126103a0576004356001600160401b03808211610ab65736602383011215610ab6578160040135908111610ab6573660248284010111610ab657838160018060a01b0393602460448660015416926040519687958694859363152c172560e01b85528960048601528282860152018484013781810183018a9052601f01601f191681010301915afa928315610997578093610a7c575b505060405191168152f35b909192508382813d8311610aaf575b610a95818361403b565b810103126103a05750610aa7906142d3565b903880610a71565b503d610a8b565b8280fd5b50346103a057806003193601126103a0576020600d54604051908152f35b50346103a057806003193601126103a057610af1613f3b565b60025481906001600160a01b0316803b156103ae5781809160046040518094819363d4e1b3bb60e01b83525af180156103a3576103905750f35b50346103a05760203660031901126103a057610b45613ddd565b600554604051631e5c4b1360e31b815260ff9290921660048301528290829060249082906001600160a01b03165afa9081156103a357826106c493926106c857505060405191829182613dfd565b50346103a05760603660031901126103a057610bad613f3b565b60055481906001600160a01b0316803b156103ae5760405163c9365eff60e01b81526004803590820152602480359082015260448035908201529082908290818381606481016105e2565b50346103a05780610c0836613e41565b606460018060a09594951b0360035416936040519485938492635e2ab58f60e11b8452600484015260248301528460448301525afa9081156103a357826106c493926106c857505060405191829182613dfd565b50346103a057806003193601126103a0576003546040516001600160a01b039091168152602090f35b50346103a05760403660031901126103a05780610ca0613ded565b6005546001600160a01b0316803b156105795760405163d887c41160e01b81523360048083019190915235602482015260ff909216604483015282908290818381606481016105e2565b50346103a057610cf936613e57565b600354604051633ca34a4360e21b81523360048201526024810184905282151560448201526001600160a01b039392909160209083906064908290899089165af1918215610e41578592610e09575b5060405192610d5684613fb1565b83526020830191338352604084019081526060840191151582526080840192428452600654600160401b811015610df357806001610d979201600655613eea565b969096610ddd57600495518755600187019151166001600160601b0360a01b825416179055516002850155600384019051151560ff801983541691161790555191015580f35b634e487b7160e01b600052600060045260246000fd5b634e487b7160e01b600052604160045260246000fd5b9091506020813d8211610e39575b81610e246020938361403b565b81010312610e3457519038610d48565b600080fd5b3d9150610e17565b6040513d87823e3d90fd5b50346103a0576103003660031901126103a057806101043681116103ae57610204368111610579576103049136831161041757610e87613f3b565b6005546001600160a01b031692833b15610ed3578492836040519586948593635c8e625360e11b855261010080928160048089013780870137808501375af180156103a3576103905750f35b8480fd5b50346103a057602090816003193601126103a057610ef3613d6f565b60015460405163fbcb134560e01b81526001600160a01b0392831660048201529291829184916024918391165afa918215610fff578192610f60575b610f52604085858251938285938452825192818480938701528686019101613ec7565b601f01601f19168101030190f35b9091503d8083833e610f72818361403b565b81019183828403126103a05781516001600160401b0392838211610ab657019083601f830112156103a0578151928311610feb5760405193610fbd601f8501601f191687018661403b565b8385528584840101116103a0575091610fe2849260409484610f529785019101613ec7565b91819350610f2f565b634e487b7160e01b81526041600452602490fd5b50604051903d90823e3d90fd5b50346103a05760403660031901126103a0576110679061102a613d6f565b60015460405163b59703a360e01b81526001600160a01b039283166004820152602480359082015293602091859190841690829081906044820190565b03915afa918215610997578092611086575b6020838360405191168152f35b9091506020833d82116110bc575b816110a16020938361403b565b810103126103a057506110b56020926142d3565b9038611079565b3d9150611094565b50346103a057806003193601126103a0576040516001600160401b0390610160810182811182821017610df3576040526101603682376040519261110784613fcc565b6101e0803686376040519160c0830183811086821117610df35760405260c03684376040519161113683613fcc565b8036843760405161114681614004565b60803682376040519161115883613fcc565b368337604051966060880190811188821017610df357604052606036883761117e614475565b93611187614475565b9560018060a01b036002541660405163160b4afd60e01b8152602081600481855afa90811561188e578791611e5b575b50895260405163f9abb1f160e01b8152602081600481855afa90811561188e578791611e29575b5060208a015260405163b87d1bc560e01b8152602081600481855afa90811561188e578791611df7575b5060408a0152604051631d283f4f60e31b8152602081600481855afa90811561188e578791611dc5575b5060608a0152604051636545736360e01b8152602081600481855afa90811561188e578791611d93575b5060808a015260405163103339d360e31b8152602081600481855afa90811561188e578791611d61575b5060a08a0152604051630326799760e01b8152602081600481855afa90811561188e578791611d2f575b5060c08a01526040516341cf934d60e01b8152602081600481855afa90811561188e578791611cfd575b5060e08a01526040516385ee7c5960e01b8152602081600481855afa90811561188e578791611ccb575b506101008a01526040516315bb68db60e01b8152602081600481855afa90811561188e578791611c99575b506101208a01526040516325d530d560e11b8152602081600481855afa90811561188e578791611c67575b506101408a0152855b600f8110611bec57505060048054604051636418dbeb60e11b81526001600160a01b039091169b916020908290818f5afa90811561188e578791611bba575b5082526040516331a7d90f60e21b81526020816004818f5afa90811561188e578791611b88575b506020830152600460208c60405192838092639afb849760e01b82525afa90811561188e578791611b56575b5060408381019190915251630641ac3360e41b81526020816004818f5afa90811561188e578791611b24575b5060608301526040516368a9fc6b60e01b81526020816004818f5afa90811561188e578791611af2575b5060808301526040516394a227c360e01b81526020816004818f5afa90811561188e578791611ac0575b5060a0830152855b600f8110611a4c57506003546040516350877e0160e01b81526001600160a01b0390911690602081600481855afa908115611830578891611a1a575b508552604051630ec846e560e41b8152602081600481855afa9081156118305788916119e8575b506020860152604051630468003760e51b8152602081600481855afa9081156118305788916119b6575b5060408601526040516354eda68160e11b8152602081600481855afa908115611830578891611984575b506060860152865b600f8110611900575050600554604051639b89470360e01b81526001600160a01b0390911690602081600481855afa9081156118305788916118ce575b508b5260405163f028e44760e01b8152602081600481855afa908115611830578c908992611899575b509160209182600494015260405192838092630cadad4b60e11b82525afa90811561188e57879161185c575b5060408b0152855b60048110611741575060206004999a9b6040519a8b809263d8a1767560e01b82525afa988915611736578699611702575b50604051959a95998b8b5b600b82106116eb5750505061162c906101608b0190613db5565b896103408a015b600682106116d45750505061164d90610400890190613db5565b876105e088015b600482106116bd5750505061166e90610660870190613db5565b9461084085015b600382106116a757610ac0868661169f876116946108a0850189613e94565b6109a0840190613e94565b610aa0820152f35b6020806001928951815201970191019095611675565b825181526020928301926001929092019101611654565b825181526020928301926001929092019101611633565b825181526020928301926001929092019101611612565b9098506020813d60201161172e575b8161171e6020938361403b565b81010312610e3457519738611607565b3d9150611711565b6040513d88823e3d90fd5b602460408d8151928380926369ba303360e11b82528660048301525afa8015611830578891899161183b575b506040519161177b83613f96565b8252602082015261178c828a6144c8565b5261179781896144c8565b50602460408d815192838092633e717b7760e01b82528660048301525afa801561183057906117fa929189918a916117ff575b50604051916117d883613f96565b825260208201526117e9828c6144c8565b526117f4818b6144c8565b506140a3565b6115d6565b9050611823915060403d604011611829575b61181b818361403b565b8101906144d9565b386117ca565b503d611811565b6040513d8a823e3d90fd5b9050611856915060403d6040116118295761181b818361403b565b3861176d565b90506020813d602011611886575b816118776020938361403b565b81010312610e345751386115ce565b3d915061186a565b6040513d89823e3d90fd5b9150506020813d6020116118c6575b816118b56020938361403b565b81010312610e3457518b60046115a2565b3d91506118a8565b90506020813d6020116118f8575b816118e96020938361403b565b81010312610e34575138611579565b3d91506118dc565b604051636b88e46560e01b81526004810182905290602082602481865afa8015611979578990611945575b611940925061193a828a6144b7565b526140a3565b61153c565b506020823d602011611971575b8161195f6020938361403b565b81010312610e3457611940915161192b565b3d9150611952565b6040513d8b823e3d90fd5b90506020813d6020116119ae575b8161199f6020938361403b565b81010312610e34575138611534565b3d9150611992565b90506020813d6020116119e0575b816119d16020938361403b565b81010312610e3457513861150a565b3d91506119c4565b90506020813d602011611a12575b81611a036020938361403b565b81010312610e345751386114e0565b3d91506119f6565b90506020813d602011611a44575b81611a356020938361403b565b81010312610e345751386114b9565b3d9150611a28565b60249060208d6040519384809263064e11a160e21b82528560048301525afa8015611830578890611a8c575b611a87925061193a82876144b7565b61147d565b506020823d602011611ab8575b81611aa66020938361403b565b81010312610e3457611a879151611a78565b3d9150611a99565b90506020813d602011611aea575b81611adb6020938361403b565b81010312610e34575138611475565b3d9150611ace565b90506020813d602011611b1c575b81611b0d6020938361403b565b81010312610e3457513861144b565b3d9150611b00565b90506020813d602011611b4e575b81611b3f6020938361403b565b81010312610e34575138611421565b3d9150611b32565b90506020813d602011611b80575b81611b716020938361403b565b81010312610e345751386113f5565b3d9150611b64565b90506020813d602011611bb2575b81611ba36020938361403b565b81010312610e345751386113c9565b3d9150611b96565b90506020813d602011611be4575b81611bd56020938361403b565b81010312610e345751386113a2565b3d9150611bc8565b60405163963920a360e01b815260048101829052602081602481865afa90811561183057908d92918991611c2e575b5061193a82611c29946144b7565b611363565b9250506020823d602011611c5f575b81611c4a6020938361403b565b81010312610e345790518c919061193a611c1b565b3d9150611c3d565b90506020813d602011611c91575b81611c826020938361403b565b81010312610e3457513861135a565b3d9150611c75565b90506020813d602011611cc3575b81611cb46020938361403b565b81010312610e3457513861132f565b3d9150611ca7565b90506020813d602011611cf5575b81611ce66020938361403b565b81010312610e34575138611304565b3d9150611cd9565b90506020813d602011611d27575b81611d186020938361403b565b81010312610e345751386112da565b3d9150611d0b565b90506020813d602011611d59575b81611d4a6020938361403b565b81010312610e345751386112b0565b3d9150611d3d565b90506020813d602011611d8b575b81611d7c6020938361403b565b81010312610e34575138611286565b3d9150611d6f565b90506020813d602011611dbd575b81611dae6020938361403b565b81010312610e3457513861125c565b3d9150611da1565b90506020813d602011611def575b81611de06020938361403b565b81010312610e34575138611232565b3d9150611dd3565b90506020813d602011611e21575b81611e126020938361403b565b81010312610e34575138611208565b3d9150611e05565b90506020813d602011611e53575b81611e446020938361403b565b81010312610e345751386111de565b3d9150611e37565b90506020813d602011611e85575b81611e766020938361403b565b81010312610e345751386111b7565b3d9150611e69565b50346103a05760203660031901126103a05760025481906001600160a01b0316803b156103ae576040516311f9fbc960e21b8152336004808301919091523560248201529082908290818381604481016105e2565b50346103a057602090611ef436613e41565b600354604051636a661b6560e01b81526004810193909352602483019190915260016044830152909290839060649082906001600160a01b03165afa9081156109975790611f48575b602090604051908152f35b506020813d8211611f72575b81611f616020938361403b565b81010312610e345760209051611f3d565b3d9150611f54565b50346103a057806003193601126103a0576020600954604051908152f35b50346103a057806003193601126103a057546040516001600160a01b039091168152602090f35b50346103a05780611fcf36613e76565b9291611fd9613f3b565b6003546001600160a01b031690813b156105f357604051638530b5f760e01b815260048101949094526024840152604483019190915260648201929092529082908290818381608481016105e2565b50346103a057806003193601126103a0576020600e54604051908152f35b50346103a057806101e0806003193601126103ae576101e4903682116105795761206e613f3b565b6004546001600160a01b0316803b1561041757604051632089399360e21b8152928492849283918591906004808501375af180156103a3576103905750f35b50346103a0576101003660031901126103a05736610104116103a0576120d1613f3b565b60045481906001600160a01b0316803b156103ae57816040518092631ff097eb60e21b82528183816105e260048201614228565b50346103a0576101203660031901126103a0578060e43560c43560043561212a613f3b565b600781905560025460405163f9abb1f160e01b81526001600160a01b039260209290919084168382600481845afa918215611830578892612349575b5060405163b87d1bc560e01b8152918483600481855afa928315611979578993612317575b50604051631d283f4f60e31b81528581600481865afa95861561230c578a966122d9575b5050813b156122d55760405163777f9a9160e11b815260048101949094526024840152604483019190915260648201929092529085908290608490829084905af1908115610e415785916122c1575b5050602435600855604435600955606435600a55608435600b5560a435600c5581600d5582600e558060015416803b15610ed35784809160246040518094819363b3f5a23d60e01b83526101043560048401525af1908115610e415785916122ad575b50506003541691823b156104175760848492836040519586948593638530b5f760e01b85526002600486015260066024860152604485015260648401525af180156103a3576103905750f35b6122b690613f67565b610417578338612261565b6122ca90613f67565b6104175783386121fe565b8880fd5b819a50809296503d8311612305575b6122f2818361403b565b81010312610e34578897519338806121af565b503d6122e8565b6040513d8c823e3d90fd5b985091508388813d8111612342575b612330818361403b565b81010312610e3457889751913861218b565b503d612326565b975090508287813d8111612374575b612362818361403b565b81010312610e34578796519038612166565b503d612358565b50346103a057806003193601126103a0576001546040516001600160a01b039091168152602090f35b50346103a05760403660031901126103a057806123bf613ded565b6005546001600160a01b0316803b1561057957604051635382f3b160e01b81523360048083019190915235602482015260ff909216604483015282908290818381606481016105e2565b50346103a05760203660031901126103a05780612424613d6f565b61242c613f3b565b6001546001600160a01b039081169190823b156104175760248492836040519586948593633b8e474b60e11b85521660048401525af180156103a3576103905750f35b50346103a05761248761248136613e41565b906140c6565b60405190602080830190808452825180925280604085019301945b8281106124af5784840385f35b855180518552808301516001600160a01b03168584015260408082015190860152606080820151151590860152608090810151908501529481019460a0909301926001016124a2565b50346103a05760403660031901126103a0576001600160401b03906004358281116127765761252b903690600401613d85565b9290602491823590811161098c57612547903690600401613d85565b612552929192613f3b565b80860361273e579190849285925b8784106125a7578680878760018060a01b0360025416803b1561041757839283926040519485938492633e9a7b0160e11b845260048401525af180156103a3576103905750f35b9091929360018060a01b036001818154166125cb6125c6898d8a6142af565b6142bf565b906125d78988886142af565b3591813b1561273a576040516290dc3560e81b81526001600160a01b0391909116600482015260248101929092528a908290604490829084905af1801561230c57908a91612726575b50506126306125c6888c896142af565b9161263c8887876142af565b356040519361264a85613fb1565b6000855282602086019116815260408501918252606085019284845260808601944286526006805490600160401b82101561271157828201905561268d90613eea565b9790976126fc57926126ee979592600495926126f49a989551885587019151166001600160601b0360a01b825416179055516002850155600384019051151560ff80198354169116179055519101556126e78786866142af565b3590614073565b946140a3565b929190612560565b8d634e487b7160e01b60005260006004526000fd5b8e634e487b7160e01b60005260416004526000fd5b61272f90613f67565b6122d5578838612620565b8b80fd5b60405162461bcd60e51b815260206004820152601181860152704d69736d6174636865642061727261797360781b6044820152606490fd5b5080fd5b50346103a0578061278a36613e57565b6004546001600160a01b03169190823b1561041757604051631df3be6160e31b81523360048201526024810192909252151560448201529082908290818381606481016105e2565b50346103a057806003193601126103a0576127eb613f3b565b600080546001600160a01b0319811682556001600160a01b03167f8be0079c531659141344cd1fd0a4f28419497f9722a3daafe3b4186f6b6457e08280a380f35b50346103a0578061283c36613e41565b6003546001600160a01b03169190823b1561041757604051634b6e95cb60e01b8152336004820152602481019290925260448201529082908290818381606481016105e2565b50346103a05760203660031901126103a05761289c613f3b565b60045481906001600160a01b0316803b156103ae57818091602460405180948193630d7474a760e31b835260043560048401525af180156103a3576103905750f35b50346103a0576101003660031901126103a05736610104116103a057612902613f3b565b60045481906001600160a01b0316803b156103ae578160405180926368022f2f60e01b82528183816105e260048201614228565b50346103a05760209061294836613e41565b606460018060a09694961b0360035416946040519586938492636a661b6560e01b8452600484015260248301528560448301525afa9081156109975790611f4857602090604051908152f35b50346103a057806003193601126103a057600254604051639ac27dd360e01b81526001600160a01b039091169160208083600481875afa9283156103a3578293612cc0575b50604051637f4f52f960e01b8152908082600481885afa918215612cb5578392612c86575b50604051633bd8b07d60e11b8082526001600483015282826024818a5afa918215610e41578592612c57575b5060405190815284600482015282816024818a5afa908115610e41578591612c2a575b50604051635b849b5f60e01b81529083826004818b5afa918215611736578692612bfb575b50604051633021d80960e01b81529284846004818c5afa93841561188e578794612bcc575b50604051630739230560e11b81529585876004818d5afa958615611830578896612b9c575b6040516397ca2f9560e01b8152975080886004818e5afa978815611979578998612b6b575b508060049b6040519c8d809263aebdfef760e01b82525afa9889156109975798612b3a575b6101209a50604051998a5289015260408801526060870152608086015260a085015260c084015260e0830152610100820152f35b8098508a813d8311612b64575b612b51818361403b565b81010312610e3457610120995197612b06565b503d612b47565b9a9750808b813d8311612b95575b612b83818361403b565b81010312610e34579951969980612ae1565b503d612b79565b80965087813d8311612bc5575b612bb3818361403b565b81010312610e34576004965195612abc565b503d612ba9565b9093508481813d8311612bf4575b612be4818361403b565b81010312610e3457519238612a97565b503d612bda565b9091508381813d8311612c23575b612c13818361403b565b81010312610e3457519038612a72565b503d612c09565b90508281813d8311612c50575b612c41818361403b565b81010312610e34575138612a4d565b503d612c37565b9091508281813d8311612c7f575b612c6f818361403b565b81010312610e3457519038612a2a565b503d612c65565b9080925081813d8311612cae575b612c9e818361403b565b81010312610e34575190386129fe565b503d612c94565b6040513d85823e3d90fd5b9080935081813d8311612ce8575b612cd8818361403b565b81010312610e34575191386129d9565b503d612cce565b50346103a05780612cff36613e57565b90612d08613f3b565b6003546001600160a01b031691823b156104175760448492836040519586948593636558f87560e01b85526004850152151560248401525af180156103a3576103905750f35b50346103a05760203660031901126103a057612d68613d6f565b9080610420604051612d7981613f7a565b8281528260208201528260408201528260608201528260808201528260a08201528260c08201528260e08201528261010082015282610120820152826101408201528261016082015282610180820152826101a0820152826101c0820152826101e082015282610200820152604051612df181613fcc565b6101e0368237610220820152604051612e0981613fcc565b6101e0368237610240820152604051612e2181613fcc565b6101e0368237610260820152604051612e3981613fe8565b610140368237610280820152826102a0820152826102c0820152826102e08201528261030082015282610320820152826103408201528261036082015282610380820152826103a0820152826103c0820152826103e0820152826104008201520152610aa060018060a01b03600154169260246040518095819363543a185d60e11b835260018060a01b031660048301525afa918215610fff5781926130af575b50604051908251825260018060a01b03602084015116602083015260408301516040830152606083015160608301526080830151608083015260a083015160a083015260c083015160c083015260e083015160e08301526101008301516101008301526101208301516101208301526101408301516101408301526101608301516101608301526101808301516101808301526101a08301516101a08301526101c08301516101c08301526101e08301516101e0830152610200830151610200830152612fb1610220840151610220840190613db5565b612fc5610240840151610400840190613db5565b612fd96102608401516105e0840190613db5565b610280830151906107c083015b600a821061309957610aa08460ff610420886102a08101516109008501526102c08101516109208501526102e08101516109408501526103008101516109608501526103208101516109808501526103408101516109a08501526103608101516109c085015261038081015115156109e08501526103a08101511515610a008501526103c08101511515610a208501526103e0810151610a40850152610400810151610a60850152015116610a80820152f35b6020806001928551815201930191019091612fe6565b610aa092503d83116132f5575b6130c6838261403b565b610aa081848101031261277657604051906130e082613f7a565b805182526130f0602082016142d3565b602083015260408101516040830152606081015160608301526080810151608083015260a081015160a083015260c081015160c083015260e081015160e08301526101008101516101008301526101208101516101208301526101408101516101408301526101608101516101608301526101808101516101808301526101a08101516101a08301526101c08101516101c08301526101e08101516101e08301526102008101516102008301526131ad84820161022083016142e7565b6102208301526131c384820161040083016142e7565b6102408301526131d98482016105e083016142e7565b6102608301528381016107df82011215610ab6576040516131f981613fe8565b80948201610900830111610e34576107c08201945b610900830186106132e5575082939450610280610a809301526109008101516102a08401526109208101516102c08401526109408101516102e08401526109608101516103008401526109808101516103208401526109a08101516103408401526109c08101516103608401526132886109e0820161432d565b61038084015261329b610a00820161432d565b6103a08401526132ae610a20820161432d565b6103c0840152610a408101516103e0840152610a60810151610400840152015160ff81168103610ab6576104208201529038612eda565b855181526020958601950161320e565b3d92506130bc565b50346103a057806003193601126103a0576002546040516001600160a01b039091168152602090f35b50346103a057806003193601126103a0576020600a54604051908152f35b50346103a057806003193601126103a0576106c461336061433a565b604080519384526020840192909252908201529081906060820190565b50346103a0578061338d36613e41565b600354604051635e2ab58f60e11b81526004810193909352602483019190915260016044830152909190829060649082906001600160a01b03165afa9081156103a357826106c493926106c857505060405191829182613dfd565b50346103a05760c03660031901126103a0573660c4116103a05761340a613f3b565b6004546001600160a01b031690813b156103a057604051634f47daa760e01b81526004828183015b6003821061345457505050818160c4818380975af180156103a3576103905750f35b604080600192853581526020808701359082015201930191019091613432565b50346103a0576020806003193601126127765761348f613d6f565b60015460405163bff1f9e160e01b81526001600160a01b03918216929091908483600481875afa8015611736578593879161355c575b50868091600954811060001461353b57506064929150600854955b60405196879586946319d09f4960e21b865233600487015216602485015260448401525af18015612cb557613513578280f35b813d8311613534575b613526818361403b565b81010312610e345738808280f35b503d61351c565b600b969192965411613552575b90606492916134e0565b600a549550613548565b84819592503d8311613584575b613573818361403b565b81010312610e3457849251386134c5565b503d613569565b50346103a057602090816003193601126103a0576135a7613ddd565b9060018060a01b039081600554169360ff604051946365cdefbd60e11b865216928360048601528185602481895afa948515612cb5578395613731575b50604051630d2bd54f60e41b815260048101859052958287602481845afa9687156136f15784976136fc575b5090826004939260405194858092633f2a11b760e21b82525afa9283156136f15784936136c2575b5081906002541694602460405180978193633bd8b07d60e11b835260048301525afa9283156109975792613690575b506106c49250604051948594859094939260609260808301968352602083015260408201520152565b90915082813d83116136bb575b6136a7818361403b565b81010312610e34576106c491519038613667565b503d61369d565b9092508181813d83116136ea575b6136da818361403b565b81010312610e3457519181613638565b503d6136d0565b6040513d86823e3d90fd5b92809291975083813d831161372a575b613716818361403b565b81010312610e345791519590919082613610565b503d61370c565b9094508181813d8311613759575b613749818361403b565b81010312610e34575193386135e4565b503d61373f565b50346103a0578061377036613e41565b6003546001600160a01b03169190823b1561041757604051632013367d60e21b8152336004820152602481019290925260448201529082908290818381606481016105e2565b50346103a05760203660031901126103a05760035460405163ed138eff60e01b8152600480359082015260248101839052908290829060449082906001600160a01b03165afa9081156103a357826106c493926106c857505060405191829182613dfd565b50346103a057806003193601126103a057600354604051633045e0ad60e01b81529190602090839060049082906001600160a01b03165afa9081156109975790611f4857602090604051908152f35b50346103a057806003193601126103a0576020600654604051908152f35b50346103a05760203660031901126103a05760025481906001600160a01b0316803b156103ae5760405163f3fef3a360e01b8152336004808301919091523560248201529082908290818381604481016105e2565b50346103a05760403660031901126103a057806138f8613ddd565b6024356001600160401b03811161057957613917903690600401613d85565b613922929192613f3b565b6005546001600160a01b0316803b15610ed35760ff8580946105e260405197889687958694639f91375960e01b8652166004850152604060248501526044840191614266565b50346103a057602090816003193601126103a057600154604051632a2d0c4760e01b815260048035908201526001600160a01b039184908290602490829086165afa928315610997578093610a7c57505060405191168152f35b50346103a057806003193601126103a0576020600854604051908152f35b50346103a057806003193601126103a0576004546040516001600160a01b039091168152602090f35b50346103a057806003193601126103a0576020600c54604051908152f35b50346103a057806003193601126103a057604051613a4481613fcc565b6101e09182368337600754825260085490602091828401526009546040840152600a546060840152600b546080840152600c5460a0840152600d5460c0840152600e5460e084015260018060a01b03600483826001541660405192838092633fe762e760e01b82525afa908115612cb5578391613b94575b506101008501526003546040516350877e0160e01b81529116928082600481875afa918215612cb5578392613b63575b508060049460405195868092630ec846e560e41b82525afa9283156109975792613b31575b50613b1c9250614073565b610180820152613b2f6040518092613db5565bf35b90915082813d8311613b5c575b613b48818361403b565b81010312610e3457613b1c91519038613b11565b503d613b3e565b9391508084813d8311613b8d575b613b7b818361403b565b81010312610e34579251909280613aec565b503d613b71565b90508381813d8311613bba575b613bab818361403b565b81010312610e34575138613abc565b503d613ba1565b50346103a057806003193601126103a057600354604051630f01f32960e11b81529190602090839060049082906001600160a01b03165afa9081156109975790611f4857602090604051908152f35b50346103a057806003193601126103a0576020600754604051908152f35b50346103a05760c03660031901126103a057613c48613f3b565b60045481906001600160a01b0316803b156103ae5781809160c4604051809481936314c8496760e01b83526004356004840152602435602484015260443560448401526064356064840152608435608484015260a43560a48401525af180156103a3576103905750f35b50346103a05760603660031901126103a057613ccc613d6f565b6001600160a01b039082906024358381169190829003610ab6576044356001600160401b03811161098c57613d05903690600401613d85565b9490613d0f613f3b565b816002541692833b156105f357613d5186926040519889978896879563129a737360e01b87521660048601526024850152606060448501526064840191614266565b03925af180156103a357613d63575080f35b613d6c90613f67565b80f35b600435906001600160a01b0382168203610e3457565b9181601f84011215610e34578235916001600160401b038311610e34576020808501948460051b010111610e3457565b6000915b600f8310613dc657505050565b600190825181526020809101920192019190613db9565b6004359060ff82168203610e3457565b6024359060ff82168203610e3457565b6020908160408183019282815285518094520193019160005b828110613e24575050505090565b83516001600160a01b031685529381019392810192600101613e16565b6040906003190112610e34576004359060243590565b6040906003190112610e3457600435906024358015158103610e345790565b6080906003190112610e345760043590602435906044359060643590565b6000915b60048310613ea557505050565b6001906040835191825181526020809301518382015201920192019190613e98565b60005b838110613eda5750506000910152565b8181015183820152602001613eca565b600654811015613f25576005906006600052027ff652222313e28459528d920b65115c16c04f3efc82aaedc97be59f3f377c0d3f0190600090565b634e487b7160e01b600052603260045260246000fd5b6000546001600160a01b03163303613f4f57565b60405163118cdaa760e01b8152336004820152602490fd5b6001600160401b038111610df357604052565b61044081019081106001600160401b03821117610df357604052565b604081019081106001600160401b03821117610df357604052565b60a081019081106001600160401b03821117610df357604052565b6101e081019081106001600160401b03821117610df357604052565b61014081019081106001600160401b03821117610df357604052565b608081019081106001600160401b03821117610df357604052565b61030081019081106001600160401b03821117610df357604052565b90601f801991011681019081106001600160401b03821117610df357604052565b6001600160401b038111610df35760051b60200190565b9190820180921161408057565b634e487b7160e01b600052601160045260246000fd5b9190820391821161408057565b60001981146140805760010190565b8051821015613f255760209160051b010190565b906006549081831015614202576140dd9083614073565b828282116141fa575b6140ef91614096565b6140f88161405c565b926040926141088451958661403b565b828552601f196141178461405c565b0160005b8181106141c2575050600019810190811160005b84811061413f5750505050505090565b81614080578061416361415e6141586141bd9488614073565b86614096565b613eea565b50600488519161417283613fb1565b8054835260018101546001600160a01b0316602084015260028101548a840152600381015460ff1615156060840152015460808201526141b2828a6140b2565b526117f481896140b2565b61412f565b60209086516141d081613fb1565b60008152826000818301526000898301526000606083015260006080830152828a0101520161411b565b8291506140e6565b505050604051602081018181106001600160401b03821117610df3576040526000815290565b9061010082019160049081906000905b8382106142455750505050565b60019083358152602080850135908201526040809101930191019091614238565b9190808252602080920192916000805b83821061428557505050505090565b9091929394853560018060a01b038116809103610ab6578152830194830193929160010190614276565b9190811015613f255760051b0190565b356001600160a01b0381168103610e345790565b51906001600160a01b0382168203610e3457565b9080601f83011215610e34576040519161430083613fcc565b82906101e08101928311610e3457905b82821061431d5750505090565b8151815260209182019101614310565b51908115158203610e3457565b6001546040805163bff1f9e160e01b81526001600160a01b0390921692909160208082600481885afa91821561446a5760009261443b575b5083516317e0695f60e21b8152948186600481845afa95861561443057600096614401575b50908060049286519384809263966eab1160e01b82525afa9485156143f757506000946143c6575b5050929190565b8181959293953d83116143f0575b6143de818361403b565b810103126103a05750519138806143bf565b503d6143d4565b513d6000823e3d90fd5b90958282813d8311614429575b614418818361403b565b810103126103a05750519481614397565b503d61440e565b85513d6000823e3d90fd5b90918282813d8311614463575b614452818361403b565b810103126103a05750519038614372565b503d614448565b84513d6000823e3d90fd5b60409081519161448483614004565b600083815b608081106144975750505050565b60209084516144a581613f96565b84815284838201528184015201614489565b90600f811015613f255760051b0190565b906004811015613f255760051b0190565b9190826040910312610e34576020825192015190565b6020908181840312610e34578051906001600160401b038211610e3457019180601f84011215610e345782516145248161405c565b93614532604051958661403b565b818552838086019260051b820101928311610e34578301905b828210614559575050505090565b838091614565846142d3565b81520191019061454b56fea26469706673582212206483c3d8eb2f50601effc7621003e2852cab4c2fa27793b5cffe2b6d8e36be9064736f6c63430008140033",
  "linkReferences": {},
  "deployedLinkReferences": {}
}