{
  "_format": "hh-sol-artifact-1",
  "contractName": "TRKRouter",
  "sourceName": "contracts/TRKRouter.sol",
  "abi": [
    {
      "inputs": [
        {
          "internalType": "address",
          "name": "_registry",
          "type": "address"
        },
        {
          "internalType": "address",
          "name": "_treasury",
          "type": "address"
        },
        {
          "internalType": "address",
          "name": "_game",
          "type": "address"
        },
        {
          "internalType": "address",
          "name": "_cashback",
          "type": "address"
        },
        {
          "internalType": "address",
          "name": "_lucky",
          "type": "address"
        }
      ],
      "stateMutability": "nonpayable",
      "type": "constructor"
    },
    {
      "inputs": [
        {
          "internalType": "address",
          "name": "owner",
          "type": "address"
        }
      ],
      "name": "OwnableInvalidOwner",
      "type": "error"
    },
    {
      "inputs": [
        {
          "internalType": "address",
          "name": "account",
          "type": "address"
        }
      ],
      "name": "OwnableUnauthorizedAccount",
      "type": "error"
    },
    {
      "anonymous": false,
      "inputs": [
        {
          "indexed": true,
          "internalType": "address",
          "name": "previousOwner",
          "type": "address"
        },
        {
          "indexed": true,
          "internalType": "address",
          "name": "newOwner",
          "type": "address"
        }
      ],
      "name": "OwnershipTransferred",
      "type": "event"
    },
    {
      "inputs": [
        {
          "internalType": "address",
          "name": "user",
          "type": "address"
        }
      ],
      "name": "addressToReferralCode",
      "outputs": [
        {
          "internalType": "string",
          "name": "",
          "type": "string"
        }
      ],
      "stateMutability": "view",
      "type": "function"
    },
    {
      "inputs": [
        {
          "internalType": "uint8",
          "name": "drawType",
          "type": "uint8"
        }
      ],
      "name": "adminTriggerLuckyDraw",
      "outputs": [],
      "stateMutability": "nonpayable",
      "type": "function"
    },
    {
      "inputs": [
        {
          "internalType": "uint256",
          "name": "count",
          "type": "uint256"
        },
        {
          "internalType": "uint8",
          "name": "drawType",
          "type": "uint8"
        }
      ],
      "name": "buyLuckyTickets",
      "outputs": [],
      "stateMutability": "nonpayable",
      "type": "function"
    },
    {
      "inputs": [
        {
          "internalType": "uint256",
          "name": "count",
          "type": "uint256"
        },
        {
          "internalType": "uint8",
          "name": "drawType",
          "type": "uint8"
        }
      ],
      "name": "buyLuckyTicketsVirtual",
      "outputs": [],
      "stateMutability": "nonpayable",
      "type": "function"
    },
    {
      "inputs": [
        {
          "internalType": "uint256",
          "name": "roundId",
          "type": "uint256"
        },
        {
          "internalType": "uint256",
          "name": "number",
          "type": "uint256"
        }
      ],
      "name": "cashBetTotalsByNumber",
      "outputs": [
        {
          "internalType": "uint256",
          "name": "",
          "type": "uint256"
        }
      ],
      "stateMutability": "view",
      "type": "function"
    },
    {
      "inputs": [
        {
          "internalType": "uint256",
          "name": "roundId",
          "type": "uint256"
        },
        {
          "internalType": "uint256",
          "name": "number",
          "type": "uint256"
        }
      ],
      "name": "cashBettersByNumber",
      "outputs": [
        {
          "internalType": "address[]",
          "name": "",
          "type": "address[]"
        }
      ],
      "stateMutability": "view",
      "type": "function"
    },
    {
      "inputs": [],
      "name": "cashGamesPerDay",
      "outputs": [
        {
          "internalType": "uint256",
          "name": "",
          "type": "uint256"
        }
      ],
      "stateMutability": "view",
      "type": "function"
    },
    {
      "inputs": [
        {
          "internalType": "uint256",
          "name": "roundId",
          "type": "uint256"
        }
      ],
      "name": "cashRoundWinners",
      "outputs": [
        {
          "internalType": "address[]",
          "name": "",
          "type": "address[]"
        }
      ],
      "stateMutability": "view",
      "type": "function"
    },
    {
      "inputs": [],
      "name": "cashback",
      "outputs": [
        {
          "internalType": "contract ITRKCashbackEngine",
          "name": "",
          "type": "address"
        }
      ],
      "stateMutability": "view",
      "type": "function"
    },
    {
      "inputs": [],
      "name": "claimDailyCashback",
      "outputs": [],
      "stateMutability": "nonpayable",
      "type": "function"
    },
    {
      "inputs": [
        {
          "internalType": "uint256",
          "name": "roundId",
          "type": "uint256"
        },
        {
          "internalType": "bool",
          "name": "isCashGame",
          "type": "bool"
        }
      ],
      "name": "claimImmediateLoss",
      "outputs": [],
      "stateMutability": "nonpayable",
      "type": "function"
    },
    {
      "inputs": [
        {
          "internalType": "uint256",
          "name": "roundId",
          "type": "uint256"
        },
        {
          "internalType": "bool",
          "name": "isCashGame",
          "type": "bool"
        }
      ],
      "name": "claimWinnings",
      "outputs": [],
      "stateMutability": "nonpayable",
      "type": "function"
    },
    {
      "inputs": [
        {
          "internalType": "uint256",
          "name": "winningNumber",
          "type": "uint256"
        },
        {
          "internalType": "bool",
          "name": "isCashGame",
          "type": "bool"
        }
      ],
      "name": "closeRound",
      "outputs": [],
      "stateMutability": "nonpayable",
      "type": "function"
    },
    {
      "inputs": [],
      "name": "currentCashRoundId",
      "outputs": [
        {
          "internalType": "uint256",
          "name": "",
          "type": "uint256"
        }
      ],
      "stateMutability": "view",
      "type": "function"
    },
    {
      "inputs": [],
      "name": "currentPracticeRoundId",
      "outputs": [
        {
          "internalType": "uint256",
          "name": "",
          "type": "uint256"
        }
      ],
      "stateMutability": "view",
      "type": "function"
    },
    {
      "inputs": [
        {
          "internalType": "uint256",
          "name": "amount",
          "type": "uint256"
        }
      ],
      "name": "depositCashGame",
      "outputs": [],
      "stateMutability": "nonpayable",
      "type": "function"
    },
    {
      "inputs": [
        {
          "internalType": "address",
          "name": "user",
          "type": "address"
        },
        {
          "internalType": "uint256",
          "name": "index",
          "type": "uint256"
        }
      ],
      "name": "directReferralsList",
      "outputs": [
        {
          "internalType": "address",
          "name": "",
          "type": "address"
        }
      ],
      "stateMutability": "view",
      "type": "function"
    },
    {
      "inputs": [
        {
          "internalType": "address[]",
          "name": "winners",
          "type": "address[]"
        },
        {
          "internalType": "uint256[]",
          "name": "amounts",
          "type": "uint256[]"
        }
      ],
      "name": "distributeClubIncome",
      "outputs": [],
      "stateMutability": "nonpayable",
      "type": "function"
    },
    {
      "inputs": [
        {
          "internalType": "uint256",
          "name": "",
          "type": "uint256"
        }
      ],
      "name": "distributionHistory",
      "outputs": [
        {
          "internalType": "uint256",
          "name": "roundId",
          "type": "uint256"
        },
        {
          "internalType": "address",
          "name": "winner",
          "type": "address"
        },
        {
          "internalType": "uint256",
          "name": "payout",
          "type": "uint256"
        },
        {
          "internalType": "bool",
          "name": "isCashGame",
          "type": "bool"
        },
        {
          "internalType": "uint256",
          "name": "timestamp",
          "type": "uint256"
        }
      ],
      "stateMutability": "view",
      "type": "function"
    },
    {
      "inputs": [],
      "name": "game",
      "outputs": [
        {
          "internalType": "contract ITRKGameEngine",
          "name": "",
          "type": "address"
        }
      ],
      "stateMutability": "view",
      "type": "function"
    },
    {
      "inputs": [],
      "name": "getAllSettings",
      "outputs": [
        {
          "internalType": "uint256[15]",
          "name": "settings",
          "type": "uint256[15]"
        }
      ],
      "stateMutability": "view",
      "type": "function"
    },
    {
      "inputs": [
        {
          "internalType": "uint256",
          "name": "offset",
          "type": "uint256"
        },
        {
          "internalType": "uint256",
          "name": "limit",
          "type": "uint256"
        }
      ],
      "name": "getDistributionHistory",
      "outputs": [
        {
          "components": [
            {
              "internalType": "uint256",
              "name": "roundId",
              "type": "uint256"
            },
            {
              "internalType": "address",
              "name": "winner",
              "type": "address"
            },
            {
              "internalType": "uint256",
              "name": "payout",
              "type": "uint256"
            },
            {
              "internalType": "bool",
              "name": "isCashGame",
              "type": "bool"
            },
            {
              "internalType": "uint256",
              "name": "timestamp",
              "type": "uint256"
            }
          ],
          "internalType": "struct TRKRouter.Distribution[]",
          "name": "",
          "type": "tuple[]"
        }
      ],
      "stateMutability": "view",
      "type": "function"
    },
    {
      "inputs": [],
      "name": "getDistributionHistoryCount",
      "outputs": [
        {
          "internalType": "uint256",
          "name": "",
          "type": "uint256"
        }
      ],
      "stateMutability": "view",
      "type": "function"
    },
    {
      "inputs": [
        {
          "internalType": "uint8",
          "name": "drawType",
          "type": "uint8"
        }
      ],
      "name": "getLuckyDrawManualWinners",
      "outputs": [
        {
          "internalType": "address[]",
          "name": "",
          "type": "address[]"
        }
      ],
      "stateMutability": "view",
      "type": "function"
    },
    {
      "inputs": [
        {
          "internalType": "uint8",
          "name": "drawType",
          "type": "uint8"
        }
      ],
      "name": "getLuckyDrawStats",
      "outputs": [
        {
          "internalType": "uint256",
          "name": "drawId",
          "type": "uint256"
        },
        {
          "internalType": "uint256",
          "name": "ticketsSold",
          "type": "uint256"
        },
        {
          "internalType": "uint256",
          "name": "maxTickets",
          "type": "uint256"
        },
        {
          "internalType": "uint256",
          "name": "prizePoolBalance",
          "type": "uint256"
        }
      ],
      "stateMutability": "view",
      "type": "function"
    },
    {
      "inputs": [],
      "name": "getPlatformStats",
      "outputs": [
        {
          "internalType": "uint256",
          "name": "users",
          "type": "uint256"
        },
        {
          "internalType": "uint256",
          "name": "volume",
          "type": "uint256"
        },
        {
          "internalType": "uint256",
          "name": "withdrawn",
          "type": "uint256"
        }
      ],
      "stateMutability": "view",
      "type": "function"
    },
    {
      "inputs": [],
      "name": "getPools",
      "outputs": [
        {
          "internalType": "uint256",
          "name": "gamePool",
          "type": "uint256"
        },
        {
          "internalType": "uint256",
          "name": "clubPool",
          "type": "uint256"
        },
        {
          "internalType": "uint256",
          "name": "golden",
          "type": "uint256"
        },
        {
          "internalType": "uint256",
          "name": "silver",
          "type": "uint256"
        },
        {
          "internalType": "uint256",
          "name": "protection",
          "type": "uint256"
        },
        {
          "internalType": "uint256",
          "name": "creator",
          "type": "uint256"
        },
        {
          "internalType": "uint256",
          "name": "bd",
          "type": "uint256"
        },
        {
          "internalType": "uint256",
          "name": "few",
          "type": "uint256"
        },
        {
          "internalType": "uint256",
          "name": "referral",
          "type": "uint256"
        }
      ],
      "stateMutability": "view",
      "type": "function"
    },
    {
      "inputs": [],
      "name": "getSystemSettings",
      "outputs": [
        {
          "internalType": "uint256[11]",
          "name": "treasuryParams",
          "type": "uint256[11]"
        },
        {
          "internalType": "uint256[15]",
          "name": "refPercents",
          "type": "uint256[15]"
        },
        {
          "internalType": "uint256[6]",
          "name": "cashbackParams",
          "type": "uint256[6]"
        },
        {
          "internalType": "uint256[15]",
          "name": "roiPercents",
          "type": "uint256[15]"
        },
        {
          "internalType": "uint256[4]",
          "name": "gameParams",
          "type": "uint256[4]"
        },
        {
          "internalType": "uint256[15]",
          "name": "winRefPercents",
          "type": "uint256[15]"
        },
        {
          "internalType": "uint256[3]",
          "name": "luckyParams",
          "type": "uint256[3]"
        },
        {
          "components": [
            {
              "internalType": "uint256",
              "name": "directs",
              "type": "uint256"
            },
            {
              "internalType": "uint256",
              "name": "multiplier",
              "type": "uint256"
            }
          ],
          "internalType": "struct ITRKCashbackEngine.Cap[4]",
          "name": "capsBefore",
          "type": "tuple[4]"
        },
        {
          "components": [
            {
              "internalType": "uint256",
              "name": "directs",
              "type": "uint256"
            },
            {
              "internalType": "uint256",
              "name": "multiplier",
              "type": "uint256"
            }
          ],
          "internalType": "struct ITRKCashbackEngine.Cap[4]",
          "name": "capsAfter",
          "type": "tuple[4]"
        },
        {
          "internalType": "uint256",
          "name": "phaseThreshold",
          "type": "uint256"
        }
      ],
      "stateMutability": "view",
      "type": "function"
    },
    {
      "inputs": [
        {
          "internalType": "address",
          "name": "user",
          "type": "address"
        }
      ],
      "name": "getUserInfo",
      "outputs": [
        {
          "components": [
            {
              "internalType": "uint256",
              "name": "userId",
              "type": "uint256"
            },
            {
              "internalType": "address",
              "name": "referrer",
              "type": "address"
            },
            {
              "internalType": "uint256",
              "name": "registrationTime",
              "type": "uint256"
            },
            {
              "internalType": "uint256",
              "name": "walletBalance",
              "type": "uint256"
            },
            {
              "internalType": "uint256",
              "name": "practiceBalance",
              "type": "uint256"
            },
            {
              "internalType": "uint256",
              "name": "cashGameBalance",
              "type": "uint256"
            },
            {
              "internalType": "uint256",
              "name": "totalDeposit",
              "type": "uint256"
            },
            {
              "internalType": "uint256",
              "name": "totalWithdrawn",
              "type": "uint256"
            },
            {
              "internalType": "uint256",
              "name": "cumulativeDeposit",
              "type": "uint256"
            },
            {
              "internalType": "uint256",
              "name": "directReferralIncome",
              "type": "uint256"
            },
            {
              "internalType": "uint256",
              "name": "winnerReferralIncome",
              "type": "uint256"
            },
            {
              "internalType": "uint256",
              "name": "practiceReferralIncome",
              "type": "uint256"
            },
            {
              "internalType": "uint256",
              "name": "cashbackIncome",
              "type": "uint256"
            },
            {
              "internalType": "uint256",
              "name": "lossReferralIncome",
              "type": "uint256"
            },
            {
              "internalType": "uint256",
              "name": "clubIncome",
              "type": "uint256"
            },
            {
              "internalType": "uint256",
              "name": "luckyDrawIncome",
              "type": "uint256"
            },
            {
              "internalType": "uint256",
              "name": "luckyDrawWallet",
              "type": "uint256"
            },
            {
              "internalType": "uint256[15]",
              "name": "directReferralIncomeByLevel",
              "type": "uint256[15]"
            },
            {
              "internalType": "uint256[15]",
              "name": "winnerReferralIncomeByLevel",
              "type": "uint256[15]"
            },
            {
              "internalType": "uint256[15]",
              "name": "practiceReferralIncomeByLevel",
              "type": "uint256[15]"
            },
            {
              "internalType": "uint256[10]",
              "name": "digitBalances",
              "type": "uint256[10]"
            },
            {
              "internalType": "uint256",
              "name": "teamVolume",
              "type": "uint256"
            },
            {
              "internalType": "uint256",
              "name": "totalBets",
              "type": "uint256"
            },
            {
              "internalType": "uint256",
              "name": "totalWins",
              "type": "uint256"
            },
            {
              "internalType": "uint256",
              "name": "totalLosses",
              "type": "uint256"
            },
            {
              "internalType": "uint256",
              "name": "practiceGamesPlayedToday",
              "type": "uint256"
            },
            {
              "internalType": "uint256",
              "name": "cashGamesPlayedToday",
              "type": "uint256"
            },
            {
              "internalType": "uint256",
              "name": "lastGameDate",
              "type": "uint256"
            },
            {
              "internalType": "bool",
              "name": "isRegistered",
              "type": "bool"
            },
            {
              "internalType": "bool",
              "name": "isPracticePlayer",
              "type": "bool"
            },
            {
              "internalType": "bool",
              "name": "isCashPlayer",
              "type": "bool"
            },
            {
              "internalType": "uint256",
              "name": "directReferrals",
              "type": "uint256"
            },
            {
              "internalType": "uint256",
              "name": "activeDirects",
              "type": "uint256"
            },
            {
              "internalType": "uint8",
              "name": "preferredLuckyDraw",
              "type": "uint8"
            }
          ],
          "internalType": "struct ITRKRegistry.User",
          "name": "",
          "type": "tuple"
        }
      ],
      "stateMutability": "view",
      "type": "function"
    },
    {
      "inputs": [],
      "name": "getUserStats",
      "outputs": [
        {
          "internalType": "uint256",
          "name": "users",
          "type": "uint256"
        },
        {
          "internalType": "uint256",
          "name": "volume",
          "type": "uint256"
        },
        {
          "internalType": "uint256",
          "name": "withdrawn",
          "type": "uint256"
        }
      ],
      "stateMutability": "view",
      "type": "function"
    },
    {
      "inputs": [],
      "name": "getWallets",
      "outputs": [
        {
          "internalType": "address",
          "name": "creator",
          "type": "address"
        },
        {
          "internalType": "address",
          "name": "few",
          "type": "address"
        },
        {
          "internalType": "address[24]",
          "name": "bd",
          "type": "address[24]"
        }
      ],
      "stateMutability": "view",
      "type": "function"
    },
    {
      "inputs": [
        {
          "internalType": "uint256",
          "name": "userId",
          "type": "uint256"
        }
      ],
      "name": "idToAddress",
      "outputs": [
        {
          "internalType": "address",
          "name": "",
          "type": "address"
        }
      ],
      "stateMutability": "view",
      "type": "function"
    },
    {
      "inputs": [],
      "name": "lucky",
      "outputs": [
        {
          "internalType": "contract ITRKLuckyDraw",
          "name": "",
          "type": "address"
        }
      ],
      "stateMutability": "view",
      "type": "function"
    },
    {
      "inputs": [],
      "name": "minActivation",
      "outputs": [
        {
          "internalType": "uint256",
          "name": "",
          "type": "uint256"
        }
      ],
      "stateMutability": "view",
      "type": "function"
    },
    {
      "inputs": [],
      "name": "minReferral",
      "outputs": [
        {
          "internalType": "uint256",
          "name": "",
          "type": "uint256"
        }
      ],
      "stateMutability": "view",
      "type": "function"
    },
    {
      "inputs": [],
      "name": "owner",
      "outputs": [
        {
          "internalType": "address",
          "name": "",
          "type": "address"
        }
      ],
      "stateMutability": "view",
      "type": "function"
    },
    {
      "inputs": [
        {
          "internalType": "address",
          "name": "user",
          "type": "address"
        }
      ],
      "name": "ownerActivateUser",
      "outputs": [],
      "stateMutability": "nonpayable",
      "type": "function"
    },
    {
      "inputs": [
        {
          "internalType": "uint256",
          "name": "prediction",
          "type": "uint256"
        },
        {
          "internalType": "uint256",
          "name": "amount",
          "type": "uint256"
        }
      ],
      "name": "placeBetCash",
      "outputs": [],
      "stateMutability": "nonpayable",
      "type": "function"
    },
    {
      "inputs": [
        {
          "internalType": "uint256",
          "name": "prediction",
          "type": "uint256"
        },
        {
          "internalType": "uint256",
          "name": "amount",
          "type": "uint256"
        }
      ],
      "name": "placeBetPractice",
      "outputs": [],
      "stateMutability": "nonpayable",
      "type": "function"
    },
    {
      "inputs": [
        {
          "internalType": "uint256",
          "name": "roundId",
          "type": "uint256"
        },
        {
          "internalType": "uint256",
          "name": "number",
          "type": "uint256"
        }
      ],
      "name": "practiceBetTotalsByNumber",
      "outputs": [
        {
          "internalType": "uint256",
          "name": "",
          "type": "uint256"
        }
      ],
      "stateMutability": "view",
      "type": "function"
    },
    {
      "inputs": [
        {
          "internalType": "uint256",
          "name": "roundId",
          "type": "uint256"
        },
        {
          "internalType": "uint256",
          "name": "number",
          "type": "uint256"
        }
      ],
      "name": "practiceBettersByNumber",
      "outputs": [
        {
          "internalType": "address[]",
          "name": "",
          "type": "address[]"
        }
      ],
      "stateMutability": "view",
      "type": "function"
    },
    {
      "inputs": [],
      "name": "practiceGamesPerDay",
      "outputs": [
        {
          "internalType": "uint256",
          "name": "",
          "type": "uint256"
        }
      ],
      "stateMutability": "view",
      "type": "function"
    },
    {
      "inputs": [
        {
          "internalType": "uint256",
          "name": "roundId",
          "type": "uint256"
        }
      ],
      "name": "practiceRoundWinners",
      "outputs": [
        {
          "internalType": "address[]",
          "name": "",
          "type": "address[]"
        }
      ],
      "stateMutability": "view",
      "type": "function"
    },
    {
      "inputs": [
        {
          "internalType": "string",
          "name": "code",
          "type": "string"
        }
      ],
      "name": "referralCodeToAddress",
      "outputs": [
        {
          "internalType": "address",
          "name": "",
          "type": "address"
        }
      ],
      "stateMutability": "view",
      "type": "function"
    },
    {
      "inputs": [
        {
          "internalType": "address",
          "name": "referrer",
          "type": "address"
        }
      ],
      "name": "register",
      "outputs": [],
      "stateMutability": "nonpayable",
      "type": "function"
    },
    {
      "inputs": [],
      "name": "registry",
      "outputs": [
        {
          "internalType": "contract ITRKRegistry",
          "name": "",
          "type": "address"
        }
      ],
      "stateMutability": "view",
      "type": "function"
    },
    {
      "inputs": [],
      "name": "renounceOwnership",
      "outputs": [],
      "stateMutability": "nonpayable",
      "type": "function"
    },
    {
      "inputs": [
        {
          "components": [
            {
              "internalType": "uint256",
              "name": "directs",
              "type": "uint256"
            },
            {
              "internalType": "uint256",
              "name": "multiplier",
              "type": "uint256"
            }
          ],
          "internalType": "struct ITRKCashbackEngine.Cap[4]",
          "name": "_caps",
          "type": "tuple[4]"
        }
      ],
      "name": "setCapMultipliersAfter10k",
      "outputs": [],
      "stateMutability": "nonpayable",
      "type": "function"
    },
    {
      "inputs": [
        {
          "components": [
            {
              "internalType": "uint256",
              "name": "directs",
              "type": "uint256"
            },
            {
              "internalType": "uint256",
              "name": "multiplier",
              "type": "uint256"
            }
          ],
          "internalType": "struct ITRKCashbackEngine.Cap[4]",
          "name": "_caps",
          "type": "tuple[4]"
        }
      ],
      "name": "setCapMultipliersBefore10k",
      "outputs": [],
      "stateMutability": "nonpayable",
      "type": "function"
    },
    {
      "inputs": [
        {
          "components": [
            {
              "internalType": "uint256",
              "name": "userLimit",
              "type": "uint256"
            },
            {
              "internalType": "uint256",
              "name": "rate",
              "type": "uint256"
            }
          ],
          "internalType": "struct ITRKCashbackEngine.Phase[3]",
          "name": "_phases",
          "type": "tuple[3]"
        }
      ],
      "name": "setCashbackPhases",
      "outputs": [],
      "stateMutability": "nonpayable",
      "type": "function"
    },
    {
      "inputs": [
        {
          "internalType": "uint256",
          "name": "_lc",
          "type": "uint256"
        },
        {
          "internalType": "uint256",
          "name": "_lr",
          "type": "uint256"
        },
        {
          "internalType": "uint256",
          "name": "_t",
          "type": "uint256"
        },
        {
          "internalType": "uint256",
          "name": "_ls",
          "type": "uint256"
        },
        {
          "internalType": "uint256",
          "name": "_rr",
          "type": "uint256"
        },
        {
          "internalType": "uint256",
          "name": "_md",
          "type": "uint256"
        }
      ],
      "name": "setCashbackSettings",
      "outputs": [],
      "stateMutability": "nonpayable",
      "type": "function"
    },
    {
      "inputs": [
        {
          "internalType": "uint256",
          "name": "_c",
          "type": "uint256"
        },
        {
          "internalType": "uint256",
          "name": "_b",
          "type": "uint256"
        },
        {
          "internalType": "uint256",
          "name": "_f",
          "type": "uint256"
        },
        {
          "internalType": "uint256",
          "name": "_r",
          "type": "uint256"
        },
        {
          "internalType": "uint256",
          "name": "_cl",
          "type": "uint256"
        },
        {
          "internalType": "uint256",
          "name": "_l",
          "type": "uint256"
        },
        {
          "internalType": "uint256",
          "name": "_p",
          "type": "uint256"
        }
      ],
      "name": "setDistributions",
      "outputs": [],
      "stateMutability": "nonpayable",
      "type": "function"
    },
    {
      "inputs": [
        {
          "internalType": "uint256",
          "name": "_wc",
          "type": "uint256"
        },
        {
          "internalType": "uint256",
          "name": "_wr",
          "type": "uint256"
        },
        {
          "internalType": "uint256",
          "name": "_pl",
          "type": "uint256"
        },
        {
          "internalType": "uint256",
          "name": "_cl",
          "type": "uint256"
        }
      ],
      "name": "setGameSettings",
      "outputs": [],
      "stateMutability": "nonpayable",
      "type": "function"
    },
    {
      "inputs": [
        {
          "internalType": "uint8",
          "name": "drawType",
          "type": "uint8"
        },
        {
          "internalType": "address[]",
          "name": "winners",
          "type": "address[]"
        }
      ],
      "name": "setLuckyDrawManualWinners",
      "outputs": [],
      "stateMutability": "nonpayable",
      "type": "function"
    },
    {
      "inputs": [
        {
          "internalType": "uint8",
          "name": "drawType",
          "type": "uint8"
        }
      ],
      "name": "setLuckyDrawPreference",
      "outputs": [],
      "stateMutability": "nonpayable",
      "type": "function"
    },
    {
      "inputs": [
        {
          "internalType": "uint256",
          "name": "_mt",
          "type": "uint256"
        },
        {
          "internalType": "uint256",
          "name": "_gp",
          "type": "uint256"
        },
        {
          "internalType": "uint256",
          "name": "_sp",
          "type": "uint256"
        }
      ],
      "name": "setLuckyDrawSettings",
      "outputs": [],
      "stateMutability": "nonpayable",
      "type": "function"
    },
    {
      "inputs": [
        {
          "internalType": "uint256[8]",
          "name": "_g",
          "type": "uint256[8]"
        },
        {
          "internalType": "uint256[8]",
          "name": "_s",
          "type": "uint256[8]"
        },
        {
          "internalType": "uint256[8]",
          "name": "_c",
          "type": "uint256[8]"
        }
      ],
      "name": "setLuckyPrizes",
      "outputs": [],
      "stateMutability": "nonpayable",
      "type": "function"
    },
    {
      "inputs": [
        {
          "internalType": "uint256",
          "name": "_threshold",
          "type": "uint256"
        }
      ],
      "name": "setPhaseThreshold",
      "outputs": [],
      "stateMutability": "nonpayable",
      "type": "function"
    },
    {
      "inputs": [
        {
          "internalType": "uint256[15]",
          "name": "_p",
          "type": "uint256[15]"
        }
      ],
      "name": "setReferralPercents",
      "outputs": [],
      "stateMutability": "nonpayable",
      "type": "function"
    },
    {
      "inputs": [
        {
          "internalType": "uint256[15]",
          "name": "_p",
          "type": "uint256[15]"
        }
      ],
      "name": "setRoiPercents",
      "outputs": [],
      "stateMutability": "nonpayable",
      "type": "function"
    },
    {
      "inputs": [
        {
          "internalType": "uint256",
          "name": "_minA",
          "type": "uint256"
        },
        {
          "internalType": "uint256",
          "name": "_minW",
          "type": "uint256"
        },
        {
          "internalType": "uint256",
          "name": "_maxW",
          "type": "uint256"
        },
        {
          "internalType": "uint256",
          "name": "_fee",
          "type": "uint256"
        }
      ],
      "name": "setTreasurySettings",
      "outputs": [],
      "stateMutability": "nonpayable",
      "type": "function"
    },
    {
      "inputs": [
        {
          "internalType": "uint256[15]",
          "name": "_p",
          "type": "uint256[15]"
        }
      ],
      "name": "setWinnerReferralPercents",
      "outputs": [],
      "stateMutability": "nonpayable",
      "type": "function"
    },
    {
      "inputs": [],
      "name": "signupBonusTier1",
      "outputs": [
        {
          "internalType": "uint256",
          "name": "",
          "type": "uint256"
        }
      ],
      "stateMutability": "view",
      "type": "function"
    },
    {
      "inputs": [],
      "name": "signupBonusTier2",
      "outputs": [
        {
          "internalType": "uint256",
          "name": "",
          "type": "uint256"
        }
      ],
      "stateMutability": "view",
      "type": "function"
    },
    {
      "inputs": [],
      "name": "tier1Limit",
      "outputs": [
        {
          "internalType": "uint256",
          "name": "",
          "type": "uint256"
        }
      ],
      "stateMutability": "view",
      "type": "function"
    },
    {
      "inputs": [],
      "name": "tier2Limit",
      "outputs": [
        {
          "internalType": "uint256",
          "name": "",
          "type": "uint256"
        }
      ],
      "stateMutability": "view",
      "type": "function"
    },
    {
      "inputs": [
        {
          "internalType": "address",
          "name": "newOwner",
          "type": "address"
        }
      ],
      "name": "transferOwnership",
      "outputs": [],
      "stateMutability": "nonpayable",
      "type": "function"
    },
    {
      "inputs": [],
      "name": "treasury",
      "outputs": [
        {
          "internalType": "contract ITRKTreasury",
          "name": "",
          "type": "address"
        }
      ],
      "stateMutability": "view",
      "type": "function"
    },
    {
      "inputs": [
        {
          "internalType": "address",
          "name": "user",
          "type": "address"
        }
      ],
      "name": "triggerPracticeReferral",
      "outputs": [],
      "stateMutability": "nonpayable",
      "type": "function"
    },
    {
      "inputs": [
        {
          "internalType": "address",
          "name": "user",
          "type": "address"
        }
      ],
      "name": "unpruneUser",
      "outputs": [],
      "stateMutability": "nonpayable",
      "type": "function"
    },
    {
      "inputs": [
        {
          "internalType": "uint256",
          "name": "_minA",
          "type": "uint256"
        },
        {
          "internalType": "uint256",
          "name": "_b1",
          "type": "uint256"
        },
        {
          "internalType": "uint256",
          "name": "_l1",
          "type": "uint256"
        },
        {
          "internalType": "uint256",
          "name": "_b2",
          "type": "uint256"
        },
        {
          "internalType": "uint256",
          "name": "_l2",
          "type": "uint256"
        },
        {
          "internalType": "uint256",
          "name": "_minRef",
          "type": "uint256"
        },
        {
          "internalType": "uint256",
          "name": "_pGames",
          "type": "uint256"
        },
        {
          "internalType": "uint256",
          "name": "_cGames",
          "type": "uint256"
        },
        {
          "internalType": "uint256",
          "name": "_fullBridge",
          "type": "uint256"
        }
      ],
      "name": "updateSettings",
      "outputs": [],
      "stateMutability": "nonpayable",
      "type": "function"
    },
    {
      "inputs": [
        {
          "internalType": "address",
          "name": "_creator",
          "type": "address"
        },
        {
          "internalType": "address",
          "name": "_few",
          "type": "address"
        },
        {
          "internalType": "address[]",
          "name": "_bd",
          "type": "address[]"
        }
      ],
      "name": "updateWallets",
      "outputs": [],
      "stateMutability": "nonpayable",
      "type": "function"
    },
    {
      "inputs": [
        {
          "internalType": "uint256",
          "name": "amount",
          "type": "uint256"
        }
      ],
      "name": "withdraw",
      "outputs": [],
      "stateMutability": "nonpayable",
      "type": "function"
    }
  ],
  "bytecode": "0x6080346200017857601f6200476238819003918201601f19168301916001600160401b038311848410176200017d5780849260a09460405283398101031262000178576200004d8162000193565b906200005c6020820162000193565b6200006a6040830162000193565b926200008760806200007f6060860162000193565b940162000193565b9033156200015f576000549360018060a01b03199433868216176000556040519660018060a01b0380968180968195823391167f8be0079c531659141344cd1fd0a4f28419497f9722a3daafe3b4186f6b6457e0600080a3670de0b6b3a764000060075568056bc75e2d63100000600855612710600955678ac7230489e80000600a55620186a0600b556000600c556018600d556018600e5516896001541617600155168760025416176002551685600354161760035516836004541617600455169060055416176005556145b99081620001a98239f35b604051631e4fbdf760e01b815260006004820152602490fd5b600080fd5b634e487b7160e01b600052604160045260246000fd5b51906001600160a01b0382168203620001785756fe6080604052600436101561001257600080fd5b6000803560e01c8063129a737314613cc5578063136d88831461335757806314c8496714613c41578063160b4afd14613c235780631e03e65214613bd457806321b594d614613a3a57806321e8367614613a1c578063242fc36e146139f3578063262951e8146139d55780632a2d0c471461397b5780632c4fd2a1146138f05780632e1a7d4d1461389b5780632f54696e1461387d5780633045e0ad1461382e57806335abb5f3146137c95780633c91646f1461377357806342ccae161461359e5780634420e486146134875780634f47daa7146133fb57806352aa6d841461339057806353f6ad37146133575780635d11d977146133395780636116dd88146132d357806361d027b3146132aa5780636386c1c714612cfb5780636558f87514612c9c578063673a2a1f1461294157806367a1d3a2146128e357806368022f2f1461288b5780636ba3a5381461282f5780636cc709c9146127d9578063715018a61461277f57806371d522031461272757806374a82a70146124a557806376f0601b1461241c578063771c8e96146123b6578063796a507c146123515780637b103999146123285780637b50b8b8146120b25780637fc25fac1461205a5780638224e64c14611ff3578063850c6a0a14611fd55780638530b5f714611f6c5780638da5cb5b14611f455780638efdc88114611f2757806396a2c51514611e8f578063a186b50814611e3a578063abb91b2414611071578063b59703a314610fb9578063b868e7a114610e84578063bb51898d14610df9578063c090a2b614610c97578063c1f9e28314610c32578063c3fe3e2814610c09578063c8b6150714610ba5578063c9365eff14610b40578063ca2f68db14610ad8578063d4f622a614610aba578063d6f92372146109cc578063d9c291cf146109a3578063db7a46051461085f578063dbaf0cc314610841578063ddf45c23146107da578063df4ebb0b1461074e578063e0c0ad96146106eb578063e956e0ae1461065e578063eac4cbb5146105f7578063eeff35221461057d578063f0190c1714610514578063f0360bad146104a7578063f2fde38b1461041c578063fce570e1146103b15763fed27ff31461034057600080fd5b346103a057806003193601126103a05760045481906001600160a01b0316803b156103ae5781809160246040518094819363e6c7b08360e01b83523360048401525af180156103a3576103905750f35b61039990613f7a565b6103a05780f35b80fd5b6040513d84823e3d90fd5b50fd5b50346103a05760203660031901126103a057806103cc613d82565b6103d4613f4e565b6001546001600160a01b039081169190823b15610417576024849283604051958694859363fce570e160e01b85521660048401525af180156103a3576103905750f35b505050fd5b50346103a05760203660031901126103a057610436613d82565b61043e613f4e565b6001600160a01b0390811690811561048e57600054826001600160601b0360a01b821617600055167f8be0079c531659141344cd1fd0a4f28419497f9722a3daafe3b4186f6b6457e0600080a380f35b604051631e4fbdf760e01b815260048101849052602490fd5b50346103a05760203660031901126103a057600435906006548210156103a05760a06104d283613efd565b50805490600180841b03600182015416906002810154600460ff6003840154169201549260405194855260208501526040840152151560608301526080820152f35b50346103a05760203660031901126103a0578061052f613df0565b610537613f4e565b6005546001600160a01b031690813b156105795760ff60248492836040519586948593632779c99760e01b85521660048401525af180156103a3576103905750f35b5050fd5b50346103a0578061058d36613e89565b9291610597613f4e565b6002546001600160a01b031690813b156105f35760405163777f9a9160e11b815260048101949094526024840152604483019190915260648201929092529082908290818381608481015b03925af180156103a3576103905750f35b8580fd5b50346103a057806101e0806003193601126103ae576101e4903682116105795761061f613f4e565b6003546001600160a01b0316803b156104175760405163eac4cbb560e01b8152928492849283918591906004808501375af180156103a3576103905750f35b50346103a05760203660031901126103a05760035460405163ed138eff60e01b8152600480359082015260016024820152908290829060449082906001600160a01b03165afa9081156103a357826106c493926106c8575b505060405191829182613e10565b0390f35b6106e492503d8091833e6106dc818361404e565b810190614502565b38806106b6565b50346103a05760203660031901126103a05780610706613df0565b6001546001600160a01b031690813b156105795760ff6044849283604051958694859363187759f160e11b85523360048601521660248401525af180156103a3576103905750f35b50346103a05760e03660031901126103a057610768613f4e565b60025481906001600160a01b0316803b156103ae5781809160e46040518094819363df4ebb0b60e01b83526004356004840152602435602484015260443560448401526064356064840152608435608484015260a43560a484015260c43560c48401525af180156103a3576103905750f35b50346103a057806101e0806003193601126103ae576101e49036821161057957610802613f4e565b6002546001600160a01b0316803b156104175760405163ddf45c2360e01b8152928492849283918591906004808501375af180156103a3576103905750f35b50346103a057806003193601126103a0576020600b54604051908152f35b50346103a057806003193601126103a05761030060405161087f81614032565b36903760025460405163db7a460560e01b815261034092916001600160a01b03919084908290600490829086165afa928315610997578093819282916108fe575b50908360405195168552836020931683860152604085019190915b601883106108e7578686f35b8380600192878551168152019201920191906108db565b9250509250833d8511610990575b610916818361404e565b81019284828503126103a05761092b826142e6565b60206109388185016142e6565b9580605f8601121561098c576040519461095186614032565b85908981019283116105f357604001905b82821061097557505050509391386108c0565b838091610981846142e6565b815201910190610962565b8380fd5b503d61090c565b604051903d90823e3d90fd5b50346103a057806003193601126103a0576005546040516001600160a01b039091168152602090f35b50346103a057602090816003193601126103a0576004356001600160401b03808211610ab65736602383011215610ab6578160040135908111610ab6573660248284010111610ab657838160018060a01b0393602460448660015416926040519687958694859363152c172560e01b85528960048601528282860152018484013781810183018a9052601f01601f191681010301915afa928315610997578093610a7c575b505060405191168152f35b909192508382813d8311610aaf575b610a95818361404e565b810103126103a05750610aa7906142e6565b903880610a71565b503d610a8b565b8280fd5b50346103a057806003193601126103a0576020600d54604051908152f35b50346103a05760203660031901126103a057610af2613df0565b600554604051631e5c4b1360e31b815260ff9290921660048301528290829060249082906001600160a01b03165afa9081156103a357826106c493926106c857505060405191829182613e10565b50346103a05760603660031901126103a057610b5a613f4e565b60055481906001600160a01b0316803b156103ae5760405163c9365eff60e01b81526004803590820152602480359082015260448035908201529082908290818381606481016105e2565b50346103a05780610bb536613e54565b606460018060a09594951b0360035416936040519485938492635e2ab58f60e11b8452600484015260248301528460448301525afa9081156103a357826106c493926106c857505060405191829182613e10565b50346103a057806003193601126103a0576003546040516001600160a01b039091168152602090f35b50346103a05760403660031901126103a05780610c4d613e00565b6005546001600160a01b0316803b156105795760405163d887c41160e01b81523360048083019190915235602482015260ff909216604483015282908290818381606481016105e2565b50346103a057610ca636613e6a565b600354604051633ca34a4360e21b81523360048201526024810184905282151560448201526001600160a01b039392909160209083906064908290899089165af1918215610dee578592610db6575b5060405192610d0384613fc4565b83526020830191338352604084019081526060840191151582526080840192428452600654600160401b811015610da057806001610d449201600655613efd565b969096610d8a57600495518755600187019151166001600160601b0360a01b825416179055516002850155600384019051151560ff801983541691161790555191015580f35b634e487b7160e01b600052600060045260246000fd5b634e487b7160e01b600052604160045260246000fd5b9091506020813d8211610de6575b81610dd16020938361404e565b81010312610de157519038610cf5565b600080fd5b3d9150610dc4565b6040513d87823e3d90fd5b50346103a0576103003660031901126103a057806101043681116103ae57610204368111610579576103049136831161041757610e34613f4e565b6005546001600160a01b031692833b15610e80578492836040519586948593635c8e625360e11b855261010080928160048089013780870137808501375af180156103a3576103905750f35b8480fd5b50346103a057602090816003193601126103a057610ea0613d82565b60015460405163fbcb134560e01b81526001600160a01b0392831660048201529291829184916024918391165afa918215610fac578192610f0d575b610eff604085858251938285938452825192818480938701528686019101613eda565b601f01601f19168101030190f35b9091503d8083833e610f1f818361404e565b81019183828403126103a05781516001600160401b0392838211610ab657019083601f830112156103a0578151928311610f985760405193610f6a601f8501601f191687018661404e565b8385528584840101116103a0575091610f8f849260409484610eff9785019101613eda565b91819350610edc565b634e487b7160e01b81526041600452602490fd5b50604051903d90823e3d90fd5b50346103a05760403660031901126103a05761101490610fd7613d82565b60015460405163b59703a360e01b81526001600160a01b039283166004820152602480359082015293602091859190841690829081906044820190565b03915afa918215610997578092611033575b6020838360405191168152f35b9091506020833d8211611069575b8161104e6020938361404e565b810103126103a057506110626020926142e6565b9038611026565b3d9150611041565b50346103a057806003193601126103a0576040516001600160401b0390610160810182811182821017610da057604052610160368237604051926110b484613fdf565b6101e0803686376040519160c0830183811086821117610da05760405260c0368437604051916110e383613fdf565b803684376040516110f381614017565b60803682376040519161110583613fdf565b368337604051966060880190811188821017610da057604052606036883761112b614488565b93611134614488565b9560018060a01b036002541660405163160b4afd60e01b8152602081600481855afa90811561183b578791611e08575b50895260405163f9abb1f160e01b8152602081600481855afa90811561183b578791611dd6575b5060208a015260405163b87d1bc560e01b8152602081600481855afa90811561183b578791611da4575b5060408a0152604051631d283f4f60e31b8152602081600481855afa90811561183b578791611d72575b5060608a0152604051636545736360e01b8152602081600481855afa90811561183b578791611d40575b5060808a015260405163103339d360e31b8152602081600481855afa90811561183b578791611d0e575b5060a08a0152604051630326799760e01b8152602081600481855afa90811561183b578791611cdc575b5060c08a01526040516341cf934d60e01b8152602081600481855afa90811561183b578791611caa575b5060e08a01526040516385ee7c5960e01b8152602081600481855afa90811561183b578791611c78575b506101008a01526040516315bb68db60e01b8152602081600481855afa90811561183b578791611c46575b506101208a01526040516325d530d560e11b8152602081600481855afa90811561183b578791611c14575b506101408a0152855b600f8110611b9957505060048054604051636418dbeb60e11b81526001600160a01b039091169b916020908290818f5afa90811561183b578791611b67575b5082526040516331a7d90f60e21b81526020816004818f5afa90811561183b578791611b35575b506020830152600460208c60405192838092639afb849760e01b82525afa90811561183b578791611b03575b5060408381019190915251630641ac3360e41b81526020816004818f5afa90811561183b578791611ad1575b5060608301526040516368a9fc6b60e01b81526020816004818f5afa90811561183b578791611a9f575b5060808301526040516394a227c360e01b81526020816004818f5afa90811561183b578791611a6d575b5060a0830152855b600f81106119f957506003546040516350877e0160e01b81526001600160a01b0390911690602081600481855afa9081156117dd5788916119c7575b508552604051630ec846e560e41b8152602081600481855afa9081156117dd578891611995575b506020860152604051630468003760e51b8152602081600481855afa9081156117dd578891611963575b5060408601526040516354eda68160e11b8152602081600481855afa9081156117dd578891611931575b506060860152865b600f81106118ad575050600554604051639b89470360e01b81526001600160a01b0390911690602081600481855afa9081156117dd57889161187b575b508b5260405163f028e44760e01b8152602081600481855afa9081156117dd578c908992611846575b509160209182600494015260405192838092630cadad4b60e11b82525afa90811561183b578791611809575b5060408b0152855b600481106116ee575060206004999a9b6040519a8b809263d8a1767560e01b82525afa9889156116e35786996116af575b50604051959a95998b8b5b600b8210611698575050506115d9906101608b0190613dc8565b896103408a015b60068210611681575050506115fa90610400890190613dc8565b876105e088015b6004821061166a5750505061161b90610660870190613dc8565b9461084085015b6003821061165457610ac0868661164c876116416108a0850189613ea7565b6109a0840190613ea7565b610aa0820152f35b6020806001928951815201970191019095611622565b825181526020928301926001929092019101611601565b8251815260209283019260019290920191016115e0565b8251815260209283019260019290920191016115bf565b9098506020813d6020116116db575b816116cb6020938361404e565b81010312610de1575197386115b4565b3d91506116be565b6040513d88823e3d90fd5b602460408d8151928380926369ba303360e11b82528660048301525afa80156117dd57889189916117e8575b506040519161172883613fa9565b82526020820152611739828a6144db565b5261174481896144db565b50602460408d815192838092633e717b7760e01b82528660048301525afa80156117dd57906117a7929189918a916117ac575b506040519161178583613fa9565b82526020820152611796828c6144db565b526117a1818b6144db565b506140b6565b611583565b90506117d0915060403d6040116117d6575b6117c8818361404e565b8101906144ec565b38611777565b503d6117be565b6040513d8a823e3d90fd5b9050611803915060403d6040116117d6576117c8818361404e565b3861171a565b90506020813d602011611833575b816118246020938361404e565b81010312610de157513861157b565b3d9150611817565b6040513d89823e3d90fd5b9150506020813d602011611873575b816118626020938361404e565b81010312610de157518b600461154f565b3d9150611855565b90506020813d6020116118a5575b816118966020938361404e565b81010312610de1575138611526565b3d9150611889565b604051636b88e46560e01b81526004810182905290602082602481865afa80156119265789906118f2575b6118ed92506118e7828a6144ca565b526140b6565b6114e9565b506020823d60201161191e575b8161190c6020938361404e565b81010312610de1576118ed91516118d8565b3d91506118ff565b6040513d8b823e3d90fd5b90506020813d60201161195b575b8161194c6020938361404e565b81010312610de15751386114e1565b3d915061193f565b90506020813d60201161198d575b8161197e6020938361404e565b81010312610de15751386114b7565b3d9150611971565b90506020813d6020116119bf575b816119b06020938361404e565b81010312610de157513861148d565b3d91506119a3565b90506020813d6020116119f1575b816119e26020938361404e565b81010312610de1575138611466565b3d91506119d5565b60249060208d6040519384809263064e11a160e21b82528560048301525afa80156117dd578890611a39575b611a3492506118e782876144ca565b61142a565b506020823d602011611a65575b81611a536020938361404e565b81010312610de157611a349151611a25565b3d9150611a46565b90506020813d602011611a97575b81611a886020938361404e565b81010312610de1575138611422565b3d9150611a7b565b90506020813d602011611ac9575b81611aba6020938361404e565b81010312610de15751386113f8565b3d9150611aad565b90506020813d602011611afb575b81611aec6020938361404e565b81010312610de15751386113ce565b3d9150611adf565b90506020813d602011611b2d575b81611b1e6020938361404e565b81010312610de15751386113a2565b3d9150611b11565b90506020813d602011611b5f575b81611b506020938361404e565b81010312610de1575138611376565b3d9150611b43565b90506020813d602011611b91575b81611b826020938361404e565b81010312610de157513861134f565b3d9150611b75565b60405163963920a360e01b815260048101829052602081602481865afa9081156117dd57908d92918991611bdb575b506118e782611bd6946144ca565b611310565b9250506020823d602011611c0c575b81611bf76020938361404e565b81010312610de15790518c91906118e7611bc8565b3d9150611bea565b90506020813d602011611c3e575b81611c2f6020938361404e565b81010312610de1575138611307565b3d9150611c22565b90506020813d602011611c70575b81611c616020938361404e565b81010312610de15751386112dc565b3d9150611c54565b90506020813d602011611ca2575b81611c936020938361404e565b81010312610de15751386112b1565b3d9150611c86565b90506020813d602011611cd4575b81611cc56020938361404e565b81010312610de1575138611287565b3d9150611cb8565b90506020813d602011611d06575b81611cf76020938361404e565b81010312610de157513861125d565b3d9150611cea565b90506020813d602011611d38575b81611d296020938361404e565b81010312610de1575138611233565b3d9150611d1c565b90506020813d602011611d6a575b81611d5b6020938361404e565b81010312610de1575138611209565b3d9150611d4e565b90506020813d602011611d9c575b81611d8d6020938361404e565b81010312610de15751386111df565b3d9150611d80565b90506020813d602011611dce575b81611dbf6020938361404e565b81010312610de15751386111b5565b3d9150611db2565b90506020813d602011611e00575b81611df16020938361404e565b81010312610de157513861118b565b3d9150611de4565b90506020813d602011611e32575b81611e236020938361404e565b81010312610de1575138611164565b3d9150611e16565b50346103a05760203660031901126103a05760025481906001600160a01b0316803b156103ae576040516311f9fbc960e21b8152336004808301919091523560248201529082908290818381604481016105e2565b50346103a057602090611ea136613e54565b600354604051636a661b6560e01b81526004810193909352602483019190915260016044830152909290839060649082906001600160a01b03165afa9081156109975790611ef5575b602090604051908152f35b506020813d8211611f1f575b81611f0e6020938361404e565b81010312610de15760209051611eea565b3d9150611f01565b50346103a057806003193601126103a0576020600954604051908152f35b50346103a057806003193601126103a057546040516001600160a01b039091168152602090f35b50346103a05780611f7c36613e89565b9291611f86613f4e565b6003546001600160a01b031690813b156105f357604051638530b5f760e01b815260048101949094526024840152604483019190915260648201929092529082908290818381608481016105e2565b50346103a057806003193601126103a0576020600e54604051908152f35b50346103a057806101e0806003193601126103ae576101e4903682116105795761201b613f4e565b6004546001600160a01b0316803b1561041757604051632089399360e21b8152928492849283918591906004808501375af180156103a3576103905750f35b50346103a0576101003660031901126103a05736610104116103a05761207e613f4e565b60045481906001600160a01b0316803b156103ae57816040518092631ff097eb60e21b82528183816105e26004820161423b565b50346103a0576101203660031901126103a0578060e43560c4356004356120d7613f4e565b600781905560025460405163f9abb1f160e01b81526001600160a01b039260209290919084168382600481845afa9182156117dd5788926122f6575b5060405163b87d1bc560e01b8152918483600481855afa9283156119265789936122c4575b50604051631d283f4f60e31b81528581600481865afa9586156122b9578a96612286575b5050813b156122825760405163777f9a9160e11b815260048101949094526024840152604483019190915260648201929092529085908290608490829084905af1908115610dee57859161226e575b5050602435600855604435600955606435600a55608435600b5560a435600c5581600d5582600e558060015416803b15610e805784809160246040518094819363b3f5a23d60e01b83526101043560048401525af1908115610dee57859161225a575b50506003541691823b156104175760848492836040519586948593638530b5f760e01b85526002600486015260066024860152604485015260648401525af180156103a3576103905750f35b61226390613f7a565b61041757833861220e565b61227790613f7a565b6104175783386121ab565b8880fd5b819a50809296503d83116122b2575b61229f818361404e565b81010312610de15788975193388061215c565b503d612295565b6040513d8c823e3d90fd5b985091508388813d81116122ef575b6122dd818361404e565b81010312610de1578897519138612138565b503d6122d3565b975090508287813d8111612321575b61230f818361404e565b81010312610de1578796519038612113565b503d612305565b50346103a057806003193601126103a0576001546040516001600160a01b039091168152602090f35b50346103a05760403660031901126103a0578061236c613e00565b6005546001600160a01b0316803b1561057957604051635382f3b160e01b81523360048083019190915235602482015260ff909216604483015282908290818381606481016105e2565b50346103a05760203660031901126103a057806123d1613d82565b6123d9613f4e565b6001546001600160a01b039081169190823b156104175760248492836040519586948593633b8e474b60e11b85521660048401525af180156103a3576103905750f35b50346103a05761243461242e36613e54565b906140d9565b60405190602080830190808452825180925280604085019301945b82811061245c5784840385f35b855180518552808301516001600160a01b03168584015260408082015190860152606080820151151590860152608090810151908501529481019460a09093019260010161244f565b50346103a05760403660031901126103a0576001600160401b0390600435828111612723576124d8903690600401613d98565b9290602491823590811161098c576124f4903690600401613d98565b6124ff929192613f4e565b8086036126eb579190849285925b878410612554578680878760018060a01b0360025416803b1561041757839283926040519485938492633e9a7b0160e11b845260048401525af180156103a3576103905750f35b9091929360018060a01b03600181815416612578612573898d8a6142c2565b6142d2565b906125848988886142c2565b3591813b156126e7576040516290dc3560e81b81526001600160a01b0391909116600482015260248101929092528a908290604490829084905af180156122b957908a916126d3575b50506125dd612573888c896142c2565b916125e98887876142c2565b35604051936125f785613fc4565b6000855282602086019116815260408501918252606085019284845260808601944286526006805490600160401b8210156126be57828201905561263a90613efd565b9790976126a9579261269b979592600495926126a19a989551885587019151166001600160601b0360a01b825416179055516002850155600384019051151560ff80198354169116179055519101556126948786866142c2565b3590614086565b946140b6565b92919061250d565b8d634e487b7160e01b60005260006004526000fd5b8e634e487b7160e01b60005260416004526000fd5b6126dc90613f7a565b6122825788386125cd565b8b80fd5b60405162461bcd60e51b815260206004820152601181860152704d69736d6174636865642061727261797360781b6044820152606490fd5b5080fd5b50346103a0578061273736613e6a565b6004546001600160a01b03169190823b1561041757604051631df3be6160e31b81523360048201526024810192909252151560448201529082908290818381606481016105e2565b50346103a057806003193601126103a057612798613f4e565b600080546001600160a01b0319811682556001600160a01b03167f8be0079c531659141344cd1fd0a4f28419497f9722a3daafe3b4186f6b6457e08280a380f35b50346103a057806127e936613e54565b6003546001600160a01b03169190823b1561041757604051634b6e95cb60e01b8152336004820152602481019290925260448201529082908290818381606481016105e2565b50346103a05760203660031901126103a057612849613f4e565b60045481906001600160a01b0316803b156103ae57818091602460405180948193630d7474a760e31b835260043560048401525af180156103a3576103905750f35b50346103a0576101003660031901126103a05736610104116103a0576128af613f4e565b60045481906001600160a01b0316803b156103ae578160405180926368022f2f60e01b82528183816105e26004820161423b565b50346103a0576020906128f536613e54565b606460018060a09694961b0360035416946040519586938492636a661b6560e01b8452600484015260248301528560448301525afa9081156109975790611ef557602090604051908152f35b50346103a057806003193601126103a057600254604051639ac27dd360e01b81526001600160a01b039091169160208083600481875afa9283156103a3578293612c6d575b50604051637f4f52f960e01b8152908082600481885afa918215612c62578392612c33575b50604051633bd8b07d60e11b8082526001600483015282826024818a5afa918215610dee578592612c04575b5060405190815284600482015282816024818a5afa908115610dee578591612bd7575b50604051635b849b5f60e01b81529083826004818b5afa9182156116e3578692612ba8575b50604051633021d80960e01b81529284846004818c5afa93841561183b578794612b79575b50604051630739230560e11b81529585876004818d5afa9586156117dd578896612b49575b6040516397ca2f9560e01b8152975080886004818e5afa978815611926578998612b18575b508060049b6040519c8d809263aebdfef760e01b82525afa9889156109975798612ae7575b6101209a50604051998a5289015260408801526060870152608086015260a085015260c084015260e0830152610100820152f35b8098508a813d8311612b11575b612afe818361404e565b81010312610de157610120995197612ab3565b503d612af4565b9a9750808b813d8311612b42575b612b30818361404e565b81010312610de1579951969980612a8e565b503d612b26565b80965087813d8311612b72575b612b60818361404e565b81010312610de1576004965195612a69565b503d612b56565b9093508481813d8311612ba1575b612b91818361404e565b81010312610de157519238612a44565b503d612b87565b9091508381813d8311612bd0575b612bc0818361404e565b81010312610de157519038612a1f565b503d612bb6565b90508281813d8311612bfd575b612bee818361404e565b81010312610de15751386129fa565b503d612be4565b9091508281813d8311612c2c575b612c1c818361404e565b81010312610de1575190386129d7565b503d612c12565b9080925081813d8311612c5b575b612c4b818361404e565b81010312610de1575190386129ab565b503d612c41565b6040513d85823e3d90fd5b9080935081813d8311612c95575b612c85818361404e565b81010312610de157519138612986565b503d612c7b565b50346103a05780612cac36613e6a565b90612cb5613f4e565b6003546001600160a01b031691823b156104175760448492836040519586948593636558f87560e01b85526004850152151560248401525af180156103a3576103905750f35b50346103a05760203660031901126103a057612d15613d82565b9080610420604051612d2681613f8d565b8281528260208201528260408201528260608201528260808201528260a08201528260c08201528260e08201528261010082015282610120820152826101408201528261016082015282610180820152826101a0820152826101c0820152826101e082015282610200820152604051612d9e81613fdf565b6101e0368237610220820152604051612db681613fdf565b6101e0368237610240820152604051612dce81613fdf565b6101e0368237610260820152604051612de681613ffb565b610140368237610280820152826102a0820152826102c0820152826102e08201528261030082015282610320820152826103408201528261036082015282610380820152826103a0820152826103c0820152826103e0820152826104008201520152610aa060018060a01b03600154169260246040518095819363543a185d60e11b835260018060a01b031660048301525afa918215610fac57819261305c575b50604051908251825260018060a01b03602084015116602083015260408301516040830152606083015160608301526080830151608083015260a083015160a083015260c083015160c083015260e083015160e08301526101008301516101008301526101208301516101208301526101408301516101408301526101608301516101608301526101808301516101808301526101a08301516101a08301526101c08301516101c08301526101e08301516101e0830152610200830151610200830152612f5e610220840151610220840190613dc8565b612f72610240840151610400840190613dc8565b612f866102608401516105e0840190613dc8565b610280830151906107c083015b600a821061304657610aa08460ff610420886102a08101516109008501526102c08101516109208501526102e08101516109408501526103008101516109608501526103208101516109808501526103408101516109a08501526103608101516109c085015261038081015115156109e08501526103a08101511515610a008501526103c08101511515610a208501526103e0810151610a40850152610400810151610a60850152015116610a80820152f35b6020806001928551815201930191019091612f93565b610aa092503d83116132a2575b613073838261404e565b610aa0818481010312612723576040519061308d82613f8d565b8051825261309d602082016142e6565b602083015260408101516040830152606081015160608301526080810151608083015260a081015160a083015260c081015160c083015260e081015160e08301526101008101516101008301526101208101516101208301526101408101516101408301526101608101516101608301526101808101516101808301526101a08101516101a08301526101c08101516101c08301526101e08101516101e083015261020081015161020083015261315a84820161022083016142fa565b61022083015261317084820161040083016142fa565b6102408301526131868482016105e083016142fa565b6102608301528381016107df82011215610ab6576040516131a681613ffb565b80948201610900830111610de1576107c08201945b61090083018610613292575082939450610280610a809301526109008101516102a08401526109208101516102c08401526109408101516102e08401526109608101516103008401526109808101516103208401526109a08101516103408401526109c08101516103608401526132356109e08201614340565b610380840152613248610a008201614340565b6103a084015261325b610a208201614340565b6103c0840152610a408101516103e0840152610a60810151610400840152015160ff81168103610ab6576104208201529038612e87565b85518152602095860195016131bb565b3d9250613069565b50346103a057806003193601126103a0576002546040516001600160a01b039091168152602090f35b50346103a05760203660031901126103a057806132ee613d82565b6132f6613f4e565b6001546001600160a01b039081169190823b156104175760248492836040519586948593630c22dbb160e31b85521660048401525af180156103a3576103905750f35b50346103a057806003193601126103a0576020600a54604051908152f35b50346103a057806003193601126103a0576106c461337361434d565b604080519384526020840192909252908201529081906060820190565b50346103a057806133a036613e54565b600354604051635e2ab58f60e11b81526004810193909352602483019190915260016044830152909190829060649082906001600160a01b03165afa9081156103a357826106c493926106c857505060405191829182613e10565b50346103a05760c03660031901126103a0573660c4116103a05761341d613f4e565b6004546001600160a01b031690813b156103a057604051634f47daa760e01b81526004828183015b6003821061346757505050818160c4818380975af180156103a3576103905750f35b604080600192853581526020808701359082015201930191019091613445565b50346103a057602080600319360112612723576134a2613d82565b60015460405163bff1f9e160e01b81526001600160a01b03918216929091908483600481875afa80156116e3578593879161356f575b50868091600954811060001461354e57506064929150600854955b60405196879586946319d09f4960e21b865233600487015216602485015260448401525af18015612c6257613526578280f35b813d8311613547575b613539818361404e565b81010312610de15738808280f35b503d61352f565b600b969192965411613565575b90606492916134f3565b600a54955061355b565b84819592503d8311613597575b613586818361404e565b81010312610de157849251386134d8565b503d61357c565b50346103a057602090816003193601126103a0576135ba613df0565b9060018060a01b039081600554169360ff604051946365cdefbd60e11b865216928360048601528185602481895afa948515612c62578395613744575b50604051630d2bd54f60e41b815260048101859052958287602481845afa96871561370457849761370f575b5090826004939260405194858092633f2a11b760e21b82525afa9283156137045784936136d5575b5081906002541694602460405180978193633bd8b07d60e11b835260048301525afa92831561099757926136a3575b506106c49250604051948594859094939260609260808301968352602083015260408201520152565b90915082813d83116136ce575b6136ba818361404e565b81010312610de1576106c49151903861367a565b503d6136b0565b9092508181813d83116136fd575b6136ed818361404e565b81010312610de15751918161364b565b503d6136e3565b6040513d86823e3d90fd5b92809291975083813d831161373d575b613729818361404e565b81010312610de15791519590919082613623565b503d61371f565b9094508181813d831161376c575b61375c818361404e565b81010312610de1575193386135f7565b503d613752565b50346103a0578061378336613e54565b6003546001600160a01b03169190823b1561041757604051632013367d60e21b8152336004820152602481019290925260448201529082908290818381606481016105e2565b50346103a05760203660031901126103a05760035460405163ed138eff60e01b8152600480359082015260248101839052908290829060449082906001600160a01b03165afa9081156103a357826106c493926106c857505060405191829182613e10565b50346103a057806003193601126103a057600354604051633045e0ad60e01b81529190602090839060049082906001600160a01b03165afa9081156109975790611ef557602090604051908152f35b50346103a057806003193601126103a0576020600654604051908152f35b50346103a05760203660031901126103a05760025481906001600160a01b0316803b156103ae5760405163f3fef3a360e01b8152336004808301919091523560248201529082908290818381604481016105e2565b50346103a05760403660031901126103a0578061390b613df0565b6024356001600160401b0381116105795761392a903690600401613d98565b613935929192613f4e565b6005546001600160a01b0316803b15610e805760ff8580946105e260405197889687958694639f91375960e01b8652166004850152604060248501526044840191614279565b50346103a057602090816003193601126103a057600154604051632a2d0c4760e01b815260048035908201526001600160a01b039184908290602490829086165afa928315610997578093610a7c57505060405191168152f35b50346103a057806003193601126103a0576020600854604051908152f35b50346103a057806003193601126103a0576004546040516001600160a01b039091168152602090f35b50346103a057806003193601126103a0576020600c54604051908152f35b50346103a057806003193601126103a057604051613a5781613fdf565b6101e09182368337600754825260085490602091828401526009546040840152600a546060840152600b546080840152600c5460a0840152600d5460c0840152600e5460e084015260018060a01b03600483826001541660405192838092633fe762e760e01b82525afa908115612c62578391613ba7575b506101008501526003546040516350877e0160e01b81529116928082600481875afa918215612c62578392613b76575b508060049460405195868092630ec846e560e41b82525afa9283156109975792613b44575b50613b2f9250614086565b610180820152613b426040518092613dc8565bf35b90915082813d8311613b6f575b613b5b818361404e565b81010312610de157613b2f91519038613b24565b503d613b51565b9391508084813d8311613ba0575b613b8e818361404e565b81010312610de1579251909280613aff565b503d613b84565b90508381813d8311613bcd575b613bbe818361404e565b81010312610de1575138613acf565b503d613bb4565b50346103a057806003193601126103a057600354604051630f01f32960e11b81529190602090839060049082906001600160a01b03165afa9081156109975790611ef557602090604051908152f35b50346103a057806003193601126103a0576020600754604051908152f35b50346103a05760c03660031901126103a057613c5b613f4e565b60045481906001600160a01b0316803b156103ae5781809160c4604051809481936314c8496760e01b83526004356004840152602435602484015260443560448401526064356064840152608435608484015260a43560a48401525af180156103a3576103905750f35b50346103a05760603660031901126103a057613cdf613d82565b6001600160a01b039082906024358381169190829003610ab6576044356001600160401b03811161098c57613d18903690600401613d98565b9490613d22613f4e565b816002541692833b156105f357613d6486926040519889978896879563129a737360e01b87521660048601526024850152606060448501526064840191614279565b03925af180156103a357613d76575080f35b613d7f90613f7a565b80f35b600435906001600160a01b0382168203610de157565b9181601f84011215610de1578235916001600160401b038311610de1576020808501948460051b010111610de157565b6000915b600f8310613dd957505050565b600190825181526020809101920192019190613dcc565b6004359060ff82168203610de157565b6024359060ff82168203610de157565b6020908160408183019282815285518094520193019160005b828110613e37575050505090565b83516001600160a01b031685529381019392810192600101613e29565b6040906003190112610de1576004359060243590565b6040906003190112610de157600435906024358015158103610de15790565b6080906003190112610de15760043590602435906044359060643590565b6000915b60048310613eb857505050565b6001906040835191825181526020809301518382015201920192019190613eab565b60005b838110613eed5750506000910152565b8181015183820152602001613edd565b600654811015613f38576005906006600052027ff652222313e28459528d920b65115c16c04f3efc82aaedc97be59f3f377c0d3f0190600090565b634e487b7160e01b600052603260045260246000fd5b6000546001600160a01b03163303613f6257565b60405163118cdaa760e01b8152336004820152602490fd5b6001600160401b038111610da057604052565b61044081019081106001600160401b03821117610da057604052565b604081019081106001600160401b03821117610da057604052565b60a081019081106001600160401b03821117610da057604052565b6101e081019081106001600160401b03821117610da057604052565b61014081019081106001600160401b03821117610da057604052565b608081019081106001600160401b03821117610da057604052565b61030081019081106001600160401b03821117610da057604052565b90601f801991011681019081106001600160401b03821117610da057604052565b6001600160401b038111610da05760051b60200190565b9190820180921161409357565b634e487b7160e01b600052601160045260246000fd5b9190820391821161409357565b60001981146140935760010190565b8051821015613f385760209160051b010190565b906006549081831015614215576140f09083614086565b8282821161420d575b614102916140a9565b61410b8161406f565b9260409261411b8451958661404e565b828552601f1961412a8461406f565b0160005b8181106141d5575050600019810190811160005b8481106141525750505050505090565b81614093578061417661417161416b6141d09488614086565b866140a9565b613efd565b50600488519161418583613fc4565b8054835260018101546001600160a01b0316602084015260028101548a840152600381015460ff1615156060840152015460808201526141c5828a6140c5565b526117a181896140c5565b614142565b60209086516141e381613fc4565b60008152826000818301526000898301526000606083015260006080830152828a0101520161412e565b8291506140f9565b505050604051602081018181106001600160401b03821117610da0576040526000815290565b9061010082019160049081906000905b8382106142585750505050565b6001908335815260208085013590820152604080910193019101909161424b565b9190808252602080920192916000805b83821061429857505050505090565b9091929394853560018060a01b038116809103610ab6578152830194830193929160010190614289565b9190811015613f385760051b0190565b356001600160a01b0381168103610de15790565b51906001600160a01b0382168203610de157565b9080601f83011215610de1576040519161431383613fdf565b82906101e08101928311610de157905b8282106143305750505090565b8151815260209182019101614323565b51908115158203610de157565b6001546040805163bff1f9e160e01b81526001600160a01b0390921692909160208082600481885afa91821561447d5760009261444e575b5083516317e0695f60e21b8152948186600481845afa95861561444357600096614414575b50908060049286519384809263966eab1160e01b82525afa94851561440a57506000946143d9575b5050929190565b8181959293953d8311614403575b6143f1818361404e565b810103126103a05750519138806143d2565b503d6143e7565b513d6000823e3d90fd5b90958282813d831161443c575b61442b818361404e565b810103126103a057505194816143aa565b503d614421565b85513d6000823e3d90fd5b90918282813d8311614476575b614465818361404e565b810103126103a05750519038614385565b503d61445b565b84513d6000823e3d90fd5b60409081519161449783614017565b600083815b608081106144aa5750505050565b60209084516144b881613fa9565b8481528483820152818401520161449c565b90600f811015613f385760051b0190565b906004811015613f385760051b0190565b9190826040910312610de1576020825192015190565b6020908181840312610de1578051906001600160401b038211610de157019180601f84011215610de15782516145378161406f565b93614545604051958661404e565b818552838086019260051b820101928311610de1578301905b82821061456c575050505090565b838091614578846142e6565b81520191019061455e56fea264697066735822122025b97929ee0562ba91d3f44dc68dd8570d9a71db71a8e3594c5ea79167b6f84464736f6c63430008140033",
  "linkReferences": {},
  "deployedLinkReferences": {}
}