{
  "_format": "hh-sol-artifact-1",
  "contractName": "TRKTreasury",
  "sourceName": "contracts/TRKTreasury.sol",
  "abi": [
    {
      "inputs": [
        {
          "internalType": "address",
          "name": "_usdtToken",
          "type": "address"
        },
        {
          "internalType": "address",
          "name": "_registry",
          "type": "address"
        },
        {
          "internalType": "address",
          "name": "_creatorWallet",
          "type": "address"
        },
        {
          "internalType": "address",
          "name": "_fewWallet",
          "type": "address"
        },
        {
          "internalType": "address[24]",
          "name": "_bdWallets",
          "type": "address[24]"
        }
      ],
      "stateMutability": "nonpayable",
      "type": "constructor"
    },
    {
      "inputs": [
        {
          "internalType": "address",
          "name": "owner",
          "type": "address"
        }
      ],
      "name": "OwnableInvalidOwner",
      "type": "error"
    },
    {
      "inputs": [
        {
          "internalType": "address",
          "name": "account",
          "type": "address"
        }
      ],
      "name": "OwnableUnauthorizedAccount",
      "type": "error"
    },
    {
      "inputs": [],
      "name": "ReentrancyGuardReentrantCall",
      "type": "error"
    },
    {
      "anonymous": false,
      "inputs": [
        {
          "indexed": true,
          "internalType": "address",
          "name": "user",
          "type": "address"
        },
        {
          "indexed": false,
          "internalType": "uint256",
          "name": "amount",
          "type": "uint256"
        },
        {
          "indexed": false,
          "internalType": "uint256",
          "name": "creditedToCash",
          "type": "uint256"
        },
        {
          "indexed": false,
          "internalType": "uint256",
          "name": "timestamp",
          "type": "uint256"
        }
      ],
      "name": "Deposit",
      "type": "event"
    },
    {
      "anonymous": false,
      "inputs": [
        {
          "indexed": true,
          "internalType": "address",
          "name": "previousOwner",
          "type": "address"
        },
        {
          "indexed": true,
          "internalType": "address",
          "name": "newOwner",
          "type": "address"
        }
      ],
      "name": "OwnershipTransferred",
      "type": "event"
    },
    {
      "anonymous": false,
      "inputs": [
        {
          "indexed": true,
          "internalType": "address",
          "name": "user",
          "type": "address"
        },
        {
          "indexed": false,
          "internalType": "uint256",
          "name": "totalRequested",
          "type": "uint256"
        },
        {
          "indexed": false,
          "internalType": "uint256",
          "name": "fee",
          "type": "uint256"
        },
        {
          "indexed": false,
          "internalType": "uint256",
          "name": "amountSent",
          "type": "uint256"
        },
        {
          "indexed": false,
          "internalType": "uint256",
          "name": "timestamp",
          "type": "uint256"
        }
      ],
      "name": "Withdraw",
      "type": "event"
    },
    {
      "inputs": [],
      "name": "basicActivation",
      "outputs": [
        {
          "internalType": "uint256",
          "name": "",
          "type": "uint256"
        }
      ],
      "stateMutability": "view",
      "type": "function"
    },
    {
      "inputs": [],
      "name": "bdP",
      "outputs": [
        {
          "internalType": "uint256",
          "name": "",
          "type": "uint256"
        }
      ],
      "stateMutability": "view",
      "type": "function"
    },
    {
      "inputs": [
        {
          "internalType": "uint256",
          "name": "",
          "type": "uint256"
        }
      ],
      "name": "bdWallets",
      "outputs": [
        {
          "internalType": "address",
          "name": "",
          "type": "address"
        }
      ],
      "stateMutability": "view",
      "type": "function"
    },
    {
      "inputs": [],
      "name": "cashbackEngine",
      "outputs": [
        {
          "internalType": "address",
          "name": "",
          "type": "address"
        }
      ],
      "stateMutability": "view",
      "type": "function"
    },
    {
      "inputs": [],
      "name": "clubP",
      "outputs": [
        {
          "internalType": "uint256",
          "name": "",
          "type": "uint256"
        }
      ],
      "stateMutability": "view",
      "type": "function"
    },
    {
      "inputs": [],
      "name": "clubPoolBalance",
      "outputs": [
        {
          "internalType": "uint256",
          "name": "",
          "type": "uint256"
        }
      ],
      "stateMutability": "view",
      "type": "function"
    },
    {
      "inputs": [],
      "name": "creatorP",
      "outputs": [
        {
          "internalType": "uint256",
          "name": "",
          "type": "uint256"
        }
      ],
      "stateMutability": "view",
      "type": "function"
    },
    {
      "inputs": [],
      "name": "creatorWallet",
      "outputs": [
        {
          "internalType": "address",
          "name": "",
          "type": "address"
        }
      ],
      "stateMutability": "view",
      "type": "function"
    },
    {
      "inputs": [
        {
          "internalType": "uint256",
          "name": "amount",
          "type": "uint256"
        }
      ],
      "name": "deductClubPool",
      "outputs": [],
      "stateMutability": "nonpayable",
      "type": "function"
    },
    {
      "inputs": [
        {
          "internalType": "uint256",
          "name": "amount",
          "type": "uint256"
        },
        {
          "internalType": "uint8",
          "name": "drawType",
          "type": "uint8"
        }
      ],
      "name": "deductLuckyPool",
      "outputs": [],
      "stateMutability": "nonpayable",
      "type": "function"
    },
    {
      "inputs": [
        {
          "internalType": "uint256",
          "name": "amount",
          "type": "uint256"
        }
      ],
      "name": "deductProtectionPool",
      "outputs": [],
      "stateMutability": "nonpayable",
      "type": "function"
    },
    {
      "inputs": [
        {
          "internalType": "address",
          "name": "user",
          "type": "address"
        },
        {
          "internalType": "uint256",
          "name": "amount",
          "type": "uint256"
        }
      ],
      "name": "deposit",
      "outputs": [],
      "stateMutability": "nonpayable",
      "type": "function"
    },
    {
      "inputs": [
        {
          "internalType": "uint256",
          "name": "amount",
          "type": "uint256"
        },
        {
          "internalType": "uint8",
          "name": "drawType",
          "type": "uint8"
        }
      ],
      "name": "distributeLuckyDrawFunds",
      "outputs": [],
      "stateMutability": "nonpayable",
      "type": "function"
    },
    {
      "inputs": [],
      "name": "fewP",
      "outputs": [
        {
          "internalType": "uint256",
          "name": "",
          "type": "uint256"
        }
      ],
      "stateMutability": "view",
      "type": "function"
    },
    {
      "inputs": [],
      "name": "fewWallet",
      "outputs": [
        {
          "internalType": "address",
          "name": "",
          "type": "address"
        }
      ],
      "stateMutability": "view",
      "type": "function"
    },
    {
      "inputs": [],
      "name": "gamePoolBalance",
      "outputs": [
        {
          "internalType": "uint256",
          "name": "",
          "type": "uint256"
        }
      ],
      "stateMutability": "view",
      "type": "function"
    },
    {
      "inputs": [],
      "name": "getWallets",
      "outputs": [
        {
          "internalType": "address",
          "name": "creator",
          "type": "address"
        },
        {
          "internalType": "address",
          "name": "few",
          "type": "address"
        },
        {
          "internalType": "address[24]",
          "name": "bd",
          "type": "address[24]"
        }
      ],
      "stateMutability": "view",
      "type": "function"
    },
    {
      "inputs": [],
      "name": "goldenDrawBalance",
      "outputs": [
        {
          "internalType": "uint256",
          "name": "",
          "type": "uint256"
        }
      ],
      "stateMutability": "view",
      "type": "function"
    },
    {
      "inputs": [
        {
          "internalType": "address",
          "name": "",
          "type": "address"
        }
      ],
      "name": "lastWithdrawalDay",
      "outputs": [
        {
          "internalType": "uint256",
          "name": "",
          "type": "uint256"
        }
      ],
      "stateMutability": "view",
      "type": "function"
    },
    {
      "inputs": [],
      "name": "luckyDraw",
      "outputs": [
        {
          "internalType": "address",
          "name": "",
          "type": "address"
        }
      ],
      "stateMutability": "view",
      "type": "function"
    },
    {
      "inputs": [
        {
          "internalType": "uint8",
          "name": "drawType",
          "type": "uint8"
        }
      ],
      "name": "luckyDrawBalance",
      "outputs": [
        {
          "internalType": "uint256",
          "name": "",
          "type": "uint256"
        }
      ],
      "stateMutability": "view",
      "type": "function"
    },
    {
      "inputs": [],
      "name": "luckyP",
      "outputs": [
        {
          "internalType": "uint256",
          "name": "",
          "type": "uint256"
        }
      ],
      "stateMutability": "view",
      "type": "function"
    },
    {
      "inputs": [],
      "name": "maxDailyWithdrawal",
      "outputs": [
        {
          "internalType": "uint256",
          "name": "",
          "type": "uint256"
        }
      ],
      "stateMutability": "view",
      "type": "function"
    },
    {
      "inputs": [],
      "name": "minActivation",
      "outputs": [
        {
          "internalType": "uint256",
          "name": "",
          "type": "uint256"
        }
      ],
      "stateMutability": "view",
      "type": "function"
    },
    {
      "inputs": [],
      "name": "minWithdrawal",
      "outputs": [
        {
          "internalType": "uint256",
          "name": "",
          "type": "uint256"
        }
      ],
      "stateMutability": "view",
      "type": "function"
    },
    {
      "inputs": [],
      "name": "owner",
      "outputs": [
        {
          "internalType": "address",
          "name": "",
          "type": "address"
        }
      ],
      "stateMutability": "view",
      "type": "function"
    },
    {
      "inputs": [],
      "name": "proActivation",
      "outputs": [
        {
          "internalType": "uint256",
          "name": "",
          "type": "uint256"
        }
      ],
      "stateMutability": "view",
      "type": "function"
    },
    {
      "inputs": [],
      "name": "protectP",
      "outputs": [
        {
          "internalType": "uint256",
          "name": "",
          "type": "uint256"
        }
      ],
      "stateMutability": "view",
      "type": "function"
    },
    {
      "inputs": [],
      "name": "protectionPoolBalance",
      "outputs": [
        {
          "internalType": "uint256",
          "name": "",
          "type": "uint256"
        }
      ],
      "stateMutability": "view",
      "type": "function"
    },
    {
      "inputs": [],
      "name": "refP",
      "outputs": [
        {
          "internalType": "uint256",
          "name": "",
          "type": "uint256"
        }
      ],
      "stateMutability": "view",
      "type": "function"
    },
    {
      "inputs": [
        {
          "internalType": "uint256",
          "name": "",
          "type": "uint256"
        }
      ],
      "name": "referralPercents",
      "outputs": [
        {
          "internalType": "uint256",
          "name": "",
          "type": "uint256"
        }
      ],
      "stateMutability": "view",
      "type": "function"
    },
    {
      "inputs": [],
      "name": "registry",
      "outputs": [
        {
          "internalType": "contract ITRKRegistry",
          "name": "",
          "type": "address"
        }
      ],
      "stateMutability": "view",
      "type": "function"
    },
    {
      "inputs": [],
      "name": "renounceOwnership",
      "outputs": [],
      "stateMutability": "nonpayable",
      "type": "function"
    },
    {
      "inputs": [],
      "name": "router",
      "outputs": [
        {
          "internalType": "address",
          "name": "",
          "type": "address"
        }
      ],
      "stateMutability": "view",
      "type": "function"
    },
    {
      "inputs": [
        {
          "internalType": "address",
          "name": "_router",
          "type": "address"
        },
        {
          "internalType": "address",
          "name": "_cashbackEngine",
          "type": "address"
        },
        {
          "internalType": "address",
          "name": "_luckyDraw",
          "type": "address"
        }
      ],
      "name": "setAddresses",
      "outputs": [],
      "stateMutability": "nonpayable",
      "type": "function"
    },
    {
      "inputs": [
        {
          "internalType": "uint256",
          "name": "_creator",
          "type": "uint256"
        },
        {
          "internalType": "uint256",
          "name": "_bd",
          "type": "uint256"
        },
        {
          "internalType": "uint256",
          "name": "_few",
          "type": "uint256"
        },
        {
          "internalType": "uint256",
          "name": "_ref",
          "type": "uint256"
        },
        {
          "internalType": "uint256",
          "name": "_club",
          "type": "uint256"
        },
        {
          "internalType": "uint256",
          "name": "_lucky",
          "type": "uint256"
        },
        {
          "internalType": "uint256",
          "name": "_protect",
          "type": "uint256"
        }
      ],
      "name": "setDistributions",
      "outputs": [],
      "stateMutability": "nonpayable",
      "type": "function"
    },
    {
      "inputs": [
        {
          "internalType": "uint256[15]",
          "name": "_percents",
          "type": "uint256[15]"
        }
      ],
      "name": "setReferralPercents",
      "outputs": [],
      "stateMutability": "nonpayable",
      "type": "function"
    },
    {
      "inputs": [
        {
          "internalType": "address",
          "name": "_router",
          "type": "address"
        }
      ],
      "name": "setRouter",
      "outputs": [],
      "stateMutability": "nonpayable",
      "type": "function"
    },
    {
      "inputs": [
        {
          "internalType": "uint256",
          "name": "_minActivation",
          "type": "uint256"
        },
        {
          "internalType": "uint256",
          "name": "_minWithdrawal",
          "type": "uint256"
        },
        {
          "internalType": "uint256",
          "name": "_maxDailyWithdrawal",
          "type": "uint256"
        },
        {
          "internalType": "uint256",
          "name": "_withdrawFee",
          "type": "uint256"
        }
      ],
      "name": "setTreasurySettings",
      "outputs": [],
      "stateMutability": "nonpayable",
      "type": "function"
    },
    {
      "inputs": [],
      "name": "silverDrawBalance",
      "outputs": [
        {
          "internalType": "uint256",
          "name": "",
          "type": "uint256"
        }
      ],
      "stateMutability": "view",
      "type": "function"
    },
    {
      "inputs": [],
      "name": "totalBDVolume",
      "outputs": [
        {
          "internalType": "uint256",
          "name": "",
          "type": "uint256"
        }
      ],
      "stateMutability": "view",
      "type": "function"
    },
    {
      "inputs": [],
      "name": "totalCreatorVolume",
      "outputs": [
        {
          "internalType": "uint256",
          "name": "",
          "type": "uint256"
        }
      ],
      "stateMutability": "view",
      "type": "function"
    },
    {
      "inputs": [],
      "name": "totalFEWVolume",
      "outputs": [
        {
          "internalType": "uint256",
          "name": "",
          "type": "uint256"
        }
      ],
      "stateMutability": "view",
      "type": "function"
    },
    {
      "inputs": [],
      "name": "totalReferralVolume",
      "outputs": [
        {
          "internalType": "uint256",
          "name": "",
          "type": "uint256"
        }
      ],
      "stateMutability": "view",
      "type": "function"
    },
    {
      "inputs": [
        {
          "internalType": "address",
          "name": "newOwner",
          "type": "address"
        }
      ],
      "name": "transferOwnership",
      "outputs": [],
      "stateMutability": "nonpayable",
      "type": "function"
    },
    {
      "inputs": [
        {
          "internalType": "address",
          "name": "_creator",
          "type": "address"
        },
        {
          "internalType": "address",
          "name": "_few",
          "type": "address"
        },
        {
          "internalType": "address[]",
          "name": "_bd",
          "type": "address[]"
        }
      ],
      "name": "updateWallets",
      "outputs": [],
      "stateMutability": "nonpayable",
      "type": "function"
    },
    {
      "inputs": [],
      "name": "usdtToken",
      "outputs": [
        {
          "internalType": "contract IERC20",
          "name": "",
          "type": "address"
        }
      ],
      "stateMutability": "view",
      "type": "function"
    },
    {
      "inputs": [
        {
          "internalType": "address",
          "name": "user",
          "type": "address"
        },
        {
          "internalType": "uint256",
          "name": "amount",
          "type": "uint256"
        }
      ],
      "name": "withdraw",
      "outputs": [],
      "stateMutability": "nonpayable",
      "type": "function"
    },
    {
      "inputs": [],
      "name": "withdrawFee",
      "outputs": [
        {
          "internalType": "uint256",
          "name": "",
          "type": "uint256"
        }
      ],
      "stateMutability": "view",
      "type": "function"
    },
    {
      "inputs": [
        {
          "internalType": "address",
          "name": "",
          "type": "address"
        }
      ],
      "name": "withdrawnToday",
      "outputs": [
        {
          "internalType": "uint256",
          "name": "",
          "type": "uint256"
        }
      ],
      "stateMutability": "view",
      "type": "function"
    }
  ],
  "bytecode": "0x608034620002d257601f62002fab38819003918201601f1916830192916001600160401b039182851184861017620002d757819060409586528439820190610380908184840312620002d2576200005684620002ed565b9360209062000067828201620002ed565b62000074888301620002ed565b956200008360608401620002ed565b9581609f85011215620002d257895193610300850185811088821117620002d7578b5284918101928311620002d2576080869101915b838310620002b7575050505033156200029f57600080546001600160a01b03198082163390811784556001600160a01b0399939891949193928a167f8be0079c531659141344cd1fd0a4f28419497f9722a3daafe3b4186f6b6457e08a80a36001998a8055670de0b6b3a76400008755678ac7230489e8000060215568056bc75e2d63100000602255674563918244f4000060235569010f0cf064dd59200000602455600a602555600260265560056027556005602855600f8060295560089889602a556002602b55600a602c558d51906101e0820190828210908211176200028b579060648f8e98979695949381526101f4835260c88c840152820152606460608201526064608082015260328060a08301528060c08301528060e08301528061010083015280610120830152806101408301528061016083015280610180830152806101a08301526101c08201528d8c5b83811062000274575050505084929183809216876002541617600255168560035416176003551683600654161760065516906007541617600755925b6018811062000260578651612ca89081620003038239f35b835185168382015592810192850162000248565b8251602d8201558e9850918b01918f91016200020c565b634e487b7160e01b8c52604160045260248cfd5b8751631e4fbdf760e01b815260006004820152602490fd5b8190620002c484620002ed565b8152019101908590620000b9565b600080fd5b634e487b7160e01b600052604160045260246000fd5b51906001600160a01b0382168203620002d25756fe608080604052600436101561001357600080fd5b600090813560e01c908163032679971461270d575080630ad57b34146126d45780630e72460a146126b6578063129a7373146125ab57806315bb68db1461258d578063160b4afd146125705780633021d80914612552578063363bf964146124e45780633dedc77d146124bb57806341cf934d1461249d57806347e7ef24146115025780634baa61aa146114e45780635ab2e692146114c65780635b849b5f146114a8578063654573631461148a5780636d78ce42146113395780636f3744fb14611300578063715018a6146112a657806377b160fa1461125f5780637b103999146112365780637cdc65f21461120d5780637d34f602146111705780637f4f52f9146111525780638199ce981461113457806385ee7c5914611116578063865af962146110f85780638da5cb5b146110d1578063963920a3146110a457806397ca2f95146110865780639ac27dd3146110685780639e042c5014610f8d578063a98ad46c14610f64578063aebdfef714610f46578063b87d1bc514610f28578063c0d7865514610ee8578063cb06cb3014610eb1578063cf9c2e4114610e88578063d0ae519214610e5f578063d56b43b11461096f578063db7a4605146108c6578063dc3c3697146108a8578063ddf45c2314610847578063df4ebb0b146107e8578063e271a5ec146107ca578063e941fa78146107ac578063eeff352214610750578063f2fde38b146106c5578063f3fef3a314610290578063f887ea40146102675763f9abb1f11461024757600080fd5b346102645780600319360112610264576020602354604051908152f35b80fd5b50346102645780600319360112610264576004546040516001600160a01b039091168152602090f35b5034610264576040366003190112610264576102aa612729565b6004546001600160a01b039060248035916102c890841633146127fd565b6102d0612b8c565b60235482106106815782600354169360405163543a185d60e11b815280858316968760048301528185610aa09384935afa80156106765785926060928a92610649575b5050015110610605576201518042049385875260209460468652806040892054106105ec575b506045855261034c846040892054612bcd565b83541061059d576064610361602554866127d4565b04918761036e8487612bda565b948882526045885260408220610385888254612bcd565b90558360035416803b1561059957879160c48b8580946040519687958694637d36599f60e11b865260048601528401528160448401528160648401528160848401528160a48401525af1801561058e5761057a575b5050816003541690813b156105765760405163d9a3af6560e01b81526001600160a01b0382166004820152602481018790529189908390604490829084905af19089821561056a578893879361054a575b50506104779361043d86603c54612bcd565b603c5560025416908a60405180968195829463a9059cbb60e01b84526004840160209093929193604081019460018060a01b031681520152565b03925af190811561053f5787916104d6575b50907fe08737ac48a1dab4b1a46c7dc9398bd5bfc6d7ad6fabb7cd8caa254de14def35946104ba60809594936128bc565b6040519384528301526040820152426060820152a26001805580f35b93929190508484813d8311610538575b6104f0818361288d565b81010312610534577fe08737ac48a1dab4b1a46c7dc9398bd5bfc6d7ad6fabb7cd8caa254de14def35946104ba6105286080966128af565b92939495505094610489565b8680fd5b503d6104e6565b6040513d89823e3d90fd5b909250610558919350612846565b61056657838691893861042b565b8780fd5b604051903d90823e3d90fd5b8880fd5b61058390612846565b6105665787386103da565b6040513d84823e3d90fd5b8280fd5b60405162461bcd60e51b8152600481018690526022818501527f4d6178696d756d207769746864726177616c2070657220646179207265616368604482015261195960f21b6064820152608490fd5b6045865287604081205560468652604088205538610339565b60405162461bcd60e51b815260206004820152601b818401527f496e73756666696369656e742077616c6c65742062616c616e636500000000006044820152606490fd5b6106689250803d1061066f575b610660818361288d565b810190612956565b3880610313565b503d610656565b6040513d8a823e3d90fd5b60649060186040519162461bcd60e51b8352602060048401528201527f4d696e696d756d205553445420746f20776974686472617700000000000000006044820152fd5b5034610264576020366003190112610264576106df612729565b6106e7612765565b6001600160a01b0390811690811561073757600054826001600160601b0360a01b821617600055167f8be0079c531659141344cd1fd0a4f28419497f9722a3daafe3b4186f6b6457e0600080a380f35b604051631e4fbdf760e01b815260048101849052602490fd5b503461026457608036600319011261026457805461078390336001600160a01b039182161490811561079e575b50612791565b60043560205560243560235560443560245560643560255580f35b90506004541633143861077d565b50346102645780600319360112610264576020602554604051908152f35b50346102645780600319360112610264576020602254604051908152f35b50346102645760e036600319011261026457805461081a90336001600160a01b039182161490811561079e5750612791565b600435602655602435602755604435602855606435602955608435602a5560a435602b5560c435602c5580f35b5034610264576101e036600319011261026457366101e41161026457805461088390336001600160a01b039182161490811561079e5750612791565b6004815b600f8110610893578280f35b6001906020833593019281602d015501610887565b50346102645780600319360112610264576020603e54604051908152f35b50346102645780600319360112610264576103006040516108e681612870565b3690376006546007546040516001600160a01b03928316939183169190600882825b60188210610957575050509061091d82612870565b60405194855260209283860152604085019190915b601883106109405761034086f35b838060019287855116815201920192019190610932565b60016020819289865416815201930191019091610908565b5034610264576040366003190112610264576004359061098d612755565b6004546001600160a01b0390811633148015610e52575b8015610e45575b8015610e39575b6109bb90612c35565b6046840290841592858304604614841715610e2557606480930490600a8702878104600a14861715610e11578490049460058802908882046005141715610e1157600160ff610a24899a610a1f8a610a1f81610a1f8d9e9f9d8c9a049b8c96612bda565b612bda565b931603610dfd57610a3790603e54612bcd565b603e555b610a4786603c54612bcd565b603c5580610ce0575b5080610ba9575b5083610a61575080f35b601880940492825b858110610a765750505080f35b600881015460025460405163a9059cbb60e01b81529185166001600160a01b03811660048401526024830188905291906020908190839060449082908b908b165af1801561053f57610b75575b5050836003541690813b15610b71578590604051928391631a0e0a9560e31b835260048301528860248301526080604483015260116084830152704c75636b7920447261772042442046656560781b60a483015260c086830152818381610b2c60c48201612baf565b03925af1908115610b66578591610b4e575b5050610b4990612837565b610a69565b610b5790612846565b610b62578338610b3e565b8380fd5b6040513d87823e3d90fd5b8580fd5b81813d8311610ba2575b610b89818361288d565b81010312610b7157610b9a906128af565b503880610ac3565b503d610b7f565b60025460075460405163a9059cbb60e01b81529084166001600160a01b031660048201526024810183905290602090829085168187816044810103925af18015610cd557610c9d575b5081600354168260075416813b15610c99578491604051938492631a0e0a9560e31b8452600484015260248301526080604483015260126084830152714c75636b792044726177204645572046656560701b60a483015260c087830152818381610c5e60c48201612baf565b03925af1908115610c8e578391610c76575b50610a57565b610c7f90612846565b610c8a578138610c70565b5080fd5b6040513d85823e3d90fd5b8480fd5b6020813d8211610ccd575b81610cb56020938361288d565b81010312610b6257610cc6906128af565b5038610bf2565b3d9150610ca8565b6040513d86823e3d90fd5b60025460065460405163a9059cbb60e01b81529085166001600160a01b031660048201526024810183905290602090829086168188816044810103925af18015610b6657610dc5575b5082600354168360065416813b15610b71578591604051938492631a0e0a9560e31b8452600484015260248301526080604483015260166084830152754c75636b7920447261772043726561746f722046656560501b60a483015260c088830152818381610d9960c48201612baf565b03925af1908115610cd5578491610db1575b50610a50565b610dba90612846565b610599578238610dab565b6020813d8211610df5575b81610ddd6020938361288d565b81010312610c9957610dee906128af565b5038610d29565b3d9150610dd0565b610e0990603f54612bcd565b603f55610a3b565b634e487b7160e01b87526011600452602487fd5b634e487b7160e01b85526011600452602485fd5b508254811633146109b2565b50806047541633146109ab565b50806005541633146109a4565b50346102645780600319360112610264576007546040516001600160a01b039091168152602090f35b50346102645780600319360112610264576047546040516001600160a01b039091168152602090f35b5034610264576020366003190112610264576004356018811015610c8a57600801546040516001600160a01b039091168152602090f35b503461026457602036600319011261026457610f02612729565b610f0a612765565b60018060a01b03166001600160601b0360a01b600454161760045580f35b50346102645780600319360112610264576020602454604051908152f35b50346102645780600319360112610264576020604454604051908152f35b50346102645780600319360112610264576002546040516001600160a01b039091168152602090f35b503461026457602036600319011261026457600435610fcf60018060a01b0380600454163314908115611059575b811561104a575b811561103d575b50612c35565b60405490808210610fe957610fe391612bda565b60405580f35b60405162461bcd60e51b815260206004820152602660248201527f496e73756666696369656e742050726f74656374696f6e20506f6f6c206c697160448201526575696469747960d01b6064820152608490fd5b9050835416331438610fc9565b80915060475416331490610fc2565b80915060055416331490610fbb565b50346102645780600319360112610264576020603c54604051908152f35b50346102645780600319360112610264576020604354604051908152f35b503461026457602036600319011261026457600435600f811015610c8a57602090602d0154604051908152f35b5034610264578060031936011261026457546040516001600160a01b039091168152602090f35b50346102645780600319360112610264576020602154604051908152f35b50346102645780600319360112610264576020602a54604051908152f35b50346102645780600319360112610264576020602754604051908152f35b50346102645780600319360112610264576020603d54604051908152f35b5034610264576020366003190112610264576004356111af60018060a01b038060045416331490811561105957811561104a57811561103d5750612c35565b603d54908082106111c9576111c391612bda565b603d5580f35b606460405162461bcd60e51b815260206004820152602060248201527f496e73756666696369656e7420436c756220506f6f6c206c69717569646974796044820152fd5b50346102645780600319360112610264576006546040516001600160a01b039091168152602090f35b50346102645780600319360112610264576003546040516001600160a01b039091168152602090f35b50346102645760203660031901126102645760043560ff81168091036112a157600114159050611297576020603e545b604051908152f35b6020603f5461128f565b600080fd5b50346102645780600319360112610264576112bf612765565b600080546001600160a01b0319811682556001600160a01b03167f8be0079c531659141344cd1fd0a4f28419497f9722a3daafe3b4186f6b6457e08280a380f35b5034610264576020366003190112610264576020906040906001600160a01b03611328612729565b168152604683522054604051908152f35b503461026457604036600319011261026457600435600160ff61135a612755565b611385838060a01b038060045416331490811561147b575b811561146c575b811561145f5750612c35565b16036113f557603e54908082106113a55761139f91612bda565b603e5580f35b60405162461bcd60e51b815260206004820152602260248201527f496e73756666696369656e7420476f6c64656e20506f6f6c206c697175696469604482015261747960f01b6064820152608490fd5b603f549080821061140f5761140991612bda565b603f5580f35b60405162461bcd60e51b815260206004820152602260248201527f496e73756666696369656e742053696c76657220506f6f6c206c697175696469604482015261747960f01b6064820152608490fd5b9050865416331438610fc9565b80915060475416331490611379565b80915060055416331490611372565b50346102645780600319360112610264576020602654604051908152f35b50346102645780600319360112610264576020604054604051908152f35b50346102645780600319360112610264576020603f54604051908152f35b50346102645780600319360112610264576020602c54604051908152f35b50346102645760403660031901126102645761151c612729565b9061153260018060a01b036004541633146127fd565b61153a612b8c565b60205460243510612459576002546040516323b872dd60e01b81526001600160a01b038481166004830152306024808401919091523560448301529091602091839160649183918791165af1801561058e57829061241e575b61159d91506128bc565b6003546001600160a01b0316803b15610c8a5760405163198135db60e11b81526001600160a01b038416600482015260248035908201529082908290604490829084905af1801561058e5761240f575b5060035460405163543a185d60e11b81526001600160a01b0380851660048301529293929091610aa09183916024918391165afa908115610c8e5783916123ee575b506020015182906001600160a01b03165b6001600160a01b0381161515806123e4575b1561173a5760035484906001600160a01b0316803b15610c8a5760405163a0faeeab60e01b81526001600160a01b038416600482015260248035908201529082908290604490829084905af1801561058e57611726575b505060035460405163543a185d60e11b81526001600160a01b03928316600482015291610aa09183916024918391165afa8015610cd5576116ff918591611705575b50602001516001600160a01b031691612837565b90611640565b6117209150610aa03d610aa01161066f57610660818361288d565b386116eb565b61172f90612846565b610b625783386116a9565b5050606461174c6026546024356127d4565b60025460065460405163a9059cbb60e01b81526001600160a01b03918216600482015293909204602484018190529291602091839160449183918991165af18015610cd5576123ab575b5060035460065484916001600160a01b039081169116813b15610599578290604051928391631a0e0a9560e31b8352600483015285602483015260806044830152600b60848301526a43726561746f722046656560a81b60a483015260c0606483015281838161180860c48201612baf565b03925af1801561058e57612397575b50508061182961183492604154612bcd565b604155602435612bda565b60646118446027546024356127d4565b0490835b6018811061226557509061186a9161186282604254612bcd565b604255612bda565b606461187a6028546024356127d4565b60025460075460405163a9059cbb60e01b81526001600160a01b03918216600482015293909204602484018190529291602091839160449183918a91165af18015610b665761222c575b5060035460075485916001600160a01b039081169116813b15610599578290604051928391631a0e0a9560e31b835260048301528560248301526080604483015260076084830152664645572046656560c81b60a483015260c0606483015281838161193260c48201612baf565b03925af1801561058e57612218575b505061195b9161195382604354612bcd565b604355612bda565b60035460405163543a185d60e11b81526001600160a01b0384811660048301529091610aa09183916024918391165afa908115610cd55784916121f7575b5060200151839081906001600160a01b03165b600f86109081806121e5575b15611bb65760035460405163543a185d60e11b81526001600160a01b0383811660048301529093911690610aa084602481855afa938415610b66578594611b93575b50604084015162278d008101809111611b7f57421180611b6f575b611b585784610100850151602154811015611b18575b506103c085015115159081611b10575b50611a64575b505050602001516001600160a01b031694611a5b90612837565b935b93946119ac565b9491929415611afc57612710611a8089602d01546024356127d4565b0492813b15610c99576040516313b3b40760e31b81526001600160a01b03909116600482015260248101849052604481018990529084908290606490829084905af18015610cd557908491611ae8575b5050611a5b91611adf91612bcd565b92903880611a41565b611af190612846565b610599578238611ad0565b634e487b7160e01b84526032600452602484fd5b905038611a3b565b60038b1015611b2c57505060015b38611a2b565b60225411611b2657600a808b10611b51575b61040086015110611b2657506001611b26565b5089611b3e565b505050602001516001600160a01b03169493611a5d565b5061010084015160215411611a15565b634e487b7160e01b86526011600452602486fd5b611baf919450610aa03d610aa01161066f57610660818361288d565b92386119fa565b50509350611bd5816064611bce6029546024356127d4565b0493612bda565b91818111611dba575b5090611bef611c2592604454612bcd565b6044556064611c1e602a54611c1383611c0a836024356127d4565b04603d54612bcd565b603d556024356127d4565b0490612bda565b60035460405163543a185d60e11b81526001600160a01b03848116600483015290911690610aa081602481855afa908115610b665760ff91610420918791611d99575b50015116846064611c7d602b546024356127d4565b0492803b15610c8a57604051638d6db1c560e01b81526001600160a01b0387166004820152602481018590529082908290604490829084905af1801561058e57611d81575b505090611d1f926001611ceb9314600014611d6d57611ce382603e54612bcd565b603e55612bda565b611d19602c54916064611c1e611d1082611d07876024356127d4565b04603c54612bcd565b946024356127d4565b90612bcd565b603c557f36af321ec8d3c75236829c5317affd40ddb308863a1236d2d277a4025cccee1e6060604051926024358452602435602085015242604085015260018060a01b031692a26001805580f35b611d7982603f54612bcd565b603f55612bda565b611d8d90939293612846565b610c9957908438611cc2565b611db49150610aa03d610aa01161066f57610660818361288d565b38611c68565b81611dc491612bda565b91821583600a810204600a14811715611b7f578360148102046014141715610e2557611e0a60646014850204610a1f60646014870204610a1f6064600a89020488612bda565b6064600a8502046120db575b60646014850204611f74575b60646014850204611e54575b611c2593611bef92611e45611e4d93603d54612bcd565b603d55612bda565b9250611bde565b60025460075460405163a9059cbb60e01b81526001600160a01b03918216600482015260646014880204602482015291602091839160449183918c91165af1801561053f57611f3b575b5060035460075487916001600160a01b039182169116803b1561059957606483916014838a611ee660405197889687958694631a0e0a9560e31b865202049060048401612be7565b03925af1801561058e57611f27575b505083611bef92611e45611e4d93611f1860646014611c259a0204604354612bcd565b60435593505092509350611e2e565b611f3090612846565b610b71578538611ef5565b6020813d602011611f6c575b81611f546020938361288d565b8101031261053457611f65906128af565b5038611e9e565b3d9150611f47565b855b60188110611f995750611f9160646014860204604254612bcd565b604255611e22565b600254600882015460405163a9059cbb60e01b81526001600160a01b0391821660048201526018606460148a020404602482015291602091839160449183918d91165af18015610676576120a2575b50600354600882015488916001600160a01b039081169116813b15610599578290604051928391631a0e0a9560e31b835260048301526018606460148c0204046024830152608060448301526015608483015274149959995c9c985b0813dd995c9cdc1a5b1b081091605a1b60a483015260c0606483015281838161206f60c48201612baf565b03925af1801561058e5761208e575b505061208990612837565b611f76565b61209790612846565b61053457863861207e565b6020813d6020116120d3575b816120bb6020938361288d565b81010312610566576120cc906128af565b5038611fe8565b3d91506120ae565b60025460065460405163a9059cbb60e01b81526001600160a01b0391821660048201526064600a880204602482015291602091839160449183918c91165af1801561053f576121ac575b5060035460065487916001600160a01b039182169116803b156105995760648391600a838a61216d60405197889687958694631a0e0a9560e31b865202049060048401612be7565b03925af1801561058e57612198575b50506121906064600a860204604154612bcd565b604155611e16565b6121a190612846565b610b7157853861217c565b6020813d6020116121dd575b816121c56020938361288d565b81010312610534576121d6906128af565b5038612125565b3d91506121b8565b506001600160a01b03811615156119b8565b6122129150610aa03d610aa01161066f57610660818361288d565b38611999565b61222190612846565b610b62578338611941565b6020813d60201161225d575b816122456020938361288d565b81010312610c9957612256906128af565b50386118c4565b3d9150612238565b600254600882015460405163a9059cbb60e01b81526001600160a01b03918216600482015260188604602482015291602091839160449183918b91165af1801561238c57612353575b50600354600882015486916001600160a01b039081169116813b15610599578290604051928391631a0e0a9560e31b8352600483015260188804602483015260806044830152600660848301526542442046656560d01b60a483015260c0606483015281838161232060c48201612baf565b03925af1801561058e5761233f575b505061233a90612837565b611848565b61234890612846565b610c9957843861232f565b6020813d602011612384575b8161236c6020938361288d565b81010312610b715761237d906128af565b50386122ae565b3d915061235f565b6040513d88823e3d90fd5b6123a090612846565b610599578238611817565b6020813d6020116123dc575b816123c46020938361288d565b81010312610b62576123d5906128af565b5038611796565b3d91506123b7565b5060148210611652565b6124099150610aa03d610aa01161066f57610660818361288d565b3861162f565b61241890612846565b386115ed565b506020813d602011612451575b816124386020938361288d565b81010312610c8a5761244c61159d916128af565b611593565b3d915061242b565b606460405162461bcd60e51b815260206004820152602060248201527f4d696e205553445420726571756972656420666f722061637469766174696f6e6044820152fd5b50346102645780600319360112610264576020602954604051908152f35b50346102645780600319360112610264576005546040516001600160a01b039091168152602090f35b5034610264576060366003190112610264576124fe612729565b61250661273f565b6001600160a01b03604435818116939290849003610c9957612526612765565b816001600160601b0360a01b931683600454161760045516816005541617600555604754161760475580f35b50346102645780600319360112610264576020604154604051908152f35b503461026457806003193601126102645760208054604051908152f35b50346102645780600319360112610264576020602b54604051908152f35b5034610264576060366003190112610264576125c5612729565b6125cd61273f565b906044359167ffffffffffffffff93848411610264573660238501121561026457836004013594851161026457602494600594368783881b83010111610599576004546001600160a01b0394859161262890831633146127fd565b816001600160601b0360a01b971687600654161760065516856007541617600755825b6018811080806126ad575b156126a95783821015612696578882891b8401013590868216809203610b715715612696579061269191816008019088825416179055612837565b61264b565b634e487b7160e01b855260326004528885fd5b8480f35b50838210612656565b50346102645780600319360112610264576020604254604051908152f35b5034610264576020366003190112610264576020906040906001600160a01b036126fc612729565b168152604583522054604051908152f35b905034610c8a5781600319360112610c8a576020906028548152f35b600435906001600160a01b03821682036112a157565b602435906001600160a01b03821682036112a157565b6024359060ff821682036112a157565b6000546001600160a01b0316330361277957565b60405163118cdaa760e01b8152336004820152602490fd5b1561279857565b60405162461bcd60e51b815260206004820152601460248201527327b7363c9037bbb732b91037b9103937baba32b960611b6044820152606490fd5b818102929181159184041417156127e757565b634e487b7160e01b600052601160045260246000fd5b1561280457565b60405162461bcd60e51b815260206004820152600b60248201526a27b7363c903937baba32b960a91b6044820152606490fd5b60001981146127e75760010190565b67ffffffffffffffff811161285a57604052565b634e487b7160e01b600052604160045260246000fd5b610300810190811067ffffffffffffffff82111761285a57604052565b90601f8019910116810190811067ffffffffffffffff82111761285a57604052565b519081151582036112a157565b156128c357565b60405162461bcd60e51b81526020600482015260146024820152731554d11508151c985b9cd9995c8819985a5b195960621b6044820152606490fd5b9080601f830112156112a157604051916101e09081840184811067ffffffffffffffff82111761285a57604052839181019283116112a157905b8282106129465750505090565b8151815260209182019101612939565b919091610aa0818403126112a15760409081519161044083019467ffffffffffffffff958481108782111761285a578252825184526020808401519096906001600160a01b03811681036112a157878601528284015183860152606084015160608601526080840151608086015260a084015160a086015260c084015160c086015260e084015160e086015261010080850151908601526101208085015190860152610140908185015182870152610160808601519087015261018080860151908701526101a080860151908701526101c080860151908701526101e080860151908701526102008086015190870152610220612a55848288016128ff565b9087015261040093612a69848688016128ff565b610240880152612a7d846105e088016128ff565b610260880152836107df870112156112a15780519283019182118383101761285a57528061090085019283116112a1576107c08501905b838210612b7d57505084959650610280610a80950152516102a08501526109208201516102c08501526109408201516102e08501526109608201516103008501526109808201516103208501526109a08201516103408501526109c0820151610360850152612b266109e083016128af565b610380850152612b39610a0083016128af565b6103a0850152612b4c610a2083016128af565b6103c0850152610a408201516103e0850152610a6082015190840152015160ff811681036112a15761042082015290565b81518152908801908801612ab4565b600260015414612b9d576002600155565b604051633ee5aeb560e01b8152600490fd5b600b81526a13585a5b8815d85b1b195d60aa1b602082015260400190565b919082018092116127e757565b919082039182116127e757565b612c329260c09260018060a01b031682526020820152608060408201526012608082015271149959995c9c985b0813dd995c9cdc1a5b1b60721b60a082015281606082015201612baf565b90565b15612c3c57565b60405162461bcd60e51b815260206004820152600e60248201526d139bdd08185d5d1a1bdc9a5e995960921b6044820152606490fdfea2646970667358221220830ee5e482e4f15f098dc22abbeb2209c97778e2a4fd40fdb088a7ad21bf655a64736f6c63430008140033",
  "linkReferences": {},
  "deployedLinkReferences": {}
}