{
  "_format": "hh-sol-artifact-1",
  "contractName": "TRKTreasury",
  "sourceName": "contracts/TRKTreasury.sol",
  "abi": [
    {
      "inputs": [
        {
          "internalType": "address",
          "name": "_usdtToken",
          "type": "address"
        },
        {
          "internalType": "address",
          "name": "_registry",
          "type": "address"
        },
        {
          "internalType": "address",
          "name": "_creatorWallet",
          "type": "address"
        },
        {
          "internalType": "address",
          "name": "_fewWallet",
          "type": "address"
        },
        {
          "internalType": "address[24]",
          "name": "_bdWallets",
          "type": "address[24]"
        }
      ],
      "stateMutability": "nonpayable",
      "type": "constructor"
    },
    {
      "inputs": [
        {
          "internalType": "address",
          "name": "owner",
          "type": "address"
        }
      ],
      "name": "OwnableInvalidOwner",
      "type": "error"
    },
    {
      "inputs": [
        {
          "internalType": "address",
          "name": "account",
          "type": "address"
        }
      ],
      "name": "OwnableUnauthorizedAccount",
      "type": "error"
    },
    {
      "inputs": [],
      "name": "ReentrancyGuardReentrantCall",
      "type": "error"
    },
    {
      "anonymous": false,
      "inputs": [
        {
          "indexed": true,
          "internalType": "address",
          "name": "user",
          "type": "address"
        },
        {
          "indexed": false,
          "internalType": "uint256",
          "name": "amount",
          "type": "uint256"
        },
        {
          "indexed": false,
          "internalType": "uint256",
          "name": "creditedToCash",
          "type": "uint256"
        },
        {
          "indexed": false,
          "internalType": "uint256",
          "name": "timestamp",
          "type": "uint256"
        }
      ],
      "name": "Deposit",
      "type": "event"
    },
    {
      "anonymous": false,
      "inputs": [
        {
          "indexed": true,
          "internalType": "address",
          "name": "previousOwner",
          "type": "address"
        },
        {
          "indexed": true,
          "internalType": "address",
          "name": "newOwner",
          "type": "address"
        }
      ],
      "name": "OwnershipTransferred",
      "type": "event"
    },
    {
      "anonymous": false,
      "inputs": [
        {
          "indexed": true,
          "internalType": "address",
          "name": "user",
          "type": "address"
        },
        {
          "indexed": false,
          "internalType": "uint256",
          "name": "totalRequested",
          "type": "uint256"
        },
        {
          "indexed": false,
          "internalType": "uint256",
          "name": "fee",
          "type": "uint256"
        },
        {
          "indexed": false,
          "internalType": "uint256",
          "name": "amountSent",
          "type": "uint256"
        },
        {
          "indexed": false,
          "internalType": "uint256",
          "name": "timestamp",
          "type": "uint256"
        }
      ],
      "name": "Withdraw",
      "type": "event"
    },
    {
      "inputs": [],
      "name": "basicActivation",
      "outputs": [
        {
          "internalType": "uint256",
          "name": "",
          "type": "uint256"
        }
      ],
      "stateMutability": "view",
      "type": "function"
    },
    {
      "inputs": [],
      "name": "bdP",
      "outputs": [
        {
          "internalType": "uint256",
          "name": "",
          "type": "uint256"
        }
      ],
      "stateMutability": "view",
      "type": "function"
    },
    {
      "inputs": [
        {
          "internalType": "uint256",
          "name": "",
          "type": "uint256"
        }
      ],
      "name": "bdWallets",
      "outputs": [
        {
          "internalType": "address",
          "name": "",
          "type": "address"
        }
      ],
      "stateMutability": "view",
      "type": "function"
    },
    {
      "inputs": [],
      "name": "cashbackEngine",
      "outputs": [
        {
          "internalType": "address",
          "name": "",
          "type": "address"
        }
      ],
      "stateMutability": "view",
      "type": "function"
    },
    {
      "inputs": [],
      "name": "claimClubPool",
      "outputs": [],
      "stateMutability": "nonpayable",
      "type": "function"
    },
    {
      "inputs": [],
      "name": "clubP",
      "outputs": [
        {
          "internalType": "uint256",
          "name": "",
          "type": "uint256"
        }
      ],
      "stateMutability": "view",
      "type": "function"
    },
    {
      "inputs": [],
      "name": "clubPoolBalance",
      "outputs": [
        {
          "internalType": "uint256",
          "name": "",
          "type": "uint256"
        }
      ],
      "stateMutability": "view",
      "type": "function"
    },
    {
      "inputs": [],
      "name": "creatorP",
      "outputs": [
        {
          "internalType": "uint256",
          "name": "",
          "type": "uint256"
        }
      ],
      "stateMutability": "view",
      "type": "function"
    },
    {
      "inputs": [],
      "name": "creatorWallet",
      "outputs": [
        {
          "internalType": "address",
          "name": "",
          "type": "address"
        }
      ],
      "stateMutability": "view",
      "type": "function"
    },
    {
      "inputs": [
        {
          "internalType": "uint256",
          "name": "amount",
          "type": "uint256"
        }
      ],
      "name": "deductClubPool",
      "outputs": [],
      "stateMutability": "nonpayable",
      "type": "function"
    },
    {
      "inputs": [
        {
          "internalType": "uint256",
          "name": "amount",
          "type": "uint256"
        },
        {
          "internalType": "uint8",
          "name": "drawType",
          "type": "uint8"
        }
      ],
      "name": "deductLuckyPool",
      "outputs": [],
      "stateMutability": "nonpayable",
      "type": "function"
    },
    {
      "inputs": [
        {
          "internalType": "uint256",
          "name": "amount",
          "type": "uint256"
        }
      ],
      "name": "deductProtectionPool",
      "outputs": [],
      "stateMutability": "nonpayable",
      "type": "function"
    },
    {
      "inputs": [
        {
          "internalType": "address",
          "name": "user",
          "type": "address"
        },
        {
          "internalType": "uint256",
          "name": "amount",
          "type": "uint256"
        }
      ],
      "name": "deposit",
      "outputs": [],
      "stateMutability": "nonpayable",
      "type": "function"
    },
    {
      "inputs": [
        {
          "internalType": "uint256",
          "name": "amount",
          "type": "uint256"
        },
        {
          "internalType": "uint8",
          "name": "drawType",
          "type": "uint8"
        }
      ],
      "name": "distributeLuckyDrawFunds",
      "outputs": [],
      "stateMutability": "nonpayable",
      "type": "function"
    },
    {
      "inputs": [],
      "name": "fewP",
      "outputs": [
        {
          "internalType": "uint256",
          "name": "",
          "type": "uint256"
        }
      ],
      "stateMutability": "view",
      "type": "function"
    },
    {
      "inputs": [],
      "name": "fewWallet",
      "outputs": [
        {
          "internalType": "address",
          "name": "",
          "type": "address"
        }
      ],
      "stateMutability": "view",
      "type": "function"
    },
    {
      "inputs": [],
      "name": "gamePoolBalance",
      "outputs": [
        {
          "internalType": "uint256",
          "name": "",
          "type": "uint256"
        }
      ],
      "stateMutability": "view",
      "type": "function"
    },
    {
      "inputs": [],
      "name": "getWallets",
      "outputs": [
        {
          "internalType": "address",
          "name": "creator",
          "type": "address"
        },
        {
          "internalType": "address",
          "name": "few",
          "type": "address"
        },
        {
          "internalType": "address[24]",
          "name": "bd",
          "type": "address[24]"
        }
      ],
      "stateMutability": "view",
      "type": "function"
    },
    {
      "inputs": [],
      "name": "goldenDrawBalance",
      "outputs": [
        {
          "internalType": "uint256",
          "name": "",
          "type": "uint256"
        }
      ],
      "stateMutability": "view",
      "type": "function"
    },
    {
      "inputs": [
        {
          "internalType": "address",
          "name": "",
          "type": "address"
        }
      ],
      "name": "lastWithdrawalDay",
      "outputs": [
        {
          "internalType": "uint256",
          "name": "",
          "type": "uint256"
        }
      ],
      "stateMutability": "view",
      "type": "function"
    },
    {
      "inputs": [],
      "name": "luckyDraw",
      "outputs": [
        {
          "internalType": "address",
          "name": "",
          "type": "address"
        }
      ],
      "stateMutability": "view",
      "type": "function"
    },
    {
      "inputs": [
        {
          "internalType": "uint8",
          "name": "drawType",
          "type": "uint8"
        }
      ],
      "name": "luckyDrawBalance",
      "outputs": [
        {
          "internalType": "uint256",
          "name": "",
          "type": "uint256"
        }
      ],
      "stateMutability": "view",
      "type": "function"
    },
    {
      "inputs": [],
      "name": "luckyP",
      "outputs": [
        {
          "internalType": "uint256",
          "name": "",
          "type": "uint256"
        }
      ],
      "stateMutability": "view",
      "type": "function"
    },
    {
      "inputs": [],
      "name": "maxDailyWithdrawal",
      "outputs": [
        {
          "internalType": "uint256",
          "name": "",
          "type": "uint256"
        }
      ],
      "stateMutability": "view",
      "type": "function"
    },
    {
      "inputs": [],
      "name": "minActivation",
      "outputs": [
        {
          "internalType": "uint256",
          "name": "",
          "type": "uint256"
        }
      ],
      "stateMutability": "view",
      "type": "function"
    },
    {
      "inputs": [],
      "name": "minWithdrawal",
      "outputs": [
        {
          "internalType": "uint256",
          "name": "",
          "type": "uint256"
        }
      ],
      "stateMutability": "view",
      "type": "function"
    },
    {
      "inputs": [],
      "name": "owner",
      "outputs": [
        {
          "internalType": "address",
          "name": "",
          "type": "address"
        }
      ],
      "stateMutability": "view",
      "type": "function"
    },
    {
      "inputs": [],
      "name": "proActivation",
      "outputs": [
        {
          "internalType": "uint256",
          "name": "",
          "type": "uint256"
        }
      ],
      "stateMutability": "view",
      "type": "function"
    },
    {
      "inputs": [],
      "name": "protectP",
      "outputs": [
        {
          "internalType": "uint256",
          "name": "",
          "type": "uint256"
        }
      ],
      "stateMutability": "view",
      "type": "function"
    },
    {
      "inputs": [],
      "name": "protectionPoolBalance",
      "outputs": [
        {
          "internalType": "uint256",
          "name": "",
          "type": "uint256"
        }
      ],
      "stateMutability": "view",
      "type": "function"
    },
    {
      "inputs": [],
      "name": "refP",
      "outputs": [
        {
          "internalType": "uint256",
          "name": "",
          "type": "uint256"
        }
      ],
      "stateMutability": "view",
      "type": "function"
    },
    {
      "inputs": [
        {
          "internalType": "uint256",
          "name": "",
          "type": "uint256"
        }
      ],
      "name": "referralPercents",
      "outputs": [
        {
          "internalType": "uint256",
          "name": "",
          "type": "uint256"
        }
      ],
      "stateMutability": "view",
      "type": "function"
    },
    {
      "inputs": [],
      "name": "registry",
      "outputs": [
        {
          "internalType": "contract ITRKRegistry",
          "name": "",
          "type": "address"
        }
      ],
      "stateMutability": "view",
      "type": "function"
    },
    {
      "inputs": [],
      "name": "renounceOwnership",
      "outputs": [],
      "stateMutability": "nonpayable",
      "type": "function"
    },
    {
      "inputs": [],
      "name": "router",
      "outputs": [
        {
          "internalType": "address",
          "name": "",
          "type": "address"
        }
      ],
      "stateMutability": "view",
      "type": "function"
    },
    {
      "inputs": [
        {
          "internalType": "address",
          "name": "_router",
          "type": "address"
        },
        {
          "internalType": "address",
          "name": "_cashbackEngine",
          "type": "address"
        },
        {
          "internalType": "address",
          "name": "_luckyDraw",
          "type": "address"
        }
      ],
      "name": "setAddresses",
      "outputs": [],
      "stateMutability": "nonpayable",
      "type": "function"
    },
    {
      "inputs": [
        {
          "internalType": "uint256",
          "name": "_creator",
          "type": "uint256"
        },
        {
          "internalType": "uint256",
          "name": "_bd",
          "type": "uint256"
        },
        {
          "internalType": "uint256",
          "name": "_few",
          "type": "uint256"
        },
        {
          "internalType": "uint256",
          "name": "_ref",
          "type": "uint256"
        },
        {
          "internalType": "uint256",
          "name": "_club",
          "type": "uint256"
        },
        {
          "internalType": "uint256",
          "name": "_lucky",
          "type": "uint256"
        },
        {
          "internalType": "uint256",
          "name": "_protect",
          "type": "uint256"
        }
      ],
      "name": "setDistributions",
      "outputs": [],
      "stateMutability": "nonpayable",
      "type": "function"
    },
    {
      "inputs": [
        {
          "internalType": "uint256[15]",
          "name": "_percents",
          "type": "uint256[15]"
        }
      ],
      "name": "setReferralPercents",
      "outputs": [],
      "stateMutability": "nonpayable",
      "type": "function"
    },
    {
      "inputs": [
        {
          "internalType": "address",
          "name": "_router",
          "type": "address"
        }
      ],
      "name": "setRouter",
      "outputs": [],
      "stateMutability": "nonpayable",
      "type": "function"
    },
    {
      "inputs": [
        {
          "internalType": "uint256",
          "name": "_minActivation",
          "type": "uint256"
        },
        {
          "internalType": "uint256",
          "name": "_minWithdrawal",
          "type": "uint256"
        },
        {
          "internalType": "uint256",
          "name": "_maxDailyWithdrawal",
          "type": "uint256"
        },
        {
          "internalType": "uint256",
          "name": "_withdrawFee",
          "type": "uint256"
        }
      ],
      "name": "setTreasurySettings",
      "outputs": [],
      "stateMutability": "nonpayable",
      "type": "function"
    },
    {
      "inputs": [],
      "name": "silverDrawBalance",
      "outputs": [
        {
          "internalType": "uint256",
          "name": "",
          "type": "uint256"
        }
      ],
      "stateMutability": "view",
      "type": "function"
    },
    {
      "inputs": [],
      "name": "totalBDVolume",
      "outputs": [
        {
          "internalType": "uint256",
          "name": "",
          "type": "uint256"
        }
      ],
      "stateMutability": "view",
      "type": "function"
    },
    {
      "inputs": [],
      "name": "totalCreatorVolume",
      "outputs": [
        {
          "internalType": "uint256",
          "name": "",
          "type": "uint256"
        }
      ],
      "stateMutability": "view",
      "type": "function"
    },
    {
      "inputs": [],
      "name": "totalFEWVolume",
      "outputs": [
        {
          "internalType": "uint256",
          "name": "",
          "type": "uint256"
        }
      ],
      "stateMutability": "view",
      "type": "function"
    },
    {
      "inputs": [],
      "name": "totalReferralVolume",
      "outputs": [
        {
          "internalType": "uint256",
          "name": "",
          "type": "uint256"
        }
      ],
      "stateMutability": "view",
      "type": "function"
    },
    {
      "inputs": [
        {
          "internalType": "address",
          "name": "newOwner",
          "type": "address"
        }
      ],
      "name": "transferOwnership",
      "outputs": [],
      "stateMutability": "nonpayable",
      "type": "function"
    },
    {
      "inputs": [
        {
          "internalType": "address",
          "name": "_creator",
          "type": "address"
        },
        {
          "internalType": "address",
          "name": "_few",
          "type": "address"
        },
        {
          "internalType": "address[]",
          "name": "_bd",
          "type": "address[]"
        }
      ],
      "name": "updateWallets",
      "outputs": [],
      "stateMutability": "nonpayable",
      "type": "function"
    },
    {
      "inputs": [],
      "name": "usdtToken",
      "outputs": [
        {
          "internalType": "contract IERC20",
          "name": "",
          "type": "address"
        }
      ],
      "stateMutability": "view",
      "type": "function"
    },
    {
      "inputs": [
        {
          "internalType": "address",
          "name": "user",
          "type": "address"
        },
        {
          "internalType": "uint256",
          "name": "amount",
          "type": "uint256"
        }
      ],
      "name": "withdraw",
      "outputs": [],
      "stateMutability": "nonpayable",
      "type": "function"
    },
    {
      "inputs": [],
      "name": "withdrawFee",
      "outputs": [
        {
          "internalType": "uint256",
          "name": "",
          "type": "uint256"
        }
      ],
      "stateMutability": "view",
      "type": "function"
    },
    {
      "inputs": [
        {
          "internalType": "address",
          "name": "",
          "type": "address"
        }
      ],
      "name": "withdrawnToday",
      "outputs": [
        {
          "internalType": "uint256",
          "name": "",
          "type": "uint256"
        }
      ],
      "stateMutability": "view",
      "type": "function"
    }
  ],
  "bytecode": "0x608034620002d257601f620030f538819003918201601f1916830192916001600160401b039182851184861017620002d757819060409586528439820190610380908184840312620002d2576200005684620002ed565b9360209062000067828201620002ed565b62000074888301620002ed565b956200008360608401620002ed565b9581609f85011215620002d257895193610300850185811088821117620002d7578b5284918101928311620002d2576080869101915b838310620002b7575050505033156200029f57600080546001600160a01b03198082163390811784556001600160a01b0399939891949193928a167f8be0079c531659141344cd1fd0a4f28419497f9722a3daafe3b4186f6b6457e08a80a36001998a8055670de0b6b3a76400008755678ac7230489e8000060215568056bc75e2d63100000602255674563918244f4000060235569010f0cf064dd59200000602455600a602555600260265560056027556005602855600f8060295560089889602a556002602b55600a602c558d51906101e0820190828210908211176200028b579060648f8e98979695949381526101f4835260c88c840152820152606460608201526064608082015260328060a08301528060c08301528060e08301528061010083015280610120830152806101408301528061016083015280610180830152806101a08301526101c08201528d8c5b83811062000274575050505084929183809216876002541617600255168560035416176003551683600654161760065516906007541617600755925b6018811062000260578651612df29081620003038239f35b835185168382015592810192850162000248565b8251602d8201558e9850918b01918f91016200020c565b634e487b7160e01b8c52604160045260248cfd5b8751631e4fbdf760e01b815260006004820152602490fd5b8190620002c484620002ed565b8152019101908590620000b9565b600080fd5b634e487b7160e01b600052604160045260246000fd5b51906001600160a01b0382168203620002d25756fe608080604052600436101561001357600080fd5b600090813560e01c9081630326799714612857575080630ad57b341461281e5780630e72460a14612800578063129a7373146126f557806315bb68db146126d7578063160b4afd146126ba5780633021d8091461269c578063363bf9641461262e5780633dedc77d1461260557806341cf934d146125e757806347e7ef241461164c5780634baa61aa1461162e5780635ab2e692146116105780635b849b5f146115f257806365457363146115d45780636d78ce42146114835780636f3744fb1461144a578063715018a6146113f057806377b160fa146113a95780637b103999146113805780637cdc65f2146113575780637d34f602146112ba5780637f4f52f91461129c5780638199ce981461127e57806385ee7c5914611260578063865af962146112425780638da5cb5b1461121b578063963920a3146111ee57806397ca2f95146111d05780639ac27dd3146111b25780639e042c50146110d7578063a98ad46c146110ae578063aebdfef714611090578063b87d1bc514611072578063c0d7865514611032578063cb06cb3014610ffb578063cf9c2e4114610fd2578063d0ae519214610fa9578063d4e1b3bb14610e6a578063d56b43b11461097a578063db7a4605146108d1578063dc3c3697146108b3578063ddf45c2314610852578063df4ebb0b146107f3578063e271a5ec146107d5578063e941fa78146107b7578063eeff35221461075b578063f2fde38b146106d0578063f3fef3a31461029b578063f887ea40146102725763f9abb1f11461025257600080fd5b3461026f578060031936011261026f576020602354604051908152f35b80fd5b503461026f578060031936011261026f576004546040516001600160a01b039091168152602090f35b503461026f57604036600319011261026f576102b5612873565b6004546001600160a01b039060248035916102d39084163314612947565b6102db612cd6565b602354821061068c5782600354169360405163543a185d60e11b815280858316968760048301528185610aa09384935afa80156106815785926060928a92610654575b5050015110610610576201518042049385875260209460468652806040892054106105f7575b5060458552610357846040892054612d17565b8354106105a857606461036c6025548661291e565b0491876103798487612d24565b948882526045885260408220610390888254612d17565b90558360035416803b156105a457879160c48b8580946040519687958694637d36599f60e11b865260048601528401528160448401528160648401528160848401528160a48401525af1801561059957610585575b5050816003541690813b156105815760405163d9a3af6560e01b81526001600160a01b0382166004820152602481018790529189908390604490829084905af1908982156105755788938793610555575b50506104829361044886603c54612d17565b603c5560025416908a60405180968195829463a9059cbb60e01b84526004840160209093929193604081019460018060a01b031681520152565b03925af190811561054a5787916104e1575b50907fe08737ac48a1dab4b1a46c7dc9398bd5bfc6d7ad6fabb7cd8caa254de14def35946104c56080959493612a06565b6040519384528301526040820152426060820152a26001805580f35b93929190508484813d8311610543575b6104fb81836129d7565b8101031261053f577fe08737ac48a1dab4b1a46c7dc9398bd5bfc6d7ad6fabb7cd8caa254de14def35946104c56105336080966129f9565b92939495505094610494565b8680fd5b503d6104f1565b6040513d89823e3d90fd5b909250610563919350612990565b610571578386918938610436565b8780fd5b604051903d90823e3d90fd5b8880fd5b61058e90612990565b6105715787386103e5565b6040513d84823e3d90fd5b8280fd5b60405162461bcd60e51b8152600481018690526022818501527f4d6178696d756d207769746864726177616c2070657220646179207265616368604482015261195960f21b6064820152608490fd5b6045865287604081205560468652604088205538610344565b60405162461bcd60e51b815260206004820152601b818401527f496e73756666696369656e742077616c6c65742062616c616e636500000000006044820152606490fd5b6106739250803d1061067a575b61066b81836129d7565b810190612aa0565b388061031e565b503d610661565b6040513d8a823e3d90fd5b60649060186040519162461bcd60e51b8352602060048401528201527f4d696e696d756d205553445420746f20776974686472617700000000000000006044820152fd5b503461026f57602036600319011261026f576106ea612873565b6106f26128af565b6001600160a01b0390811690811561074257600054826001600160601b0360a01b821617600055167f8be0079c531659141344cd1fd0a4f28419497f9722a3daafe3b4186f6b6457e0600080a380f35b604051631e4fbdf760e01b815260048101849052602490fd5b503461026f57608036600319011261026f57805461078e90336001600160a01b03918216149081156107a9575b506128db565b60043560205560243560235560443560245560643560255580f35b905060045416331438610788565b503461026f578060031936011261026f576020602554604051908152f35b503461026f578060031936011261026f576020602254604051908152f35b503461026f5760e036600319011261026f57805461082590336001600160a01b03918216149081156107a957506128db565b600435602655602435602755604435602855606435602955608435602a5560a435602b5560c435602c5580f35b503461026f576101e036600319011261026f57366101e41161026f57805461088e90336001600160a01b03918216149081156107a957506128db565b6004815b600f811061089e578280f35b6001906020833593019281602d015501610892565b503461026f578060031936011261026f576020603e54604051908152f35b503461026f578060031936011261026f576103006040516108f1816129ba565b3690376006546007546040516001600160a01b03928316939183169190600882825b601882106109625750505090610928826129ba565b60405194855260209283860152604085019190915b6018831061094b5761034086f35b83806001928785511681520192019201919061093d565b60016020819289865416815201930191019091610913565b503461026f57604036600319011261026f576004359061099861289f565b6004546001600160a01b0390811633148015610e5d575b8015610e50575b8015610e44575b6109c690612d7f565b6046840290841592858304604614841715610e3057606480930490600a8702878104600a14861715610e1c578490049460058802908882046005141715610e1c57600160ff610a2f899a610a2a8a610a2a81610a2a8d9e9f9d8c9a049b8c96612d24565b612d24565b931603610e0857610a4290603e54612d17565b603e555b610a5286603c54612d17565b603c5580610ceb575b5080610bb4575b5083610a6c575080f35b601880940492825b858110610a815750505080f35b600881015460025460405163a9059cbb60e01b81529185166001600160a01b03811660048401526024830188905291906020908190839060449082908b908b165af1801561054a57610b80575b5050836003541690813b15610b7c578590604051928391631a0e0a9560e31b835260048301528860248301526080604483015260116084830152704c75636b7920447261772042442046656560781b60a483015260c086830152818381610b3760c48201612cf9565b03925af1908115610b71578591610b59575b5050610b5490612981565b610a74565b610b6290612990565b610b6d578338610b49565b8380fd5b6040513d87823e3d90fd5b8580fd5b81813d8311610bad575b610b9481836129d7565b81010312610b7c57610ba5906129f9565b503880610ace565b503d610b8a565b60025460075460405163a9059cbb60e01b81529084166001600160a01b031660048201526024810183905290602090829085168187816044810103925af18015610ce057610ca8575b5081600354168260075416813b15610ca4578491604051938492631a0e0a9560e31b8452600484015260248301526080604483015260126084830152714c75636b792044726177204645572046656560701b60a483015260c087830152818381610c6960c48201612cf9565b03925af1908115610c99578391610c81575b50610a62565b610c8a90612990565b610c95578138610c7b565b5080fd5b6040513d85823e3d90fd5b8480fd5b6020813d8211610cd8575b81610cc0602093836129d7565b81010312610b6d57610cd1906129f9565b5038610bfd565b3d9150610cb3565b6040513d86823e3d90fd5b60025460065460405163a9059cbb60e01b81529085166001600160a01b031660048201526024810183905290602090829086168188816044810103925af18015610b7157610dd0575b5082600354168360065416813b15610b7c578591604051938492631a0e0a9560e31b8452600484015260248301526080604483015260166084830152754c75636b7920447261772043726561746f722046656560501b60a483015260c088830152818381610da460c48201612cf9565b03925af1908115610ce0578491610dbc575b50610a5b565b610dc590612990565b6105a4578238610db6565b6020813d8211610e00575b81610de8602093836129d7565b81010312610ca457610df9906129f9565b5038610d34565b3d9150610ddb565b610e1490603f54612d17565b603f55610a46565b634e487b7160e01b87526011600452602487fd5b634e487b7160e01b85526011600452602485fd5b508254811633146109bd565b50806047541633146109b6565b50806005541633146109af565b503461026f578060031936011261026f576004546001600160a01b0390811633148015610f9c575b8015610f8f575b8015610f83575b610ea990612d7f565b603d54908115610f4957603d83905560025460075460405163a9059cbb60e01b81529083166001600160a01b0316600482015260248101939093526020918391168185816044810103925af18015610599578290610f0f575b610f0c9150612a06565b80f35b506020813d8211610f41575b81610f28602093836129d7565b81010312610c9557610f3c610f0c916129f9565b610f02565b3d9150610f1b565b60405162461bcd60e51b8152602060048201526012602482015271436c756220506f6f6c20697320656d70747960701b6044820152606490fd5b50815481163314610ea0565b5080604754163314610e99565b5080600554163314610e92565b503461026f578060031936011261026f576007546040516001600160a01b039091168152602090f35b503461026f578060031936011261026f576047546040516001600160a01b039091168152602090f35b503461026f57602036600319011261026f576004356018811015610c9557600801546040516001600160a01b039091168152602090f35b503461026f57602036600319011261026f5761104c612873565b6110546128af565b60018060a01b03166001600160601b0360a01b600454161760045580f35b503461026f578060031936011261026f576020602454604051908152f35b503461026f578060031936011261026f576020604454604051908152f35b503461026f578060031936011261026f576002546040516001600160a01b039091168152602090f35b503461026f57602036600319011261026f5760043561111960018060a01b03806004541633149081156111a3575b8115611194575b8115611187575b50612d7f565b604054908082106111335761112d91612d24565b60405580f35b60405162461bcd60e51b815260206004820152602660248201527f496e73756666696369656e742050726f74656374696f6e20506f6f6c206c697160448201526575696469747960d01b6064820152608490fd5b9050835416331438611113565b8091506047541633149061110c565b80915060055416331490611105565b503461026f578060031936011261026f576020603c54604051908152f35b503461026f578060031936011261026f576020604354604051908152f35b503461026f57602036600319011261026f57600435600f811015610c9557602090602d0154604051908152f35b503461026f578060031936011261026f57546040516001600160a01b039091168152602090f35b503461026f578060031936011261026f576020602154604051908152f35b503461026f578060031936011261026f576020602a54604051908152f35b503461026f578060031936011261026f576020602754604051908152f35b503461026f578060031936011261026f576020603d54604051908152f35b503461026f57602036600319011261026f576004356112f960018060a01b03806004541633149081156111a35781156111945781156111875750612d7f565b603d54908082106113135761130d91612d24565b603d5580f35b606460405162461bcd60e51b815260206004820152602060248201527f496e73756666696369656e7420436c756220506f6f6c206c69717569646974796044820152fd5b503461026f578060031936011261026f576006546040516001600160a01b039091168152602090f35b503461026f578060031936011261026f576003546040516001600160a01b039091168152602090f35b503461026f57602036600319011261026f5760043560ff81168091036113eb576001141590506113e1576020603e545b604051908152f35b6020603f546113d9565b600080fd5b503461026f578060031936011261026f576114096128af565b600080546001600160a01b0319811682556001600160a01b03167f8be0079c531659141344cd1fd0a4f28419497f9722a3daafe3b4186f6b6457e08280a380f35b503461026f57602036600319011261026f576020906040906001600160a01b03611472612873565b168152604683522054604051908152f35b503461026f57604036600319011261026f57600435600160ff6114a461289f565b6114cf838060a01b03806004541633149081156115c5575b81156115b6575b81156115a95750612d7f565b160361153f57603e54908082106114ef576114e991612d24565b603e5580f35b60405162461bcd60e51b815260206004820152602260248201527f496e73756666696369656e7420476f6c64656e20506f6f6c206c697175696469604482015261747960f01b6064820152608490fd5b603f54908082106115595761155391612d24565b603f5580f35b60405162461bcd60e51b815260206004820152602260248201527f496e73756666696369656e742053696c76657220506f6f6c206c697175696469604482015261747960f01b6064820152608490fd5b9050865416331438611113565b809150604754163314906114c3565b809150600554163314906114bc565b503461026f578060031936011261026f576020602654604051908152f35b503461026f578060031936011261026f576020604054604051908152f35b503461026f578060031936011261026f576020603f54604051908152f35b503461026f578060031936011261026f576020602c54604051908152f35b503461026f57604036600319011261026f57611666612873565b9061167c60018060a01b03600454163314612947565b611684612cd6565b602054602435106125a3576002546040516323b872dd60e01b81526001600160a01b038481166004830152306024808401919091523560448301529091602091839160649183918791165af18015610599578290612568575b6116e79150612a06565b6003546001600160a01b0316803b15610c955760405163198135db60e11b81526001600160a01b038416600482015260248035908201529082908290604490829084905af1801561059957612559575b5060035460405163543a185d60e11b81526001600160a01b0380851660048301529293929091610aa09183916024918391165afa908115610c99578391612538575b506020015182906001600160a01b03165b6001600160a01b03811615158061252e575b156118845760035484906001600160a01b0316803b15610c955760405163a0faeeab60e01b81526001600160a01b038416600482015260248035908201529082908290604490829084905af1801561059957611870575b505060035460405163543a185d60e11b81526001600160a01b03928316600482015291610aa09183916024918391165afa8015610ce05761184991859161184f575b50602001516001600160a01b031691612981565b9061178a565b61186a9150610aa03d610aa01161067a5761066b81836129d7565b38611835565b61187990612990565b610b6d5783386117f3565b5050606461189660265460243561291e565b60025460065460405163a9059cbb60e01b81526001600160a01b03918216600482015293909204602484018190529291602091839160449183918991165af18015610ce0576124f5575b5060035460065484916001600160a01b039081169116813b156105a4578290604051928391631a0e0a9560e31b8352600483015285602483015260806044830152600b60848301526a43726561746f722046656560a81b60a483015260c0606483015281838161195260c48201612cf9565b03925af18015610599576124e1575b50508061197361197e92604154612d17565b604155602435612d24565b606461198e60275460243561291e565b0490835b601881106123af5750906119b4916119ac82604254612d17565b604255612d24565b60646119c460285460243561291e565b60025460075460405163a9059cbb60e01b81526001600160a01b03918216600482015293909204602484018190529291602091839160449183918a91165af18015610b7157612376575b5060035460075485916001600160a01b039081169116813b156105a4578290604051928391631a0e0a9560e31b835260048301528560248301526080604483015260076084830152664645572046656560c81b60a483015260c06064830152818381611a7c60c48201612cf9565b03925af1801561059957612362575b5050611aa591611a9d82604354612d17565b604355612d24565b60035460405163543a185d60e11b81526001600160a01b0384811660048301529091610aa09183916024918391165afa908115610ce0578491612341575b5060200151839081906001600160a01b03165b600f861090818061232f575b15611d005760035460405163543a185d60e11b81526001600160a01b0383811660048301529093911690610aa084602481855afa938415610b71578594611cdd575b50604084015162278d008101809111611cc957421180611cb9575b611ca25784610100850151602154811015611c62575b506103c085015115159081611c5a575b50611bae575b505050602001516001600160a01b031694611ba590612981565b935b9394611af6565b9491929415611c4657612710611bca89602d015460243561291e565b0492813b15610ca4576040516313b3b40760e31b81526001600160a01b03909116600482015260248101849052604481018990529084908290606490829084905af18015610ce057908491611c32575b5050611ba591611c2991612d17565b92903880611b8b565b611c3b90612990565b6105a4578238611c1a565b634e487b7160e01b84526032600452602484fd5b905038611b85565b60038b1015611c7657505060015b38611b75565b60225411611c7057600a808b10611c9b575b61040086015110611c7057506001611c70565b5089611c88565b505050602001516001600160a01b03169493611ba7565b5061010084015160215411611b5f565b634e487b7160e01b86526011600452602486fd5b611cf9919450610aa03d610aa01161067a5761066b81836129d7565b9238611b44565b50509350611d1f816064611d1860295460243561291e565b0493612d24565b91818111611f04575b5090611d39611d6f92604454612d17565b6044556064611d68602a54611d5d83611d548360243561291e565b04603d54612d17565b603d5560243561291e565b0490612d24565b60035460405163543a185d60e11b81526001600160a01b03848116600483015290911690610aa081602481855afa908115610b715760ff91610420918791611ee3575b50015116846064611dc7602b5460243561291e565b0492803b15610c9557604051638d6db1c560e01b81526001600160a01b0387166004820152602481018590529082908290604490829084905af1801561059957611ecb575b505090611e69926001611e359314600014611eb757611e2d82603e54612d17565b603e55612d24565b611e63602c54916064611d68611e5a82611e518760243561291e565b04603c54612d17565b9460243561291e565b90612d17565b603c557f36af321ec8d3c75236829c5317affd40ddb308863a1236d2d277a4025cccee1e6060604051926024358452602435602085015242604085015260018060a01b031692a26001805580f35b611ec382603f54612d17565b603f55612d24565b611ed790939293612990565b610ca457908438611e0c565b611efe9150610aa03d610aa01161067a5761066b81836129d7565b38611db2565b81611f0e91612d24565b91821583600a810204600a14811715611cc9578360148102046014141715610e3057611f5460646014850204610a2a60646014870204610a2a6064600a89020488612d24565b6064600a850204612225575b606460148502046120be575b60646014850204611f9e575b611d6f93611d3992611f8f611f9793603d54612d17565b603d55612d24565b9250611d28565b60025460075460405163a9059cbb60e01b81526001600160a01b03918216600482015260646014880204602482015291602091839160449183918c91165af1801561054a57612085575b5060035460075487916001600160a01b039182169116803b156105a457606483916014838a61203060405197889687958694631a0e0a9560e31b865202049060048401612d31565b03925af1801561059957612071575b505083611d3992611f8f611f979361206260646014611d6f9a0204604354612d17565b60435593505092509350611f78565b61207a90612990565b610b7c57853861203f565b6020813d6020116120b6575b8161209e602093836129d7565b8101031261053f576120af906129f9565b5038611fe8565b3d9150612091565b855b601881106120e357506120db60646014860204604254612d17565b604255611f6c565b600254600882015460405163a9059cbb60e01b81526001600160a01b0391821660048201526018606460148a020404602482015291602091839160449183918d91165af18015610681576121ec575b50600354600882015488916001600160a01b039081169116813b156105a4578290604051928391631a0e0a9560e31b835260048301526018606460148c0204046024830152608060448301526015608483015274149959995c9c985b0813dd995c9cdc1a5b1b081091605a1b60a483015260c060648301528183816121b960c48201612cf9565b03925af18015610599576121d8575b50506121d390612981565b6120c0565b6121e190612990565b61053f5786386121c8565b6020813d60201161221d575b81612205602093836129d7565b8101031261057157612216906129f9565b5038612132565b3d91506121f8565b60025460065460405163a9059cbb60e01b81526001600160a01b0391821660048201526064600a880204602482015291602091839160449183918c91165af1801561054a576122f6575b5060035460065487916001600160a01b039182169116803b156105a45760648391600a838a6122b760405197889687958694631a0e0a9560e31b865202049060048401612d31565b03925af18015610599576122e2575b50506122da6064600a860204604154612d17565b604155611f60565b6122eb90612990565b610b7c5785386122c6565b6020813d602011612327575b8161230f602093836129d7565b8101031261053f57612320906129f9565b503861226f565b3d9150612302565b506001600160a01b0381161515611b02565b61235c9150610aa03d610aa01161067a5761066b81836129d7565b38611ae3565b61236b90612990565b610b6d578338611a8b565b6020813d6020116123a7575b8161238f602093836129d7565b81010312610ca4576123a0906129f9565b5038611a0e565b3d9150612382565b600254600882015460405163a9059cbb60e01b81526001600160a01b03918216600482015260188604602482015291602091839160449183918b91165af180156124d65761249d575b50600354600882015486916001600160a01b039081169116813b156105a4578290604051928391631a0e0a9560e31b8352600483015260188804602483015260806044830152600660848301526542442046656560d01b60a483015260c0606483015281838161246a60c48201612cf9565b03925af1801561059957612489575b505061248490612981565b611992565b61249290612990565b610ca4578438612479565b6020813d6020116124ce575b816124b6602093836129d7565b81010312610b7c576124c7906129f9565b50386123f8565b3d91506124a9565b6040513d88823e3d90fd5b6124ea90612990565b6105a4578238611961565b6020813d602011612526575b8161250e602093836129d7565b81010312610b6d5761251f906129f9565b50386118e0565b3d9150612501565b506014821061179c565b6125539150610aa03d610aa01161067a5761066b81836129d7565b38611779565b61256290612990565b38611737565b506020813d60201161259b575b81612582602093836129d7565b81010312610c95576125966116e7916129f9565b6116dd565b3d9150612575565b606460405162461bcd60e51b815260206004820152602060248201527f4d696e205553445420726571756972656420666f722061637469766174696f6e6044820152fd5b503461026f578060031936011261026f576020602954604051908152f35b503461026f578060031936011261026f576005546040516001600160a01b039091168152602090f35b503461026f57606036600319011261026f57612648612873565b612650612889565b6001600160a01b03604435818116939290849003610ca4576126706128af565b816001600160601b0360a01b931683600454161760045516816005541617600555604754161760475580f35b503461026f578060031936011261026f576020604154604051908152f35b503461026f578060031936011261026f5760208054604051908152f35b503461026f578060031936011261026f576020602b54604051908152f35b503461026f57606036600319011261026f5761270f612873565b612717612889565b906044359167ffffffffffffffff9384841161026f573660238501121561026f57836004013594851161026f57602494600594368783881b830101116105a4576004546001600160a01b039485916127729083163314612947565b816001600160601b0360a01b971687600654161760065516856007541617600755825b6018811080806127f7575b156127f357838210156127e0578882891b8401013590868216809203610b7c57156127e057906127db91816008019088825416179055612981565b612795565b634e487b7160e01b855260326004528885fd5b8480f35b508382106127a0565b503461026f578060031936011261026f576020604254604051908152f35b503461026f57602036600319011261026f576020906040906001600160a01b03612846612873565b168152604583522054604051908152f35b905034610c955781600319360112610c95576020906028548152f35b600435906001600160a01b03821682036113eb57565b602435906001600160a01b03821682036113eb57565b6024359060ff821682036113eb57565b6000546001600160a01b031633036128c357565b60405163118cdaa760e01b8152336004820152602490fd5b156128e257565b60405162461bcd60e51b815260206004820152601460248201527327b7363c9037bbb732b91037b9103937baba32b960611b6044820152606490fd5b8181029291811591840414171561293157565b634e487b7160e01b600052601160045260246000fd5b1561294e57565b60405162461bcd60e51b815260206004820152600b60248201526a27b7363c903937baba32b960a91b6044820152606490fd5b60001981146129315760010190565b67ffffffffffffffff81116129a457604052565b634e487b7160e01b600052604160045260246000fd5b610300810190811067ffffffffffffffff8211176129a457604052565b90601f8019910116810190811067ffffffffffffffff8211176129a457604052565b519081151582036113eb57565b15612a0d57565b60405162461bcd60e51b81526020600482015260146024820152731554d11508151c985b9cd9995c8819985a5b195960621b6044820152606490fd5b9080601f830112156113eb57604051916101e09081840184811067ffffffffffffffff8211176129a457604052839181019283116113eb57905b828210612a905750505090565b8151815260209182019101612a83565b919091610aa0818403126113eb5760409081519161044083019467ffffffffffffffff95848110878211176129a4578252825184526020808401519096906001600160a01b03811681036113eb57878601528284015183860152606084015160608601526080840151608086015260a084015160a086015260c084015160c086015260e084015160e086015261010080850151908601526101208085015190860152610140908185015182870152610160808601519087015261018080860151908701526101a080860151908701526101c080860151908701526101e080860151908701526102008086015190870152610220612b9f84828801612a49565b9087015261040093612bb384868801612a49565b610240880152612bc7846105e08801612a49565b610260880152836107df870112156113eb578051928301918211838310176129a457528061090085019283116113eb576107c08501905b838210612cc757505084959650610280610a80950152516102a08501526109208201516102c08501526109408201516102e08501526109608201516103008501526109808201516103208501526109a08201516103408501526109c0820151610360850152612c706109e083016129f9565b610380850152612c83610a0083016129f9565b6103a0850152612c96610a2083016129f9565b6103c0850152610a408201516103e0850152610a6082015190840152015160ff811681036113eb5761042082015290565b81518152908801908801612bfe565b600260015414612ce7576002600155565b604051633ee5aeb560e01b8152600490fd5b600b81526a13585a5b8815d85b1b195d60aa1b602082015260400190565b9190820180921161293157565b9190820391821161293157565b612d7c9260c09260018060a01b031682526020820152608060408201526012608082015271149959995c9c985b0813dd995c9cdc1a5b1b60721b60a082015281606082015201612cf9565b90565b15612d8657565b60405162461bcd60e51b815260206004820152600e60248201526d139bdd08185d5d1a1bdc9a5e995960921b6044820152606490fdfea2646970667358221220eafaa1d218fec1dcef6e3bd052bb4b60136a4e8b079e1c8824ba50938758aafa64736f6c63430008140033",
  "linkReferences": {},
  "deployedLinkReferences": {}
}