{
  "_format": "hh-sol-artifact-1",
  "contractName": "TRKUserRegistry",
  "sourceName": "contracts/TRKUserRegistry.sol",
  "abi": [
    {
      "inputs": [],
      "stateMutability": "nonpayable",
      "type": "constructor"
    },
    {
      "inputs": [
        {
          "internalType": "address",
          "name": "owner",
          "type": "address"
        }
      ],
      "name": "OwnableInvalidOwner",
      "type": "error"
    },
    {
      "inputs": [
        {
          "internalType": "address",
          "name": "account",
          "type": "address"
        }
      ],
      "name": "OwnableUnauthorizedAccount",
      "type": "error"
    },
    {
      "anonymous": false,
      "inputs": [
        {
          "indexed": true,
          "internalType": "address",
          "name": "user",
          "type": "address"
        },
        {
          "indexed": false,
          "internalType": "uint256",
          "name": "amount",
          "type": "uint256"
        },
        {
          "indexed": false,
          "internalType": "string",
          "name": "source",
          "type": "string"
        },
        {
          "indexed": false,
          "internalType": "string",
          "name": "walletType",
          "type": "string"
        },
        {
          "indexed": false,
          "internalType": "uint256",
          "name": "timestamp",
          "type": "uint256"
        }
      ],
      "name": "IncomeReceived",
      "type": "event"
    },
    {
      "anonymous": false,
      "inputs": [
        {
          "indexed": true,
          "internalType": "address",
          "name": "previousOwner",
          "type": "address"
        },
        {
          "indexed": true,
          "internalType": "address",
          "name": "newOwner",
          "type": "address"
        }
      ],
      "name": "OwnershipTransferred",
      "type": "event"
    },
    {
      "anonymous": false,
      "inputs": [
        {
          "indexed": true,
          "internalType": "address",
          "name": "user",
          "type": "address"
        },
        {
          "indexed": false,
          "internalType": "uint256",
          "name": "amount",
          "type": "uint256"
        },
        {
          "indexed": false,
          "internalType": "uint256",
          "name": "timestamp",
          "type": "uint256"
        }
      ],
      "name": "PracticeConverted",
      "type": "event"
    },
    {
      "anonymous": false,
      "inputs": [
        {
          "indexed": true,
          "internalType": "address",
          "name": "user",
          "type": "address"
        },
        {
          "indexed": true,
          "internalType": "address",
          "name": "from",
          "type": "address"
        },
        {
          "indexed": false,
          "internalType": "uint256",
          "name": "amount",
          "type": "uint256"
        },
        {
          "indexed": false,
          "internalType": "uint256",
          "name": "level",
          "type": "uint256"
        }
      ],
      "name": "PracticeRewardReceived",
      "type": "event"
    },
    {
      "anonymous": false,
      "inputs": [
        {
          "indexed": true,
          "internalType": "address",
          "name": "user",
          "type": "address"
        },
        {
          "indexed": true,
          "internalType": "address",
          "name": "referrer",
          "type": "address"
        },
        {
          "indexed": false,
          "internalType": "uint256",
          "name": "userId",
          "type": "uint256"
        }
      ],
      "name": "UserRegistered",
      "type": "event"
    },
    {
      "inputs": [],
      "name": "ACTIVATION_DEADLINE",
      "outputs": [
        {
          "internalType": "uint256",
          "name": "",
          "type": "uint256"
        }
      ],
      "stateMutability": "view",
      "type": "function"
    },
    {
      "inputs": [],
      "name": "BONUS_LIMIT",
      "outputs": [
        {
          "internalType": "uint256",
          "name": "",
          "type": "uint256"
        }
      ],
      "stateMutability": "view",
      "type": "function"
    },
    {
      "inputs": [],
      "name": "FULL_ACTIVATION_BRIDGE",
      "outputs": [
        {
          "internalType": "uint256",
          "name": "",
          "type": "uint256"
        }
      ],
      "stateMutability": "view",
      "type": "function"
    },
    {
      "inputs": [],
      "name": "SIGNUP_BONUS",
      "outputs": [
        {
          "internalType": "uint256",
          "name": "",
          "type": "uint256"
        }
      ],
      "stateMutability": "view",
      "type": "function"
    },
    {
      "inputs": [
        {
          "internalType": "address",
          "name": "user",
          "type": "address"
        },
        {
          "internalType": "uint256",
          "name": "wallet",
          "type": "uint256"
        },
        {
          "internalType": "uint256",
          "name": "practice",
          "type": "uint256"
        },
        {
          "internalType": "uint256",
          "name": "cash",
          "type": "uint256"
        },
        {
          "internalType": "uint256",
          "name": "winningDigit",
          "type": "uint256"
        },
        {
          "internalType": "bool",
          "name": "isWinner",
          "type": "bool"
        }
      ],
      "name": "addBalances",
      "outputs": [],
      "stateMutability": "nonpayable",
      "type": "function"
    },
    {
      "inputs": [
        {
          "internalType": "address",
          "name": "user",
          "type": "address"
        },
        {
          "internalType": "uint256",
          "name": "amount",
          "type": "uint256"
        }
      ],
      "name": "addCashbackIncome",
      "outputs": [],
      "stateMutability": "nonpayable",
      "type": "function"
    },
    {
      "inputs": [
        {
          "internalType": "address",
          "name": "user",
          "type": "address"
        },
        {
          "internalType": "uint256",
          "name": "amount",
          "type": "uint256"
        }
      ],
      "name": "addClubIncome",
      "outputs": [],
      "stateMutability": "nonpayable",
      "type": "function"
    },
    {
      "inputs": [
        {
          "internalType": "address",
          "name": "user",
          "type": "address"
        },
        {
          "internalType": "uint256",
          "name": "amount",
          "type": "uint256"
        }
      ],
      "name": "addDeposit",
      "outputs": [],
      "stateMutability": "nonpayable",
      "type": "function"
    },
    {
      "inputs": [
        {
          "internalType": "address",
          "name": "user",
          "type": "address"
        },
        {
          "internalType": "uint256",
          "name": "amount",
          "type": "uint256"
        },
        {
          "internalType": "uint256",
          "name": "level",
          "type": "uint256"
        }
      ],
      "name": "addDirectReferralIncome",
      "outputs": [],
      "stateMutability": "nonpayable",
      "type": "function"
    },
    {
      "inputs": [
        {
          "internalType": "address",
          "name": "user",
          "type": "address"
        },
        {
          "internalType": "bool",
          "name": "isCash",
          "type": "bool"
        },
        {
          "internalType": "uint256",
          "name": "betAmount",
          "type": "uint256"
        },
        {
          "internalType": "uint256",
          "name": "winAmount",
          "type": "uint256"
        },
        {
          "internalType": "bool",
          "name": "isLoss",
          "type": "bool"
        }
      ],
      "name": "addGameStats",
      "outputs": [],
      "stateMutability": "nonpayable",
      "type": "function"
    },
    {
      "inputs": [
        {
          "internalType": "address",
          "name": "user",
          "type": "address"
        },
        {
          "internalType": "uint256",
          "name": "amount",
          "type": "uint256"
        }
      ],
      "name": "addLossReferralIncome",
      "outputs": [],
      "stateMutability": "nonpayable",
      "type": "function"
    },
    {
      "inputs": [
        {
          "internalType": "address",
          "name": "user",
          "type": "address"
        },
        {
          "internalType": "uint256",
          "name": "amount",
          "type": "uint256"
        }
      ],
      "name": "addLuckyDrawIncome",
      "outputs": [],
      "stateMutability": "nonpayable",
      "type": "function"
    },
    {
      "inputs": [
        {
          "internalType": "address",
          "name": "user",
          "type": "address"
        },
        {
          "internalType": "uint256",
          "name": "amount",
          "type": "uint256"
        }
      ],
      "name": "addLuckyDrawWallet",
      "outputs": [],
      "stateMutability": "nonpayable",
      "type": "function"
    },
    {
      "inputs": [
        {
          "internalType": "address",
          "name": "user",
          "type": "address"
        },
        {
          "internalType": "uint256",
          "name": "amount",
          "type": "uint256"
        },
        {
          "internalType": "uint256",
          "name": "level",
          "type": "uint256"
        }
      ],
      "name": "addPracticeReferralIncome",
      "outputs": [],
      "stateMutability": "nonpayable",
      "type": "function"
    },
    {
      "inputs": [
        {
          "internalType": "address",
          "name": "user",
          "type": "address"
        },
        {
          "internalType": "uint256",
          "name": "amount",
          "type": "uint256"
        },
        {
          "internalType": "uint256",
          "name": "level",
          "type": "uint256"
        }
      ],
      "name": "addWinnerReferralIncome",
      "outputs": [],
      "stateMutability": "nonpayable",
      "type": "function"
    },
    {
      "inputs": [
        {
          "internalType": "address",
          "name": "user",
          "type": "address"
        },
        {
          "internalType": "uint256",
          "name": "amount",
          "type": "uint256"
        }
      ],
      "name": "addWithdrawal",
      "outputs": [],
      "stateMutability": "nonpayable",
      "type": "function"
    },
    {
      "inputs": [
        {
          "internalType": "address",
          "name": "user",
          "type": "address"
        }
      ],
      "name": "checkAndConvertPractice",
      "outputs": [],
      "stateMutability": "nonpayable",
      "type": "function"
    },
    {
      "inputs": [
        {
          "internalType": "string",
          "name": "",
          "type": "string"
        }
      ],
      "name": "codeToUser",
      "outputs": [
        {
          "internalType": "address",
          "name": "",
          "type": "address"
        }
      ],
      "stateMutability": "view",
      "type": "function"
    },
    {
      "inputs": [
        {
          "internalType": "address",
          "name": "user",
          "type": "address"
        },
        {
          "internalType": "uint256",
          "name": "amount",
          "type": "uint256"
        }
      ],
      "name": "deductLuckyDrawWallet",
      "outputs": [],
      "stateMutability": "nonpayable",
      "type": "function"
    },
    {
      "inputs": [
        {
          "internalType": "address",
          "name": "",
          "type": "address"
        },
        {
          "internalType": "uint256",
          "name": "",
          "type": "uint256"
        }
      ],
      "name": "directReferralsList",
      "outputs": [
        {
          "internalType": "address",
          "name": "",
          "type": "address"
        }
      ],
      "stateMutability": "view",
      "type": "function"
    },
    {
      "inputs": [
        {
          "internalType": "uint256",
          "name": "",
          "type": "uint256"
        }
      ],
      "name": "idToAddress",
      "outputs": [
        {
          "internalType": "address",
          "name": "",
          "type": "address"
        }
      ],
      "stateMutability": "view",
      "type": "function"
    },
    {
      "inputs": [
        {
          "internalType": "address",
          "name": "user",
          "type": "address"
        },
        {
          "internalType": "uint256",
          "name": "amount",
          "type": "uint256"
        }
      ],
      "name": "incrementTeamVolume",
      "outputs": [],
      "stateMutability": "nonpayable",
      "type": "function"
    },
    {
      "inputs": [
        {
          "internalType": "address",
          "name": "",
          "type": "address"
        }
      ],
      "name": "isAuthorized",
      "outputs": [
        {
          "internalType": "bool",
          "name": "",
          "type": "bool"
        }
      ],
      "stateMutability": "view",
      "type": "function"
    },
    {
      "inputs": [],
      "name": "owner",
      "outputs": [
        {
          "internalType": "address",
          "name": "",
          "type": "address"
        }
      ],
      "stateMutability": "view",
      "type": "function"
    },
    {
      "inputs": [
        {
          "internalType": "address",
          "name": "user",
          "type": "address"
        }
      ],
      "name": "ownerActivateUser",
      "outputs": [],
      "stateMutability": "nonpayable",
      "type": "function"
    },
    {
      "inputs": [
        {
          "internalType": "address",
          "name": "",
          "type": "address"
        }
      ],
      "name": "practiceConvertedToCash",
      "outputs": [
        {
          "internalType": "uint256",
          "name": "",
          "type": "uint256"
        }
      ],
      "stateMutability": "view",
      "type": "function"
    },
    {
      "inputs": [
        {
          "internalType": "address",
          "name": "user",
          "type": "address"
        },
        {
          "internalType": "uint256",
          "name": "amount",
          "type": "uint256"
        },
        {
          "internalType": "string",
          "name": "source",
          "type": "string"
        },
        {
          "internalType": "string",
          "name": "walletType",
          "type": "string"
        }
      ],
      "name": "recordExternalIncome",
      "outputs": [],
      "stateMutability": "nonpayable",
      "type": "function"
    },
    {
      "inputs": [
        {
          "internalType": "address",
          "name": "user",
          "type": "address"
        },
        {
          "internalType": "address",
          "name": "referrer",
          "type": "address"
        },
        {
          "internalType": "uint256",
          "name": "bonus",
          "type": "uint256"
        }
      ],
      "name": "registerUser",
      "outputs": [
        {
          "internalType": "uint256",
          "name": "",
          "type": "uint256"
        }
      ],
      "stateMutability": "nonpayable",
      "type": "function"
    },
    {
      "inputs": [],
      "name": "renounceOwnership",
      "outputs": [],
      "stateMutability": "nonpayable",
      "type": "function"
    },
    {
      "inputs": [
        {
          "internalType": "uint256",
          "name": "amount",
          "type": "uint256"
        }
      ],
      "name": "setActivationBridge",
      "outputs": [],
      "stateMutability": "nonpayable",
      "type": "function"
    },
    {
      "inputs": [
        {
          "internalType": "address",
          "name": "target",
          "type": "address"
        },
        {
          "internalType": "bool",
          "name": "status",
          "type": "bool"
        }
      ],
      "name": "setAuthorization",
      "outputs": [],
      "stateMutability": "nonpayable",
      "type": "function"
    },
    {
      "inputs": [
        {
          "internalType": "address",
          "name": "user",
          "type": "address"
        },
        {
          "internalType": "uint8",
          "name": "drawType",
          "type": "uint8"
        }
      ],
      "name": "setLuckyDrawPreference",
      "outputs": [],
      "stateMutability": "nonpayable",
      "type": "function"
    },
    {
      "inputs": [
        {
          "internalType": "address",
          "name": "user",
          "type": "address"
        },
        {
          "internalType": "uint256",
          "name": "wallet",
          "type": "uint256"
        },
        {
          "internalType": "uint256",
          "name": "practice",
          "type": "uint256"
        },
        {
          "internalType": "uint256",
          "name": "cash",
          "type": "uint256"
        },
        {
          "internalType": "uint256",
          "name": "digit",
          "type": "uint256"
        },
        {
          "internalType": "uint256",
          "name": "digitAmount",
          "type": "uint256"
        }
      ],
      "name": "subtractBalances",
      "outputs": [],
      "stateMutability": "nonpayable",
      "type": "function"
    },
    {
      "inputs": [],
      "name": "totalUsers",
      "outputs": [
        {
          "internalType": "uint256",
          "name": "",
          "type": "uint256"
        }
      ],
      "stateMutability": "view",
      "type": "function"
    },
    {
      "inputs": [],
      "name": "totalVolume",
      "outputs": [
        {
          "internalType": "uint256",
          "name": "",
          "type": "uint256"
        }
      ],
      "stateMutability": "view",
      "type": "function"
    },
    {
      "inputs": [],
      "name": "totalWithdrawnGlobal",
      "outputs": [
        {
          "internalType": "uint256",
          "name": "",
          "type": "uint256"
        }
      ],
      "stateMutability": "view",
      "type": "function"
    },
    {
      "inputs": [
        {
          "internalType": "address",
          "name": "newOwner",
          "type": "address"
        }
      ],
      "name": "transferOwnership",
      "outputs": [],
      "stateMutability": "nonpayable",
      "type": "function"
    },
    {
      "inputs": [
        {
          "internalType": "address",
          "name": "user",
          "type": "address"
        }
      ],
      "name": "triggerPracticeReferral",
      "outputs": [],
      "stateMutability": "nonpayable",
      "type": "function"
    },
    {
      "inputs": [
        {
          "internalType": "address",
          "name": "user",
          "type": "address"
        }
      ],
      "name": "unpruneUser",
      "outputs": [],
      "stateMutability": "nonpayable",
      "type": "function"
    },
    {
      "inputs": [
        {
          "internalType": "address",
          "name": "user",
          "type": "address"
        },
        {
          "internalType": "uint256",
          "name": "wallet",
          "type": "uint256"
        },
        {
          "internalType": "uint256",
          "name": "practice",
          "type": "uint256"
        },
        {
          "internalType": "uint256",
          "name": "cash",
          "type": "uint256"
        }
      ],
      "name": "updateBalances",
      "outputs": [],
      "stateMutability": "nonpayable",
      "type": "function"
    },
    {
      "inputs": [],
      "name": "userCounter",
      "outputs": [
        {
          "internalType": "uint256",
          "name": "",
          "type": "uint256"
        }
      ],
      "stateMutability": "view",
      "type": "function"
    },
    {
      "inputs": [
        {
          "internalType": "address",
          "name": "",
          "type": "address"
        }
      ],
      "name": "userToCode",
      "outputs": [
        {
          "internalType": "string",
          "name": "",
          "type": "string"
        }
      ],
      "stateMutability": "view",
      "type": "function"
    },
    {
      "inputs": [
        {
          "internalType": "address",
          "name": "user",
          "type": "address"
        }
      ],
      "name": "users",
      "outputs": [
        {
          "components": [
            {
              "internalType": "uint256",
              "name": "userId",
              "type": "uint256"
            },
            {
              "internalType": "address",
              "name": "referrer",
              "type": "address"
            },
            {
              "internalType": "uint256",
              "name": "registrationTime",
              "type": "uint256"
            },
            {
              "internalType": "uint256",
              "name": "walletBalance",
              "type": "uint256"
            },
            {
              "internalType": "uint256",
              "name": "practiceBalance",
              "type": "uint256"
            },
            {
              "internalType": "uint256",
              "name": "cashGameBalance",
              "type": "uint256"
            },
            {
              "internalType": "uint256",
              "name": "totalDeposit",
              "type": "uint256"
            },
            {
              "internalType": "uint256",
              "name": "totalWithdrawn",
              "type": "uint256"
            },
            {
              "internalType": "uint256",
              "name": "cumulativeDeposit",
              "type": "uint256"
            },
            {
              "internalType": "uint256",
              "name": "directReferralIncome",
              "type": "uint256"
            },
            {
              "internalType": "uint256",
              "name": "winnerReferralIncome",
              "type": "uint256"
            },
            {
              "internalType": "uint256",
              "name": "practiceReferralIncome",
              "type": "uint256"
            },
            {
              "internalType": "uint256",
              "name": "cashbackIncome",
              "type": "uint256"
            },
            {
              "internalType": "uint256",
              "name": "lossReferralIncome",
              "type": "uint256"
            },
            {
              "internalType": "uint256",
              "name": "clubIncome",
              "type": "uint256"
            },
            {
              "internalType": "uint256",
              "name": "luckyDrawIncome",
              "type": "uint256"
            },
            {
              "internalType": "uint256",
              "name": "luckyDrawWallet",
              "type": "uint256"
            },
            {
              "internalType": "uint256[15]",
              "name": "directReferralIncomeByLevel",
              "type": "uint256[15]"
            },
            {
              "internalType": "uint256[15]",
              "name": "winnerReferralIncomeByLevel",
              "type": "uint256[15]"
            },
            {
              "internalType": "uint256[15]",
              "name": "practiceReferralIncomeByLevel",
              "type": "uint256[15]"
            },
            {
              "internalType": "uint256[10]",
              "name": "digitBalances",
              "type": "uint256[10]"
            },
            {
              "internalType": "uint256",
              "name": "teamVolume",
              "type": "uint256"
            },
            {
              "internalType": "uint256",
              "name": "totalBets",
              "type": "uint256"
            },
            {
              "internalType": "uint256",
              "name": "totalWins",
              "type": "uint256"
            },
            {
              "internalType": "uint256",
              "name": "totalLosses",
              "type": "uint256"
            },
            {
              "internalType": "uint256",
              "name": "practiceGamesPlayedToday",
              "type": "uint256"
            },
            {
              "internalType": "uint256",
              "name": "cashGamesPlayedToday",
              "type": "uint256"
            },
            {
              "internalType": "uint256",
              "name": "lastGameDate",
              "type": "uint256"
            },
            {
              "internalType": "bool",
              "name": "isRegistered",
              "type": "bool"
            },
            {
              "internalType": "bool",
              "name": "isPracticePlayer",
              "type": "bool"
            },
            {
              "internalType": "bool",
              "name": "isCashPlayer",
              "type": "bool"
            },
            {
              "internalType": "uint256",
              "name": "directReferrals",
              "type": "uint256"
            },
            {
              "internalType": "uint256",
              "name": "activeDirects",
              "type": "uint256"
            },
            {
              "internalType": "uint8",
              "name": "preferredLuckyDraw",
              "type": "uint8"
            }
          ],
          "internalType": "struct ITRKRegistry.User",
          "name": "",
          "type": "tuple"
        }
      ],
      "stateMutability": "view",
      "type": "function"
    }
  ],
  "bytecode": "0x60808060405234620004ea573315620004d45760008054336001600160a01b0319821681178355916001600160a01b03909116907f8be0079c531659141344cd1fd0a4f28419497f9722a3daafe3b4186f6b6457e09080a368056bc75e2d63100000806005556004620000738154620004ef565b80825562000083600154620004ef565b6001553360005260066020526040600020908155426002820155604f810161010161ffff198254161790550155600454600052600860205260406000203360018060a01b031982541617905560045460006060906001915b8280620004c9575b15620002d6575060408051919082016001600160401b038111838210176200022b5760405260058252602036818401376040514260208201523360601b60408201528460548201526074828183015281528060a081011060018060401b0360a0830111176200022b5760a08101604052602081519101206000905b600582106200024157505060405180926254524b60e81b60208301526200019081518092602060238601910162000515565b81010360038101835291601f19604284011681018082116001600160401b03909111176200022b5760428301601f1916810160408190528151919384929091620001e09082906020860162000515565b600b604292909201601f1916929092019182019081528190036020019020546001600160a01b03161562000221575b6200021a90620004ef565b90620000db565b600092506200020f565b634e487b7160e01b600052604160045260246000fd5b6040516001600160401b0360608201908111908211176200022b57620002cf91606082016040526024918281527f303132333435363738394142434445464748494a4b4c4d4e4f505152535455566020820152632bac2cad60e11b6040820152620002b560ff60f81b91848406906200053a565b511660001a620002c685886200053a565b530491620004ef565b906200015e565b826200048457336000908152600a6020526040902081516001600160401b0381116200022b578154600181811c9116801562000479575b60208210146200046357601f811162000416575b506020601f8211600114620003a45791816200036c949260209460009162000398575b508160011b916000199060031b1c19161790555b816040519382858094519384920162000515565b600b9082019081520301902080546001600160a01b03191633179055604051612db29081620005638239f35b90508301518662000344565b601f198216908360005260206000209160005b818110620003fd57509260209492600192826200036c989610620003e3575b5050811b01905562000358565b85015160001960f88460031b161c191690558680620003d6565b9192602060018192868a015181550194019201620003b7565b826000526020600020601f830160051c8101916020841062000458575b601f0160051c01905b8181106200044b575062000321565b600081556001016200043c565b909150819062000433565b634e487b7160e01b600052602260045260246000fd5b90607f16906200030d565b60405162461bcd60e51b815260206004820152601e60248201527f4661696c656420746f2067656e657261746520756e6971756520636f646500006044820152606490fd5b5060058210620000e3565b631e4fbdf760e01b815260006004820152602490fd5b600080fd5b6000198114620004ff5760010190565b634e487b7160e01b600052601160045260246000fd5b60005b838110620005295750506000910152565b818101518382015260200162000518565b9081518110156200054c570160200190565b634e487b7160e01b600052603260045260246000fdfe6080604052600436101561001257600080fd5b60003560e01c806307f60f12146125f2578063152c1725146125495780631a0ea6991461250f5780632a2d0c47146124db5780632fb21a68146124b757806330eeb3e2146123f157806333026bb6146122a95780633fe762e71461228b578063496ef8c0146121565780635f81a57c146121385780636116dd88146120e1578063625feee414611eaf57806367427d24146118ec578063686c34ea146117f3578063715018a61461179a578063771c8e961461172b5780637b5eb27b1461170d5780637e9ea428146116ef57806380aa9a931461160a5780638d6db1c5146115735780638da5cb5b1461154a57806390dc350014611467578063966eab11146114495780639d9da03814611338578063a0faeeab146112c4578063a87430ba14610d4a578063a8df674314610cc9578063b3f5a23d14610c7a578063b487127f14610b66578063b59703a314610b0d578063bc4285e414610a00578063bf256944146109a7578063bff1f9e114610989578063d07054a8146108ab578063d9a3af6514610823578063eecea000146107d0578063f0c37a59146107b2578063f2fde38b14610724578063f3e25f5114610631578063fa6cb33e1461039a578063fbcb1345146102b3578063fce570e1146102395763fe9fbb80146101f557600080fd5b34610234576020366003190112610234576001600160a01b036102166126c6565b166000526007602052602060ff604060002054166040519015158152f35b600080fd5b34610234576020366003190112610234576102526126c6565b33600052600760205260ff60406000205416801561029f575b610274906128dc565b6001600160a01b03166000908152600660205260409020604f01805462ff0000191662010000179055005b506000546001600160a01b0316331461026b565b3461023457602080600319360112610234576001600160a01b036102d56126c6565b16600052600a81526040600020906040519182600082546102f581612851565b93848452600191868382169182600014610378575050600114610339575b50506103219250038361274f565b61033560405192828493845283019061288b565b0390f35b85925060005281600020906000915b85831061036057505061032193508201018580610313565b80548389018501528794508693909201918101610348565b925093505061032194915060ff191682840152151560051b8201018580610313565b346102345760c0366003190112610234576103b36126c6565b6024359060443590606435926084359260a43591336000526020936007855260ff60406000205416801561061d575b6103eb906128dc565b60018060a01b0316928360005260069586865282600360406000200154106105d8578460005286865283600460406000200154106105935784600052868652876005604060002001541061054e576009811115610498575b50508260005284845261045f6003604060002001918254612baa565b90558160005283835261047b6004604060002001918254612baa565b9055600052526104946005604060002001918254612baa565b9055005b84600052868652816104b182603e604060002001612b9a565b90549060031b1c1061050957906104eb6104dc6105029387600052898952603e604060002001612b9a565b91909283548360031b1c612baa565b825460001960039390931b92831b1916911b179055565b8680610443565b60405162461bcd60e51b815260048101879052601a60248201527f496e73756666696369656e742064696769742062616c616e63650000000000006044820152606490fd5b60405162461bcd60e51b815260048101879052601960248201527f496e73756666696369656e7420636173682062616c616e6365000000000000006044820152606490fd5b60405162461bcd60e51b815260048101879052601d60248201527f496e73756666696369656e742070726163746963652062616c616e63650000006044820152606490fd5b60405162461bcd60e51b815260048101879052601b60248201527f496e73756666696369656e742077616c6c65742062616c616e636500000000006044820152606490fd5b506000546001600160a01b031633146103e2565b346102345760403660031901126102345761064a6126c6565b600080516020612d5d8339815191526024359133600052600760205260ff604060002054168015610710575b61067f906128dc565b60018060a01b031691826000526006602052600f6040600020016106a482825461294e565b905582600052600660205260036040600020016106c282825461294e565b905560405190815260806020820152601060808201526f4c75636b792044726177205072697a6560801b60a082015260c060408201528061070560c08201612d13565b4260608301520390a2005b506000546001600160a01b03163314610676565b346102345760203660031901126102345761073d6126c6565b6107456128b0565b6001600160a01b0390811690811561079957600054826bffffffffffffffffffffffff60a01b821617600055167f8be0079c531659141344cd1fd0a4f28419497f9722a3daafe3b4186f6b6457e0600080a3005b604051631e4fbdf760e01b815260006004820152602490fd5b34610234576000366003190112610234576020600454604051908152f35b34610234576040366003190112610234576107e96126c6565b6107f16127be565b906107fa6128b0565b60018060a01b0316600052600760205260406000209060ff801983541691151516179055600080f35b346102345760403660031901126102345761089261083f6126c6565b6024359033600052600760205260ff604060002054168015610897575b610865906128dc565b60018060a01b03166000526006602052600760406000200161088882825461294e565b905560035461294e565b600355005b506000546001600160a01b0316331461085c565b34610234576080366003190112610234576108c46126c6565b67ffffffffffffffff604435818111610234576108e5903690600401612823565b6064359283116102345761095e61090f600080516020612d5d833981519152943690600401612823565b33600052600760205260ff604060002054168015610975575b610931906128dc565b6109506040519586956024358752608060208801526080870191612d2a565b918483036040860152612d2a565b4260608301526001600160a01b03909416930390a2005b506000546001600160a01b03163314610928565b34610234576000366003190112610234576020600154604051908152f35b34610234576020366003190112610234576109ea6109c36126c6565b33600052600760205260ff6040600020541680156109ec575b6109e5906128dc565b612bb7565b005b506000546001600160a01b031633146109dc565b346102345760c036600319011261023457610a196126c6565b60643560843560a4359283151584036102345733600052600760205260ff604060002054168015610af9575b610a4e906128dc565b60018060a01b0316928360005260066020526003604060002001610a75602435825461294e565b90558360005260066020526004604060002001610a95604435825461294e565b905580610aee575b15610ad157610ac26104eb916109ea946000526006602052603e604060002001612b9a565b91909283548360031b1c61294e565b50906000526006602052610494600560406000200191825461294e565b506009811115610a9d565b506000546001600160a01b03163314610a45565b3461023457604036600319011261023457610b266126c6565b6024359060018060a01b0380911660005260096020526040600020805483101561023457602092610b56916127f5565b9190546040519260031b1c168152f35b34610234576080600080516020612d5d833981519152610b8536612794565b939091336000526020906007825260ff604060002054168015610c66575b610bac906128dc565b60018060a01b0316948560005260068252600a604060002001610bd085825461294e565b9055600f8110610c35575b5084600052600681526003604060002001610bf784825461294e565b9055604051928352820152600f60808201526e15da5b9b995c88149959995c9c985b608a1b60a082015260c060408201528061070560c08201612d13565b610c50610c609187600052600684528360406000200161296a565b6104eb8683548360031b1c61294e565b85610bdb565b506000546001600160a01b03163314610ba3565b346102345760203660031901126102345733600052600760205260ff604060002054168015610cb5575b610cad906128dc565b600435600555005b506000546001600160a01b03163314610ca4565b3461023457608036600319011261023457610ce26126c6565b33600052600760205260ff604060002054168015610d36575b610d04906128dc565b6001600160a01b0316600090815260066020526040902060243560038201556044356004820155606435600590910155005b506000546001600160a01b03163314610cfb565b3461023457602036600319011261023457610d636126c6565b6000610420604051610d74816126dc565b8281528260208201528260408201528260608201528260808201528260a08201528260c08201528260e08201528261010082015282610120820152826101408201528261016082015282610180820152826101a0820152826101c0820152826101e082015282610200820152604051610dec81612715565b6101e0368237610220820152604051610e0481612715565b6101e0368237610240820152604051610e1c81612715565b6101e0368237610260820152604051610e3481612732565b610140368237610280820152826102a0820152826102c0820152826102e08201528261030082015282610320820152826103408201528261036082015282610380820152826103a0820152826103c0820152826103e082015282610400820152015260018060a01b03166000526006602052604060002060405190610eb8826126dc565b8054825260018101546001600160a01b03166020830152600281015460408301526003810154606083015260048101546080830152600581015460a0830152600681015460c0830152600781015460e083015260088101546101008301526009810154610120830152600a810154610140830152600b810154610160830152600c810154610180830152600d8101546101a0830152600e8101546101c0830152600f8101546101e08301526010810154610200830152610f7a60118201612919565b610220830152610f8c60208201612919565b610240830152610f9e602f8201612919565b610260830152604051603e82016000825b600a82106112ae578560ff60528787610fc781612732565b61028085015260488101546102a085015260498101546102c0850152604a8101546102e0850152604b810154610300850152604c810154610320850152604d810154610340850152604e81015461036085015282604f8201548181161515610380870152818160081c1615156103a087015260101c1615156103c085015260508101546103e085015260518101546104008501520154166104208201526040810151801515908161127d575b5080611267575b611253575b6040518151815260018060a01b03602083015116602082015260408201516040820152606082015160608201526080820151608082015260a082015160a082015260c082015160c082015260e082015160e08201526101008201516101008201526101208201516101208201526101408201516101408201526101608201516101608201526101808201516101808201526101a08201516101a08201526101c08201516101c08201526101e08201516101e08201526102008201516102008201526111546102208301516102208301906127cd565b6111686102408301516104008301906127cd565b61117c6102608301516105e08301906127cd565b61028082015160006107c083015b600a821061123d57610aa08460ff610420886102a08101516109008501526102c08101516109208501526102e08101516109408501526103008101516109608501526103208101516109808501526103408101516109a08501526103608101516109c085015261038081015115156109e08501526103a08101511515610a008501526103c08101511515610a208501526103e0810151610a40850152610400810151610a60850152015116610a80820152f35b602080600192855181520193019101909161118a565b6000608082015260006103a082015261107f565b50678ac7230489e800006101008201511061107a565b905062278d00810181116112985762278d0001421182611073565b634e487b7160e01b600052601160045260246000fd5b6001602081928554815201930191019091610faf565b34610234576040366003190112610234576112dd6126c6565b33600052600760205260ff604060002054168015611324575b6112ff906128dc565b60018060a01b031660005260066020526048604060002001610494602435825461294e565b506000546001600160a01b031633146112f6565b34610234576113d2600080516020612d5d83398151915261135836612794565b93909133600052600760205260ff604060002054168015611435575b61137d906128dc565b60018060a01b0381169485600052600660205260096040600020016113a385825461294e565b9055600f8110611412575b5084600052600660205260036040600020016113cb84825461294e565b9055612bb7565b60405190815260806020820152600f60808201526e111a5c9958dd08149959995c9c985b608a1b60a082015260c060408201528061070560c08201612d13565b610c5061142f91876000526006602052601160406000200161296a565b856113ae565b506000546001600160a01b03163314611374565b34610234576000366003190112610234576020600354604051908152f35b34610234576040366003190112610234576114806126c6565b600080516020612d5d8339815191526024359133600052600760205260ff604060002054168015611536575b6114b5906128dc565b60018060a01b031691826000526006602052600e6040600020016114da82825461294e565b905582600052600660205260036040600020016114f882825461294e565b905560405190815260806020820152600b60808201526a436c756220496e636f6d6560a81b60a082015260c060408201528061070560c08201612d13565b506000546001600160a01b031633146114ac565b34610234576000366003190112610234576000546040516001600160a01b039091168152602090f35b346102345760403660031901126102345761158c6126c6565b6024359033600052600760205260ff6040600020541680156115f6575b6115b2906128dc565b6001600160a01b0316600081815260066020526040902060100180546115d990849061294e565b90556000526006602052610494600f60406000200191825461294e565b506000546001600160a01b031633146115a9565b34610234576040366003190112610234576116236126c6565b600080516020612d5d8339815191526024359133600052600760205260ff6040600020541680156116db575b611658906128dc565b60018060a01b031691826000526006602052600d60406000200161167d82825461294e565b9055826000526006602052600360406000200161169b82825461294e565b905560405190815260806020820152600d60808201526c131bdcdcc8149959995c9c985b609a1b60a082015260c060408201528061070560c08201612d13565b506000546001600160a01b0316331461164f565b34610234576000366003190112610234576020604051620186a08152f35b3461023457600036600319011261023457602060405162278d008152f35b34610234576020366003190112610234576117446126c6565b33600052600760205260ff604060002054168015611786575b611766906128dc565b6001600160a01b0316600090815260066020526040902042600290910155005b506000546001600160a01b0316331461175d565b34610234576000366003190112610234576117b36128b0565b600080546001600160a01b0319811682556001600160a01b03167f8be0079c531659141344cd1fd0a4f28419497f9722a3daafe3b4186f6b6457e08280a3005b346102345760403660031901126102345761180c6126c6565b600080516020612d5d8339815191526101006024359233600052600760205260ff6040600020541680156118d8575b611844906128dc565b60018060a01b031692836000526006602052600c60406000200161186982825461294e565b9055836000526006602052600560406000200161188782825461294e565b905560405190815260806020820152600e60808201526d4461696c7920436173686261636b60901b60a082015260c06040820152600460c08201526347616d6560e01b60e0820152426060820152a2005b506000546001600160a01b0316331461183b565b34610234576060366003190112610234576119056126c6565b6024356001600160a01b03811681036102345733600052600760205260ff604060002054168015611e9b575b61193a906128dc565b6001600160a01b0382166000908152600660205260409020604f015460ff16611e61579061196960045461295b565b908160045561197960015461295b565b60019081556001600160a01b03828116600090815260066020526040812094855584830180546001600160a01b0319169287169290921790915560045494919390919060605b8580611e57575b15611b745750604051926119d9846126f9565b60058452602036818601376040514260208201526bffffffffffffffffffffffff198660601b1660408201528760548201526074828183015281528060a081011067ffffffffffffffff60a083011117611b5e5760a08101604052602081519101206000905b60058210611acf57505060405193611a8460208601916254524b60e81b8352868151611a748160239460208686019101612771565b810103600381018852018661274f565b84611a9760405192839251928391612771565b600b9082019081528190036020019020546001600160a01b031615611ac6575b611ac09061295b565b926119bf565b60009550611ab7565b60405180606081011067ffffffffffffffff606083011117611b5e57611b5891816060602493016040528281527f303132333435363738394142434445464748494a4b4c4d4e4f505152535455566020820152632bac2cad60e11b6040820152611b4160ff60f81b9184840690612d4b565b511660001a611b50858a612d4b565b53049161295b565b90611a3f565b634e487b7160e01b600052604160045260246000fd5b82858388611e12576001600160a01b0382166000908152600a602052604090208451949067ffffffffffffffff8611611b5e57611bb18154612851565b601f8111611dce575b50602095601f8111600114611d5f579160209183611c0494600499600091611d54575b508160011b916000199060031b1c19161790555b8160405193828580945193849201612771565b600b9082019081520301902080546001600160a01b03199081166001600160a01b03858116918217909355426002850155604f8401805461ffff191661010117905560443596909301869055600454600090815260086020526040902080549091169092179091558216611cbd575b6004546040518181526020945090926001600160a01b039081169216907f05345a91f639184e946e5aac384b1e9f74ae9ab08d775a7deddb3180cebecb23908590a3604051908152f35b6001600160a01b03821660009081526006602052604090206050018054611ce39061295b565b90556001600160a01b03821660009081526009602052604090208054939068010000000000000000851015611b5e5784611d249160016020970181556127f5565b81546001600160a01b0385811660039390931b92831b921b191617905515611c7357611d4f8161297a565b611c73565b90508301518a611bdd565b81600052602060002060005b601f1983168110611db657509160018260209460049a611c049795601f19811610611d9d575b5050811b019055611bf1565b85015160001960f88460031b161c191690558a80611d91565b84890151825560209889019860019092019101611d6b565b816000526020600020601f880160051c810160208910611e0b575b601f830160051c82018110611dff575050611bba565b60008155600101611de9565b5080611de9565b60405162461bcd60e51b815260206004820152601e60248201527f4661696c656420746f2067656e657261746520756e6971756520636f646500006044820152606490fd5b50600584106119c6565b60405162461bcd60e51b8152602060048201526012602482015271105b1c9958591e481c9959da5cdd195c995960721b6044820152606490fd5b506000546001600160a01b03163314611931565b346102345760a036600319011261023457611ec86126c6565b611ed06127be565b604435916084359160643591831515840361023457336000526020906007825260ff6040600020541680156120cd575b611f09906128dc565b60018060a01b0316928360005260068252604060002095620151804204604e8801818154106120b7575b505080612062575b5080611f59575b50505050611f4c57005b604b01610494815461295b565b611ff9600080516020612d5d83398151915293604a8801611f7b84825461294e565b9055801561203c57604051611f8f816126f9565b60098152684d61696e2f47616d6560b81b85820152905b1561200b57611feb604051611fba816126f9565b600d81526c21b0b9b41023b0b6b2902bb4b760991b868201525b60806040519687968752860152608085019061288b565b90838203604085015261288b565b4260608301520390a282808080611f42565b611feb60405161201a816126f9565b6011815270283930b1ba34b1b29023b0b6b2902bb4b760791b86820152611fd4565b604051612048816126f9565b6008815267507261637469636560c01b8582015290611fa6565b6049870161207182825461294e565b905583156120915750604d8601612088815461295b565b90555b86611f3b565b604c870161209f815461295b565b90556120b060048801918254612baa565b905561208b565b6000604c8a01556000604d8a0155558780611f33565b506000546001600160a01b03163314611f00565b34610234576020366003190112610234576109ea6120fd6126c6565b33600052600760205260ff604060002054168015612124575b61211f906128dc565b61297a565b506000546001600160a01b03163314612116565b34610234576000366003190112610234576020600254604051908152f35b3461023457600080516020612d5d83398151915261217336612794565b929133600052600760205260ff604060002054168015612277575b612197906128dc565b60018060a01b031692836000526006602052600b6040600020016121bc83825461294e565b9055600f8110612244575b5082600052600660205260046040600020016121e482825461294e565b9055604051908152608060208201526016608082015275141c9858dd1a58d94811d85b5948149959995c9c985b60521b60a082015260c060408201528061070560c082016040906008815267507261637469636560c01b60208201520190565b61226161227191856000526006602052602f60406000200161296a565b6104eb8483548360031b1c61294e565b836121c7565b506000546001600160a01b0316331461218e565b34610234576000366003190112610234576020600554604051908152f35b34610234576040366003190112610234576122c26126c6565b60243533600052600760205260ff6040600020541680156123dd575b6122e7906128dc565b60018060a01b03908183166000526006602052604060002091600883019161235983549161232b816005548510946006890161232483825461294e565b905561294e565b8555604f86016201000062ff0000198254161790556005860161234f82825461294e565b905560025461294e565b600255806123d0575b806123c1575b612399575b50546005541115908161238b575b5061238257005b6109ea90612bb7565b60049150015415158261237b565b600183015416600052600660205260516040600020016123b9815461295b565b90558361236d565b50806001840154161515612368565b5081546005541115612362565b506000546001600160a01b031633146122de565b346102345760403660031901126102345761240a6126c6565b6024359060ff82168092036102345733600052600760205260ff6040600020541680156124a3575b61243b906128dc565b6001821161246a576001600160a01b03166000908152600660205260409020605201805460ff19169091179055005b60405162461bcd60e51b8152602060048201526011602482015270496e76616c69642064726177207479706560781b6044820152606490fd5b506000546001600160a01b03163314612432565b3461023457600036600319011261023457602060405168056bc75e2d631000008152f35b34610234576020366003190112610234576004356000526008602052602060018060a01b0360406000205416604051908152f35b34610234576020366003190112610234576001600160a01b036125306126c6565b16600052600c6020526020604060002054604051908152f35b34610234576020806003193601126102345760043567ffffffffffffffff8082116102345736602383011215610234578160040135908111611b5e576040519061259c601f8201601f191685018361274f565b808252838201923660248383010111610234578160009260248793018637830101526125d060405192839251928391612771565b600b90820190815281900382019020546040516001600160a01b039091168152f35b346102345760403660031901126102345761260b6126c6565b6024359033600052600760205260ff6040600020541680156126b2575b612631906128dc565b6001600160a01b0316600081815260066020526040902060100154821161266d5760005260066020526104946010604060002001918254612baa565b60405162461bcd60e51b815260206004820152601960248201527f496e73756666696369656e74206c75636b792077616c6c6574000000000000006044820152606490fd5b506000546001600160a01b03163314612628565b600435906001600160a01b038216820361023457565b610440810190811067ffffffffffffffff821117611b5e57604052565b6040810190811067ffffffffffffffff821117611b5e57604052565b6101e0810190811067ffffffffffffffff821117611b5e57604052565b610140810190811067ffffffffffffffff821117611b5e57604052565b90601f8019910116810190811067ffffffffffffffff821117611b5e57604052565b60005b8381106127845750506000910152565b8181015183820152602001612774565b6060906003190112610234576004356001600160a01b038116810361023457906024359060443590565b60243590811515820361023457565b6000915b600f83106127de57505050565b6001908251815260208091019201920191906127d1565b805482101561280d5760005260206000200190600090565b634e487b7160e01b600052603260045260246000fd5b9181601f840112156102345782359167ffffffffffffffff8311610234576020838186019501011161023457565b90600182811c92168015612881575b602083101461286b57565b634e487b7160e01b600052602260045260246000fd5b91607f1691612860565b906020916128a481518092818552858086019101612771565b601f01601f1916010190565b6000546001600160a01b031633036128c457565b60405163118cdaa760e01b8152336004820152602490fd5b156128e357565b60405162461bcd60e51b815260206004820152600e60248201526d139bdd08185d5d1a1bdc9a5e995960921b6044820152606490fd5b60405191906000835b600f82106129385750505061293682612715565b565b6001602081928554815201930191019091612922565b9190820180921161129857565b60001981146112985760010190565b600f82101561280d570190600090565b9060018060a01b0380921660008181526006936020948086526001926040918385848420015416978583905b6129b7575b50505050505050509050565b6064811080612b8f575b15612b8a5780612b165785678ac7230489e800009a5b1680855283835260049a8b878720016129f182825461294e565b9055818652848452600b87872001612a0a82825461294e565b9055600f8310612af9575b888301808411612ae6578a9b9c5082918a9b837f97292f5ed41621fee094b35414ac210efbac1fb83e68fdaa18bdd86c44d4642d8b600080516020612d5d833981519152959d9e9d8151908682528b820152a3885190815260116080808884015282015270141c9858dd1a58d948149959995c9c985b607a1b60a082015280612abc60c0808c84015282016040906008815267507261637469636560c01b60208201520190565b4260608301520390a28452828252612adb87878787200154169161295b565b9099989796956129a6565b634e487b7160e01b875260118d52602487fd5b818652848452612b1161226184602f8a8a200161296a565b612a15565b6005811015612b2f5785671bc16d674ec800009a6129d7565b600a811015612b485785670de0b6b3a76400009a6129d7565b600f811015612b6157856706f05b59d3b200009a6129d7565b6032811015612b7a57856703782dace9d900009a6129d7565b8567016345785d8a00009a6129d7565b6129ab565b50858a1615156129c1565b600a82101561280d570190600090565b9190820391821161129857565b6001600160a01b0316600081815260066020526040908190206008810154600554111580612d06575b612be957505050565b602f810154600c6020528260002054808211612c07575b5050505050565b612c1091612baa565b60048201805493848311612cfe575b82612c2b575b50612c00565b60056101009460c093612c4d86600080516020612d5d83398151915299612baa565b905501612c5b84825461294e565b905585600052600c60205280600020612c7584825461294e565b9055857fe77d13a50f3f7e7d4b37e160120957f51b0806b1b7f18967dd41a73786237104828051868152426020820152a28051928352608060208401526013608084015272283930b1ba34b1b29021b7b73b32b939b4b7b760691b60a0840152820152600460c082015263086c2e6d60e31b60e0820152426060820152a2388080808080612c25565b849250612c1f565b5060048101541515612be0565b600481526326b0b4b760e11b602082015260400190565b908060209392818452848401376000828201840152601f01601f1916010190565b90815181101561280d57016020019056fe6899b2dc402c62c1e6e8f0d7d509af4a03ee6b79141f99e3af2463a6e0dbed83a264697066735822122022be2746c86fbb009e649d533ef7e5dbd936d05adb9900b1744e3cca749e97e364736f6c63430008140033",
  "linkReferences": {},
  "deployedLinkReferences": {}
}