{
  "_format": "hh-sol-artifact-1",
  "contractName": "TRKUserRegistry",
  "sourceName": "contracts/TRKUserRegistry.sol",
  "abi": [
    {
      "inputs": [],
      "stateMutability": "nonpayable",
      "type": "constructor"
    },
    {
      "inputs": [
        {
          "internalType": "address",
          "name": "owner",
          "type": "address"
        }
      ],
      "name": "OwnableInvalidOwner",
      "type": "error"
    },
    {
      "inputs": [
        {
          "internalType": "address",
          "name": "account",
          "type": "address"
        }
      ],
      "name": "OwnableUnauthorizedAccount",
      "type": "error"
    },
    {
      "anonymous": false,
      "inputs": [
        {
          "indexed": true,
          "internalType": "address",
          "name": "user",
          "type": "address"
        },
        {
          "indexed": false,
          "internalType": "uint256",
          "name": "amount",
          "type": "uint256"
        },
        {
          "indexed": false,
          "internalType": "string",
          "name": "source",
          "type": "string"
        },
        {
          "indexed": false,
          "internalType": "string",
          "name": "walletType",
          "type": "string"
        },
        {
          "indexed": false,
          "internalType": "uint256",
          "name": "timestamp",
          "type": "uint256"
        }
      ],
      "name": "IncomeReceived",
      "type": "event"
    },
    {
      "anonymous": false,
      "inputs": [
        {
          "indexed": true,
          "internalType": "address",
          "name": "previousOwner",
          "type": "address"
        },
        {
          "indexed": true,
          "internalType": "address",
          "name": "newOwner",
          "type": "address"
        }
      ],
      "name": "OwnershipTransferred",
      "type": "event"
    },
    {
      "anonymous": false,
      "inputs": [
        {
          "indexed": true,
          "internalType": "address",
          "name": "user",
          "type": "address"
        },
        {
          "indexed": false,
          "internalType": "uint256",
          "name": "amount",
          "type": "uint256"
        },
        {
          "indexed": false,
          "internalType": "uint256",
          "name": "timestamp",
          "type": "uint256"
        }
      ],
      "name": "PracticeConverted",
      "type": "event"
    },
    {
      "anonymous": false,
      "inputs": [
        {
          "indexed": true,
          "internalType": "address",
          "name": "user",
          "type": "address"
        },
        {
          "indexed": true,
          "internalType": "address",
          "name": "from",
          "type": "address"
        },
        {
          "indexed": false,
          "internalType": "uint256",
          "name": "amount",
          "type": "uint256"
        },
        {
          "indexed": false,
          "internalType": "uint256",
          "name": "level",
          "type": "uint256"
        }
      ],
      "name": "PracticeRewardReceived",
      "type": "event"
    },
    {
      "anonymous": false,
      "inputs": [
        {
          "indexed": true,
          "internalType": "address",
          "name": "user",
          "type": "address"
        },
        {
          "indexed": true,
          "internalType": "address",
          "name": "referrer",
          "type": "address"
        },
        {
          "indexed": false,
          "internalType": "uint256",
          "name": "userId",
          "type": "uint256"
        }
      ],
      "name": "UserRegistered",
      "type": "event"
    },
    {
      "inputs": [],
      "name": "ACTIVATION_DEADLINE",
      "outputs": [
        {
          "internalType": "uint256",
          "name": "",
          "type": "uint256"
        }
      ],
      "stateMutability": "view",
      "type": "function"
    },
    {
      "inputs": [],
      "name": "BONUS_LIMIT",
      "outputs": [
        {
          "internalType": "uint256",
          "name": "",
          "type": "uint256"
        }
      ],
      "stateMutability": "view",
      "type": "function"
    },
    {
      "inputs": [],
      "name": "FULL_ACTIVATION_BRIDGE",
      "outputs": [
        {
          "internalType": "uint256",
          "name": "",
          "type": "uint256"
        }
      ],
      "stateMutability": "view",
      "type": "function"
    },
    {
      "inputs": [],
      "name": "SIGNUP_BONUS",
      "outputs": [
        {
          "internalType": "uint256",
          "name": "",
          "type": "uint256"
        }
      ],
      "stateMutability": "view",
      "type": "function"
    },
    {
      "inputs": [
        {
          "internalType": "address",
          "name": "user",
          "type": "address"
        },
        {
          "internalType": "uint256",
          "name": "wallet",
          "type": "uint256"
        },
        {
          "internalType": "uint256",
          "name": "practice",
          "type": "uint256"
        },
        {
          "internalType": "uint256",
          "name": "cash",
          "type": "uint256"
        },
        {
          "internalType": "uint256",
          "name": "winningDigit",
          "type": "uint256"
        },
        {
          "internalType": "bool",
          "name": "isWinner",
          "type": "bool"
        }
      ],
      "name": "addBalances",
      "outputs": [],
      "stateMutability": "nonpayable",
      "type": "function"
    },
    {
      "inputs": [
        {
          "internalType": "address",
          "name": "user",
          "type": "address"
        },
        {
          "internalType": "uint256",
          "name": "amount",
          "type": "uint256"
        }
      ],
      "name": "addCashbackIncome",
      "outputs": [],
      "stateMutability": "nonpayable",
      "type": "function"
    },
    {
      "inputs": [
        {
          "internalType": "address",
          "name": "user",
          "type": "address"
        },
        {
          "internalType": "uint256",
          "name": "amount",
          "type": "uint256"
        }
      ],
      "name": "addClubIncome",
      "outputs": [],
      "stateMutability": "nonpayable",
      "type": "function"
    },
    {
      "inputs": [
        {
          "internalType": "address",
          "name": "user",
          "type": "address"
        },
        {
          "internalType": "uint256",
          "name": "amount",
          "type": "uint256"
        }
      ],
      "name": "addDeposit",
      "outputs": [],
      "stateMutability": "nonpayable",
      "type": "function"
    },
    {
      "inputs": [
        {
          "internalType": "address",
          "name": "user",
          "type": "address"
        },
        {
          "internalType": "uint256",
          "name": "amount",
          "type": "uint256"
        },
        {
          "internalType": "uint256",
          "name": "level",
          "type": "uint256"
        }
      ],
      "name": "addDirectReferralIncome",
      "outputs": [],
      "stateMutability": "nonpayable",
      "type": "function"
    },
    {
      "inputs": [
        {
          "internalType": "address",
          "name": "user",
          "type": "address"
        },
        {
          "internalType": "bool",
          "name": "isCash",
          "type": "bool"
        },
        {
          "internalType": "uint256",
          "name": "betAmount",
          "type": "uint256"
        },
        {
          "internalType": "uint256",
          "name": "winAmount",
          "type": "uint256"
        },
        {
          "internalType": "bool",
          "name": "isLoss",
          "type": "bool"
        }
      ],
      "name": "addGameStats",
      "outputs": [],
      "stateMutability": "nonpayable",
      "type": "function"
    },
    {
      "inputs": [
        {
          "internalType": "address",
          "name": "user",
          "type": "address"
        },
        {
          "internalType": "uint256",
          "name": "amount",
          "type": "uint256"
        }
      ],
      "name": "addLossReferralIncome",
      "outputs": [],
      "stateMutability": "nonpayable",
      "type": "function"
    },
    {
      "inputs": [
        {
          "internalType": "address",
          "name": "user",
          "type": "address"
        },
        {
          "internalType": "uint256",
          "name": "amount",
          "type": "uint256"
        }
      ],
      "name": "addLuckyDrawIncome",
      "outputs": [],
      "stateMutability": "nonpayable",
      "type": "function"
    },
    {
      "inputs": [
        {
          "internalType": "address",
          "name": "user",
          "type": "address"
        },
        {
          "internalType": "uint256",
          "name": "amount",
          "type": "uint256"
        }
      ],
      "name": "addLuckyDrawWallet",
      "outputs": [],
      "stateMutability": "nonpayable",
      "type": "function"
    },
    {
      "inputs": [
        {
          "internalType": "address",
          "name": "user",
          "type": "address"
        },
        {
          "internalType": "uint256",
          "name": "amount",
          "type": "uint256"
        },
        {
          "internalType": "uint256",
          "name": "level",
          "type": "uint256"
        }
      ],
      "name": "addPracticeReferralIncome",
      "outputs": [],
      "stateMutability": "nonpayable",
      "type": "function"
    },
    {
      "inputs": [
        {
          "internalType": "address",
          "name": "user",
          "type": "address"
        },
        {
          "internalType": "uint256",
          "name": "amount",
          "type": "uint256"
        },
        {
          "internalType": "uint256",
          "name": "level",
          "type": "uint256"
        }
      ],
      "name": "addWinnerReferralIncome",
      "outputs": [],
      "stateMutability": "nonpayable",
      "type": "function"
    },
    {
      "inputs": [
        {
          "internalType": "address",
          "name": "user",
          "type": "address"
        },
        {
          "internalType": "uint256",
          "name": "amount",
          "type": "uint256"
        }
      ],
      "name": "addWithdrawal",
      "outputs": [],
      "stateMutability": "nonpayable",
      "type": "function"
    },
    {
      "inputs": [
        {
          "internalType": "address",
          "name": "user",
          "type": "address"
        }
      ],
      "name": "checkAndConvertPractice",
      "outputs": [],
      "stateMutability": "nonpayable",
      "type": "function"
    },
    {
      "inputs": [
        {
          "internalType": "string",
          "name": "",
          "type": "string"
        }
      ],
      "name": "codeToUser",
      "outputs": [
        {
          "internalType": "address",
          "name": "",
          "type": "address"
        }
      ],
      "stateMutability": "view",
      "type": "function"
    },
    {
      "inputs": [
        {
          "internalType": "address",
          "name": "user",
          "type": "address"
        },
        {
          "internalType": "uint256",
          "name": "amount",
          "type": "uint256"
        }
      ],
      "name": "deductLuckyDrawWallet",
      "outputs": [],
      "stateMutability": "nonpayable",
      "type": "function"
    },
    {
      "inputs": [
        {
          "internalType": "address",
          "name": "",
          "type": "address"
        },
        {
          "internalType": "uint256",
          "name": "",
          "type": "uint256"
        }
      ],
      "name": "directReferralsList",
      "outputs": [
        {
          "internalType": "address",
          "name": "",
          "type": "address"
        }
      ],
      "stateMutability": "view",
      "type": "function"
    },
    {
      "inputs": [
        {
          "internalType": "uint256",
          "name": "",
          "type": "uint256"
        }
      ],
      "name": "idToAddress",
      "outputs": [
        {
          "internalType": "address",
          "name": "",
          "type": "address"
        }
      ],
      "stateMutability": "view",
      "type": "function"
    },
    {
      "inputs": [
        {
          "internalType": "address",
          "name": "user",
          "type": "address"
        },
        {
          "internalType": "uint256",
          "name": "amount",
          "type": "uint256"
        }
      ],
      "name": "incrementTeamVolume",
      "outputs": [],
      "stateMutability": "nonpayable",
      "type": "function"
    },
    {
      "inputs": [
        {
          "internalType": "address",
          "name": "",
          "type": "address"
        }
      ],
      "name": "isAuthorized",
      "outputs": [
        {
          "internalType": "bool",
          "name": "",
          "type": "bool"
        }
      ],
      "stateMutability": "view",
      "type": "function"
    },
    {
      "inputs": [],
      "name": "owner",
      "outputs": [
        {
          "internalType": "address",
          "name": "",
          "type": "address"
        }
      ],
      "stateMutability": "view",
      "type": "function"
    },
    {
      "inputs": [
        {
          "internalType": "address",
          "name": "user",
          "type": "address"
        }
      ],
      "name": "ownerActivateUser",
      "outputs": [],
      "stateMutability": "nonpayable",
      "type": "function"
    },
    {
      "inputs": [
        {
          "internalType": "address",
          "name": "",
          "type": "address"
        }
      ],
      "name": "practiceConvertedToCash",
      "outputs": [
        {
          "internalType": "uint256",
          "name": "",
          "type": "uint256"
        }
      ],
      "stateMutability": "view",
      "type": "function"
    },
    {
      "inputs": [
        {
          "internalType": "address",
          "name": "user",
          "type": "address"
        },
        {
          "internalType": "uint256",
          "name": "amount",
          "type": "uint256"
        },
        {
          "internalType": "string",
          "name": "source",
          "type": "string"
        },
        {
          "internalType": "string",
          "name": "walletType",
          "type": "string"
        }
      ],
      "name": "recordExternalIncome",
      "outputs": [],
      "stateMutability": "nonpayable",
      "type": "function"
    },
    {
      "inputs": [
        {
          "internalType": "address",
          "name": "user",
          "type": "address"
        },
        {
          "internalType": "address",
          "name": "referrer",
          "type": "address"
        },
        {
          "internalType": "uint256",
          "name": "bonus",
          "type": "uint256"
        }
      ],
      "name": "registerUser",
      "outputs": [
        {
          "internalType": "uint256",
          "name": "",
          "type": "uint256"
        }
      ],
      "stateMutability": "nonpayable",
      "type": "function"
    },
    {
      "inputs": [],
      "name": "renounceOwnership",
      "outputs": [],
      "stateMutability": "nonpayable",
      "type": "function"
    },
    {
      "inputs": [
        {
          "internalType": "uint256",
          "name": "amount",
          "type": "uint256"
        }
      ],
      "name": "setActivationBridge",
      "outputs": [],
      "stateMutability": "nonpayable",
      "type": "function"
    },
    {
      "inputs": [
        {
          "internalType": "address",
          "name": "target",
          "type": "address"
        },
        {
          "internalType": "bool",
          "name": "status",
          "type": "bool"
        }
      ],
      "name": "setAuthorization",
      "outputs": [],
      "stateMutability": "nonpayable",
      "type": "function"
    },
    {
      "inputs": [
        {
          "internalType": "address",
          "name": "user",
          "type": "address"
        },
        {
          "internalType": "uint8",
          "name": "drawType",
          "type": "uint8"
        }
      ],
      "name": "setLuckyDrawPreference",
      "outputs": [],
      "stateMutability": "nonpayable",
      "type": "function"
    },
    {
      "inputs": [
        {
          "internalType": "address",
          "name": "user",
          "type": "address"
        },
        {
          "internalType": "uint256",
          "name": "wallet",
          "type": "uint256"
        },
        {
          "internalType": "uint256",
          "name": "practice",
          "type": "uint256"
        },
        {
          "internalType": "uint256",
          "name": "cash",
          "type": "uint256"
        },
        {
          "internalType": "uint256",
          "name": "digit",
          "type": "uint256"
        },
        {
          "internalType": "uint256",
          "name": "digitAmount",
          "type": "uint256"
        }
      ],
      "name": "subtractBalances",
      "outputs": [],
      "stateMutability": "nonpayable",
      "type": "function"
    },
    {
      "inputs": [],
      "name": "totalUsers",
      "outputs": [
        {
          "internalType": "uint256",
          "name": "",
          "type": "uint256"
        }
      ],
      "stateMutability": "view",
      "type": "function"
    },
    {
      "inputs": [],
      "name": "totalVolume",
      "outputs": [
        {
          "internalType": "uint256",
          "name": "",
          "type": "uint256"
        }
      ],
      "stateMutability": "view",
      "type": "function"
    },
    {
      "inputs": [],
      "name": "totalWithdrawnGlobal",
      "outputs": [
        {
          "internalType": "uint256",
          "name": "",
          "type": "uint256"
        }
      ],
      "stateMutability": "view",
      "type": "function"
    },
    {
      "inputs": [
        {
          "internalType": "address",
          "name": "newOwner",
          "type": "address"
        }
      ],
      "name": "transferOwnership",
      "outputs": [],
      "stateMutability": "nonpayable",
      "type": "function"
    },
    {
      "inputs": [
        {
          "internalType": "address",
          "name": "user",
          "type": "address"
        }
      ],
      "name": "triggerPracticeReferral",
      "outputs": [],
      "stateMutability": "nonpayable",
      "type": "function"
    },
    {
      "inputs": [
        {
          "internalType": "address",
          "name": "user",
          "type": "address"
        }
      ],
      "name": "unpruneUser",
      "outputs": [],
      "stateMutability": "nonpayable",
      "type": "function"
    },
    {
      "inputs": [
        {
          "internalType": "address",
          "name": "user",
          "type": "address"
        },
        {
          "internalType": "uint256",
          "name": "wallet",
          "type": "uint256"
        },
        {
          "internalType": "uint256",
          "name": "practice",
          "type": "uint256"
        },
        {
          "internalType": "uint256",
          "name": "cash",
          "type": "uint256"
        }
      ],
      "name": "updateBalances",
      "outputs": [],
      "stateMutability": "nonpayable",
      "type": "function"
    },
    {
      "inputs": [],
      "name": "userCounter",
      "outputs": [
        {
          "internalType": "uint256",
          "name": "",
          "type": "uint256"
        }
      ],
      "stateMutability": "view",
      "type": "function"
    },
    {
      "inputs": [
        {
          "internalType": "address",
          "name": "",
          "type": "address"
        }
      ],
      "name": "userToCode",
      "outputs": [
        {
          "internalType": "string",
          "name": "",
          "type": "string"
        }
      ],
      "stateMutability": "view",
      "type": "function"
    },
    {
      "inputs": [
        {
          "internalType": "address",
          "name": "user",
          "type": "address"
        }
      ],
      "name": "users",
      "outputs": [
        {
          "components": [
            {
              "internalType": "uint256",
              "name": "userId",
              "type": "uint256"
            },
            {
              "internalType": "address",
              "name": "referrer",
              "type": "address"
            },
            {
              "internalType": "uint256",
              "name": "registrationTime",
              "type": "uint256"
            },
            {
              "internalType": "uint256",
              "name": "walletBalance",
              "type": "uint256"
            },
            {
              "internalType": "uint256",
              "name": "practiceBalance",
              "type": "uint256"
            },
            {
              "internalType": "uint256",
              "name": "cashGameBalance",
              "type": "uint256"
            },
            {
              "internalType": "uint256",
              "name": "totalDeposit",
              "type": "uint256"
            },
            {
              "internalType": "uint256",
              "name": "totalWithdrawn",
              "type": "uint256"
            },
            {
              "internalType": "uint256",
              "name": "cumulativeDeposit",
              "type": "uint256"
            },
            {
              "internalType": "uint256",
              "name": "directReferralIncome",
              "type": "uint256"
            },
            {
              "internalType": "uint256",
              "name": "winnerReferralIncome",
              "type": "uint256"
            },
            {
              "internalType": "uint256",
              "name": "practiceReferralIncome",
              "type": "uint256"
            },
            {
              "internalType": "uint256",
              "name": "cashbackIncome",
              "type": "uint256"
            },
            {
              "internalType": "uint256",
              "name": "lossReferralIncome",
              "type": "uint256"
            },
            {
              "internalType": "uint256",
              "name": "clubIncome",
              "type": "uint256"
            },
            {
              "internalType": "uint256",
              "name": "luckyDrawIncome",
              "type": "uint256"
            },
            {
              "internalType": "uint256",
              "name": "luckyDrawWallet",
              "type": "uint256"
            },
            {
              "internalType": "uint256[15]",
              "name": "directReferralIncomeByLevel",
              "type": "uint256[15]"
            },
            {
              "internalType": "uint256[15]",
              "name": "winnerReferralIncomeByLevel",
              "type": "uint256[15]"
            },
            {
              "internalType": "uint256[15]",
              "name": "practiceReferralIncomeByLevel",
              "type": "uint256[15]"
            },
            {
              "internalType": "uint256[10]",
              "name": "digitBalances",
              "type": "uint256[10]"
            },
            {
              "internalType": "uint256",
              "name": "teamVolume",
              "type": "uint256"
            },
            {
              "internalType": "uint256",
              "name": "totalBets",
              "type": "uint256"
            },
            {
              "internalType": "uint256",
              "name": "totalWins",
              "type": "uint256"
            },
            {
              "internalType": "uint256",
              "name": "totalLosses",
              "type": "uint256"
            },
            {
              "internalType": "uint256",
              "name": "practiceGamesPlayedToday",
              "type": "uint256"
            },
            {
              "internalType": "uint256",
              "name": "cashGamesPlayedToday",
              "type": "uint256"
            },
            {
              "internalType": "uint256",
              "name": "lastGameDate",
              "type": "uint256"
            },
            {
              "internalType": "bool",
              "name": "isRegistered",
              "type": "bool"
            },
            {
              "internalType": "bool",
              "name": "isPracticePlayer",
              "type": "bool"
            },
            {
              "internalType": "bool",
              "name": "isCashPlayer",
              "type": "bool"
            },
            {
              "internalType": "uint256",
              "name": "directReferrals",
              "type": "uint256"
            },
            {
              "internalType": "uint256",
              "name": "activeDirects",
              "type": "uint256"
            },
            {
              "internalType": "uint8",
              "name": "preferredLuckyDraw",
              "type": "uint8"
            }
          ],
          "internalType": "struct ITRKRegistry.User",
          "name": "",
          "type": "tuple"
        }
      ],
      "stateMutability": "view",
      "type": "function"
    }
  ],
  "bytecode": "0x60808060405234620004ea573315620004d45760008054336001600160a01b0319821681178355916001600160a01b03909116907f8be0079c531659141344cd1fd0a4f28419497f9722a3daafe3b4186f6b6457e09080a368056bc75e2d63100000806005556004620000738154620004ef565b80825562000083600154620004ef565b6001553360005260066020526040600020908155426002820155604f810161010161ffff198254161790550155600454600052600860205260406000203360018060a01b031982541617905560045460006060906001915b8280620004c9575b15620002d6575060408051919082016001600160401b038111838210176200022b5760405260058252602036818401376040514260208201523360601b60408201528460548201526074828183015281528060a081011060018060401b0360a0830111176200022b5760a08101604052602081519101206000905b600582106200024157505060405180926254524b60e81b60208301526200019081518092602060238601910162000515565b81010360038101835291601f19604284011681018082116001600160401b03909111176200022b5760428301601f1916810160408190528151919384929091620001e09082906020860162000515565b600b604292909201601f1916929092019182019081528190036020019020546001600160a01b03161562000221575b6200021a90620004ef565b90620000db565b600092506200020f565b634e487b7160e01b600052604160045260246000fd5b6040516001600160401b0360608201908111908211176200022b57620002cf91606082016040526024918281527f303132333435363738394142434445464748494a4b4c4d4e4f505152535455566020820152632bac2cad60e11b6040820152620002b560ff60f81b91848406906200053a565b511660001a620002c685886200053a565b530491620004ef565b906200015e565b826200048457336000908152600a6020526040902081516001600160401b0381116200022b578154600181811c9116801562000479575b60208210146200046357601f811162000416575b506020601f8211600114620003a45791816200036c949260209460009162000398575b508160011b916000199060031b1c19161790555b816040519382858094519384920162000515565b600b9082019081520301902080546001600160a01b03191633179055604051612d849081620005638239f35b90508301518662000344565b601f198216908360005260206000209160005b818110620003fd57509260209492600192826200036c989610620003e3575b5050811b01905562000358565b85015160001960f88460031b161c191690558680620003d6565b9192602060018192868a015181550194019201620003b7565b826000526020600020601f830160051c8101916020841062000458575b601f0160051c01905b8181106200044b575062000321565b600081556001016200043c565b909150819062000433565b634e487b7160e01b600052602260045260246000fd5b90607f16906200030d565b60405162461bcd60e51b815260206004820152601e60248201527f4661696c656420746f2067656e657261746520756e6971756520636f646500006044820152606490fd5b5060058210620000e3565b631e4fbdf760e01b815260006004820152602490fd5b600080fd5b6000198114620004ff5760010190565b634e487b7160e01b600052601160045260246000fd5b60005b838110620005295750506000910152565b818101518382015260200162000518565b9081518110156200054c570160200190565b634e487b7160e01b600052603260045260246000fdfe6080604052600436101561001257600080fd5b60003560e01c806307f60f12146127e4578063152c17251461273b5780631a0ea699146127015780632a2d0c47146126cd5780632fb21a68146126a957806330eeb3e2146125e357806333026bb61461249b5780633fe762e71461247d578063496ef8c0146123485780635f81a57c1461232a5780636116dd88146120cb578063625feee414611e9957806367427d24146118ec578063686c34ea146117f3578063715018a61461179a578063771c8e961461172b5780637b5eb27b1461170d5780637e9ea428146116ef57806380aa9a931461160a5780638d6db1c5146115735780638da5cb5b1461154a57806390dc350014611467578063966eab11146114495780639d9da03814611338578063a0faeeab146112c4578063a87430ba14610d4a578063a8df674314610cc9578063b3f5a23d14610c7a578063b487127f14610b66578063b59703a314610b0d578063bc4285e414610a00578063bf256944146109a7578063bff1f9e114610989578063d07054a8146108ab578063d9a3af6514610823578063eecea000146107d0578063f0c37a59146107b2578063f2fde38b14610724578063f3e25f5114610631578063fa6cb33e1461039a578063fbcb1345146102b3578063fce570e1146102395763fe9fbb80146101f557600080fd5b34610234576020366003190112610234576001600160a01b036102166128b8565b166000526007602052602060ff604060002054166040519015158152f35b600080fd5b34610234576020366003190112610234576102526128b8565b33600052600760205260ff60406000205416801561029f575b61027490612ace565b6001600160a01b03166000908152600660205260409020604f01805462ff0000191662010000179055005b506000546001600160a01b0316331461026b565b3461023457602080600319360112610234576001600160a01b036102d56128b8565b16600052600a81526040600020906040519182600082546102f581612a43565b93848452600191868382169182600014610378575050600114610339575b505061032192500383612941565b610335604051928284938452830190612a7d565b0390f35b85925060005281600020906000915b85831061036057505061032193508201018580610313565b80548389018501528794508693909201918101610348565b925093505061032194915060ff191682840152151560051b8201018580610313565b346102345760c0366003190112610234576103b36128b8565b6024359060443590606435926084359260a43591336000526020936007855260ff60406000205416801561061d575b6103eb90612ace565b60018060a01b0316928360005260069586865282600360406000200154106105d8578460005286865283600460406000200154106105935784600052868652876005604060002001541061054e576009811115610498575b50508260005284845261045f6003604060002001918254612b7c565b90558160005283835261047b6004604060002001918254612b7c565b9055600052526104946005604060002001918254612b7c565b9055005b84600052868652816104b182603e604060002001612b6c565b90549060031b1c1061050957906104eb6104dc6105029387600052898952603e604060002001612b6c565b91909283548360031b1c612b7c565b825460001960039390931b92831b1916911b179055565b8680610443565b60405162461bcd60e51b815260048101879052601a60248201527f496e73756666696369656e742064696769742062616c616e63650000000000006044820152606490fd5b60405162461bcd60e51b815260048101879052601960248201527f496e73756666696369656e7420636173682062616c616e6365000000000000006044820152606490fd5b60405162461bcd60e51b815260048101879052601d60248201527f496e73756666696369656e742070726163746963652062616c616e63650000006044820152606490fd5b60405162461bcd60e51b815260048101879052601b60248201527f496e73756666696369656e742077616c6c65742062616c616e636500000000006044820152606490fd5b506000546001600160a01b031633146103e2565b346102345760403660031901126102345761064a6128b8565b600080516020612d2f8339815191526024359133600052600760205260ff604060002054168015610710575b61067f90612ace565b60018060a01b031691826000526006602052600f6040600020016106a4828254612b40565b905582600052600660205260036040600020016106c2828254612b40565b905560405190815260806020820152601060808201526f4c75636b792044726177205072697a6560801b60a082015260c060408201528061070560c08201612ce5565b4260608301520390a2005b506000546001600160a01b03163314610676565b346102345760203660031901126102345761073d6128b8565b610745612aa2565b6001600160a01b0390811690811561079957600054826bffffffffffffffffffffffff60a01b821617600055167f8be0079c531659141344cd1fd0a4f28419497f9722a3daafe3b4186f6b6457e0600080a3005b604051631e4fbdf760e01b815260006004820152602490fd5b34610234576000366003190112610234576020600454604051908152f35b34610234576040366003190112610234576107e96128b8565b6107f16129b0565b906107fa612aa2565b60018060a01b0316600052600760205260406000209060ff801983541691151516179055600080f35b346102345760403660031901126102345761089261083f6128b8565b6024359033600052600760205260ff604060002054168015610897575b61086590612ace565b60018060a01b031660005260066020526007604060002001610888828254612b40565b9055600354612b40565b600355005b506000546001600160a01b0316331461085c565b34610234576080366003190112610234576108c46128b8565b67ffffffffffffffff604435818111610234576108e5903690600401612a15565b6064359283116102345761095e61090f600080516020612d2f833981519152943690600401612a15565b33600052600760205260ff604060002054168015610975575b61093190612ace565b6109506040519586956024358752608060208801526080870191612cfc565b918483036040860152612cfc565b4260608301526001600160a01b03909416930390a2005b506000546001600160a01b03163314610928565b34610234576000366003190112610234576020600154604051908152f35b34610234576020366003190112610234576109ea6109c36128b8565b33600052600760205260ff6040600020541680156109ec575b6109e590612ace565b612b89565b005b506000546001600160a01b031633146109dc565b346102345760c036600319011261023457610a196128b8565b60643560843560a4359283151584036102345733600052600760205260ff604060002054168015610af9575b610a4e90612ace565b60018060a01b0316928360005260066020526003604060002001610a756024358254612b40565b90558360005260066020526004604060002001610a956044358254612b40565b905580610aee575b15610ad157610ac26104eb916109ea946000526006602052603e604060002001612b6c565b91909283548360031b1c612b40565b509060005260066020526104946005604060002001918254612b40565b506009811115610a9d565b506000546001600160a01b03163314610a45565b3461023457604036600319011261023457610b266128b8565b6024359060018060a01b0380911660005260096020526040600020805483101561023457602092610b56916129e7565b9190546040519260031b1c168152f35b34610234576080600080516020612d2f833981519152610b8536612986565b939091336000526020906007825260ff604060002054168015610c66575b610bac90612ace565b60018060a01b0316948560005260068252600a604060002001610bd0858254612b40565b9055600f8110610c35575b5084600052600681526003604060002001610bf7848254612b40565b9055604051928352820152600f60808201526e15da5b9b995c88149959995c9c985b608a1b60a082015260c060408201528061070560c08201612ce5565b610c50610c6091876000526006845283604060002001612b5c565b6104eb8683548360031b1c612b40565b85610bdb565b506000546001600160a01b03163314610ba3565b346102345760203660031901126102345733600052600760205260ff604060002054168015610cb5575b610cad90612ace565b600435600555005b506000546001600160a01b03163314610ca4565b3461023457608036600319011261023457610ce26128b8565b33600052600760205260ff604060002054168015610d36575b610d0490612ace565b6001600160a01b0316600090815260066020526040902060243560038201556044356004820155606435600590910155005b506000546001600160a01b03163314610cfb565b3461023457602036600319011261023457610d636128b8565b6000610420604051610d74816128ce565b8281528260208201528260408201528260608201528260808201528260a08201528260c08201528260e08201528261010082015282610120820152826101408201528261016082015282610180820152826101a0820152826101c0820152826101e082015282610200820152604051610dec81612907565b6101e0368237610220820152604051610e0481612907565b6101e0368237610240820152604051610e1c81612907565b6101e0368237610260820152604051610e3481612924565b610140368237610280820152826102a0820152826102c0820152826102e08201528261030082015282610320820152826103408201528261036082015282610380820152826103a0820152826103c0820152826103e082015282610400820152015260018060a01b03166000526006602052604060002060405190610eb8826128ce565b8054825260018101546001600160a01b03166020830152600281015460408301526003810154606083015260048101546080830152600581015460a0830152600681015460c0830152600781015460e083015260088101546101008301526009810154610120830152600a810154610140830152600b810154610160830152600c810154610180830152600d8101546101a0830152600e8101546101c0830152600f8101546101e08301526010810154610200830152610f7a60118201612b0b565b610220830152610f8c60208201612b0b565b610240830152610f9e602f8201612b0b565b610260830152604051603e82016000825b600a82106112ae578560ff60528787610fc781612924565b61028085015260488101546102a085015260498101546102c0850152604a8101546102e0850152604b810154610300850152604c810154610320850152604d810154610340850152604e81015461036085015282604f8201548181161515610380870152818160081c1615156103a087015260101c1615156103c085015260508101546103e085015260518101546104008501520154166104208201526040810151801515908161127d575b5080611267575b611253575b6040518151815260018060a01b03602083015116602082015260408201516040820152606082015160608201526080820151608082015260a082015160a082015260c082015160c082015260e082015160e08201526101008201516101008201526101208201516101208201526101408201516101408201526101608201516101608201526101808201516101808201526101a08201516101a08201526101c08201516101c08201526101e08201516101e08201526102008201516102008201526111546102208301516102208301906129bf565b6111686102408301516104008301906129bf565b61117c6102608301516105e08301906129bf565b61028082015160006107c083015b600a821061123d57610aa08460ff610420886102a08101516109008501526102c08101516109208501526102e08101516109408501526103008101516109608501526103208101516109808501526103408101516109a08501526103608101516109c085015261038081015115156109e08501526103a08101511515610a008501526103c08101511515610a208501526103e0810151610a40850152610400810151610a60850152015116610a80820152f35b602080600192855181520193019101909161118a565b6000608082015260006103a082015261107f565b50678ac7230489e800006101008201511061107a565b905062278d00810181116112985762278d0001421182611073565b634e487b7160e01b600052601160045260246000fd5b6001602081928554815201930191019091610faf565b34610234576040366003190112610234576112dd6128b8565b33600052600760205260ff604060002054168015611324575b6112ff90612ace565b60018060a01b0316600052600660205260486040600020016104946024358254612b40565b506000546001600160a01b031633146112f6565b34610234576113d2600080516020612d2f83398151915261135836612986565b93909133600052600760205260ff604060002054168015611435575b61137d90612ace565b60018060a01b0381169485600052600660205260096040600020016113a3858254612b40565b9055600f8110611412575b5084600052600660205260036040600020016113cb848254612b40565b9055612b89565b60405190815260806020820152600f60808201526e111a5c9958dd08149959995c9c985b608a1b60a082015260c060408201528061070560c08201612ce5565b610c5061142f918760005260066020526011604060002001612b5c565b856113ae565b506000546001600160a01b03163314611374565b34610234576000366003190112610234576020600354604051908152f35b34610234576040366003190112610234576114806128b8565b600080516020612d2f8339815191526024359133600052600760205260ff604060002054168015611536575b6114b590612ace565b60018060a01b031691826000526006602052600e6040600020016114da828254612b40565b905582600052600660205260036040600020016114f8828254612b40565b905560405190815260806020820152600b60808201526a436c756220496e636f6d6560a81b60a082015260c060408201528061070560c08201612ce5565b506000546001600160a01b031633146114ac565b34610234576000366003190112610234576000546040516001600160a01b039091168152602090f35b346102345760403660031901126102345761158c6128b8565b6024359033600052600760205260ff6040600020541680156115f6575b6115b290612ace565b6001600160a01b0316600081815260066020526040902060100180546115d9908490612b40565b90556000526006602052610494600f604060002001918254612b40565b506000546001600160a01b031633146115a9565b34610234576040366003190112610234576116236128b8565b600080516020612d2f8339815191526024359133600052600760205260ff6040600020541680156116db575b61165890612ace565b60018060a01b031691826000526006602052600d60406000200161167d828254612b40565b9055826000526006602052600360406000200161169b828254612b40565b905560405190815260806020820152600d60808201526c131bdcdcc8149959995c9c985b609a1b60a082015260c060408201528061070560c08201612ce5565b506000546001600160a01b0316331461164f565b34610234576000366003190112610234576020604051620186a08152f35b3461023457600036600319011261023457602060405162278d008152f35b34610234576020366003190112610234576117446128b8565b33600052600760205260ff604060002054168015611786575b61176690612ace565b6001600160a01b0316600090815260066020526040902042600290910155005b506000546001600160a01b0316331461175d565b34610234576000366003190112610234576117b3612aa2565b600080546001600160a01b0319811682556001600160a01b03167f8be0079c531659141344cd1fd0a4f28419497f9722a3daafe3b4186f6b6457e08280a3005b346102345760403660031901126102345761180c6128b8565b600080516020612d2f8339815191526101006024359233600052600760205260ff6040600020541680156118d8575b61184490612ace565b60018060a01b031692836000526006602052600c604060002001611869828254612b40565b90558360005260066020526005604060002001611887828254612b40565b905560405190815260806020820152600e60808201526d4461696c7920436173686261636b60901b60a082015260c06040820152600460c08201526347616d6560e01b60e0820152426060820152a2005b506000546001600160a01b0316331461183b565b34610234576060366003190112610234576119056128b8565b602435906001600160a01b03821682036102345733600052600760205260ff604060002054168015611e85575b61193b90612ace565b6001600160a01b0381166000908152600660205260409020604f015460ff16611e4b57611969600454612b4d565b9081600455611979600154612b4d565b60019081556001600160a01b03828116600090815260066020526040812094855584830180546001600160a01b031916928716929092179091556004549491939060605b8580611e41575b15611b725750604051906119d7826128eb565b60058252602036818401376040514260208201526bffffffffffffffffffffffff198660601b1660408201528760548201526074828183015281528060a081011067ffffffffffffffff60a083011117611b5c5760a08101604052602081519101206000905b60058210611acd57505060405191611a8260208401916254524b60e81b8352848151611a728160239460208686019101612963565b8101036003810186520184612941565b82611a9560405192839251928391612963565b600b9082019081528190036020019020546001600160a01b031615611ac4575b611abe90612b4d565b906119bd565b60009550611ab5565b60405180606081011067ffffffffffffffff606083011117611b5c57611b5691816060602493016040528281527f303132333435363738394142434445464748494a4b4c4d4e4f505152535455566020820152632bac2cad60e11b6040820152611b3f60ff60f81b9184840690612d1d565b511660001a611b4e8588612d1d565b530491612b4d565b90611a3d565b634e487b7160e01b600052604160045260246000fd5b905084611dfc576001600160a01b0384166000908152600a60205260409020815167ffffffffffffffff8111611b5c57611bac8254612a43565b601f8111611db4575b506020601f8211600114611d48579181611bfc9492602094600091611d3d575b508160011b916000199060031b1c19161790555b8160405193828580945193849201612963565b600b9082019081520301902080546001600160a01b03199081166001600160a01b03868116918217909355426002850155604f8401805461ffff19166101011790556044356004948501559254600090815260086020526040902080549091169092179091558116611cb2575b60045460405181815260209391926001600160a01b039081169216907f05345a91f639184e946e5aac384b1e9f74ae9ab08d775a7deddb3180cebecb23908590a3604051908152f35b6001600160a01b03811660009081526006602052604090206050018054611cd890612b4d565b90556001600160a01b03811660009081526009602052604090208054929068010000000000000000841015611b5c5783611d199160016020960181556129e7565b81546001600160a01b0384811660039390931b92831b921b19161790559150611c69565b905083015189611bd5565b601f198216908360005260206000209160005b818110611d9c5750926020949260019282611bfc989610611d83575b5050811b019055611be9565b85015160001960f88460031b161c191690558980611d77565b9192602060018192868a015181550194019201611d5b565b826000526020600020601f830160051c81019160208410611df2575b601f0160051c01905b818110611de65750611bb5565b60008155600101611dd9565b9091508190611dd0565b60405162461bcd60e51b815260206004820152601e60248201527f4661696c656420746f2067656e657261746520756e6971756520636f646500006044820152606490fd5b50600582106119c4565b60405162461bcd60e51b8152602060048201526012602482015271105b1c9958591e481c9959da5cdd195c995960721b6044820152606490fd5b506000546001600160a01b03163314611932565b346102345760a036600319011261023457611eb26128b8565b611eba6129b0565b604435916084359160643591831515840361023457336000526020906007825260ff6040600020541680156120b7575b611ef390612ace565b60018060a01b0316928360005260068252604060002095620151804204604e8801818154106120a1575b50508061204c575b5080611f43575b50505050611f3657005b604b016104948154612b4d565b611fe3600080516020612d2f83398151915293604a8801611f65848254612b40565b9055801561202657604051611f79816128eb565b60098152684d61696e2f47616d6560b81b85820152905b15611ff557611fd5604051611fa4816128eb565b600d81526c21b0b9b41023b0b6b2902bb4b760991b868201525b608060405196879687528601526080850190612a7d565b908382036040850152612a7d565b4260608301520390a282808080611f2c565b611fd5604051612004816128eb565b6011815270283930b1ba34b1b29023b0b6b2902bb4b760791b86820152611fbe565b604051612032816128eb565b6008815267507261637469636560c01b8582015290611f90565b6049870161205b828254612b40565b9055831561207b5750604d86016120728154612b4d565b90555b86611f25565b604c87016120898154612b4d565b905561209a60048801918254612b7c565b9055612075565b6000604c8a01556000604d8a0155558780611f1d565b506000546001600160a01b03163314611eea565b3461023457602080600319360112610234576120e56128b8565b90336000526007815260ff604060002054168015612316575b61210790612ace565b6001600160a01b03918216600081815260068084526040822060019081015492959094909392841692855b61213857005b606487108061230b575b156109ea57866122975784678ac7230489e80000945b16806000528383526004604060002001612173868254612b40565b905580600052838352600b60406000200161218f868254612b40565b9055600f8810612267575b8688019485891161129857600080516020612d2f833981519152829184837f97292f5ed41621fee094b35414ac210efbac1fb83e68fdaa18bdd86c44d4642d60408d9b8151908682528b820152a360405190815260116080808884015282015270141c9858dd1a58d948149959995c9c985b607a1b60a08201528061223e60c080604084015282016040906008815267507261637469636560c01b60208201520190565b4260608301520390a26000528282526122608585604060002001541697612b4d565b9693612132565b8060005283835261229261228289602f604060002001612b5c565b6104eb8883548360031b1c612b40565b61219a565b60058710156122b05784671bc16d674ec8000094612158565b600a8710156122c95784670de0b6b3a764000094612158565b600f8710156122e257846706f05b59d3b2000094612158565b60328710156122fb57846703782dace9d9000094612158565b8467016345785d8a000094612158565b508484161515612142565b506000546001600160a01b031633146120fe565b34610234576000366003190112610234576020600254604051908152f35b3461023457600080516020612d2f83398151915261236536612986565b929133600052600760205260ff604060002054168015612469575b61238990612ace565b60018060a01b031692836000526006602052600b6040600020016123ae838254612b40565b9055600f8110612436575b5082600052600660205260046040600020016123d6828254612b40565b9055604051908152608060208201526016608082015275141c9858dd1a58d94811d85b5948149959995c9c985b60521b60a082015260c060408201528061070560c082016040906008815267507261637469636560c01b60208201520190565b61245361246391856000526006602052602f604060002001612b5c565b6104eb8483548360031b1c612b40565b836123b9565b506000546001600160a01b03163314612380565b34610234576000366003190112610234576020600554604051908152f35b34610234576040366003190112610234576124b46128b8565b60243533600052600760205260ff6040600020541680156125cf575b6124d990612ace565b60018060a01b03908183166000526006602052604060002091600883019161254b83549161251d8160055485109460068901612516838254612b40565b9055612b40565b8555604f86016201000062ff00001982541617905560058601612541828254612b40565b9055600254612b40565b600255806125c2575b806125b3575b61258b575b50546005541115908161257d575b5061257457005b6109ea90612b89565b60049150015415158261256d565b600183015416600052600660205260516040600020016125ab8154612b4d565b90558361255f565b5080600184015416151561255a565b5081546005541115612554565b506000546001600160a01b031633146124d0565b34610234576040366003190112610234576125fc6128b8565b6024359060ff82168092036102345733600052600760205260ff604060002054168015612695575b61262d90612ace565b6001821161265c576001600160a01b03166000908152600660205260409020605201805460ff19169091179055005b60405162461bcd60e51b8152602060048201526011602482015270496e76616c69642064726177207479706560781b6044820152606490fd5b506000546001600160a01b03163314612624565b3461023457600036600319011261023457602060405168056bc75e2d631000008152f35b34610234576020366003190112610234576004356000526008602052602060018060a01b0360406000205416604051908152f35b34610234576020366003190112610234576001600160a01b036127226128b8565b16600052600c6020526020604060002054604051908152f35b34610234576020806003193601126102345760043567ffffffffffffffff8082116102345736602383011215610234578160040135908111611b5c576040519061278e601f8201601f1916850183612941565b808252838201923660248383010111610234578160009260248793018637830101526127c260405192839251928391612963565b600b90820190815281900382019020546040516001600160a01b039091168152f35b34610234576040366003190112610234576127fd6128b8565b6024359033600052600760205260ff6040600020541680156128a4575b61282390612ace565b6001600160a01b0316600081815260066020526040902060100154821161285f5760005260066020526104946010604060002001918254612b7c565b60405162461bcd60e51b815260206004820152601960248201527f496e73756666696369656e74206c75636b792077616c6c6574000000000000006044820152606490fd5b506000546001600160a01b0316331461281a565b600435906001600160a01b038216820361023457565b610440810190811067ffffffffffffffff821117611b5c57604052565b6040810190811067ffffffffffffffff821117611b5c57604052565b6101e0810190811067ffffffffffffffff821117611b5c57604052565b610140810190811067ffffffffffffffff821117611b5c57604052565b90601f8019910116810190811067ffffffffffffffff821117611b5c57604052565b60005b8381106129765750506000910152565b8181015183820152602001612966565b6060906003190112610234576004356001600160a01b038116810361023457906024359060443590565b60243590811515820361023457565b6000915b600f83106129d057505050565b6001908251815260208091019201920191906129c3565b80548210156129ff5760005260206000200190600090565b634e487b7160e01b600052603260045260246000fd5b9181601f840112156102345782359167ffffffffffffffff8311610234576020838186019501011161023457565b90600182811c92168015612a73575b6020831014612a5d57565b634e487b7160e01b600052602260045260246000fd5b91607f1691612a52565b90602091612a9681518092818552858086019101612963565b601f01601f1916010190565b6000546001600160a01b03163303612ab657565b60405163118cdaa760e01b8152336004820152602490fd5b15612ad557565b60405162461bcd60e51b815260206004820152600e60248201526d139bdd08185d5d1a1bdc9a5e995960921b6044820152606490fd5b60405191906000835b600f8210612b2a57505050612b2882612907565b565b6001602081928554815201930191019091612b14565b9190820180921161129857565b60001981146112985760010190565b600f8210156129ff570190600090565b600a8210156129ff570190600090565b9190820391821161129857565b6001600160a01b0316600081815260066020526040908190206008810154600554111580612cd8575b612bbb57505050565b602f810154600c6020528260002054808211612bd9575b5050505050565b612be291612b7c565b60048201805493848311612cd0575b82612bfd575b50612bd2565b60056101009460c093612c1f86600080516020612d2f83398151915299612b7c565b905501612c2d848254612b40565b905585600052600c60205280600020612c47848254612b40565b9055857fe77d13a50f3f7e7d4b37e160120957f51b0806b1b7f18967dd41a73786237104828051868152426020820152a28051928352608060208401526013608084015272283930b1ba34b1b29021b7b73b32b939b4b7b760691b60a0840152820152600460c082015263086c2e6d60e31b60e0820152426060820152a2388080808080612bf7565b849250612bf1565b5060048101541515612bb2565b600481526326b0b4b760e11b602082015260400190565b908060209392818452848401376000828201840152601f01601f1916010190565b9081518110156129ff57016020019056fe6899b2dc402c62c1e6e8f0d7d509af4a03ee6b79141f99e3af2463a6e0dbed83a264697066735822122000937dc7103a828a682a205a7bf28ec84b0dbab8b5691b4e6a7fc9b45f1c43fa64736f6c63430008140033",
  "linkReferences": {},
  "deployedLinkReferences": {}
}